:020000040800F2
:1000000088FC012019500008D5040008D704000816
:10001000DB040008DF040008E3040008000000001F
:10002000000000000000000000000000E7040008DD
:10003000E90400080000000075680008EB040008EF
:100040003350000833500008335000083350000884
:100050003350000833500008FB04000833500008F8
:100060003350000833500008335000083350000864
:100070003350000833500008335000083350000854
:100080003350000833500008335000083350000844
:100090003350000833500008335000083350000834
:1000A0003350000833500008335000083350000824
:1000B0003350000833500008335000083350000814
:1000C0003350000833500008335000083350000804
:1000D000335000082D0D000833500008335000083D
:1000E00033500008335000083350000833500008E4
:1000F00033500008335000083350000833500008D4
:1001000033500008335000083350000833500008C3
:1001100033500008335000083350000833500008B3
:1001200033500008335000083350000833500008A3
:100130003350000833500008335000083350000893
:100140003350000833500008335000083350000883
:100150003350000833500008335000083350000873
:100160003350000833500008335000083350000863
:100170003350000833500008335000083350000853
:10018000335000083350000800F002F800F0B4F8D3
:100190000AA090E8000C82448344AAF10107DA45E2
:1001A00001D100F0A9F8AFF2090EBAE80F0013F080
:1001B000010F18BFFB1A43F001031847CCC90B000D
:1001C000ECC90B000A444FF0000C10F8013B13F08F
:1001D000070408BF10F8014B1D1108BF10F8015BA0
:1001E000641E05D010F8016B641E01F8016BF9D193
:1001F00013F0080F1EBF10F8014BAD1C0C1B09D1EA
:100200006D1E58BF01F801CBFAD505E014F8016B5B
:1002100001F8016B6D1EF9D59142D6D370470000ED
:100220000023002400250026103A28BF78C1FBD8FF
:10023000520728BF30C148BF0B6070476E290DF0D0
:10024000168270290DF0578366292DF0A683652943
:100250002DF0A38367292DF0A0836129AFF30080DF
:1002600003681B0A28BF41F0800169290CF05486FD
:1002700064290CF0518675290CF04E866F290DF01B
:10028000E58278290DF02383E9290DF08182E429A4
:100290000DF07E82F5290DF07B82EF290DF0E282D0
:1002A000F8290DF022830368DB0928BF41F08001A3
:1002B00063290DF0C78573290DF0CC85E3290DF076
:1002C000D785F3290DF0DC85002070471FB52DF090
:1002D0005AFB0CF034FF0DF029FE04000020002131
:1002E0002CF014FD401C6060002000212CF0F8FC74
:1002F000E0601FBD10B510BD0DF0EAFD1146FFF71F
:10030000E5FF00F06BF80DF0C1FE03B4FFF7F2FF5C
:1003100003BC0DF0C3FE00000B49D1F800C04A68D1
:100320005CF8043B1068184442F8040B8C4528BF65
:10033000A1F1DC0C8A4228BFA1F1DC02C1F800C0A7
:100340004A6020F00040704720BA012030B53148A3
:100350000068C822B0FBF2F1481EB0F1807F00D3E4
:100360001BE0481E4FF0E022506150170F2200287A
:1003700007DA13071D0E284B00F00F04241F1D552C
:1003800003E013071C0E254B1C5400BF00204FF048
:10039000E02290610720106100BF30BD70B50546B6
:1003A000FFF7D4FF4FF4E13000F084FC00F02CFDA7
:1003B00000F08EFD04F0D9FD00F036FB00F095FB57
:1003C00000F057FA00F030FC00F0ADF800F08DF9C5
:1003D00007F041FD044607F006FC70BD00B585B08E
:1003E00004F0A8FE06F050FE0120AFF24F01020219
:1003F0000B4BCDE90132CDE9031000200123024669
:1004000008A100900A4807F029F906F066FE0020CE
:1004100005B000BD6000002018ED00E000E400E041
:100420000C120020496E69745F5461736B00000008
:100430000C160020F0B50C46134605462646102B38
:100440001BD304F00307C7B900F00307AFB929466F
:10045000324608E080CA80C180CA80C180CA80C19B
:1004600080CA80C1103B102BF4D202E080CA80C148
:100470001B1F042BFAD20D46164603E016F8017B2B
:1004800005F8017B1F00A3F10103F7D1F0BDF0B522
:100490000C460546042A15D300F0030696B901461A
:1004A00044EA042343EA034304E008C108C108C145
:1004B00008C1103A102AF8D201E008C1121F042A1C
:1004C000FBD20D4601E005F8014B1600A2F1010236
:1004D000F9D1F0BD704700BFFEE700BFFEE700BFE7
:1004E000FEE700BFFEE77047704710B507F00CF855
:1004F00006F0FFFF06F0CAFF10BD704710B50446B6
:1005000015F074F8012010BD05E0012000F0C4FCD6
:10051000142007F097F9F8E704E008F099FE0A20A4
:1005200007F090F9F9E770B586B00121080305F0EE
:1005300033FD13F0DFFC284814F092FE4FF47F00E7
:1005400014F070FE12F062FC17F060FA064600EB41
:10055000D670451017F066FA064600EBD6704410C8
:10056000A4F1280229461DA012F0D2FE22462946F7
:100570001EA012F0CDFE012002210A220023CDE9A7
:1005800000210290AFF28B021CA11F4807F0E6FD8C
:100590000120AFF28B0102021C4BCDE90132CDE903
:1005A000031000200A23024619A100901B4807F0FF
:1005B00055F80120AFF29F01C202194BCDE901327B
:1005C000CDE9031000200923024616A10090194826
:1005D00007F044F806B070BD58930B0848656C6C82
:1005E0006F205241572D4F532021000048656C6CFD
:1005F0006F205354656D57696E202100546F7563E9
:10060000685F54696D657200143B00206416002019
:100610006775695F7461736B00000000641A0020E5
:10062000BC1A00206775695F64656D6F5F746173E4
:100630006B000000BC3A002010B50D2000F08AFBD2
:100640000A2000F087FB10BD08B532A64CE000245C
:10065000304600F094FB2BE0684600F05BFB9DF811
:1006600000000D2803D100202C49085521E09DF8F9
:100670000000082810D1002C1ADD601EC4B2002032
:1006800026490855082000F065FB202000F062FB99
:10069000082000F05FFB0BE09DF8000042B220460E
:1006A000611CCCB21D490A549DF8000000F052FBB9
:1006B000D2E700BFFFF7C0FF18480078A0B14FF4A1
:1006C000806200211648FFF7E2FE00BF4FF480620F
:1006D0001349124807F064FEC5B2114800F04FFB01
:1006E000FFF7AAFF002DF1D0B1E700B585B00120DA
:1006F000AFF2AB0102020B4BCDE90132CDE90310A1
:1007000000201123024608A100900A4806F0A6FF27
:1007100005B000BD7261772D6F732300983F0020F4
:1007200098400020403B00205368656C6C20546169
:10073000736B0000403F0020F0B587B005460F46C0
:100740001446002004900590069003AA012120463B
:1007500007F0B7FE0646314604A8039AFFF76AFE83
:10076000002004A9039A885402A904A800F0F2F812
:1007700003AA0221204607F0A4FE0646314604A83B
:10078000039AFFF757FE002004A9039A885401A991
:1007900004A800F0DFF80298012802D0022826D130
:1007A00011E0019820B1012806D100F060FB08E0BB
:1007B000012000F047FB04E037A1284607F023FFA3
:1007C00000BF00BF18E0019810B1012808D103E074
:1007D000022000F037FB08E0022000F048FB04E0B4
:1007E0002DA1284607F00FFF00BF00BF04E030A195
:1007F000284607F008FF00BF00BF012007B0F0BD8A
:100800000BE0012000F048FB322007F01BF802202B
:1008100000F042FB322007F015F8F2E770B586B021
:1008200004460D4616460120AFF22B018022264BCE
:10083000CDE90132CDE9031000201023024623A1A7
:100840000090254806F00AFF012006B070BD70B583
:1008500004460D461646204807F0C8F8012070BD32
:1008600070B504460D4616461B4807F031F90120C5
:1008700070BD10B519491A4807F064FD19491A48A6
:1008800007F060FD19491A4807F05CFD19491A483C
:1008900007F058FD10BD000070617261322069736D
:1008A000206572726F722830206F72203129090022
:1008B0007061726131206973206572726F722831C4
:1008C0002C32290900000000984400204C45445F68
:1008D0005461736B00000000984600200000002067
:1008E000A0D9020808000020B0D90208100000209A
:1008F000C0D9020818000020D0D90208F0B503467C
:100900001446002000220DE0B3FBF4F604FB16367B
:10091000184F17F806C00646471CF8B201F806C083
:10092000B3FBF4F3002BEFD100260E5400B90E7088
:10093000002209E08D5C861A761E8E5D8E54861A22
:10094000761E8D55561CF2B200EBD077B2EB670FD6
:10095000F0DBF0BD10B5002207E010F8014B02EB10
:10096000820304EB4303A3F130020378002BF4D19C
:100970000A6010BD200000207CB504460D461646D6
:100980000020009001902FA1204607F03CFE31206E
:100990008DF800002E208DF8010030208DF8020027
:1009A00035208DF8030036208DF8040000208DF8E6
:1009B00005006946204607F026FE01207CBDFEB5F5
:1009C00005460E4617462448006800902248001F3E
:1009D0000068019020480838006802901E480A30DC
:1009E00004881EA0009900F0E4F921A0019900F00C
:1009F000E0F921A0029900F0DCF9214620A000F0E6
:100A0000D8F90120FEBD00BFBFF34F8F2148006819
:100A100000F4E06020490843001D1E490860BFF350
:100A20004F8F00BF00BFFEE710B51C491C4807F000
:100A300089FC1C491C4807F085FC1C491C4807F030
:100A400081FC10BD5241572D4F532056657273697A
:100A50006F6E3A2000000000187AFF1F636869700B
:100A60002069643A20202020305825303858200052
:100A7000253038582000000025303858200D0A0055
:100A8000466C6173682053697A653A202564204B6F
:100A9000420D0A000CED00E00000FA0530000020D5
:100AA000E0D9020838000020F0D9020840000020F8
:100AB00000DA02082DE9F8430746884691460E48B9
:100AC00004680CE02668A4F120056946284606F073
:100AD00060FEE96C09A0009A00F06BF93446064804
:100AE0008442EFD10120BDE8F88310B510491148C8
:100AF00007F028FC10BD0000C00000207461736B7B
:100B0000206E616D652069732025313573202A2A96
:100B10002A207461736B206672656520737461634B
:100B20006B2073697A652069732025640D0A0000C3
:100B30004800002010DA0208014606E0002000E02C
:100B4000401C42F210729042FAD30A00A1F1010156
:100B5000F4D170477CB504460D46164600F0ADFE54
:100B60004FF47A70FFF7E8FF4FF6E07000F07BFD7E
:100B70004FF47A70FFF7E0FF4FF4784000F073FD18
:100B80004FF47A70FFF7D8FF1F2000F06CFD4FF490
:100B90007A70FFF7D1FF4FF4FC6000F064FD4FF472
:100BA0007A70FFF7C9FF002000F05DFD4FF47A7006
:100BB000FFF7C2FF4FF6FF7000F055FD4FF47A705B
:100BC000FFF7BAFF4FF2DE7000F04DFD4FF47A7080
:100BD000FFF7B2FF40F21F5000F045FD4FF47A706E
:100BE000FFF7AAFF4FF61F0000F03DFD4FF47840DD
:100BF00064231A4614210090084603F07FFE4FF646
:100C0000E0706423DC2214210090782003F026FF9A
:100C100008A010210B46C822CDE90010B4211420F1
:100C200004F021F801207CBD10B50849084807F000
:100C300089FB10BD48656C6C6F205468697320692E
:100C400073204C434420546573740000500000200E
:100C500020DA02081CB50121084605F09DF907229B
:100C60000921634804F085FF07220A21604804F047
:100C700080FF4FF4C060009002208DF804008DF8D2
:100C8000050069465A4804F0E9FE1CBD08B54FF45A
:100C9000407004F0E9FA25208DF8000000208DF85E
:100CA00001008DF8020001208DF80300684604F071
:100CB000E0FA08BD1FB50446FFF7CCFF0121102064
:100CC00005F0C4F900940020ADF80400ADF806006A
:100CD000ADF80800ADF80C000C20ADF80A0069462C
:100CE000444805F000FB40F22771424805F06BFCD8
:100CF000012240F225513F4805F033FCFFF7C6FFC3
:100D000001213C4805F077FB00223BA13D4806F05D
:100D100067FA1FBD10B504464FF0FF31394806F0A1
:100D200001FB344805F096FB207010BD10B506F0AD
:100D3000EBFB40F225512F4805F04EFC38B140F254
:100D400025512C4805F083FC2E4806F0AAFA06F03F
:100D50009DFB10BD10B5044600BF4021254805F09D
:100D600025FC0028F9D02146224805F06FFB00BF82
:100D70004021204805F01AFC0028F9D010BD10B51C
:100D8000044600BF40211B4805F010FC0028F9D0A4
:100D90000BE014F8011B174805F058FB00BF402179
:100DA000144805F003FC0028F9D020780028F0D181
:100DB00010BD0FB400B5ADF5017D83A880906846E5
:100DC000809A82990CF080F8002080906846FFF7A6
:100DD000D6FF0DF5017D5DF814FB00BF054A1288B2
:100DE00002F04002002AF9D0C2B2024B9A8070474A
:100DF00000000240001001405553415254315F53EE
:100E0000454D0000F04600201CB50121202005F0D2
:100E1000C3F84FF4C060009001208DF8040000205A
:100E20008DF8060001208DF8070002208DF80500DE
:100E30006946264804F012FE4FF4C061234804F0CE
:100E400089FE1CBD10B50446012C02D0022C0CD129
:100E500005E04FF400711D4804F07CFE05E04FF4FE
:100E600080611A4804F076FE00BF00BF10BD10B5C7
:100E70000446012C02D0022C0CD105E04FF4007185
:100E8000124804F069FE05E04FF480610F4804F059
:100E900063FE00BF00BF10BD012802D0022812D19E
:100EA00008E00A491431096881F40071074A1432D4
:100EB000116008E005491431096881F48061034A32
:100EC0001432116000BF00BF7047000000140240E0
:100ED0001CB50121084605F05FF80121102005F03E
:100EE0005BF80121880305F0B1F801200090002093
:100EF0008DF804008DF8070069461D4804F0AEFD2A
:100F00001C20009000208DF8040001208DF80700BF
:100F10006946184804F0A2FD1CBD10B504461648E9
:100F2000006870B10421134804F0FAFD082111484B
:100F300004F0F6FD10210F4804F0F2FD00200E49E8
:100F400008600D48006888B904210A4804F0E8FDEB
:100F500048B10821074804F0E3FD20B110210548FD
:100F600004F0DEFD10B9012003490860002010BD27
:100F7000000002400010024058000020014606E038
:100F8000002000E0401C42F210729042FAD30A00A6
:100F9000A1F10101F4D17047FE4A10804FF0D84210
:100FA000A2F88010704710B50446FA48048001206A
:100FB000FFF7E4FF4FF0D840B0F8800010BD00B557
:100FC000F548808849F2413188420BD0F248808848
:100FD00046F60401884205D0EF48808845F210317A
:100FE000884203D12920EB4908800FE0EA48808835
:100FF00045F21051884204D14FF42450E54908804D
:1010000004E040F273110720FFF7C6FF00BD00B5F2
:10101000E148808849F2413188420BD0DE4880881F
:1010200046F60401884205D0DB48808845F210313D
:10103000884203D12820D74908800EE0D64880880E
:1010400045F21051884204D14FF42050D149088014
:1010500003E000210720FFF79FFF00BD2DE9F041CD
:10106000044600239846CC48807901281ED1CA48FE
:10107000808846F60401884218D0082C15D2DFE893
:1010800004F00406080A0C0E101206240DE00724D2
:101090000BE0042409E0052407E0012405E0002416
:1010A00003E0032401E0022400BF00BFBA488088A7
:1010B00049F24131884211D0B748808846F6040190
:1010C00088420BD0B448808845F21031884205D060
:1010D000B148808845F21051884274D1082C1CD246
:1010E000DFE804F00406090C0F12151800BF14E025
:1010F00043F0800311E043F040030EE043F0C003EF
:101100000BE043F0200308E043F0600305E043F008
:10111000A00302E043F0E00300BF00BF9E488088C8
:1011200045F21051884202D14FF4585801E04FF077
:1011300036089948808845F21031884207D0964891
:10114000808845F21051884201D043F0080392484C
:10115000808846F60401884201D143F00203194613
:101160004046FFF719FF03F0200018B98A4880793C
:1011700001280DD18848008887494988884214DAB7
:1011800085480788408884490880084647800CE0E5
:101190008148008880494988884206DD7E48078862
:1011A00040887D490880084647807B48807901282F
:1011B0000AD17948808846F60401884204D07648EE
:1011C0004588068803E081E07348058846887248B0
:1011D000808845F2105188424CD16F4840896D4952
:1011E000088000204FF0D841A1F880006A4840896B
:1011F000401C6849088000204FF0D841A1F88000C9
:1012000065484089801CA1F87E00681EC0F30F204D
:10121000A1F8800060484089C01CA1F87E00681ECB
:10122000C0B2A1F880005C4880895A49088000203B
:101230004FF0D841A1F8800057488089401C55499B
:10124000088000204FF0D841A1F8800052488089E2
:10125000801CA1F87E00701EC0F30F20A1F8800052
:101260004D488089C01CA1F87E00701EC0B2A1F854
:1012700080005FE0484840894649088000204FF0E0
:10128000D841A1F880004349891C0880681EC0F33A
:101290000F204FF0D841A1F88000681EC0B2A1F81D
:1012A00080003D4880893B4908800020891C0880D7
:1012B0004FF0D841A1F88000701EC0F30F20A1F8B4
:1012C0008000701EC0B2A1F8800033E0082C1CD250
:1012D000DFE804F004070A0D0F12151843F030037D
:1012E00013E043F0100310E043F020030DE000BFD3
:1012F0000BE043F0380308E043F0280305E043F037
:10130000180302E043F0080300BF00BF22488088B2
:1013100048F68911884205D14FF0110846F2400085
:10132000034303E04FF0030843F48053194640465B
:10133000FFF732FEBDE8F08110B50446002C58D10D
:1013400015498871F02008804FF4A0704880084645
:10135000808849F2413188420BD00F48808846F698
:101360000401884205D00C48808845F2103188423B
:1013700020D12C20084908812A2048812B208881EF
:101380000846808846F6040188420BD002488088CF
:1013900004E000007E00006C0847002045F2103198
:1013A000884206D14FF4A070FE4908804FF4F070D7
:1013B000488079E0FB48808845F21051884210D17E
:1013C0004FF43050F74908814FF4285048814FF4CA
:1013D0002C5088814FF4F07008804FF4487048809A
:1013E00062E02220EF490881202048812120888165
:1013F0005AE00120EB4988714FF4A0700880F0207A
:1014000048800846808849F24131884205D0E54845
:10141000808845F21031884207D12C20E1490881AB
:101420002A2048812B2088812BE0DE48808846F6E0
:101430000401884207D12C20DA4908812B204881F9
:101440002A2088811DE0D748808845F210518842C3
:1014500010D14FF43050D34908814FF428504881BF
:101460004FF42C5088814FF4487008804FF4F0708E
:10147000488006E02220CB49088121204881202095
:101480008881C848808846F60401884205D0C5484E
:10149000808845F21031884206D14FF4F070C1497E
:1014A00008804FF4A07048800020FFF7D7FD10BDE2
:1014B0002DE9FF5F04460D4616461F46A019401E43
:1014C00086B2E819401E87B2B648808849F2413199
:1014D00088420BD0B348808845F21031884205D04D
:1014E000B048808846F60401884224D1AD4840893E
:1014F000AD49088020124FF0D841A1F88000E0B239
:10150000A949891C088030120880F0B24FF0D841F8
:10151000A1F88000A3488089A34908802812891C6B
:101520000880E8B2088038120880F8B24FF0D8413D
:10153000A1F8800087E09B48808845F210518842DE
:101540004ED1984840899849088020124FF0D841E0
:10155000A1F8800093484089401C93490880E0B27C
:101560004FF0D841A1F880008E484089801C8E49F8
:10157000088030124FF0D841A1F880008948408996
:10158000C01C89490880F0B24FF0D841A1F8800012
:10159000844880898449088028124FF0D841A1F8F6
:1015A000800080488089401C7F490880E8B24FF065
:1015B000D841A1F880007B488089801C7A49088046
:1015C00038124FF0D841A1F8800076488089C01CBD
:1015D00075490880F8B24FF0D841A1F8800032E098
:1015E0007048807901280ED1A846B9466D48008818
:1015F000801B401E1FFA80FA6A480088001B401EAC
:101600001FFA80FB03E0A046B146AA46BB46502025
:1016100003905120029052200190532000904146A7
:101620000398FFF7B9FC49460298FFF7B5FC51460D
:101630000198FFF7B1FC59460098FFF7ADFC294629
:10164000204616F0D3FBBDE8FF9F70B505460E4659
:1016500014463146284616F0C9FB16F071FD524873
:10166000801C048070BD70B5044600264D48058876
:10167000408845434B48808846F60401884216D18D
:1016800048488079012812D10020464988712A20D3
:1016900048812B2088810021084616F0A7FB0120F5
:1016A000404988712B2048812A20888103E000214D
:1016B000084616F09BFB16F043FD002603E03A486F
:1016C000801C0480761CAE42F9D370BD10B5044670
:1016D0002CB14FF40041354804F03CFA04E04FF4DB
:1016E0000041324804F038FA10BD00B597B001212E
:1016F000084604F089FC0120019000200290092096
:10170000039000200490059006904FF080500790C1
:1017100006200890002009900A9010200B900020CD
:101720000C900D900E900F9010904FF480501190EF
:10173000002012901390149001A81590169008A8FC
:1017400003F01DFE0121062003F0C5FE17B000BD09
:101750001CB50121022004F01FFC4FF40040009052
:1017600001208DF8040000208DF8060001208DF87E
:10177000070003208DF8050069460C4804F06EF957
:101780004FF40041094804F0E7F90121782004F002
:1017900003FC4CF23370009002208DF8040003200B
:1017A00006E00000084700207E00006C00040240B4
:1017B0008DF8050000208DF806008DF807006946B9
:1017C000FE4804F04BF90C220021FC4804F0D1F94A
:1017D0000C220121F94804F0CCF90C220421F7482D
:1017E00004F0C7F90C220521F44804F0C2F90C22D8
:1017F0000821F24804F0BDF90C220921EF4804F059
:10180000B8F90C220A21ED4804F0B3F90C220E219C
:10181000EA4804F0AEF90C220F21E84804F0A9F9D7
:101820004FF6807000906946E54804F017F90C22E5
:101830000721E34804F09DF90C220821E04804F058
:1018400098F90C220921DE4804F093F90C220A21B0
:10185000DB4804F08EF90C220B21D94804F089F9F9
:101860000C221146D64804F084F90C220D21D448EC
:1018700004F07FF90C220E21D14804F07AF90C22F1
:101880000F21CF4804F075F94FF48050009069465D
:10189000CC4804F0E3F80C221146CA4804F069F978
:1018A0004FF4805000906946C74804F0D7F80C22E6
:1018B0001146C54804F05DF91CBD10B5FFF748FF9F
:1018C000FFF713FF01210020FFF766FB3220FFF72F
:1018D00055FB0020FFF767FBBC49888008468088DD
:1018E000FF280ADB084680884FF6FF71884204D043
:1018F000B6488088B0F5134F7ED1D320B449088014
:10190000881C0088B1498880B148801C0088888084
:10191000AF48801C00888880084680884FF6FF7199
:1019200001EA0020A9498880084680884FF0D84104
:10193000B1F880100843A54988800846808849F29C
:101940004131884258D0BF20A1490880881C0088B6
:101950009E4988809E48801C008888809C48801C06
:10196000008888809A48801C008888800846808883
:101970004FF6FF7101EA002094498880084680886C
:101980004FF0D841B1F8801008439049888008464C
:10199000808846F60401884256D0D4208C490880BD
:1019A000881C0088894988808948801C0088888034
:1019B0008748801C00888880084680884FF6FF7121
:1019C00001EA002081498880084680884FF0D8418C
:1019D000B1F8801008437D4988800846808845F228
:1019E0001031884230D04FF45A4079490880881C21
:1019F00000887649888000E026E04FF45B4081044F
:101A0000A1F87E007248801C0088704988800846D2
:101A100080884FF6FF7101EA00206C4988804FF4FE
:101A20005C404FF0D841A1F87E0068488088B1F84A
:101A3000801008436549888008468088B0F5004FCB
:101A400002D145F2105088806048808849F24131C7
:101A500088420BD05D48808845F21031884205D01D
:101A60005A48808845F2105188421DD15948006873
:101A700020F00F004FF02041C1F81C010846D0F8BB
:101A80001C0120F47060C1F81C010846D0F81C014C
:101A900040F00300C1F81C010846D0F81C0140F4D6
:101AA0000070C1F81C0128E04848808846F604010F
:101AB000884205D0454880884CF2055188421CD1A7
:101AC0004448006820F00F004FF02041C1F81C018D
:101AD0000846D0F81C0120F47060C1F81C010846CB
:101AE000D0F81C0140F00A00C1F81C010846D0F8EB
:101AF0001C0140F44060C1F81C013448808849F260
:101B00004131884268D1CF203149088000204FF010
:101B1000D841A1F88000641CC1202D49891C08808F
:101B200030200880ED20891E08806420891C0880F0
:101B3000032008801220088081200880E820891E68
:101B400008808520891C0880102008807A20088061
:101B5000CB20891E08803920891C08802C20088011
:101B6000002008803420088002200880F720891E89
:101B700008802020891C0880EA20891E0880002017
:101B8000891C08800880C020891E08801B20891CB1
:101B90000880C120891E08800120891C0880C5207A
:101BA000891E08803020891C08800880C720891E73
:101BB0000880B720891C088036200EE0000C024007
:101BC00000100240001402400018024008470020A4
:101BD0007E00006C1C0100A089E0891E088048205E
:101BE000891C08803A20891E08805520891C08809D
:101BF000B120891E08800020891C08801A200880D6
:101C0000B620891E08800A20891C0880A22008802E
:101C1000F220891E08800020891C08802620891E49
:101C200008800120891C0880E020891E08800F2080
:101C3000891C08802A200880282008800820088025
:101C40000E2008800820088054200880A9200880E1
:101C5000432008800A2008800F2008800020088088
:101C6000088008800880E120891E08800020891CE7
:101C70000880152008801720088007200880112080
:101C80000880062008802B200880562008803C20F1
:101C9000088005200880102008800F2008803F2041
:101CA000088008800F2008802B20891E08800020D3
:101CB000891C08800880012008803F2008802A2095
:101CC000891E08800020891C088008800880EF2079
:101CD000088011204FF0D841A1F87E004FF49660A3
:101CE000FFF74CF92920FE49088002F0FCBDFD48B1
:101CF000808846F6040188427ED11120F849088088
:101D00001420FFF73BF9D0204FF0D841A1F87E0016
:101D10000720F349891C0880422008801D20088084
:101D2000D120891E08800020891C08801A20088084
:101D300009200880D220891E08800120891C088083
:101D400022200880C020891E08801020891C08805D
:101D50003B20088000200880022008801120088095
:101D6000C520891E08800320891C0880C820891E80
:101D700008800020891C08802520088021200880F8
:101D800005200880002008800A200880652008803F
:101D90002520088077200880502008800F200880A8
:101DA00000200880F820891E08800120891C0880F6
:101DB000FE20891E08800020891C088002200880DF
:101DC0002020891E0880362008800820891C088071
:101DD0003A20891E08805520891C08802B20891EE6
:101DE00008800020891C08800880012008803F208E
:101DF00008802A20891E00E014E008800020891C49
:101E00000880088001200880DF204FF0D841A1F829
:101E100080007820FFF7B2F829204FF0D841A1F8D0
:101E20007E0062E7AF48808845F21031884240F07A
:101E30002C85ED20AA49088001204FF0D841A1F857
:101E40008000FE20A649891C0880EE20891E08809B
:101E5000DE20891C088021200880F120891E08804E
:101E60000120891C0880DF20891E08801020891C21
:101E70000880C420891E08808F20891C0880C62005
:101E8000891E08800020891C0880E22008800880C4
:101E90000880BF20891E0880AA20891C0880B020E5
:101EA000891E08800D20891C0880002008800D20D4
:101EB0000880002008801120088000200880192058
:101EC00008800020088021200880002008802D2024
:101ED0000880002008803D200880002008805D20C8
:101EE0000880002008805D20088000200880B12044
:101EF000891E08808020891C0880002008808B2093
:101F00000880002008809620088000200880B220E9
:101F1000891E08800020891C088008800220088013
:101F2000002008800320088000200880B320891E3C
:101F300008800020891C08800880088008800880AC
:101F40000880088008800880088008800880088051
:101F50000880088008800880088008800880088041
:101F6000088008800880B420891E08808B20891C86
:101F70000880002008809620088000200880A1208A
:101F8000088000200880B520891E08800220891C56
:101F9000088000200880032008800020088004209A
:101FA000088000200880B620891E08800020891C37
:101FB00008800880B720891E08800020891C0880BE
:101FC00008803F200880002008805E2008800020D4
:101FD000088064200880002008808C200880002071
:101FE0000880AC20088000200880DC2008800020C9
:101FF0000880702008800020088090200880002041
:102000000880EB20088000200880DC200880002069
:102010000880B820891E08800020891C088008805C
:10202000088008800880088008800880BA20891EFF
:10203000088024204FF0D841A1F8800000202849D2
:10204000891C08804FF0D841A1F880002449891CE0
:102050000880C120891E08802020891C088000205B
:1020600008805420088000200880FF20088000207D
:102070000880C220891E08800A20891C0880002050
:1020800008800420088000200880C320891E088062
:102090003C20891C0880002008803A20088000200D
:1020A0000880392008800020088037200880002020
:1020B00008803C200880002008803620088000200E
:1020C000088032200880002008802F20088000200F
:1020D00008802C200880002008802920088003E048
:1020E0007E00006C08470020002008802620088021
:1020F00000200880242008800020088024200880F8
:102100000020088023200880002008803C200880D0
:1021100000200880362008800020088032200880B7
:10212000002008802F200880002008802C200880B4
:1021300000200880292008800020088026200880B0
:1021400000200880242008800020088024200880A7
:10215000002008802320088000200880C420891ED9
:1021600008806220891C08800020088005200880E3
:10217000002008808420088000200880F02008804B
:10218000002008801820088000200880A4200880F3
:102190000020088018200880002008805020088037
:1021A000002008800C20088000200880172008806C
:1021B000002008809520088000200880F3200880F7
:1021C00000200880E620088000200880C520891EA5
:1021D00008803220891C0880002008804420088064
:1021E0000020088065200880002008807620088074
:1021F000002008808820088000200880C620891ED2
:1022000008802020891C0880002008801720088072
:10221000002008800120088000200880C720891E37
:1022200008800020891C0880088008800880C82059
:10223000891E08800020891C08800880088008808A
:10224000C920891E08800020891C08800880088019
:1022500008800880088008800880088008804FF087
:10226000D841A1F88000FE490880088008800880D5
:102270000880E020891E08801620891C0880002024
:1022800008801C2008800020088021200880002071
:102290000880362008800020088046200880002022
:1022A00008805220088000200880642008800020D8
:1022B00008807A200880002008808B200880002079
:1022C00008809920088000200880A820088000202D
:1022D0000880B920088000200880C42008800020E1
:1022E0000880CA20088000200880D22008800020B2
:1022F0000880D920088000200880E0200880002085
:102300000880F320088000200880E120891E0880D2
:102310001620891C0880002008801C2008800020CE
:1023200008802220088000200880362008800020B5
:102330000880452008800020088052200880002066
:10234000088064200880002008807A20088000200F
:1023500008808B20088000200880992008800020B9
:102360000880A820088000200880B920088000206C
:102370000880C420088000200880CA20088000202F
:102380000880D220088000200880D8200880002003
:102390000880E020088000200880F32008800020CA
:1023A0000880E220891E08800520891C0880002002
:1023B00008800B200880002008801B200880002057
:1023C00008803420088000200880442008800020F5
:1023D00008804F20088000200880612008800020AD
:1023E000088079200880002008808820088000204C
:1023F00008809720088000200880A6200880002000
:102400000880B720088000200880C22008800020B3
:102410000880C720088000200880D1200880002084
:102420000880D620088000200880DD200880002059
:102430000880F320088000200880E320891E08809F
:102440000520891C0880002008800A2008800020C0
:1024500008801C200880002008803320088000208D
:102460000880442008800020088050200880002038
:102470004FF0D841A1F880006220794908800020FF
:1024800008807820088000200880882008800020AC
:1024900008809720088000200880A620088000205F
:1024A0000880B720088000200880C2200880002013
:1024B0000880C720088000200880D12008800020E4
:1024C0000880D520088000200880DD2008800020BA
:1024D0000880F320088000200880E420891E0880FE
:1024E0000120891C0880002008800120088000202D
:1024F000088002200880002008802A200880002010
:1025000008803C200880002008804B2008800020A4
:1025100008805D200880002008807420088000204A
:1025200008808420088000200880932008800020F4
:102530000880A220088000200880B32008800020A6
:102540000880BE20088000200880C4200880002069
:102550000880CD20088000200880D320088000203B
:102560000880DD20088000200880F32008800020FB
:102570000880E520891E08800020891C08800880CA
:102580000880088002200880002008802920088018
:10259000002008803C200880002008804B20088014
:1025A000002008805D2008800020088074200880BA
:1025B0000020088084200880002008809320088064
:1025C00000200880A220088000200880B320088016
:1025D00000200880BE20088000200880C4200880D9
:1025E00000200880CD20088000200880D3200880AB
:1025F00000200880DC20088000200880F32008806C
:1026000000200880E620891E08801120891C08808F
:102610000020088034200880002008805620088090
:10262000002008807620088000200880772008801D
:10263000002008806620088000200880882008800C
:10264000002008809920088000200880BB20088096
:10265000002008809920088000200880662001E082
:102660008000006C08800020088055200880002031
:102670000880552008800020088045200880002020
:1026800008804320088000204FF0D841A1F8800046
:102690004420FE49088000200880E720891E088029
:1026A0003220891C088000200880552008800020E6
:1026B000088076200880002008806620088000209E
:1026C000088067200880002008806720088000209C
:1026D000088087200880002008809920088000203A
:1026E0000880BB20088000200880992008800020F6
:1026F000088077200880002008804420088000207F
:1027000008805620088000200880232008800020B0
:1027100008803320088000200880452008800020A1
:102720000880E820891E08800020891C0880088015
:1027300099200880002008808720088000200880D9
:1027400088200880002008807720088000200880EA
:1027500066200880002008808820088000200880EB
:10276000AA20088000200880BB2008800020088064
:1027700099200880002008806620088000200880BA
:1027800055200880002008805520088000200880FF
:102790004420088000200880442008800020088011
:1027A0005520088000200880E920891E0880AA2082
:1027B000891C08800020088008800880891E088005
:1027C000AA20891C0880CF20891E08800020891C2F
:1027D00008800880088008800880088008800880B9
:1027E00008800880088008800880088008800880A9
:1027F0000880F020891E08800020891C0880502055
:1028000008800020088008800880F320891E088046
:102810000020891C0880F920891E08800620891C58
:1028200008801020088029200880002008803A2095
:10283000891E08805520891C088011204FF0D8413E
:10284000A1F87E006420FEF799FB29208F49891E9C
:102850000880352008800020891C08805120891EAE
:102860000880FF20891C08805320891E08802C20A6
:10287000891C08805520891E08808220891C0880B8
:102880002C20891E088002F02EB88148808845F2ED
:10289000105188427ED155214FF47040FEF77CFBE9
:1028A000AA214FF20100FEF777FB52214FF20200FE
:1028B000FEF772FB08214FF20300FEF76DFB0121CA
:1028C0004FF20400FEF768FB0D214FF43040FEF795
:1028D00063FB0D214BF20100FEF75EFB0D214BF275
:1028E0000200FEF759FB34214FF43640FEF754FB4B
:1028F00034214BF20160FEF74FFB34214BF20260B2
:10290000FEF74AFB0D214FF43140FEF745FB0D2148
:102910004BF20110FEF740FB0D214BF20210FEF7C7
:102920003BFB34214FF43740FEF736FB34214BF2AA
:102930000170FEF731FB34214BF20270FEF72CFBE5
:1029400000214FF43240FEF727FB00214BF201201B
:10295000FEF722FB00214BF20220FEF71DFB242193
:102960004FF43840FEF718FB24214BF60100FEF728
:1029700013FB24214BF60200FEF70EFB01214FF45E
:102980003F40FEF709FB0F214FF43340FEF704FBF5
:102990000F2100E0FEE34BF20130FEF7FDFA0F21BC
:1029A0004BF20230FEF7F8FA34214FF43940FEF7CB
:1029B000F3FA34214BF60110FEF7EEFA34214BF610
:1029C0000210FEF7E9FA08214FF43540FEF7E4FA69
:1029D00008214BF20150FEF7DFFA08214BF20250BA
:1029E000FEF7DAFA03214FF44240FEF7D5FA24212C
:1029F0004FF43A40FEF7D0FA24214BF60120FEF7BF
:102A0000CBFA24214BF60220FEF7C6FA00214FF440
:102A10003C40FEF7C1FA78214BF60140FEF7BCFAC4
:102A200000214BF60240FEF7B7FA00214FF43D407B
:102A3000FEF7B2FA78214BF60150FEF7ADFA00210D
:102A40004BF60250FEF7A8FA00214FF43E40FEF785
:102A5000A3FA64214BF60160FEF79EFA00214FF4C1
:102A60005140FEF799FA33214DF20110FEF794FA26
:102A700000214DF20210FEF78FFA34214DF20310BF
:102A8000FEF78AFA00214DF2041003E08000006C8A
:102A900008470020FEF780FA3A214DF20510FEF7B4
:102AA0007BFA00214DF20610FEF776FA4A214DF22C
:102AB0000710FEF771FA00214DF20810FEF76CFACC
:102AC0005C214DF20910FEF767FA00214DF20A1061
:102AD000FEF762FA81214DF20B10FEF75DFA00213C
:102AE0004DF20C10FEF758FAA6214DF20D10FEF72C
:102AF00053FA00214DF20E10FEF74EFAE5214DF289
:102B00000F10FEF749FA01214DF21010FEF744FABA
:102B100013214DF21110FEF73FFA01214DF2121070
:102B2000FEF73AFA54214DF21310FEF735FA01215F
:102B30004DF21410FEF730FA82214DF21510FEF717
:102B40002BFA01214DF21610FEF726FACA214DF29A
:102B50001710FEF721FA02214DF21810FEF71CFAA9
:102B600000214DF21910FEF717FA02214DF21A104A
:102B7000FEF712FA01214DF21B10FEF70DFA0221A9
:102B80004DF21C10FEF708FA34214DF21D10FEF72D
:102B900003FA02214DF21E10FEF7FEF967214DF2F5
:102BA0001F10FEF7F9F902214DF22010FEF7F4F99B
:102BB00084214DF22110FEF7EFF902214DF222108F
:102BC000FEF7EAF9A4214DF22310FEF7E5F9022100
:102BD0004DF22410FEF7E0F9B7214DF22510FEF773
:102BE000DBF902214DF22610FEF7D6F9CF214DF286
:102BF0002710FEF7D1F902214DF22810FEF7CCF98B
:102C0000DE214DF22910FEF7C7F902214DF22A10FC
:102C1000FEF7C2F9F2214DF22B10FEF7BDF90221A9
:102C20004DF22C10FEF7B8F9FE214DF22D10FEF7F3
:102C3000B3F903214DF22E10FEF7AEF910214DF23B
:102C40002F10FEF7A9F903214DF23010FEF7A4F979
:102C500033214DF23110FEF79FF903214DF232106E
:102C6000FEF79AF96D214DF23310FEF795F9002128
:102C70004FF45240FEF790F933214DF20120FEF758
:102C80008BF900214DF20220FEF786F934214DF236
:102C90000320FEF781F900214DF20420FEF77CF9B4
:102CA0003A214DF20520FEF777F900214DF206207A
:102CB000FEF772F94A214DF20720FEF76DF9002167
:102CC0004DF20820FEF768F95C214DF20920FEF76D
:102CD00063F900214DF20A20FEF75EF981214DF2E1
:102CE0000B20FEF759F900214DF20C20FEF754F9A4
:102CF000A6214DF20D20FEF74FF900214DF20E20D6
:102D0000FEF74AF9E5214DF20F20FEF745F90121C2
:102D10004DF21020FEF740F913214DF21120FEF77D
:102D20003BF901214DF21220FEF736F954214DF204
:102D30001320FEF731F901214DF21420FEF72CF992
:102D400082214DF21520FEF727F901214DF21620C0
:102D5000FEF722F9CA214DF21720FEF71DF90221D4
:102D60004DF21820FEF718F900214DF21920FEF758
:102D700013F902214DF21A20FEF70EF901214DF24E
:102D80001B20FEF709F902214DF21C20FEF704F981
:102D900034214DF21D20FEF7FFF802214DF21E20D6
:102DA000FEF7FAF867214DF21F20FEF7F5F8022131
:102DB0004DF22020FEF7F0F884214DF22120FEF79D
:102DC000EBF802214DF22220FEF7E6F8A4214DF2A5
:102DD0002320FEF7E1F802214DF22420FEF7DCF873
:102DE000B7214DF22520FEF7D7F802214DF226201B
:102DF000FEF7D2F8CF214DF22720FEF7CDF80221C1
:102E00004DF22820FEF7C8F8DE214DF22920FEF70A
:102E1000C3F802214DF22A20FEF7BEF8F2214DF24E
:102E20002B20FEF7B9F802214DF22C20FEF7B4F862
:102E3000FE214DF22D20FEF7AFF803214DF22E209A
:102E4000FEF7AAF810214DF22F20FEF7A5F8032176
:102E50004DF23020FEF7A0F833214DF23120FEF77D
:102E60009BF803214DF23220FEF796F86D214DF2CA
:102E70003320FEF791F800214FF45340FEF78CF811
:102E800033214DF20130FEF787F800214DF2023078
:102E9000FEF782F834214DF20330FEF77DF8002171
:102EA0004DF20430FEF778F83A214DF20530FEF786
:102EB00073F800214DF20630FEF76EF84A214DF20C
:102EC0000730FEF769F800214DF20830FEF764F88C
:102ED0005C214DF20930FEF75FF800214DF20A3017
:102EE000FEF75AF881214DF20B30FEF755F800211C
:102EF0004DF20C30FEF750F8A6214DF20D30FEF7E2
:102F00004BF800214DF20E30FEF746F8E5214DF268
:102F10000F30FEF741F801214DF21030FEF73CF87A
:102F200013214DF21130FEF737F801214DF2123026
:102F3000FEF732F854214DF21330FEF72DF801213F
:102F40004DF21430FEF728F882214DF21530FEF7CD
:102F500023F801214DF21630FEF71EF8CA214DF27A
:102F60001730FEF719F802214DF21830FEF714F869
:102F700000214DF21930FEF70FF802214DF21A3000
:102F8000FEF70AF801214DF21B30FEF705F8022189
:102F90004DF21C30FEF700F834214DF21D30FDF7E4
:102FA000FBFF02214DF21E30FDF7F6FF67214DF2C7
:102FB0001F30FDF7F1FF02214DF22030FDF7ECFF4D
:102FC00084214DF22130FDF7E7FF02214DF222303E
:102FD000FDF7E2FFA4214DF22330FDF7DDFF0221D2
:102FE0004DF22430FDF7D8FFB7214DF22530FDF723
:102FF000D3FF02214DF22630FDF7CEFFCF214DF257
:103000002730FDF7C9FF02214DF22830FDF7C4FF3C
:10301000DE214DF22930FDF7BFFF02214DF22A30AB
:10302000FDF7BAFFF2214DF22B30FDF7B5FF02217B
:103030004DF22C30FDF7B0FFFE214DF22D30FDF7A3
:10304000ABFF03214DF22E30FDF7A6FF10214DF20C
:103050002F30FDF7A1FF03214DF23030FDF79CFF2B
:1030600033214DF23130FDF797FF03214DF232301D
:10307000FDF792FF6D214DF23330FDF78DFF0021FA
:103080004FF45440FDF788FF33214DF20140FDF726
:1030900083FF00214DF20240FDF77EFF34214DF207
:1030A0000340FDF779FF00214DF20440FDF774FF66
:1030B0003A214DF20540FDF76FFF00214DF2064029
:1030C000FDF76AFF4A214DF20740FDF765FF002139
:1030D0004DF20840FDF760FF5C214DF20940FDF71D
:1030E0005BFF00214DF20A40FDF756FF81214DF2B2
:1030F0000B40FDF751FF00214DF20C40FDF74CFF56
:10310000A6214DF20D40FDF747FF00214DF20E4084
:10311000FDF742FFE5214DF20F40FDF73DFF012194
:103120004DF21040FDF738FF13214DF21140FDF72D
:1031300033FF01214DF21240FDF72EFF54214DF2D5
:103140001340FDF729FF01214DF21440FDF724FF44
:1031500082214DF21540FDF71FFF01214DF216406F
:10316000FDF71AFFCA214DF21740FDF715FF0221A6
:103170004DF21840FDF710FF00214DF21940FDF708
:103180000BFF02214DF21A40FDF706FF01214DF21F
:103190001B4000E008E3FDF7FFFE02214DF21C405A
:1031A000FDF7FAFE34214DF21D40FDF7F5FE022138
:1031B0004DF21E40FDF7F0FE67214DF21F40FDF776
:1031C000EBFE02214DF22040FDF7E6FE84214DF298
:1031D0002140FDF7E1FE02214DF22240FDF7DCFE29
:1031E000A4214DF22340FDF7D7FE02214DF22440E9
:1031F000FDF7D2FEB7214DF22540FDF7CDFE0221AD
:103200004DF22640FDF7C8FECF214DF22740FDF7D5
:10321000C3FE02214DF22840FDF7BEFEDE214DF235
:103220002940FDF7B9FE02214DF22A40FDF7B4FE18
:10323000F2214DF22B40FDF7AFFE02214DF22C4062
:10324000FDF7AAFEFE214DF22D40FDF7A5FE03215C
:103250004DF22E40FDF7A0FE10214DF22F40FDF75C
:103260009BFE03214DF23040FDF796FE33214DF2D7
:103270003140FDF791FE03214DF23240FDF78CFE07
:103280006D214DF23340FDF787FE00214FF455408C
:10329000FDF782FE33214DF20150FDF77DFE002146
:1032A0004DF20250FDF778FE34214DF20350FDF748
:1032B00073FE00214DF20450FDF76EFE3A214DF2EF
:1032C0000550FDF769FE00214DF20650FDF764FE42
:1032D0004A214DF20750FDF75FFE00214DF20850E4
:1032E000FDF75AFE5C214DF20950FDF755FE002115
:1032F0004DF20A50FDF750FE81214DF20B50FDF7C3
:103300004BFE00214DF20C50FDF746FEA6214DF27A
:103310000D50FDF741FE00214DF20E50FDF73CFE31
:10332000E5214DF20F50FDF737FE01214DF210500F
:10333000FDF732FE13214DF21150FDF72DFE012154
:103340004DF21250FDF728FE54214DF21350FDF7B7
:1033500023FE01214DF21450FDF71EFE82214DF295
:103360001550FDF719FE01214DF21650FDF714FE20
:10337000CA214DF21750FDF70FFE02214DF21850F1
:10338000FDF70AFE00214DF21950FDF705FE02215E
:103390004DF21A50FDF700FE01214DF21B50FDF7D2
:1033A000FBFD02214DF21C50FDF7F6FD34214DF2DC
:1033B0001D50FDF7F1FD02214DF21E50FDF7ECFD11
:1033C00067214DF21F50FDF7E7FD02214DF220501D
:1033D000FDF7E2FD84214DF22150FDF7DDFD0221D4
:1033E0004DF22250FDF7D8FDA4214DF22350FDF7F8
:1033F000D3FD02214DF22450FDF7CEFDB7214DF251
:103400002550FDF7C9FD02214DF22650FDF7C4FD00
:10341000CF214DF22750FDF7BFFD02214DF228507C
:10342000FDF7BAFDDE214DF22950FDF7B5FD022171
:103430004DF22A50FDF7B0FDF2214DF22B50FDF771
:10344000ABFD02214DF22C50FDF7A6FDFE214DF201
:103450002D50FDF7A1FD03214DF22E50FDF79CFDEF
:1034600010214DF22F50FDF797FD03214DF2305002
:10347000FDF792FD33214DF23150FDF78DFD032113
:103480004DF23250FDF788FD6D214DF23350FDF7BE
:1034900083FD00214FF45640FDF77EFD33214DF2B0
:1034A0000160FDF779FD00214DF20260FDF774FD2A
:1034B00034214DF20360FDF76FFD00214DF20460F1
:1034C000FDF76AFD3A214DF20560FDF765FD00212B
:1034D0004DF20660FDF760FD4A214DF20760FDF7F1
:1034E0005BFD00214DF20860FDF756FD5C214DF2B9
:1034F0000960FDF751FD00214DF20A60FDF74CFD1A
:1035000081214DF20B60FDF747FD00214DF20C606B
:10351000FDF742FDA6214DF20D60FDF73DFD0021B6
:103520004DF20E60FDF738FDE5214DF20F60FDF71D
:1035300033FD01214DF21060FDF72EFD13214DF2F8
:103540001160FDF729FD01214DF21260FDF724FD08
:1035500054214DF21360FDF71FFD01214DF214605F
:10356000FDF71AFD82214DF21560FDF715FD0121D1
:103570004DF21660FDF710FDCA214DF21760FDF700
:103580000BFD02214DF21860FDF706FD00214DF202
:103590001960FDF701FD02214DF21A60FDF7FCFCF8
:1035A00001214DF21B60FDF7F7FC02214DF21C607A
:1035B000FDF7F2FC34214DF21D60FDF7EDFC022118
:1035C0004DF21E60FDF7E8FC67214DF21F60FDF72C
:1035D000E3FC02214DF22060FDF7DEFC84214DF278
:1035E0002160FDF7D9FC02214DF22260FDF7D4FCE9
:1035F000A4214DF22360FDF7CFFC02214DF224609F
:10360000FDF7CAFCB7214DF22560FDF7C5FC02218C
:103610004DF22660FDF7C0FCCF214DF22760FDF78B
:10362000BBFC02214DF22860FDF7B6FCDE214DF215
:103630002960FDF7B1FC02214DF22A60FDF7ACFCD8
:10364000F2214DF22B60FDF7A7FC02214DF22C6018
:10365000FDF7A2FCFE214DF22D60FDF79DFC03213C
:103660004DF22E60FDF798FC10214DF22F60FDF712
:1036700093FC03214DF23060FDF78EFC33214DF2B7
:103680003160FDF789FC03214DF23260FDF784FCC7
:103690006D214DF23360FDF77FFC55214FF47040F2
:1036A000FDF77AFCAA214FF20100FDF775FC5221CB
:1036B0004FF20200FDF770FC08214FF20300FDF706
:1036C0006BFC00214FF20400FDF766FCCC214FF4A7
:1036D0003140FDF761FC00214BF20110FDF75CFC6D
:1036E00005214FF43640FDF757FC70214FF4374069
:1036F000FDF752FC70214BF20170FDF74DFC0121EA
:103700004FF43840FDF748FC03214BF60100FDF76C
:1037100043FC03214BF60200FDF73EFC03214BF670
:103720000300FDF739FC02214FF43C40FDF734FC67
:1037300000214BF60140FDF72FFC00214BF6024023
:10374000FDF72AFCD0214FF44940FDF725FC02216A
:103750004CF60110FDF720FC50214CF60210FDF74D
:103760001BFC50214CF60310FDF716FC50214CF6C3
:103770000410FDF711FC00214FF45450FDF70CFC30
:1037800055214FF46850FDF707FC4FF48850FE496F
:1037900008800520FDF7F2FB4FF424504FF0D8418C
:1037A000A1F87E0001F09FB8F848808849F22531E1
:1037B00088427DD147F6F001E520FDF7EDFB4FF49F
:1037C00080710120FDF7E8FB4FF4E0610220FDF776
:1037D000E3FB41F230010320FDF7DEFB0021042072
:1037E000FDF7DAFB40F202210820FDF7D5FB0021AE
:1037F0000920FDF7D1FB00210A20FDF7CDFB0021B8
:103800000C20FDF7C9FB00210D20FDF7C5FB0021B1
:103810000F20FDF7C1FB00211020FDF7BDFB0721A4
:103820001120FDF7B9FB00211220FDF7B5FB0021A7
:103830001320FDF7B1FB00210720FDF7ADFB41F29E
:1038400090611020FDF7A8FB40F227211120FDF721
:10385000A3FB9D211220FDF79FFB4FF4C8511320BD
:10386000FDF79AFB25212920FDF796FB0D212B2042
:10387000FDF792FB07213020FDF78EFB40F203316C
:103880003120FDF789FB03213220FDF785FB40F253
:1038900006213520FDF780FB08213620FDF77CFB53
:1038A00040F206413720FDF777FB4FF4417100E00D
:1038B00058E03820FDF770FB07213920FDF76CFB3D
:1038C00040F202613C20FDF767FB08213D20FDF737
:1038D00063FB00215020FDF75FFBEF215120FDF736
:1038E0005BFB00215220FDF757FB40F23F115320B4
:1038F000FDF752FB4FF427416020FDF74DFB0121FE
:103900006120FDF749FB00216A20FDF745FB0021FE
:103910008020FDF741FB00218120FDF73DFB0021C8
:103920008220FDF739FB00218320FDF735FB0021C4
:103930008420FDF731FB00218520FDF72DFB1021B0
:103940009020FDF729FB4FF4C0619220FDF724FB86
:1039500040F233110720FDF71FFB22210020FDF765
:103960001BFB1FE78948808849F2283188427DD1B6
:1039700041F28F01EC20FDF70FFB41F23421EF20E3
:10398000FDF70AFB4FF480710120FDF705FB4FF4B2
:10399000E0610220FDF700FB41F230010320FDF75A
:1039A000FBFA00210420FDF7F7FA40F2022108207B
:1039B000FDF7F2FA00210920FDF7EEFA00210A20B6
:1039C000FDF7EAFA01210C20FDF7E6FA00210D20AF
:1039D000FDF7E2FA00210F20FDF7DEFA00211020AA
:1039E000FDF7DAFA07211120FDF7D6FA002112209F
:1039F000FDF7D2FA00211320FDF7CEFA01210720AE
:103A0000FDF7CAFA3220FDF7B9FA41F290411020D1
:103A1000FDF7C2FA40F227211120FDF7BDFA32204E
:103A2000FDF7ACFA8A211220FDF7B6FA3220FDF735
:103A3000A5FA4FF4D0511320FDF7AEFA0621292044
:103A4000FDF7AAFA0D212B20FDF7A6FA3220FDF78B
:103A500095FA00212020FDF79FFA00212120FDF793
:103A60009BFA3220FDF78AFA002100E075E0302051
:103A7000FDF792FA40F204613120FDF78DFA40F231
:103A800005313220FDF788FA00213520FDF784FA50
:103A900040F609413620FDF77FFA4FF401713720D7
:103AA000FDF77AFA40F201313820FDF775FA40F25D
:103AB00007713920FDF770FA00213C20FDF76CFA00
:103AC00040F60A213D20FDF767FA3220FDF756FA4D
:103AD00000215020FDF760FAEF215120FDF75CFA3C
:103AE00000215220FDF758FA40F23F115320FDF714
:103AF00053FA4FF427416020FDF74EFA012161206F
:103B0000FDF74AFA00216A20FDF746FA00218020DD
:103B1000FDF742FA00218120FDF73EFA00218220C4
:103B2000FDF73AFA00218320FDF736FA00218420C0
:103B3000FDF732FA00218520FDF72EFA10219020A2
:103B4000FDF72AFA4FF4C0619220FDF725FA40F202
:103B500033110720FDF720FA24E60C48808849F24B
:103B6000203188427ED100210846FDF715FA4FF436
:103B700080710120FDF710FA4FF4E0610220FDF79B
:103B80000BFA41F2300103E07E00006C0847002090
:103B90000320FDF701FA00210420FDF7FDF940F2B2
:103BA00002210820FDF7F8F900210920FDF7F4F9BA
:103BB00000210A20FDF7F0F901210C20FDF7ECF9B6
:103BC00000210D20FDF7E8F900210F20FDF7E4F9B1
:103BD0003220FDF7D3F940F201110720FDF7DCF99F
:103BE0003220FDF7CBF94FF486511020FDF7D4F9C0
:103BF00007211120FDF7D0F94FF488711220FDF74D
:103C0000CBF94FF430611320FDF7C6F900212920CC
:103C1000FDF7C2F944F210012B20FDF7BDF9002198
:103C20005020FDF7B9F9EF215120FDF7B5F900213A
:103C30005220FDF7B1F940F23F115320FDF7ACF9E6
:103C40004FF41C516020FDF7A7F901216120FDF719
:103C5000A3F900216A20FDF79FF900218020FDF7DC
:103C60009BF900E032E000218120FDF795F9002169
:103C70008220FDF791F900218320FDF78DF90021C5
:103C80008420FDF789F900218520FDF785F91021B1
:103C90009020FDF781F900219220FDF77DF90121A7
:103CA0009320FDF779F94FF488719520FDF774F9A9
:103CB00000219720FDF770F900219820FDF76CF99D
:103CC00040F273110720FDF767F96BE5FE48808825
:103CD00049F2313188427DD141F21401E720FDF7EC
:103CE0005BF94FF480710120FDF756F94FF4007134
:103CF0000220FDF751F941F238010320FDF74CF99C
:103D000040F202210820FDF747F900210920FDF7C4
:103D100043F900210A20FDF73FF900210C20FDF7AF
:103D20003BF900210D20FDF737F900210F20FDF7A9
:103D300033F900211020FDF72FF907211120FDF79D
:103D40002BF900211220FDF727F900211320FDF7A0
:103D500023F9C820FDF712F941F290611020FDF718
:103D60001BF940F227211120FDF716F93220FDF74B
:103D700005F90C211220FDF70FF93220FDF7FEF8AE
:103D80004FF400611320FDF707F911212920FDF7F9
:103D900003F90B212B20FDF7FFF83220FDF7EEF899
:103DA00000212020FDF7F8F840F23F112120FDF717
:103DB000F3F800213020FDF7EFF84FF48371312044
:103DC000FDF7EAF800213220FDF7E6F84FF4017123
:103DD000352000E064E0FDF7DFF841F20A613620AB
:103DE000FDF7DAF840F207713720FDF7D5F84FF408
:103DF00083713820FDF7D0F840F207713920FDF7C4
:103E0000CBF840F202413C20FDF7C6F840F60F41E6
:103E10003D20FDF7C1F800215020FDF7BDF8EF214E
:103E20005120FDF7B9F800215220FDF7B5F840F216
:103E30003F115320FDF7B0F84FF41C516020FDF7FF
:103E4000ABF801216120FDF7A7F800216A20FDF7FA
:103E5000A3F800218020FDF79FF800218120FDF7C5
:103E60009BF800218220FDF797F800218320FDF7C1
:103E700093F800218420FDF78FF800218520FDF7BD
:103E80008BF810219020FDF787F84FF4C061922045
:103E9000FDF782F840F233110720FDF77DF881E449
:103EA0008948808845F2084188427DD14FF480716D
:103EB0000120FDF771F84FF4E0610220FDF76CF886
:103EC00041F230010320FDF767F800210420FDF7DF
:103ED00063F840F207210820FDF75EF80021092071
:103EE000FDF75AF800210A20FDF756F800210C20B2
:103EF000FDF752F800210D20FDF74EF800210F20AC
:103F0000FDF74AF81420FDF739F841F2B0611020AE
:103F1000FDF742F801211120FDF73EF8012117209D
:103F2000FDF73AF84FF49C711220FDF735F84FF485
:103F300000611320FDF730F809212920FDF72CF846
:103F400009212A20FDF728F80021A420FDF724F8F4
:103F500000215020FDF720F8EF215120FDF71CF83B
:103F600000215220FDF718F840F23F115320FDF7D1
:103F700013F84FF41C516020FDF70EF80121612069
:103F8000FDF70AF800216A20FDF706F800218020DD
:103F9000FDF702F800218120FCF7FEFF00218220BE
:103FA000FCF7FAFF002100E024E08320FCF7F4FF97
:103FB00000218420FCF7F0FF00218520FCF7ECFFB6
:103FC00013219020FCF7E8FF00219220FCF7E4FF8A
:103FD00003219320FCF7E0FF4FF488719520FCF754
:103FE000DBFF40F273110720FCF7D6FF3220FCF70D
:103FF000C5FFB6E43448808841F2055188427DD13E
:1040000000210720FCF7C8FF3220FCF7B7FF4FF470
:104010008E711220FCF7C0FF0121A420FCF7BCFF29
:104020000F210820FCF7B8FF08210A20FCF7B4FF95
:1040300008210D20FCF7B0FF40F207713020FCF79B
:10404000ABFF07213120FCF7A7FF40F203613220CC
:10405000FCF7A2FF4FF4E0613320FCF79DFF40F234
:1040600002213420FCF798FF02213520FCF794FF51
:1040700041F60F713620FCF78FFF40F207713720B1
:10408000FCF78AFF00213820FCF786FF0021392049
:10409000FCF782FF40F207713A20FCF77DFF002118
:1040A0003B20FCF779FF07213C20FCF775FF00213E
:1040B0003D20FCF771FF3220FCF760FF0121072053
:1040C000FCF76AFF012101E0084700201720FCF7F8
:1040D00063FF3220FCF752FF4FF4BD511020FCF774
:1040E0005BFF40F217211120FCF756FF4FF48F7150
:1040F0001220FCF751FF4FF4706100E098E01320AC
:10410000FCF74AFF00212A20FCF746FF0A2129205C
:10411000FCF742FF4FF49F711220FCF73DFF002196
:104120005020FCF739FFEF215120FCF735FF00212B
:104130005220FCF731FF40F23F115320FCF72CFFD7
:104140004FF41C516020FCF727FF01216120FCF790
:1041500023FF00216A20FCF71FFF00218020FCF7CD
:104160001BFF00218120FCF717FF00218220FCF7B4
:1041700013FF00218320FCF70FFF00218420FCF7B0
:104180000BFF00218520FCF707FF13219020FCF78F
:1041900003FF4FF440719220FCF7FEFE05219320AF
:1041A000FCF7FAFE00219520FCF7F6FE002197208F
:1041B000FCF7F2FE00219820FCF7EEFE4FF4807130
:1041C0000120FCF7E9FE4FF4E0610220FCF7E4FE79
:1041D00041F238010320FCF7DFFE00210420FCF748
:1041E000DBFE00210C20FCF7D7FE00210F20FCF79E
:1041F000D3FE00212020FCF7CFFE00212120FCF778
:10420000CBFE21210720FCF7C7FE1420FCF7B6FEE9
:1042100061210720FCF7C0FE1420FCF7AFFE40F23E
:1042200073110720FCF7B8FE1420FCF7A7FE5AE331
:10423000FE4880884BF2055188427CD10021084617
:10424000FCF7AAFE00210846FCF7A6FE002108465E
:10425000FCF7A2FE00210846FCF79EFE0121A420E7
:10426000FCF79AFE1420FCF789FE4FF41C516020E5
:10427000FCF792FE40F202210820FCF78DFE4FF47D
:1042800005713020FCF788FE43F215713120FCF7F0
:1042900083FE40F204613220FCF77EFE40F6166198
:1042A0003320FCF779FE42F211213420FCF774FE32
:1042B0004FF4A8513520FCF76FFE48F20751362025
:1042C000FCF76AFE41F207413720FCF765FE41F238
:1042D00003413820FCF760FE20213920FCF75CFE0A
:1042E0001A219020FCF758FE00211020FCF754FE04
:1042F00007211120FCF750FE00211220FCF74CFE94
:1043000000211320FCF748FE1420FCF737FE4FF481
:10431000E6611020FCF740FE40F237111120FCF757
:104320003BFE1420FCF72AFE4FF4DC711220FCF750
:1043300033FE142000E085E0FCF720FE4FF47061AE
:104340001320FCF729FE80212A20FCF725FE4821B6
:104350002920FCF721FE1420FCF710FE4FF4807199
:104360000120FCF719FE4FF4E0610220FCF714FE77
:1043700041F238010320FCF70FFE40F20221082031
:10438000FCF70AFE00210A20FCF706FE00210C20A3
:10439000FCF702FE00210D20FCF7FEFD30210E206F
:1043A000FCF7FAFD00215020FCF7F6FDEF2151202B
:1043B000FCF7F2FD00215220FCF7EEFD40F23F1128
:1043C0005320FCF7E9FD4FF41C516020FCF7E4FD9D
:1043D00001216120FCF7E0FD00216A20FCF7DCFDF3
:1043E00011219020FCF7D8FD4FF4C0619220FCF71A
:1043F000D3FD40F202419320FCF7CEFD0221942030
:10440000FCF7CAFD1420FCF7B9FD01210720FCF7D9
:10441000C3FD1420FCF7B2FD61210720FCF7BCFDB1
:1044200040F273110720FCF7B7FD00212020FCF7B4
:10443000B3FD00212120FCF7AFFD22210020FCF775
:10444000ABFD50E2794880884CF2055188427CD11E
:1044500000210846FCF7A0FD00210846FCF79CFD62
:104460001420FCF78BFD00210846FCF795FD002188
:104470000846FCF791FD00210846FCF78DFD002160
:104480000846FCF789FD0121A420FCF785FD1420D6
:10449000FCF774FD4FF41C516020FCF77DFD40F6E5
:1044A00006010820FCF778FD40F203713020FCF78C
:1044B00073FD01213120FCF76FFD04213220FCF750
:1044C0006BFD4FF481713320FCF766FD4FF44071B2
:1044D0003420FCF761FD40F203113520FCF75CFD50
:1044E0001F213620FCF758FD40F203713720FCF7FE
:1044F00053FD01213820FCF74FFD04213920FCF742
:104500004BFD15219020FCF747FD4FF482611020F0
:10451000FCF742FD40F247211120FCF73DFD4FF42E
:10452000DE711220FCF738FD4FF460611320FCF7B8
:1045300033FD7820FCF722FD4FF480710120FCF759
:104540002BFD4FF40071022000E052E0FCF724FD47
:1045500041F230010320FCF71FFD08210A20FCF77F
:104560001BFD00210C20FCF717FD20210E20FCF77D
:1045700013FD00210F20FCF70FFD00212020FCF788
:104580000BFD00212120FCF707FD3D212A20FCF72F
:1045900003FD1420FCF7F2FC2D212920FCF7FCFC84
:1045A00000215020FCF7F8FC4DF2EF015120FCF700
:1045B000F3FC00215220FCF7EFFC40F23F115320A6
:1045C000FCF7EAFC00216120FCF7E6FC00216A20F0
:1045D000FCF7E2FC4FF440719220FCF7DDFC052172
:1045E0009320FCF7D9FC4FF480710720FCF7D4FC32
:1045F00079E10E48808844F2315188427ED1012110
:104600000020FCF7C9FC0A20FCF7B8FC41F2286145
:104610001020FCF7C1FC0E211220FCF7BDFC40F677
:1046200039211320FCF7B8FC0A2001E008470020DC
:10463000FCF7A4FC40211120FCF7AEFC5021152012
:10464000FCF7AAFC0A20FCF799FC1E211220FCF7BB
:10465000A3FC0A20FCF792FC4FF4B1511020FCF7A8
:104660009BFC42F639211320FCF796FC0A20FCF74C
:1046700085FC4FF480710120FCF78EFC4FF44071F3
:104680000220FCF789FC41F238010320FCF784FC8E
:1046900040F202210820FCF77FFC08210A20FCF7E9
:1046A0007BFC00213020FCF777FC40F202413120F6
:1046B000FCF772FC4FF483713220FCF76DFC40F282
:1046C00003513320FCF768FC4FF482713420FCF76F
:1046D00063FC40F201313520FCF75EFC40F20771CB
:1046E0003620FCF759FC40F205313720FCF754FC2A
:1046F0004FF402713820FCF74FFC00E03EE040F63A
:104700000B713920FCF748FC02214120FCF744FCE6
:104710004FF41C516020FCF73FFC01216120FCF7A5
:104720003BFC4FF404719020FCF736FC4FF485718C
:104730009220FCF731FC04219320FCF72DFC4FF470
:104740008071A020FCF728FC01210720FCF724FC45
:1047500021210720FCF720FC23210720FCF71CFC6B
:1047600033210720FCF718FC40F233110720FCF737
:1047700013FC0021A020FCF70FFCB4E0FE48808869
:1047800044F235518842F8D130211520FCF704FC61
:1047900010219A20FCF700FC20211120FCF7FCFBE3
:1047A00043F228411020FCF7F7FB02211220FCF70E
:1047B000F3FB41F238011320FCF7EEFB2820FCF755
:1047C000DDFB12210846FCF7E7FB2820FCF7D6FBAF
:1047D00043F220411020FCF7DFFB43F238011320A5
:1047E000FCF7DAFB4620FCF7C9FB00213020FCF780
:1047F000D3FB40F202413120FCF7CEFB40F20731FF
:104800003220FCF7C9FB4FF441713320FCF7C4FBA5
:1048100004213420FCF7C0FB40F201413520FCF7B5
:10482000BBFB40F207713620FCF7B6FB40F20531C6
:104830003720FCF7B1FB4FF4C2613820FCF7ACFB2A
:104840004FF4C2613920FCF7A7FB4FF480710120BF
:10485000FCF7A2FB4FF440710220FCF79DFB41F2F4
:1048600030010320FCF798FB40F608010820FCF714
:1048700093FB08210A20FCF78FFB4FF41C516020AA
:10488000FCF78AFB01216120FCF786FB4FF49F7146
:104890009020FCF781FB4FF480719220FCF77CFBA9
:1048A0004FF480719320FCF777FB4FF44051A02028
:1048B000FCF772FB1021A320FCF76EFB01210720FF
:1048C000FCF76AFB21210720FCF766FB2321072068
:1048D000FCF762FB33210720FCF75EFB40F233114B
:1048E0000720FCF759FB0020FCF726FD0120FCF710
:1048F000EDFE4FF6FF70FCF7B6FE10BD2DE9FC5F34
:1049000005460E4617469846DDF830900020019087
:104910009948808846F60401884229D196488079D2
:10492000012825D1AB46354693480088C01B401E60
:1049300086B2474690480088A0EB0B00401E1FFA45
:1049400080F800208C4988712A2048812B2088819A
:1049500043463A4631462846CDF80090FFF7CEFF51
:104960000120854988712B2048812A2088811DE0FB
:10497000781B401C80B20190344615E02146284641
:1049800013F034FA13F0DCFB4FF0000A07E04FF0AD
:10499000D840A0F880900AF101001FFA80FA01982F
:1049A0008245F4DB601C84B24445E7DDBDE8FC9F32
:1049B0002DE9FF4F85B081468A460020039083464B
:1049C0000798A0EB09050898A0EB0A06CDF8089017
:1049D000CDF804A0002D01DD012705E00DB9002769
:1049E00002E04FF0FF376D42002E02DD4FF001086C
:1049F00006E016B94FF0000802E04FF0FF387642AB
:104A0000B54201DD2C4600E03446002004901EE053
:104A1000019A91B2029A90B2129AFCF716FE03988C
:104A200028440390B3440398A04205DD0398001B7B
:104A30000390029838440290A34504DDABEB040BCD
:104A40000198404401900498401C80B20490611C7D
:104A500004988842DCDD09B0BDE8F08F2DE9F84309
:104A600005460E4617469846089C33463A46314658
:104A700028460094FFF79CFF43462A4631462846C5
:104A80000094FFF795FF43463A4641462846009476
:104A9000FFF78EFF43463A46314638460094FFF70B
:104AA00087FFBDE8F8832DE9F04706460F4690469C
:104AB0009A46002445460320A0EB480944E07A1BAF
:104AC00091B2321990B25246FCF7BFFD3A1B91B237
:104AD000721990B25246FCF7B8FD3A1991B27219A8
:104AE00090B25246FCF7B1FD7A1991B2321990B2E8
:104AF0005246FCF7AAFD7A1991B2321B90B2524687
:104B0000FCF7A3FD3A1991B2721B90B25246FCF722
:104B10009CFD7A1B91B2321B90B25246FCF795FD78
:104B20003A1B91B2721B90B25246FCF78EFD641C88
:104B3000B9F1000F03DAA000801D814404E0601B7E
:104B400080000A3081446D1EAC42B8DDBDE8F087BC
:104B50002DE9F84F80460E4617461C46B3462046C0
:104B6000E31704EB5373DB1021464FEAE47C04EBBC
:104B70005C7C4FEAEC0C01E008470020A4EBCC0C75
:104B8000BCF1000F02D04FF0010C01E04FF0000C1F
:104B90006344224604EBD27C4FEA6C0C03FB0CF31B
:104BA000DBB20093A7F12000C7B2002556E00C2C21
:104BB00007D107EB4700454901EB800010F805904D
:104BC00013E0102C05D1424800EB071010F80590B7
:104BD0000BE0182C07D107EBC7003E4901EB800022
:104BE00010F8059001E0BDE8F88F4FF0000A2FE0C3
:104BF00009F0800030B13848028831464046FCF761
:104C000024FD07E00A9828B9344802883146404616
:104C1000FCF71BFD4FEA49604FEA1069701C86B231
:104C20002F484088B04200DCDDE7A6EB0B00A04235
:104C30000AD15E4608F101001FFA80F82848008872
:104C4000404500DCCFE706E00AF1010000F0FF0A72
:104C5000BAF1080FCCDB00BF681CC5B200988542D2
:104C6000A5DB00BFBFE72DE9F84F04460D4690468F
:104C70009946DDE90A6704F0FF0A08EB04001FFA11
:104C800080F809EB05001FFA80F916E0444502DBC5
:104C90005446A81985B24D4500DB14E00020009071
:104CA0003A78334629462046FFF752FF304606EB56
:104CB000D07104EB61018CB27F1C38787E2802DC55
:104CC00038782028E2DA00BFBDE8F88F30DA020831
:104CD000A4DE020894E402085C0000205E000020CC
:104CE00008470020014604E0002000E0401CA828FE
:104CF000FCD30A00A1F10101F6D1704770B504465A
:104D000000250121C14800F027FF0120FFF7EAFF3D
:104D100000BF1FE004F0800028B14FF40061BC48E0
:104D200000F018FF04E04FF40061B94800F014FFF0
:104D30006006040E0121B54800F00EFF0120FFF7C8
:104D4000D1FF0121B14800F005FF0120FFF7CAFFA4
:104D5000681CC5B2082DDDDB70BD70B506460025A8
:104D600000244FF40051AB4800F0F6FE3046FFF748
:104D7000C5FF0520FFF7B6FF0121A44800F0ECFEB7
:104D80000120FFF7AFFF0121A04800F0E3FE012062
:104D9000FFF7A8FF01219D4800F0DEFE00BF1AE0EA
:104DA0004FF6FF7000EA44040121984800F0D4FE59
:104DB0000120FFF797FF0121944800F0CBFE01206E
:104DC000FFF790FF0421914800F0AAFE08B1601C93
:104DD00084B2681CC5B2102DE2DB241101218B487E
:104DE00000F0B8FE204670BD2DE9F04186B0804647
:104DF0000026002407E04046FFF7AFFF01A921F895
:104E00001400601C84B20A2CF5DB00241BE0601C3B
:104E100085B214E001A830F8140001A931F815108A
:104E200088420ADD01A830F8147030F8150001A995
:104E300021F8140001A820F81570681C85B20A2D0D
:104E4000E8DB601C84B2092CE1DB0026042406E0C8
:104E500001A830F81400304486B2601C84B2062CDD
:104E6000F6DB304606EBD071C1F34F07384606B08B
:104E7000BDE8F08110B5D020FFF7B6FF10BD10B52A
:104E80009020FFF7B1FF10BD2DE9F04104460D461B
:104E9000D020FFF7A9FF06469020FFF7A5FF0746A1
:104EA00026802F800120BDE8F0817FB504460D46A5
:104EB00002A903A8FFF7E8FF064616B9002004B0D0
:104EC00070BD694601A8FFF7DFFF06460EB9002056
:104ED000F5E7BDF80400BDF80C10884206DCBDF80B
:104EE0000C10BDF80400323081420CDBBDF80C0020
:104EF000BDF80410884236DCBDF80410BDF80C0083
:104F0000323081422FDABDF80000BDF80810884227
:104F100006DCBDF80810BDF80000323081420CDB21
:104F2000BDF80800BDF8001088421CDCBDF8001078
:104F3000BDF808003230814215DABDF80C10BDF81A
:104F40000420881800EBD071C1F34F012180BDF817
:104F50000810BDF80020881800EBD071C1F34F0194
:104F600029800120ABE70020A9E71CB501212620FC
:104F700001F012F80121880301F068F84FF40050A5
:104F8000009001208DF8040000208DF8060001201B
:104F90008DF8070002208DF8050069461D4800F0D5
:104FA0005DFD4FF400511B4800F0D4FD012000903E
:104FB0006946164800F052FD0121144800F0CAFD70
:104FC0004FF4006000906946114800F047FD4FF42F
:104FD00000610F4800F0BEFD0420009000208DF815
:104FE000040001208DF807006946084800F036FDEE
:104FF0000220009000208DF8040001208DF80700A9
:105000006946024800F02AFD1CBD00000004024071
:105010000014024000080240094880470948004740
:10502000FEE7FEE7FEE7FEE7FEE7FEE7FEE7FEE758
:10503000FEE7FEE704480549054A064B70470000B5
:10504000355100088901000888BA012088FC012038
:1050500088BC012088BC01200CB500200190009084
:105060007648006840F480307449086000BF734897
:10507000006800F4003000900198401C01900098F6
:1050800018B90198B0F5A04FF1D16C48006800F450
:10509000003010B10120009001E000200090009845
:1050A000012846D165484030006840F0805063498F
:1050B000403108606248006840F440406049086040
:1050C0005E48083000685D4908310860084600689D
:1050D00040F4004008600846006840F4A0500860B2
:1050E0005848091F0860081F006840F08070091FB9
:1050F000086000BF5148006800F000700028F9D037
:1051000040F20560504908604C480830006820F0C3
:1051100003004A49083108600846006840F0020070
:10512000086000BF45480830006800F00C000828FF
:10513000F8D10CBD10B54548006840F470004349F3
:1051400008603E48006840F001003C4908600020CB
:105150003A4908310860394800683D4908403749F4
:1051600008603C48091D0860081F006820F4802082
:10517000091F0860002031490C310860FFF76CFFFF
:105180004FF0006031498039086010BD70B50020D3
:105190000022022300240221284D08352D6805F045
:1051A0000C0020B1042806D0082834D107E02A4D8D
:1051B0002A4E356033E02A4D284E35602FE01F4DD2
:1051C0002D1D2D68C5F380541C4D2D1D2D6805F037
:1051D0003F0154B1224DB5FBF1F5184E361D36682E
:1051E000C6F3881605FB06F209E01B4DB5FBF1F589
:1051F000124E361D3668C6F3881605FB06F20F4DB3
:105200002D1D2D68C5F301456D1C6B00B2FBF3F538
:10521000124E356003E0104D104E356000BF00BFE8
:10522000064D08352D68C5F303150E4E705D0B4D08
:105230002D68C540094E356070BD00000038024041
:105240000070004008544007003C024088ED00E038
:10525000FFFFF6FE103000240024F4006000002060
:1052600000127A006400002032490143324A116082
:10527000704770B5002100230F22C4781CB32E4C58
:10528000246804F4E064C4F5E064C4F30721C1F1C8
:105290000404E3B20A4144789C40E1B284781440AB
:1052A00021430C07210E254C05786155047804F044
:1052B0001F050124AC4005786D11AD0005F1E02516
:1052C000C5F8004109E0047804F01F050124AC4052
:1052D0001B4D0678761145F8264070BD194A0A40E4
:1052E0000243154B1B1F1A60704739B1124A121D39
:1052F00012680243104B1B1D1A6006E00E4A121D75
:10530000126882430C4B1B1D1A607047042808D199
:105310004FF0E021096941F004014FF0E0221161F2
:1053200007E04FF0E021096921F004014FF0E0228D
:10533000116170470000FA050CED00E000E400E0A8
:1053400080E100E080FFFF1F30B943F2DB02810003
:10535000A1F1C0410A6005E043F2D2028100A1F14F
:10536000C0410A606FF07042411C8900A1F1C04148
:105370000A608100A1F1C041C1F804217047D0E961
:1053800001121143C268114302691143426911437A
:1053900082691143C2691143026A1143426A11438F
:1053A000826A1143C26A1143026B11430268920080
:1053B000A2F1C0421160816808290BD101688900FF
:1053C000A1F1C041096841F0400201688900A1F1E2
:1053D000C0410A60416B0968426B526841EA0211A0
:1053E000426B926841EA0221426B928941EA024192
:1053F000426B128A41EA0251426B127D41EA02611C
:10540000426B926911430268521C9200A2F1C042A1
:105410001160C16AB1F5804F1BD1816B0968826B45
:10542000526841EA0211826B926841EA0221826B62
:10543000128A41EA0251826B127D41EA0261826B5B
:105440009269114302689200A2F1C042C2F80411AD
:1054500007E06FF0704201688900A1F1C041C1F816
:105460000421704700210160022141600021816018
:10547000C160016141618161C16101624FF480518C
:105480004162490081620021C16201630F21426BC8
:105490001160426B5160FF21426B91600F21426BA2
:1054A000D160426B1161426B51610021426B91618D
:1054B0000F21826B1160826B5160FF21826B9160C2
:1054C0000F21826BD160826B1161826B516100216F
:1054D000826B9161704751B18200A2F1C0421268A3
:1054E00042F001038200A2F1C042136009E0820091
:1054F000A2F1C0421268F94B1A408300A3F1C043E5
:105500001A60704710280AD118214FF02042116606
:10551000402151664FF0FC319166D16610E01821B0
:10552000EF4A116040214FF02042C2F884104FF042
:10553000FC31EB4A083211604FF02042C2F88C1067
:10554000704730B5002100220023446844F008046D
:1055500085682C43C5682C4305692C43456944EA9A
:105560004524856944EA4531C4692468C5696D6884
:1055700044EA0524C5692D8944EA0544C5692D7BA3
:1055800044EA0562046A2468056A6D6844EA0524F1
:10559000056A2D8944EA0544056A2D7B44EA0563C2
:1055A0000468102C05D14FF020442166A266E36602
:1055B00008E0CB4C21604FF02044C4F88820C84C50
:1055C0000C34236030BD10210160002141608160F6
:1055D000C160016141618161FC21C2691160C269E0
:1055E0005160C2699160C269D160026A1160026A49
:1055F0005160026A9160026AD160704799B11028C7
:1056000008D14FF02042126E42F004024FF02043C6
:105610001A661DE0B24A126842F004024FF02043BD
:10562000C3F8802014E0102809D14FF02042126EF8
:10563000AA4BDB1E1A404FF020431A6608E0A84A26
:105640001268A64BDB1E1A404FF02043C3F880209F
:10565000704799B1102808D14FF02042126E42F0E5
:1056600040024FF020431A661DE09D4A126842F046
:1056700040024FF02043C3F8802014E0102809D1E5
:105680004FF02042126E954B3F3B1A404FF02043A3
:105690001A6608E0924A1268904B3F3B1A404FF05E
:1056A0002043C3F88020704701460020102903D111
:1056B0004FF02042506F02E0894A14321068704760
:1056C000182087492031086000200906C1F8A4008D
:1056D0004FF0FC30824928310860091D0860091D1F
:1056E00008607047016841F01001426841EA4221B8
:1056F000826841EA42317A4A20321160C168096801
:10570000C268526841EA0221C268128941EA024134
:10571000C268127B41EA0261714A28321160016954
:1057200009680269526841EA02210269128941EA64
:1057300002410269127B41EA0261694A2C3211601E
:10574000416909684269526841EA02214269128945
:1057500041EA02414269127B41EA02614FF0204274
:10576000C2F8B01070470021016041608160FC21E7
:10577000C2681160C2685160C2689160C268D1603D
:105780000269116002695160026991600269D16029
:105790004269116042695160426991604269D16019
:1057A000704748B14E492031096841F004014FF07B
:1057B0002042C2F8A01009E0494920310968474A4F
:1057C000D21E11404FF02042C2F8A010704710B511
:1057D000F2B1102807D14FF020435B6E0B434FF01E
:1057E0002044636632E0B0F5807F08D13C4B1B1D3E
:1057F0001B680B434FF02044C4F8843026E0384B3C
:1058000024331B680B434FF02044C4F8A4301DE040
:10581000102807D14FF020435B6E8B434FF020449C
:10582000636613E0B0F5807F08D12D4B1B1D1B680C
:105830008B434FF02044C4F8843007E0284B2433D6
:105840001B688B434FF02044C4F8A43010BD10B542
:10585000024600200023102A03D14FF02044636E3B
:1058600009E0B2F5807F03D11D4C241D236802E0BE
:105870001B4C2434236803EA01040CB1012000E02E
:10588000002010BD102807D14FF02042526E8A43ED
:105890004FF020435A6613E0B0F5807F08D1104ADC
:1058A000121D12688A434FF02043C3F8842007E09A
:1058B0000B4A243212688A434FF02043C3F8A420D5
:1058C000704770B502460020002300240025102AEE
:1058D00008D14FF02046736E0DE00000FEFF0F0070
:1058E000800000A0B2F5807F02D1184E336802E03C
:1058F000164E2036336803EA010403EAD10514B1D9
:105900000DB1012000E0002070BD102808D14FF03B
:105910002042526E22EAD1024FF020435A6614E030
:10592000B0F5807F08D1094A126822EAD1024FF00F
:105930002043C3F8842008E0044A2032126822EA97
:10594000D1024FF02043C3F8A4207047840000A088
:1059500010B504469848844208D10121084600F059
:1059600086FB0021012000F082FB76E09348844210
:1059700008D10121022000F07AFB0021022000F072
:1059800076FB6AE08E48844208D10121042000F0B1
:105990006EFB0021042000F06AFB5EE0894884422F
:1059A00008D10121082000F062FB0021082000F04E
:1059B0005EFB52E08448844208D10121102000F0AF
:1059C00056FB0021102000F052FB46E07F48844245
:1059D00008D10121202000F04AFB0021202000F006
:1059E00046FB3AE07A48844208D10121402000F089
:1059F0003EFB0021402000F03AFB2EE07548844237
:105A000008D10121802000F032FB0021802000F02D
:105A10002EFB22E07048844208D10121801500F05D
:105A200026FB0021A01500F022FB16E06B48844203
:105A300008D10121401500F01AFB0021601500F08B
:105A400016FB0AE06648844207D10121001500F0E8
:105A50000EFB0021201500F00AFB10BDF0B50A4630
:105A600000210023002400BF3DE0012505FA01F3D9
:105A7000156805EA03049C4234D105684F000326EB
:105A8000BE40B543056015794E00B5400668354304
:105A900005601579012D02D01579022D16D1856882
:105AA0004F000326BE40B543856055794E00B54092
:105AB000866835438560456801268E40B54345605C
:105AC000456896798E40B6B235434560C5684F004B
:105AD0000326BE40B543C560D5794E00B540C668C3
:105AE0003543C560491C1029BFD3F0BD4FF6FF7187
:105AF00001600021017141718171C171704708B568
:105B00004FF480320092009A0A430092009AC261D8
:105B1000C161009AC261C2690092C269009208BD67
:105B20000246002013690B400BB1012000E0002069
:105B300070470146086980B27047024600205369E9
:105B40000B400BB1012000E000207047014648697E
:105B500080B2704701837047418370470AB1018367
:105B600000E0418370474161704742694A404261A9
:105B70007047F0B5002300244D07ED0E02FA05F33F
:105B8000CE1000F1200555F826504E07F70E0F26CF
:105B9000BE40B543CF1000F1200646F82750CE1086
:105BA00000F1200555F8265045EA0304CE1000F117
:105BB000200545F82640F0BD0000024000040240E8
:105BC00000080240000C0240001002400014024095
:105BD00000180240001C0240002002400024024045
:105BE00000280240F948006840F00100F7490860C9
:105BF0000020F64908310860F4480068F44908407C
:105C0000F2490860F348091D0860F348EF49843100
:105C10000860F0481038091D0860EC48006820F45E
:105C20008020EA4908600020E8490C310860E74913
:105C30008C31086070470021E44A921C11701146B3
:105C40000870704710B501460022002300204A1159
:105C5000012A02D1DD4C236808E0022A03D1DB4C83
:105C60007034236802E0D94C7434236801F01F02B9
:105C7000012494401C400CB1012000E0002010BD24
:105C800038B5002000900024002500BF3120FFF728
:105C9000D9FF05460098401C00900098B0F5A04F31
:105CA00001D0002DF2D03120FFF7CCFF08B1012444
:105CB00000E00024204638BD01460020C34A106899
:105CC00020F0F80040EAC10010607047C349086046
:105CD00070470021BD4A703211701170012802D046
:105CE00004280AD104E00121B84A7032117005E09D
:105CF0000521B64A7032117000E000BF00BF704746
:105D0000B7490860704770B5049C41EA82150126C6
:105D1000C6EB530645EA0645054345EA0465AB4E26
:105D2000361D356070BDAD4908667047820142EA94
:105D30000172A64B84331A607047A8498866704781
:105D400010B5830143EA016343EA02739F4C883430
:105D5000236010BDA14908677047A049C864704717
:105D600002460020994B0833186820F0EC6042EAA4
:105D700001031843954B0833186070470246002012
:105D8000924B0833186820F0784042EA0103184328
:105D90008E4B083318607047014600208B4A08324A
:105DA000106820F0030008431060704787480830EF
:105DB000006800F00C00704701460020834A08325A
:105DC000106820F0F0000843106070470146002082
:105DD0007E4A0832106820F4E05008431060704793
:105DE00001460020794A0832106820F4604040EAF9
:105DF000C10010607047F0B5002100220024022588
:105E000000260223714F08373F6807F00C0121B1CB
:105E1000042905D0082937D105E0724F076036E024
:105E2000714F076033E0694F3F1D3F68C7F38056ED
:105E3000664F3F1D3F6807F03F036EB16A4FB7FBE7
:105E4000F3F7DFF888C10CF1040CDCF800C0CCF3E8
:105E5000881C07FB0CF40CE0624FB7FBF3F7DFF88C
:105E60006CC10CF1040CDCF800C0CCF3881C07FBFF
:105E70000CF4564F3F1D3F68C7F301477F1C7D0060
:105E8000B4FBF5F7076002E0564F076000BF00BFA4
:105E90004E4F08373F6807F0F0010909534F7A5C0D
:105EA0000768D7404760494F08373F6807F4E0511B
:105EB000890A4E4F7A5C4768D7408760434F08375E
:105EC0003F6807F46041490B484F7A5C4768D74008
:105ED000C760F0BD002100F44072B2F5407F0AD1E6
:105EE0003A4A0832116821F4F811414A024011433C
:105EF000364A08321160354A70321268C0F30B031B
:105F00001A43324B70331A60704735494439086080
:105F10007047334940390860704736490860704718
:105F200001460020294A8C32106820F01F004A1ECA
:105F30001043264A8C321060704701460020234AE5
:105F40008C32106820F4F8504A1E40EA02201F4AA2
:105F50008C3210607047014600201C4A8C32106859
:105F600020F4401008431060704701460020174A93
:105F70008C32106820F440000843106070470146DE
:105F80000020124A8C32106820F440300843106020
:105F9000704719490860704739B10C4A30321268AD
:105FA00002430A4B30331A6006E0084A3032126866
:105FB0008243064B30331A607047F9B1034A3432DA
:105FC00012680243014B34331A601CE0003802406F
:105FD000FFFFF6EA103000240030002000004742A6
:105FE000800E47420024F40000127A007400002062
:105FF000FFFCFF0F5C014742E0114742854A1268EF
:106000008243844B1A60704739B1824A121D12686C
:106010000243804B1B1D1A6006E07E4A121D126867
:1060200082437C4B1B1D1A60704739B1794A0C3290
:1060300012680243774B0C331A6006E0754A0C3243
:1060400012688243734B0C331A60704739B1714A3E
:106050001032126802436F4B10331A6006E06D4A2B
:106060001032126882436B4B10331A60704739B19B
:10607000684A243A12680243664B243B1A6006E0E1
:10608000644A243A12688243624B243B1A60704788
:1060900039B1604A203A126802435E4B203B1A60D5
:1060A00006E05C4A203A126882435A4B203B1A6051
:1060B000704739B1574A1C3A12680243554B1C3B92
:1060C0001A6006E0534A1C3A12688243514B1C3B4B
:1060D0001A60704739B14F4A143A126802434D4B67
:1060E000143B1A6006E04B4A143A12688243494B4B
:1060F000143B1A60704739B1464A103A126802439D
:10610000444B103B1A6006E0424A103A1268824340
:10611000404B103B1A60704739B13E4A1C3212683E
:1061200002433C4B1C331A6006E03A4A1C321268A8
:106130008243384B1C331A60704739B1354A2032DC
:1061400012680243334B20331A6006E0314A203292
:10615000126882432F4B20331A60704739B12D4AA1
:106160002432126802432B4B24331A6006E0294A7A
:10617000243212688243274B24331A60704739B1A6
:10618000244A2C3212680243224B2C331A6006E058
:10619000204A2C32126882431E4B2C331A607047FF
:1061A00039B11C4A3032126802431A4B30331A603C
:1061B00006E0184A303212688243164B30331A60B8
:1061C000704739B1134A273A12780243114B273BE3
:1061D0001A7006E00F4A273A127882430D4B273B8C
:1061E0001A7070470B484030006840F080700949D1
:1061F00040310860704701460020064A283A12687C
:106200000A400AB1012000E0002070470149263908
:10621000087070473438024010B50446FA4884428A
:1062200008D101211020FFF766FF00211020FFF7A1
:1062300062FF57E0F548844209D101214804FFF785
:1062400049FF00214FF40030FFF744FF4AE0F048D7
:10625000844209D101218804FFF73CFF00214FF45B
:106260008020FFF737FF3DE0EA48844209D1012151
:10627000C804FFF72FFF00214FF40020FFF72AFF8B
:1062800030E0E548844209D101210805FFF722FFEB
:1062900000214FF48010FFF71DFF23E0DF48844208
:1062A00008D101212020FFF726FF00212020FFF741
:1062B00022FF17E0DA48844209D101218807FFF75D
:1062C00009FF00214FF08040FFF704FF0AE0D548A6
:1062D000844207D101214005FFF7FCFE0021600543
:1062E000FFF7F8FE10BD2DE9FF4705460E460024D6
:1062F000A14600BFA046B08900B100BF2C8A24F49B
:106300004054F08804432C82AC8941F20C608443F1
:10631000B08831890843718908430443AC81AC8A51
:1063200024F44074B0890443AC826846FFF763FDEF
:10633000B548854202D0B948854202D1DDF80C90BB
:1063400001E0DDF80890A88900F4004040B109EBB5
:10635000C90000EB091031684900B0FBF1F707E014
:1063600009EBC90000EB091031688900B0FBF1F7B7
:106370006420B7FBF0F004012009642101FB1078D0
:10638000A88900F4004040B1322000EBC800B0FB07
:10639000F1F000F00700044308E0322000EB0810A1
:1063A0006421B0FBF1F000F00F0004432C81BDE844
:1063B000FF874FF41651016000218180C180018167
:1063C0000C21418100218181704710B502460020D7
:1063D000108A20F470600B884C8823438C882343F8
:1063E000CC8823431843108210BD002101804180D6
:1063F0008180C180704721B1828942F4005282813C
:1064000004E082894DF6FF731A4082817047028B47
:1064100002F47F420283028B0A430283704721B158
:10642000828942F40042828103E08289C2F30E0233
:106430008281704721B1828A42F40062828204E044
:10644000828A4FF2FF731A4082827047C1F30802BA
:106450008280704701468888C0F308007047028A2E
:106460004FF6F0731A400282028A0A430282704792
:1064700021B1828942F00202828104E082894FF6D2
:10648000FD731A408281704782894FF2FF731A4070
:10649000828182890A4382817047028A4FF6DF73C4
:1064A0001A400282028A0A430282704721B1028A9C
:1064B00042F48042028204E0028A4BF6FF731A40E3
:1064C00002827047818941F001018181704721B1C9
:1064D000828A42F00802828204E0828A4FF6F773D1
:1064E0001A4082827047028BD2B20283028B42EA48
:1064F00001220283704721B1828A42F02002828207
:1065000004E0828A4FF6DF731A408282704721B11D
:10651000828A42F01002828204E0828A4FF6EF7390
:106520001A4082827047828A4FF6FB731A40828239
:10653000828A0A438282704721B1828A42F0020233
:10654000828204E0828A4FF6FD731A40828270478D
:106550001AB1838A0B43838202E0838A8B4383824E
:106560007047F0B50346002400260025002040F6C1
:106570006A17B94200D100BF1846C1F3421401F0B6
:106580001F06012707FA06F5012C01D10C3004E0A3
:10659000022C01D1103000E014301AB107682F43EB
:1065A000076002E00768AF430760F0BD02460020C5
:1065B000B1F5007F00D100BF13880B400BB1012063
:1065C00000E00020704701F40072B2F5007F00D1B6
:1065D00000BFCA430280704770B502460024002302
:1065E0000025002040F66A16B14200D100BFC1F379
:1065F000421501F01F03012606FA03F3012D13D102
:106600009689334017E0000000100140004400402C
:1066100000480040004C0040005000400014014081
:1066200000780040007C0040022D02D1168A3340E1
:1066300001E0968A33400C12012606FA04F416880B
:10664000344013B10CB1012000E0002070BD10B542
:106650000022002340F66A14A14200D100BF0A12B2
:1066600001249440A3B2DC43048010BDF0B504467D
:106670000D4604EB850121F007010846AA27061FF5
:10668000304637600A27061F304637601527061F39
:10669000304637601427061F304637601327061F21
:1066A000304637601227061F304637601127061F15
:1066B000304637601027061F304637600927061F0F
:1066C000304637600827061F304637600727061F09
:1066D000304637600627061F304637600527061FFD
:1066E000304637600427061F304637600327061FF1
:1066F000304637600227061F304637600127061FE5
:10670000304637600027061F304637604FF08077ED
:10671000061F30463760061F304633606FF00107B2
:10672000061F304637604FF01237061F304637607D
:106730004FF00337061F304637604FF00237061F11
:10674000304637607F10061F30463760061F3046E0
:1067500032603127061F304637603027061F30462B
:1067600037602927061F304637602827061F304626
:1067700037602727061F304637602627061F30461A
:1067800037602527061F304637602427061F30460E
:1067900037602327061F304637602227061F304602
:1067A00037602127061F304637602027061F3046F6
:1067B00037601927061F304637601827061F3046F6
:1067C00037601727061F304637601627061F3046EA
:1067D00037604FF01137061F304637604FF01037E3
:1067E000061F304637604FF00937061F30463760C6
:1067F0004FF00837061F304637604FF00737061F47
:10680000304637604FF00637061F304637604FF08E
:106810000537061F304637604FF00437061F3046F5
:106820003760F0BDEFF3108072B6704780F31088C8
:10683000704772B6704762B670471F484FF0FF014D
:106840000170002080F30988EFF30880C008C000C1
:1068500080F3088819484FF08051016062B6FEE766
:1068600016484FF080510160704714484FF0805136
:106870000160704772B6EFF3098060B120ED108BB4
:10688000203880E8F00F0E490968086000B500F074
:10689000DFFD5DF804EB0A480A490A6802601068E7
:1068A00090E8F00F2030B0EC108B80F309884EF0A8
:1068B000040E62B67047000022ED00E004ED00E037
:1068C000900000208C000020002400BF0EE0FFF7A5
:1068D000A9FF04460648D0E900305A1C40F10000E8
:1068E0000349C1E900202046FFF7A0FFEFE70000C1
:1068F0009800002010B504460CB9252010BD032ACD
:1069000005D0022A03D0042A01D01C20F6E700BFDC
:106910002460646000BF00202073A160206160617A
:1069200022766376122060730020E7E72DE9F84FA6
:1069300006460F469046B9464FF0000A746D4CB1BA
:10694000607B122806D1207E032803D1657E554541
:1069500000DDAA464D46F4691BE0207E022806D0E1
:10696000032810D1657E554500DDAA460CE0A346FC
:10697000584600F0C4F928B9DBF80000001F009069
:106980000098457E00E000BF00BF4D4500DAA946F3
:106990006469002CE1D1574504DA1A20A8F80000F8
:1069A000BDE8F88F0020A8F800004846F8E72DE978
:1069B000F05F05468846AE7EB24605F11C0920E030
:1069C000444503D16069C9F800001AE0207E02281E
:1069D00004D003280DD194F819A00BE027463846BF
:1069E00000F08DF920B93868A0F1040B9BF819A0CC
:1069F00000E000BF00BF564500DD564604F1140913
:106A000000BFD9F80040002CDAD1687EB04203D034
:106A10003146284601F065F8BDE8F09F2DE9F041C8
:106A200004460F46666DBA480078052801DDBDE8CA
:106A3000F081B7480078401CB549087008460078D6
:106A4000B4490978884203DDB1480078B14908703B
:106A5000707B122813D1307E022810D13569687EF0
:106A6000617E884204DD617E284601F03AF806E046
:106A7000687EB84203D100212846FFF798FFA4485A
:106A80000078401EA249087000BFD0E770B50446E8
:106A9000656D687B12280BD1287E022808D12E69EB
:106AA000707E617E884203D100213046FFF77FFF70
:106AB00070BD2DE9F04104460E46002714B925208B
:106AC000BDE8F0819448007808B12720F8E700BFBE
:106AD000FFF7A8FE074600BF607B122806D000BF64
:106AE0003846FFF7A3FE00BF3620E9E78B4920694F
:106AF0000968884209D1A07E401CA07600BF3846B4
:106B0000FFF794FE00BF1820DAE7207E03280CD19F
:106B100082480068807E617E884206DA00BF38467F
:106B2000FFF784FE00BF1A20CAE7256905BB7B4832
:106B30000068206179480068C06960617748006832
:106B4000C4610120A076207E03280AD17348006822
:106B5000407E617E884204DD617E7048006800F0FE
:106B6000C0FF00BF3846FFF761FE00BF0020A7E767
:106B700036B900BF3846FFF759FE00BF06209FE731
:106B800000BF6748007830B100BF3846FFF74EFEBF
:106B900000BF072094E700BF207E02280BD15F488A
:106BA0000068407E697E884205DA5C480068417E64
:106BB000284600F096FF324658480168204600F00B
:106BC000C9F900BF3846FFF731FE00BF00F03CFABC
:106BD00000215248006800F0B3FC804640466FE751
:106BE0002DE9F0410446002714B92520BDE8F081C5
:106BF0004948007808B12720F8E700BFFFF712FEE8
:106C0000074600BF607B122806D000BF3846FFF75A
:106C10000DFE00BF3620E9E7404920690968884237
:106C200006D000BF3846FFF701FE00BF1720DDE7A2
:106C3000A07E401EA076A07E30B100BF3846FFF790
:106C4000F5FD00BF1820D1E7214634480068FFF762
:106C5000AEFE2646304600F052F840B100202061DA
:106C600000BF3846FFF7E2FD00BF0020BEE73068F6
:106C7000051F284600F056F92561E8696061EC615E
:106C80000120A076207E032807D1687E617E88429D
:106C900003DD617E284600F024FF00BF3846FFF781
:106CA000C5FD00BF00F0D0F900209FE72DE9F041BD
:106CB0000746D7F81C801DE0D4F8148026463046DD
:106CC00000F01DF8A0B93068051F284600F02AF929
:106CD0002561E8696061EC61207E03280AD1687E45
:106CE000617E884206DD617E284600F0FAFE01E002
:106CF000002020615FEA0804DED1BDE8F081014692
:106D00000868884201D1012070470020FCE700009C
:106D1000BC000020BD0000208B000020900000205F
:106D20008A00002042684A60086042681160416041
:106D300070470146142008700020024608E00B1D31
:106D400003EBC2000060406000BF501CC0B20246AE
:106D5000142AF4DB70472DE9F04705460E462F460E
:106D6000A94696F81980D9F8004004E0607D4045B6
:106D700000DD02E02468BC42F8D100BF311D20468E
:106D8000FFF7D0FFBDE8F08730B5024602EBE10225
:106D900001F007050124AC40E3B214781C431470E1
:106DA00030BD70B504460E46757E211D51F8350084
:106DB000311DFFF7B7FF294604F1A400FFF7E4FFF8
:106DC0002078A84200DD257070BD70B504460E46DF
:106DD000757E211D01EBC500311DFFF7A3FF29467C
:106DE00004F1A400FFF7D0FF2078A84200DD257051
:106DF00070BD70B505460C46607E90490968497EB5
:106E0000884204D121462846FFF7DFFF03E02146F0
:106E10002846FFF7C6FF70BDF8B505460F467C7ED5
:106E2000381D00F004F9291D01EBC40001688142FE
:106E300001D1012100E0002101B9F8BD05F1A40054
:106E4000014601EBE40104F0070C012303FA0CF303
:106E5000DAB20B7893430B7000BF2878A04200D0C1
:106E6000EBE7C4F11402214605F1A40000F0A0FBF9
:106E70000646002E02DBA019287007E000200090D3
:106E800000BF9DF800000028FBD000BF00BFD4E782
:106E900070B505460C46617E281D00EBC106201D1D
:106EA00000F0C5F8211D3046FFF73CFF70BD10B55E
:106EB0000278031D53F832100B1F614C236010BD84
:106EC00038B5044694F85000012806D0022805D0B1
:106ED00003280FD0052814D10BE000BF201D00F0BF
:106EE000A6F821465748FFF784FF002084F8500099
:106EF0000FE000BF201D00F09AF8042084F8500035
:106F000007E00020009000BF9DF800000028FBD0A3
:106F100000BF00BF204600F0F6FF002084F85100BB
:106F2000606538BD10B504462046FFF7C9FF10BDA7
:106F300070B504460D4665642046FFF7C1FF70BD7D
:106F400070B504460E4615466664A5642046FFF7F4
:106F5000B7FF70BDF8B506460C4615463DB9002092
:106F6000009000BF9DF800000028FBD000BF6665C0
:106F7000681C18B9012084F8500006E02946204614
:106F800000F0B1FF022084F8500021462D48FFF7A1
:106F900043FF307B012804D1211D3046FFF7C2FE9C
:106FA00003E021463046FFF7D6FE0020F8BD38B595
:106FB000044694F85000012806D0022805D0032882
:106FC0000FD0052814D10BE000BF201D00F02FF8D2
:106FD00021461C48FFF70DFF002084F850000FE009
:106FE00000BF201D00F023F8042084F8500007E0C3
:106FF0000020009000BF9DF800000028FBD000BFDB
:1070000000BF204600F07FFF032084F851000020DD
:10701000606538BD70B50446656D287B30B9201DAC
:1070200000F005F82146606DFFF795FE70BDD0E9D0
:1070300000121160D0E900215160704790000020DB
:107040008C0000201847002010B500245348007819
:1070500010B95348007800B110BDFFF7E3FB0446B8
:107060005048FFF724FF504800685049096888429B
:1070700003D12046FFF7DAFBEEE7FFF7F1FB2046EE
:10708000FFF7D4FB00BFE7E700B585B0052048490E
:1070900008704448FFF74DFE00F020FF45480060AF
:1070A000406000BF012044498022444BCDE90132B9
:1070B000CDE9031000201323024641A1009043486C
:1070C00000F0CCFA01F0F1F80023022240A143487D
:1070D000FFF710FC002005B000BD10B53448007863
:1070E00005280CD12F48FFF7E2FE2F4800682F49F2
:1070F000086004202E490870FFF79FFB01E0042080
:1071000010BD0320FCE72DE9F04106460027254885
:10711000001D00EBC60500BFFFF784FB074600BF5C
:1071200028460168814201D1012100E0002131B1EE
:1071300000BF3846FFF77AFB00BFBDE8F081286842
:10714000041F207E012805D100BF3846FFF76EFBE3
:1071500000BFF2E728680068A84205D100BF3846A2
:10716000FFF764FB00BFE8E7206910B12069401E0B
:107170002061206928B100BF3846FFF757FB00BFE8
:10718000DBE721460748FFF783FE6069206100BF07
:107190003846FFF74BFB00BF00BFCEE78B00002057
:1071A0008A000020184700208C000020900000205A
:1071B00088000020C0000020C9680008184800208E
:1071C00069646C655F7461736B000000C0470020E8
:1071D00074696D65725F6D7574657800884C002008
:1071E00003460BB925207047501C08B91520FAE753
:1071F00000BF1B605B6000BF1A61996000201873BC
:107200005861112058730020EDE72DE9F041044644
:107210000E46002700BFFFF705FB074600BF607B57
:10722000112807D000BF3846FFF700FB00BF36200B
:10723000BDE8F0812546284600F0FCF8C0B1206981
:10724000401C30B900BF3846FFF7F0FA00BF1520E8
:10725000EEE72069401C206100BF3846FFF7E6FAE0
:1072600000BF606910B12046616988470020DFE7F0
:1072700056B103E02968081FFFF754FE284600F0C6
:10728000D9F80028F6D003E02968081FFFF74AFE66
:1072900000BF3846FFF7CAFA00BFFFF7D5FE00204F
:1072A000C6E710B504460CB9252010BD00212046C4
:1072B000FFF7ABFFF9E710B504460CB9252010BD68
:1072C00000212046FFF7A1FFF9E710B504460CB9ED
:1072D000252010BD01212046FFF797FFF9E770B583
:1072E00004460D4600260CB9252070BD554800788F
:1072F00008B12720F9E700BFFFF794FA064600BF60
:10730000607B112806D000BF3046FFF78FFA00BF20
:107310003620EAE7656100BF3046FFF787FA00BF15
:107320000020E2E72DE9F04104460D46002614B99D
:107330002520BDE8F0814348007808B12720F8E710
:1073400000BFFFF76FFA064600BF607B112806D02A
:1073500000BF3046FFF76AFA00BF3620E9E7206930
:1073600048B12069401E206100BF3046FFF75EFA39
:1073700000BF0020DDE735B900BF3046FFF756FA01
:1073800000BF0620D5E700BF2F48007830B100BF0E
:107390003046FFF74BFA00BF0720CAE700BF2A4676
:1073A0002A4801682046FFF7D5FD00BF3046FFF7A9
:1073B0003DFA00BFFFF748FE00212448006800F0B6
:1073C000BFF807463846B4E72DE9F04104460D46BC
:1073D0000027264614B92520BDE8F0811948007819
:1073E00008B12720F8E700BFFFF71CFA074600BFE7
:1073F000607B112806D000BF3846FFF717FA00BFA0
:107400003620E9E7206908B125610CE0304600F03C
:1074100011F808B1256106E000BF3846FFF706FA0B
:1074200000BF1620D8E700BF3846FFF7FFF900BFBE
:107430000020D1E701460868884201D10120704749
:107440000020FCE78B0000208A0000209000002034
:1074500008B50D490968C86A016839B10021009171
:1074600000BF9DF800100029FBD000BF0649096845
:107470000968814207D20021009100BF9DF80010E9
:107480000029FBD000BF08BD9000002010B50024EB
:10749000FFF7C8F904466B48007818B92046FFF793
:1074A000C5F910BD67480078401E66490870084657
:1074B000007818B12046FFF7B9F9F2E76248007882
:1074C00018B12046FFF7B2F9EBE76048FFF7EFFC91
:1074D0005F4800685F490968884203D12046FFF78A
:1074E000A5F9DEE7FFF7C1F92046FFF79FF900BFD6
:1074F000D7E710B500F012FD56490968487EFFF73E
:1075000002FE00F0C3FE10BD10B500244D48007807
:10751000642801DB412010BD00BFFFF783F904465A
:1075200000BF48480078401C4649087000BF20460C
:10753000FFF77CF900BF0020EDE74748006870477F
:1075400018B50246002092F8513033B1012B09D012
:10755000022B09D0032B0BD108E009B1546C0C604D
:1075600000200DE008200BE0092009E00A2007E0D8
:107570000024009400BF9DF80040002CFBD000BF09
:1075800000BF18BD70B5044600252E48007808B12C
:10759000272070BD00BFFFF745F9054600BF2E4804
:1075A000046000BF2846FFF741F900BF0020F0E764
:1075B000F0B505460B4616462C46581104EB8004E0
:1075C00003F01F0048B103F01F0C012000FA0CF07B
:1075D000401E276827EA000200E0226800212BE015
:1075E00002B311B903F01F00091A90B208B9120CC6
:1075F0001031D0B208B9120A083102F00F0008B9F0
:107600001209091D02F0030008B99208891C02F052
:10761000010000B9491CB14201DA0846F0BD4FF043
:10762000FF30FBE709B1203103E003F01F00C0F198
:107630002001201D04460268B142D1DB4FF0FF302B
:10764000ECE700008B0000208A0000201847002093
:107650008C00002090000020A00000202DE9FF4FAA
:1076600081B004468B461D46DDF84890DDE90F6881
:10767000002000901CB9252005B0BDE8F08F142D26
:1076800001DB1320F8E70EB92320F5E7119808B9BC
:107690002320F1E7FA48007808B12720ECE700BF83
:1076A000FFF7C0F8009000BF132D0CD1F54800780B
:1076B00030B100BF0098FFF7B9F800BF0120DBE749
:1076C0000120F049087000BF0098FFF7AFF800BF35
:1076D000582200212046F8F7DAFE0E9810B10E98D5
:1076E000606101E0322060616069206102202076E3
:1076F000B9F1000F03D0002084F8500004E004200A
:1077000084F850000120E076E66237464FF0000A28
:1077100003E0002001C70AF1010AC245F9D341463E
:107720003046119B039AFEF7A1FF2060C4F84CB0CD
:107730006576A576C4F8288000BFFFF773F800903F
:1077400000BFD14804F1200142684A6008604268E5
:107750001160416000BFB9F1000F03D02146CB4852
:10776000FFF733FBCA480078042806D000BF009812
:10777000FFF75CF800BF05207EE700BF0098FFF729
:1077800055F800BFB9F1000F01D0FFF75DFC0020F4
:1077900072E730B5024600240AB9252030BD09B988
:1077A0002320FBE7D36A00E0641C20CB002DFBD034
:1077B0000C600020F2E710B50024B148007808B151
:1077C000272010BDB3480078FA2801D30F20F8E72E
:1077D00000BFFFF727F8044600BFAE480078401C02
:1077E000AC49087000BF2046FFF720F800BF00201A
:1077F000E7E710B50024A248007808B1272010BDA3
:10780000A448007808B90E20F9E700BFFFF70AF88E
:10781000044600BF9F480078401E9E4908700846F5
:10782000007830B100BF2046FFF700F800BF0D2000
:10783000E5E700BF2046FEF7F9FF00BFFFF704FCB5
:107840000020DCE770B5044600268D48007808B1BA
:10785000272070BD00BFFEF7E5FF064600BFDCB184
:1078600000BF8C48007830B100BF3046FEF7DEFF25
:1078700000BF0720EDE700BF06208749096881F8AF
:10788000500021468448006800F02DFB82480168C2
:107890007E48FFF7C1FA04E07F4801687B48FFF7A4
:1078A000F7FA00BF3046FEF7C1FF00BFFFF7CCFB81
:1078B00034B1002178480068FFF742FE054600E039
:1078C00000252846C5E72DE9F04705460E469046B7
:1078D00099466B48007810B12720BDE8F08742F246
:1078E0000F70864201D93B20F7E7B5F57A7F01D3C7
:1078F0003A20F2E7C8244FF4FA70B0FBF4F04844A1
:1079000060434FF47A71B0FBF1F14FF4616068436A
:10791000C6EB061200EB8200404400FB04171FB1C7
:107920003846FFF78FFFD8E73C20D6E770B504460E
:10793000002500BFFEF776FF054600BF56480068E9
:1079400084420BD100BF5348007830B100BF2846B5
:10795000FEF76CFF00BF072070BD00BF94F8500019
:10796000082832D2DFE800F004141A2320220E2166
:107970000120E076042084F8500021464348FFF7B8
:107980004BFA29E00120E076072084F8500023E03C
:107990000120E076052084F850001DE00120E0760B
:1079A000032084F8500017E000BF00BF00BFE07E56
:1079B000401CE076E07EFA2806D300BF2846FEF79A
:1079C00035FF00BF1120C7E706E000BF2846FEF7DD
:1079D0002DFF00BF1020BFE700BF00BF2846FEF705
:1079E00025FF00BFFFF730FB0020B5E710B50446C8
:1079F0000CB9252010BD607E132801D12E20F9E797
:107A00002046FFF793FFF5E770B50446002500BF59
:107A1000FEF708FF054600BF94F85000082846D23C
:107A2000DFE800F00406073C0E24051B00BF00BF82
:107A300000BF00BF2846FEF7F9FE00BF122070BD50
:107A4000E07E401EE076E07E30B9002084F85000F1
:107A500021460E48FFF7CDF930E0E07E401EE0768B
:107A6000E07E10B9062084F8500027E0E07E401E3A
:107A7000E076E07E10B9012084F850001EE000009E
:107A80008B00002089000020C00000201847002043
:107A9000880000208A00002090000020E07E401E28
:107AA000E076E07E10B9022084F8500006E000BFC6
:107AB0002846FEF7BBFE00BF1020C0E700BF00BF96
:107AC0002846FEF7B3FE00BFFFF7BEFA0020B6E778
:107AD00010B504460CB9252010BD2046FFF794FFD1
:107AE000FAE770B504460D46002600BF94F8500032
:107AF000082829D2DFE800F0041B1C1E181D1719E6
:107B00002146F248FFF788F96576F148006884421B
:107B100004D12146ED48FFF744F903E02146EB4844
:107B2000FFF753F912E000BF00BF65760EE000BF1B
:107B300000BF00BF667E65762046FFF76BFA3146D0
:107B40002046FEF76BFF01E0102070BD00BF002053
:107B5000FBE72DE9F84304460D4616460027B846D4
:107B600000BFDC48007810B12720BDE8F8830CB9CD
:107B70002520FAE70EB92520F7E7607E132801DB00
:107B80002B20F2E7132D01D12B20EEE700BFFEF7EB
:107B900049FE804600BF6A4629462046FEF7C6FEDB
:107BA0000746BDF8000000B115E0A5763D46607EB1
:107BB000307029462046FFF794FF0090BDF8000082
:107BC00000B108E000BF4046FEF730FE00BFFFF7FF
:107BD0003BFA0020C9E700BF4046FEF727FE00BF82
:107BE000BDF80000C1E770B5044600250CB925209A
:107BF00070BDB848007808B12720F9E7607E1328E7
:107C000001D12D20F4E700BFFEF70CFE054600BFB2
:107C1000AF48006884420BD100BFAF48007830B154
:107C200000BF2846FEF702FE00BF0720E0E700BFC6
:107C30002046FFF73BF894F85000082820D2DFE8F0
:107C400000F0040F111209100A0B21469F48FFF79C
:107C5000E3F81CE01BE000BF204600F054F916E0FA
:107C600000BF00BF00BF204600F04DF9201D00F00E
:107C700026F9082084F850002046FEF707FF06E0AA
:107C800000BF2846FEF7D2FD00BF1020B0E700BFBE
:107C9000082084F8500004F1200000F010F900BF23
:107CA0002846FEF7C3FD00BFFFF7CEF900209FE78F
:107CB0002DE9F04104460D461646002700BFFEF7A9
:107CC000B1FD074600BF04F10C0040F8265000BF8C
:107CD0003846FEF7ABFD00BFBDE8F081024602F179
:107CE0000C0050F82100704770B504460D46002680
:107CF0000CB9252070BD7748007808B12720F9E736
:107D000000BFFEF78FFD064600BF0DB1656101E0C3
:107D1000322060616069206100BF3046FEF786FD59
:107D200000BF0020E6E770B505460C4600260DB9F9
:107D3000252070BD012C03D0022C01D02620F8E7AD
:107D40006448007808B12720F3E700BFFEF76AFD1A
:107D5000064600BF2C7600BF3046FEF767FD00BF29
:107D60000020E6E770B504460D4600260CB9252034
:107D700070BD0DB92520FBE75648007808B12720D3
:107D8000F6E700BFFEF74EFD064600BF207E2870D6
:107D900000BF3046FEF74AFD00BF0020E8E770B59F
:107DA000044600250CB9252070BD4A48007808B16A
:107DB0002720F9E700BFFEF735FD054600BF94F820
:107DC0005000082836D2DFE800F0041E1F1D051CF5
:107DD0000D0E36E0002084F8500021463B48FFF7A6
:107DE00008F82EE000BF204600F08DF82146374805
:107DF000FEF7FFFF002084F85000012084F85100B6
:107E00001FE000BF00BF00BF204600F07CF8201D2F
:107E100000F055F821462D48FEF7EBFF002084F8CE
:107E20005000012084F851002046FEF72FFE00206C
:107E3000606506E000BF2846FEF7F8FC00BF102092
:107E4000B2E700BF00BF2846FEF7F0FC00BFFFF717
:107E5000FBF80020A8E71E48006870472DE9F047AE
:107E600004460E4617464FF000091A48007810B134
:107E70002720BDE8F08700BFFEF7D4FC814600BF95
:107E800025680AE0D5F800800EB1281FB0471FB161
:107E90002168081FFFF746F84546A542F2D100BF0A
:107EA0004846FEF7C3FC00BFFFF7CEF80020E0E72E
:107EB0004FF4457000F520700830801C7047D0E901
:107EC00000121160D0E9002151607047184700206E
:107ED000900000208B0000208A0000206348006092
:107EE000406000BF704770B504460D4655B160480C
:107EF00000682844A063E5635C4E2146304600F0EC
:107F00008FF8266470BD70B50446256C2DB104F160
:107F1000300000F07EF80020206470BD2DE9F843A9
:107F20004FF0000800BFFEF77DFC804600BF5048C0
:107F30000068401C4E4908604C4E356860E0B54210
:107F40005DD02F68A5F130044949A06B09688842CB
:107F500054D194F85000022813D0032827D00628C3
:107F600002D007283FD134E0002084F8510084F883
:107F700050002046FFF7C7FF21463E48FEF739FF75
:107F800039E02046FFF7BFFF201D00F042F82146F0
:107F90003848FEF72EFF022084F85100002084F8B4
:107FA00050002046FEF772FD0020606523E0204669
:107FB000FFF7A9FF201D00F02CF8022084F85100E3
:107FC000042084F850002046FEF760FD0020606524
:107FD00011E0042084F85000002084F8510020466D
:107FE000FFF791FF07E00020009000BF9DF8000020
:107FF0000028FBD000BF00BF3D4601E001E000E0EB
:108000009DE700BF00BF4046FEF710FC00BFBDE883
:10801000F883D0E900121160D0E900215160704767
:10802000F0B502460B4614461746DE6B38680CE086
:10803000A0F13005DFF838C0A96BDCF800C0A1EB77
:108040000C01B14200D902E00068A042F0D100BFAB
:1080500003F13001D0F804C0C1F804C00860D0F8C2
:1080600004C0CCF80010416000BFF0BDA4000020A7
:10807000A00000201847002010B59D4800F034F9FA
:1080800010BDF0B50246134616468D6930680BE008
:108090000446DFF860C26769DCF800C0A7EB0C0794
:1080A000AF4200D902E000689842F1D100BF00BFA2
:1080B00047684F60086047683960416000BFF0BDA5
:1080C000816849B100BFD0E900231A60D0E90032CD
:1080D0005A6000BF002282607047F8B504460E4621
:1080E0000CB92520F8BD8448007808B12720F9E7AD
:1080F00094F82900182801D03620F3E794F82800D6
:10810000022801D12120EDE794F82800032801D1AD
:108110002120E7E766624FF0FF317848FEF7C9FC9F
:1081200005463DB10020009000BF9DF800000028EA
:10813000FBD000BF6F49E069096808446061E069ED
:10814000A0616B48A0602146FFF79BFF022084F8E6
:1081500028006A48FEF744FD0020C3E72DE9F047F8
:1081600004460F4615461E46DDE9099ADDF82080D3
:1081700014B92520BDE8F0870DB92320FAE7B8F13E
:10818000000F01D12220F5E75B48007808B12720D5
:10819000F0E7E76025616662C4F81C80C4F82090AF
:1081A0000020A0616061012084F828000020A06008
:1081B000204600F099F8182084F82900BAF1000F41
:1081C00003D031462046FFF788FF0020D2E708B5EC
:1081D00000214B48FFF7F8F800BF56E04FF0FF31A1
:1081E0004748FFF79FF84FF0FF314448FEF761FC26
:1081F00007463FB10020009000BF9DF80000002816
:10820000FBD000BF3B480068401C3A490860384D2D
:108210002E6835E0AE4232D0D6F80090344635496B
:1082200060690968884229D12046FFF749FF206A22
:1082300060B1206AA0612F49A069096808446061A3
:108240002B48A0602146FFF71CFF02E0012084F8C4
:108250002800206980B12169606A88478046B8F1AA
:10826000880F09D194F82800012805D02046FFF78F
:1082700027FF012084F828004E4601E001E000E0DD
:10828000C8E700BF1D48FEF7ABFCA7E710B51D48C7
:108290000068401E1B4908600846006820B901209C
:1082A00008601748FEF7FDFF10BD00B585B001203E
:1082B00014490860FFF7E0FE0120AFF2ED018022D3
:1082C000114BCDE90132CDE9031000200523024610
:1082D0000EA100901148FFF7C1F9002210A1084833
:1082E000FEF77EFF05B000BD0060406070470000F3
:1082F000AC000020B40000208B000020884C00203F
:10830000704C0020B8000020704A002074696D6530
:10831000725F6F626A65637400000000184A002093
:1083200074696D65725F73656D00000002461146E9
:1083300000E0491C087810B108782028F9D1881A83
:10834000C0B2704708B538B90022009200BF9DF84E
:108350000020002AFBD000BF39B90022009200BFE4
:108360009DF80020002AFBD000BF086000224A6070
:108370007A4A12685160794A116008BD01460020AE
:10838000012209E00B78202B04D122B1431C58B202
:10839000002200E00122491C0B78002BF2D170472B
:1083A0002DE9F84F05460E4617464FF000083DB937
:1083B0000020009000BF9DF800000028FBD000BF07
:1083C0003EB90020009000BF9DF800000028FBD0BF
:1083D00000BF3FB90020009000BF9DF800000028BA
:1083E000FBD000BF5E48006878BB5E485C4908600F
:1083F00031E05B4800680068D0F800904846FFF71D
:1084000095FF82462846FFF791FF0446544501DD5B
:10841000A34600E0D3465A464946284600F023F9D1
:10842000A0B94F480068006890F90C0000280BDBE9
:108430002846FFF7A3FF4A490968096891F90C101B
:10844000884201D04FF0010809E009E04448006883
:10845000406843490860424800680028C9D100BF0D
:108460003F48006858B1B8F1010F08D13A463E497B
:10847000304600F0BCF80020394908601EE038485A
:108480000068A0B13A4600213046F8F700F83448B9
:10849000006800682A463946836830469847804617
:1084A000B8F1010F0AD100202D49086006E03A46D4
:1084B0002E49304600F09BF84FF001084046BDE8D9
:1084C000F88F30B5034600240020002515601FE01A
:1084D00000E05B1C1D7815B11D78202DF9D100E05E
:1084E0005B1C1D7815B11D78202DF9D01D7875B154
:1084F000641C8C420CD1184603E015686D1C156095
:108500005B1C1D7815B11D78202DF6D102E001E02D
:108510008C42DDDB00BF30BD2DE9F04106460D4643
:1085200017461348006810B90E48114908601048F2
:10853000006800682A464168304600F058F80C4848
:10854000006840680A4908600846006808B90124C4
:1085500000E000242046BDE8F0810000D0000020AB
:10856000D4000020C800002010BF0B086CBF0B080F
:10857000D800002070B588420BD803460C4603E0B3
:1085800014F8015B03F8015B1500A2F10102F7D1B9
:108590000EE0034613440C46144405E0651E2C46C9
:1085A0002E785D1E2B462E701500A2F10102F5D12A
:1085B00070BDF0B5034600201C460D4608E0267845
:1085C0002F78F61B300000D004E0641C6D1C521E96
:1085D000002AF4D800BFF0BD10B50246104600BF17
:1085E00011F8014B02F8014B002CF9D110BD10B568
:1085F000034605E00C781C7004B1491C5B1C521E3C
:10860000002AF7D110BD10B50246104600E0521CFA
:108610001378002BFBD100BF11F8014B02F8014B7E
:10862000002CF9D110BD30B5034618468AB100E0E0
:108630005B1C1C78002CFBD104E0541E220001D1ED
:108640001C7005E011F8015B03F8015B002DF4D10B
:1086500000BF30BD01460A4600E0521C10780028D9
:10866000FBD1501A704730B503460C460FE013F8A3
:10867000011B14F8015BA94206D0A94202DA4FF0AF
:10868000FF3030BD0120FCE701B902E0521E002A94
:10869000EDD100BF0020F4E710B502460B460EE016
:1086A00012F8011B13F8014BA14206D0A14202DAD5
:1086B0004FF0FF3010BD0120FCE701B900E0EFE70B
:1086C00000BF0020F6E72DE9F04103460C464EA717
:1086D00000254FF0010C00E05B1C18782028FBD02F
:1086E00018780928F8D018782B2804D02D2804D120
:1086F0004FF0FF3C00BF5B1C00BF00BF00BF102A53
:1087000011D1187830280ED15B1C1878612805DB50
:1087100018787A2802DC1878203800E01878582871
:1087200000D01DE05B1CAAB91878302811D15B1C61
:108730001878612805DB18787A2802DC1878203848
:1087400000E01878582802D15B1C102202E00822B1
:1087500000E00A22022A01DB242A00DD0A2200BFEF
:108760001CE03E46002110E01878612805DB1878EF
:108770007A2802DC1878203800E0187896F8008013
:10878000404500D103E0761C491C9142ECDB00BF60
:10879000914200DB06E005FB02155B1C18780028FF
:1087A000DFD100BF04B1236005FB0CF0BDE8F08110
:1087B000F0B504460E463046FFF74CFF07461EE074
:1087C00020783178884213D1254600E06D1C287846
:1087D000202802DD28782328F8D1281BB84207D1A9
:1087E0003A4631462046FFF7E4FE08B92046F0BD80
:1087F00000BF207818B114F8011B0A29F9D120789C
:108800000028DDD100BFF2E730313233343536375E
:1088100038394142434445464748494A4B4C4D4EFE
:108820004F505152535455565758595A0000000052
:1088300010B54FF4B431024809F03CFE10BD000001
:10884000A44C00204FF0D841088070473849088078
:10885000704703E030F8022B354B1A800A00A1F173
:108860000101F7D1704705E04FF0D842B2F88020FF
:1088700020F8022B0A00A1F10101F5D1704710B5D3
:10888000A0B014211BA804F0C1FD682101A804F0C8
:10889000BDFD00231A46274927480AF07BFB044602
:1088A0004FF4F0724FF4A07100200FF0F7FB4FF47B
:1088B000F0724FF4A07100200FF006FC1BA92046B7
:1088C00008F09CFF1D4809901D480A901D480C9017
:1088D0001D4810901D4B1E4A01A9204608F0AEFF0E
:1088E000C12040F6177340F23F1200210090084665
:1088F0000CF024FEE42040F6857340F2DF120021E4
:10890000009001200CF01AFE20B010BD2DE9F041BE
:1089100006460C461746012C04D1F8F7CEFF00207E
:10892000BDE8F0814FF0FF3500BF00BF2846F7E7F4
:108930008000006C1C340B0838380B084588000890
:108940004D8800085388000867880008D11801087E
:10895000711801087047704710B5FCF78BFA10BD0D
:1089600010B5FCF78CFA10BD10B5FEF7E6FD00EB74
:108970008000400010BD70B504464FF47A7060432B
:10898000C82190FBF1F52846FEF75CFF70BD7047EB
:1089900010B50120FEF756FF10BD10B501220DA144
:1089A0000E48FEF71DFC10BD10B50C48FEF779FC13
:1089B00010BD10B54FF0FF310848FEF7B3FC10BDF5
:1089C00010B5FFF748FA10BD704770477047704701
:1089D000704700006775695F73656D00A4B401207E
:1089E0000020F7490860F7490860F74908607047B8
:1089F00010B504464FF408000CF014FC0AF006FA17
:108A000024B105221146F1480AF046FD10BD7CB59F
:108A100004460EF0FBFF05460FF004F806464FF43F
:108A20000800EB4933462A46CDE9001000210846EC
:108A30000AF06EFE24B105221146E4480AF02CFD2E
:108A40007CBD2DE9F04F85B080460EF0DFFF03902E
:108A50000EF0E8FF06460EF0CDFF8346B34509DD74
:108A60004FF408000CF0DEFB5B4600210846039A39
:108A70000AF0DAF9D7480068002867D1C925D64836
:108A8000D64901222B46CDE9002102902A46002139
:108A900008460BF0F3FB824601203346009000218C
:108AA0000846039A0BF0AEFBCA490860CA48CB4996
:108AB00001226423CDE900210290002108460BF039
:108AC000DDFB814650460BF063FE04904FF4080036
:108AD0000CF0A8FB0AF09AF948460BF059FE4FF447
:108AE0000800BB4964230022CDE90010114610465E
:108AF0000AF00EFE48460BF06FFD074650460BF09D
:108B000047FE002409E038680CF090FB22466421FF
:108B100008460AF053FD641C3F1D642CF3DBAD488E
:108B200000680BF035FE0021039833460A46CDE974
:108B30000060029150460BF0C9FC50460BF0B6FBAA
:108B400048460BF0B3FB04980BF022FEA1480068E6
:108B50000BF07AFEB8F1000F04D0052211469B48B5
:108B60000AF09AFC05B0BDE8F08F10B54FF404711F
:108B70009B48006813F0FAF80446204613F0FEFB09
:108B800010BD10B54FF404719548006813F0EEF86D
:108B90000446204614F09AF810BD70B504462068CB
:108BA0000E280DD00F2802D01E2815D105E08D48C3
:108BB00000788D490968884712E00020E0600FE0E6
:108BC000E568686838B128686E2803D101208749B4
:108BD000086000BF00BF03E0204612F097FF00BF0F
:108BE00000BF70BD10B502E00A200AF09FFA744879
:108BF00000680128F8D07D480068012804D10020D1
:108C00007A490860012010BD0020FCE7FEB5064649
:108C10000C4625680AF056FF68460CF067F89DF888
:108C2000080018B1012020600020FEBD9DF808005A
:108C300038B9012D05D10020206001206B49086062
:108C4000F3E7FFF7CFFF6949086008460068ECE7E3
:108C50002DE9FC47044620680E2806D00F283CD09A
:108C60001D2809D026287BD14BE013F069F88246F5
:108C7000214613F03BFE82E04FF40471606813F06C
:108C800075F881460E21484611F0BEFA584948460B
:108C900011F092FA4FF40061606813F067F88146B2
:108CA0000021484605F0CAFF40F60101606813F054
:108CB0005DF881460021484605F0C0FF4FF4B071D1
:108CC000606813F053F881464AA1484612F0ACFAA6
:108CD0004A49484612F096FA51E0606813F05AF992
:108CE0000646606813F067F9074645486FF07F4114
:108CF0007B1E721ECDE90010002108460AF008FD17
:108D00003DE0A06813F063F80546D4F80C80B8F194
:108D1000020F2ED1B5F5006F03D0A5F6010030BBD0
:108D20001FE02748006868B10020254908600BF063
:108D300099F825490968401A22490860002013F073
:108D400097FC0CE001201E4908600BF08BF81D49D0
:108D50000968401A1C490860606813F089FC06E045
:108D600009E0012021490860FFF73AFE00BF00BF7B
:108D700000BF00BF03E0204612F0C8FE00BF00BFE6
:108D8000BDE8FC872DE9FC410446206801280BD092
:108D90000E2802D00F2849D134E012F0D1FF074647
:108DA000214613F0A3FD45E00EF030FE05464120BC
:108DB0006B10691000900022606813F038FF39E0F2
:108DC000F8000020F0000020F4000020DC990A08E0
:108DD0005555FF0008010020FC370B08B8A10B080F
:108DE000DC00002004010020E4000020FC00002042
:108DF000045D0908496E74726F000000E0440B08BE
:108E0000C0CEDC00606813F0C5F80546606813F05A
:108E1000D2F80646F8486FF07F41731E6A1ECDE90E
:108E20000010002108460AF073FC03E0204612F00F
:108E30006DFE00BF00BFBDE8FC8110B50446606850
:108E400040B90E21206807F0FCFB0021206807F0E4
:108E50000CFC03E0204607F09FF810BD00BF002087
:108E6000FBE770B50246002300E05B1CD55C002DDB
:108E7000FBD10124012003E004EB84056C00401CBD
:108E8000B1FBF4F50A2DF7D20025D61835540DE0C4
:108E90000A25B1FBF5F605FB16153035D618064444
:108EA00006F8015C0A25B1FBF5F1401E0028EFD160
:108EB00070BD10B502460020002300E0401C145C89
:108EC000002CFBD103E0CC5C1454401C5B1CCC5C3C
:108ED000002CF8D1145410BD10B586B0142101A88F
:108EE00004F094FA4FF4B071C448006812F03EFFE9
:108EF0000446C3A101A8FFF7DCFFC3480168491C71
:108F000001A8FFF7AEFFC1A101A8FFF7D2FFC0483B
:108F1000016801A8FFF7A5FFBEA101A8FFF7C9FFDF
:108F2000BD484068411E01A8FFF79BFF01A92046EC
:108F300012F07AF906B010BD7CB512F001FF0646BA
:108F400013F0B6FC09F062FF09F01EFF0EF05EFDA3
:108F500004460EF067FD054612F0F2FE0646A5F146
:108F60003D01A4F150003346AC4ACDE90001052192
:108F7000AB4809F095FFA149086012F0E1FE0646F2
:108F800000210120C0EB64003346A64ACDE9000170
:108F90000221A54809F084FFA4490860084600683A
:108FA00013F0ECF99548006813F0A1FA12F0C8FE2E
:108FB000064612F043FE0AF085FD12F0C1FE064699
:108FC00012F04AFE02F046FA00208F49086014E0D1
:108FD000FFF706FDFFF780FF8F4909688A4A12688C
:108FE00051F82200804700208949086090490860B4
:108FF00085480068401C84490860874800688249A9
:10900000096850F821000028E2D17F4908607B48B8
:10901000006812F0AFFD8548006812F0ABFD09F062
:10902000D7FD7CBD08B1012100E00021814A11700B
:10903000704700210170704710B57F48006810B17B
:109040007E48006810BD0AF00DFF7D490968401A8E
:10905000F8E72DE9F04104464FF4047167480068D1
:1090600012F084FE8046642C01DDFFF78AFD0021AA
:10907000404611F0D9F822460021404611F0ABF8E5
:109080000AF0F0FE064600BFFFF7D6FF871B642CF0
:1090900003DD3946404611F0C7F805200AF046F8CE
:1090A000FFF7A0FD0546A74201D2002DECD0642CAD
:1090B00001DDFFF75AFD0AF005FDBDE8F08110B5AE
:1090C000044620465F490968884710BD014652485A
:1090D0000089084008B1012070470020FCE710B566
:1090E0004648006813F04AF912F02AFE044613F0CD
:1090F00001FE10BD10B54D48006813F03FF912F0A5
:109100001FFE044613F0F6FD10BD10B54048006880
:10911000401C3F490860FFF763FCFFF7DDFE10BD10
:1091200010B53648006813F0D1FD0AF0CBFC10BD35
:1091300070B504463D48006813F02EFA50B14FF464
:10914000B0713A48006812F011FE054621462846E3
:1091500012F06AF870BD10B53448006813F0B6FD1F
:1091600010BD10B504462046FFF773FFFFF7CDFF93
:1091700010BD2DE9F84F07460C460EF047FC82461D
:109180000EF050FC83464FEA6A0000904FEA6B09EC
:10919000FFF7B0FFFFF7C4FF0AF094FC0120FFF7D0
:1091A0008EFF6FF07F400CF041F802200CF09EF82B
:1091B00025480CF055F83C22384600990AF0A8F8EA
:1091C00022480CF04DF80AF0D5FD8046A9EB0800C6
:1091D00000F10A02204600990AF09AF8002500E002
:1091E0006D1C605D0028FBD105EB85000601304653
:1091F000FFF7B7FFBDE8F88FC0CEDC00DC00002031
:1092000044656D6F20000000E80000202E00000083
:10921000EC0000202F000000BCB40120518C00089D
:1092200000F20208858D00088CF20208E0000020A0
:109230000001002004010020F8000020F4000020BC
:10924000F0000020E40000200C8C090840670B08A7
:109250008CB02C492C480BF0C5FA12F071FD064673
:109260002A4913F059FB05F0FBFC002101A807F087
:1092700091F800200690002101A807F09BF9012138
:1092800001A807F087F800200690012101A807F047
:1092900091F91F4807F024F91E4810F07FFF1E487F
:1092A00005F0BEFC1D4811F0E7FC1D4811F0A4FEBE
:1092B0001C480DF03BFF02200CF018F81A4801F092
:1092C000FBFB0EF0F3FA0546102D11DB0420FFF72F
:1092D000FDFE68B109F0A8F90446B4F5001F03DDEE
:1092E00012481349086006E012481149086002E07C
:1092F00011480F4908600120FFF794FE01E0FFF7D5
:109300001BFEFCE7000100200D8C00089B8B000871
:109310003B8E000819A10108E9E9000885AA0108A7
:10932000A9AE010851700108BCB40120438A0008AD
:10933000E40000200F8A0008F18900082DE9FF4FA2
:1093400095B0804689461546229E4022E04901A8F4
:1093500004F000F808FB06F809FB06F97543DD493F
:109360001898484311900027002430E0119978188C
:109370000DF0E2FB1390119978180CF093FD129008
:10938000129868434FEA104B13986843020C1492EA
:10939000A246E11704EB11710911A4EB011101AA16
:1093A00052F821000BF042FF08F018FF304608F099
:1093B000FDFF149A09EB020108EB0B002A4608F0A6
:1093C00025FF08F003FF45F2E4700744641CC2481F
:1093D0008742CBD319B0BDE8F08F2DE9FF41054698
:1093E0000C46286802906868039002A80BF01CFFE6
:1093F0000022412102A80BF069FCBDF90800BDF96B
:109400000C104718BDF90A00BDF90E1046180420CB
:1094100006EBD672511007EBD77200905010002364
:109420002322FFF78BFF6FF07F400BF0FFFE01233D
:109430000E2202A9A9A009F0ABFF0022412102A837
:109440000BF044FC6FF07F400021CDE90010BDF926
:109450000E30BDF90C20BDF90A10BDF908000AF064
:1094600023F9BDF80A00204400B2ADF80E00FF2039
:109470000BF0DCFE0E2202A99AA009F063FF22463F
:10948000002102A80BF022FC4FF47F400BF0CEFE2F
:109490000E2202A993A009F055FF2246002102A83E
:1094A0000BF014FC4FF47F000BF0C0FE0E2202A95B
:1094B0008CA009F047FF60424200002102A80BF097
:1094C00005FCBDF80A0004EB4401084400B2ADF805
:1094D0000E000022412102A80BF0F8FBBDF80A00A3
:1094E000204400B2ADF80E00FF200BF09BFE09F007
:1094F0008DFC2246002102A80BF0E8FB4FF47F40D0
:109500000BF090FE09F082FC2246002102A80BF02D
:10951000DDFB4FF47F000BF085FE09F077FC604225
:109520004200002102A80BF0D1FBBDF80A0004EBB9
:109530004401084400B2ADF80E006FF07F400BF01C
:1095400075FE01230E2202A964A009F021FF00226A
:10955000412102A80BF0BAFBBDF80A00204400B27A
:10956000ADF80E000020FF21CDE90010BDF90E304E
:10957000BDF90C20BDF90A10BDF908000AF0C8F8C1
:109580002246002102A80BF0A1FB00204FF47F41EE
:10959000CDE90010BDF90E30BDF90C20BDF90A105F
:1095A000BDF908000AF0B4F82246002102A80BF029
:1095B0008DFB00204FF47F01CDE90010BDF90E3086
:1095C000BDF90C20BDF90A10BDF908000AF0A0F899
:1095D00060424200002102A80BF078FBBDF80A00AF
:1095E00004EB4401084400B2ADF80E006FF07F4078
:1095F0000BF01CFE01230E2202A938A009F0C8FEC0
:1096000000200BF011FEBDE8FF8170B504460D4649
:1096100035480BF025FE6FF07F400BF007FE01236D
:109620000E222946204609F0B3FE70BD1CB52F4816
:109630000BF016FE0C22BE212DA009F069FE0020C1
:10964000ADF800002B20ADF802003B20ADF804007F
:10965000BDF802005F3000B2ADF80600BDF90600AB
:10966000BDF90210401A032190FBF1F4694626A0CF
:10967000FFF7CBFF2B480BF0F3FD21466846FFF7C1
:10968000ACFE6522002168460BF020FB694626A04F
:10969000FFF7BBFF2B480BF0E3FD21466846FFF7C1
:1096A0009CFE1CBD10B528A134A0FFF762FD01206F
:1096B000FFF705FD01200AF087F90446FFF7B6FF22
:1096C0004FF47A60FFF74DFD20460AF07DF910BD9A
:1096D000C4F2020818FCFFFF407E05004142430A25
:1096E0004142430A41424300EC530B080C8C0908E9
:1096F000416E7469616C6961736564207465787426
:109700002073616D706C6500416E7469616C696194
:1097100073656420746578740A2028342062707040
:1097200029000000C8A00908416E7469616C696174
:1097300073656420746578740A2028322062707022
:109740002900000020A209084F757470757420610B
:109750006E7469616C696173656420746578740AFC
:109760006F6E20646966666572656E7420626163FF
:109770006B67726F756E64732E000000416E7469C2
:10978000616C696173656420546578740000000041
:109790002DE9F04105460EF039F906460EF042F982
:1097A00004466FF07F400BF041FD00200BF09EFD62
:1097B00000200BF037FD09F029FB25B105221146E9
:1097C000FE4809F069FEFE48006880B1FD480BF0D4
:1097D00047FDA4F128020A21FBA009F091FDA4F1A4
:1097E000170002B203230A21002009F0BDFCFA4849
:1097F000006858B1F9480BF033FD0AF0BBFA201AA3
:10980000471071103A46F6A009F082FDBDE8F081DC
:109810002DE9F0470446F048006868B3F348006853
:10982000A04229D00EF0F2F805460EF0FBF80646ED
:10983000EE4804606FF07F400BF0F8FC00200BF066
:1098400055FDE6480BF00CFD0AF094FA301A401072
:1098500007B231200AF052FA8146E1A00AF0B8FAC4
:109860002844401CC9EB60000FFA80F801233A46F7
:109870004146204609F078FCBDE8F08710B52DED93
:10988000068B0446002C1EDBB4F57A7F1BDA2046DB
:1098900023F0BFFC41EC1A0B9FEDD50B53EC102BC2
:1098A00023F00AFD41EC190B9FEDD30B53EC102B69
:1098B00023F036FE41EC180B23F03EFA00EE100ABE
:1098C000BDEC068B10BDB4F57A7F1EDB40F2E240A2
:1098D00084421ADAA4F57A7023F09BFC41EC1A0B4F
:1098E0009FEDC70B53EC102B23F0E6FC41EC190B5A
:1098F0009FEDC50B53EC102B23F050FA41EC180BE5
:1099000023F01AFA00EE100ADAE740F2E24084424D
:1099100021DB40F6B24084421DDA0220FFF778FFD7
:10992000A4F2E24023F075FC41EC1A0B9FEDB80B5A
:1099300053EC102B23F0C0FC41EC190B9FEDAE0B48
:1099400053EC102B23F0ECFD41EC180B23F0F4F951
:1099500000EE100AB4E740F6B24084421EDB40F647
:10996000AC5084421ADAA4F6B24023F052FC41EC27
:109970001A0B9FEDA30B53EC102B23F09DFC41EC35
:10998000190B9FEDA10B53EC102B23F007FA41ECC0
:10999000180B23F0D1F900EE100A91E740F6AC5015
:1099A000844221DB41F2707084421DDA0320FFF70C
:1099B0002FFFA4F6AC5023F02CFC41EC1A0B9FEDCA
:1099C000960B53EC102B23F077FC41EC190B9FED19
:1099D0008A0B53EC102B23F0A3FD41EC180B23F062
:1099E000ABF900EE100A6BE741F2707084421FDBA6
:1099F00041F66A0084421BDAA4F5B850703823F0AF
:109A000008FC41EC1A0B9FED7E0B53EC102B23F05E
:109A100053FC41EC190B9FED7C0B53EC102B23F006
:109A2000BDF941EC180B23F087F900EE100A47E767
:109A300041F66A00844222DB42F2224084421EDA6E
:109A40000420FFF7E5FEA4F5C0506A3823F0E1FBDF
:109A500041EC1A0B9FED720B53EC102B23F02CFCF6
:109A600041EC190B9FED640B53EC102B23F058FDC8
:109A700041EC180B23F060F900EE100A20E742F2E7
:109A8000224084421FDB42F21C5084421BDAA4F5C0
:109A90001050223823F0BDFB41EC1A0B9FED580B00
:109AA00053EC102B23F008FC41EC190B9FED560BE7
:109AB00053EC102B23F072F941EC180B23F03CF916
:109AC00000EE100AFCE642F21C50844222DB43F610
:109AD000982084421EDA0520FFF79AFEA4F5145060
:109AE0001C3823F096FB41EC1A0B9FED4F0B53EC07
:109AF000102B23F0E1FB41EC190B9FED3F0B53ECD6
:109B0000102B23F00DFD41EC180B23F015F900EE9E
:109B1000100AD5E69FED460AD2E610B52DED068B6C
:109B20000446002C1EDBB4F57A7F1BDA204623F0B6
:109B300070FB41EC1A0B9FED3F0B53EC102B23F005
:109B4000BBFB41EC190B9FED3D0B53EC102B23F0AD
:109B5000E7FC41EC180B23F0EFF800EE100ABDEC27
:109B6000068B10BDB4F57A7F06DB40F2E2408442FA
:109B700002DA9FED340AF2E740F2E24084426EDB03
:109B800040F6B24084426ADAA4F2E24023F041FB9C
:109B900041EC1A0B9FED2C0B53EC102B23F08CFB9C
:109BA00041EC190B9FED2A0B53EC102B23F0B8FC62
:109BB00041EC180B23F0C0F84EE050E0DC990A08A5
:109BC00034010020206F09086D7365632F7069638D
:109BD000747572653A0A0000380100200C8C09087F
:109BE0004765617220202020310000003C010020E8
:109BF000333333333333B33F0000000000406A4057
:109C0000333333333333D33F0000000000E0604090
:109C1000333333333333A33FB81E85EB51B89E3F04
:109C20009A9999999999993F79E9263108AC6C3FAD
:109C3000000007437B14AE47E17A943F0000000028
:109C400000206C4000004D437B14AE47E17A843F16
:109C50000000000000A0694000EE100A7FE740F617
:109C6000B240844206DB40F6AC50844202DA9FEDFB
:109C7000FE0A74E740F6AC5084421EDB41F270707D
:109C800084421ADAA4F6AC5023F0C3FA41EC1A0B62
:109C90009FEDF60B53EC102B23F00EFB41EC190B50
:109CA0009FEDF40B53EC102B23F03AFC41EC180B16
:109CB00023F042F800EE100A51E741F2707084423E
:109CC00006DB41F66A00844202DA9FEDEC0A46E7C1
:109CD00041F66A0084421FDB42F2224084421BDAD2
:109CE000A4F5C0506A3823F094FA41EC1A0B9FEDAA
:109CF000DF0B53EC102B23F0DFFA41EC190B9FED37
:109D0000E00B53EC102B23F00BFC41EC180B23F071
:109D100013F800EE100A22E742F22240844206DBEA
:109D200042F21C50844202DA9FEDD70A17E742F252
:109D30001C5084421FDB43F6982084421BDAA4F5B2
:109D400014501C3823F065FA41EC1A0B9FEDCF0B31
:109D500053EC102B23F0B0FA41EC190B9FEDCD0B17
:109D600053EC102B23F0DCFB41EC180B22F0E4FF4A
:109D700000EE100AF3E61FED520AF0E62DE9F0417D
:109D800005462E460DF042FE04463078F0B1C34B36
:109D90001B88C24F3F88E71B03EB67035A1EBF4B6C
:109DA0005B88BF4F3F68D919BC4B1B88E31A58101A
:109DB000BB4B1B68623309F037F8B8480088201A9B
:109DC0004110B7480268B54809F066FB6FF07F4064
:109DD0000BF02CFAB24800688A3000EB40036010A8
:109DE00000EB40020521B01C08F048FA307890B131
:109DF00002200BF07BFAFF200BF018FAA9480BF0B9
:109E00002FFAA6484088A64B1B681844421D6110D3
:109E1000A5A009F07DFABDE8F0812DE9F0410546E5
:109E20002E460DF0F3FD0446307840B39B4F3F883B
:109E3000DFF868C2BCF800C0A4EB0C0C07EB6C07A1
:109E40007A1E974F3F6862377B00944F7F88DFF818
:109E500050C2DCF800C067447900904F3F88E71B90
:109E6000781008F0E1FF8E480068400000F16202BF
:109E70008A480088201A4110884809F00DFB6FF0CD
:109E80007F400BF0D3F986480068623040002830EC
:109E900000EB4003601000EB40020421B01C08F00E
:109EA000EDF93078A0B102200BF020FAFF200BF082
:109EB000BDF97C480BF0D4F9794800684000623065
:109EC000764B5B881844421D61107AA009F020FA95
:109ED000BDE8F0812DE9F047A2B0482107A803F0C2
:109EE00095FA00200190029081460DF09BFD0546F9
:109EF0000120FFF78DFC00244BE0BFEE000A05A80F
:109F000000EB840080ED000A04EBC40119AA02EB07
:109F100041000AF073F96A4850F82410484688470F
:109F2000DFED680A20EE200A04EBC40007A901EB6C
:109F3000800080ED080A04EBC4038C460CEB83031D
:109F4000D3ED080AB0EE600A5F4B03EBC4035A6816
:109F50005D4B53F8341004EBC4030CEB8303981CE3
:109F60000AF06EFF04EBC40C0DF11C0A0AEB8C0323
:109F7000DFF858C15CF8242004EBC40C0AEB8C0118
:109F800004EBC40C0DF1640A0AEB4C000AF042FA2F
:109F9000641C022CB1DBFFF74FF806460027DEE019
:109FA000002499E0464850F8241048468847DFEDE1
:109FB000450A20EE200A04EBC40007A901EB80004B
:109FC00080ED080A05A800EB840090ED000A04EB80
:109FD000C40001EB8000D0ED080AB4EE600AF1EE97
:109FE00010FA78D004EBC40001EB800090ED080A71
:109FF00005A800EB840080ED000AFFF71DF88046FD
:10A0000004EBC4030DF11C0C0CEB8303D3ED080A25
:10A01000B0EE600A2C4B03EBC4035A682A4B53F88A
:10A02000341004EBC4030CEB8303981C0AF008FF04
:10A0300004EBC40C0DF11C0A0AEB8C03DFF88CC096
:10A040005CF8242004EBC40C0AEB8C0104EBC40C78
:10A050000DF1640A0AEB4C000AF0DCF9FEF7ECFFA4
:10A06000A0EB080003A934E000003943FCA9F1D2B9
:10A070004D62703F000000000020674000002F4349
:10A080000000000000E065400000234361325530CD
:10A090002AA9533F00000000006064408C2C030894
:10A0A000300100200C8C090852504D202F203130F7
:10A0B000303000004D5048202F203130000000008B
:10A0C0005001002035FA8E3C40010020580100204C
:10A0D00001E041F82400641C022CFFF663AF5A48EB
:10A0E0000068C8B3142097FBF0F100FB117098BB17
:10A0F0006FF07F400BF09AF800200BF0F7F8534810
:10A100000BF0AEF8002425E003A850F8240001A9C4
:10A1100051F8241088421CD0A5F11700DFF82CC19B
:10A120009CF818C000EB0C036A1001460A2008F0E6
:10A130007BFEA5F117010AB203A951F824000323FD
:10A140000A2109F011F803A850F8240001A941F8E8
:10A150002400641C022CD7DB09F0B4FC7F1CFEF742
:10A160006BFF801B814643F69821884204DAFEF794
:10A1700039FD00283FF414AF002407E004EBC401CC
:10A1800019AA02EB41000AF0B1F8641C022CF5DBBD
:10A1900022B0BDE8F0872DE9F04100262CA136A0C1
:10A1A000FEF7E7FF0DF032FC04460DF03BFC0546E0
:10A1B000A5F1C400032190FBF1F034490860344854
:10A1C0000088401D33490988611AB0EB610F06DB36
:10A1D0002F484088401D2D490968884200DA012631
:10A1E000AFF21C6009F0F4FD2A490988611AB0EB4E
:10A1F000610F07DB2548006862304100A5F12800A7
:10A20000814202DA01201049086023480BF028F847
:10A21000074609F0AFFD401C1C490968884202DA74
:10A2200001201E49086038460BF01AF83046FFF747
:10A23000AFFA07F0D3FF032008F0B8F8FFF74AFEA3
:10A2400007F0C4FFBDE8F08134010020206F090849
:10A250004578616D706C657320666F7220746865F7
:10A260000A6175746F6D6F7469766520696E6475C7
:10A2700073747269650000004175746F6D6F746965
:10A2800076652073616D706C65730000300100208D
:10A29000DC990A088C2C03080C8C09083801002072
:10A2A0002DE9F84F82460F46904650460AF070FA64
:10A2B0000090C9480AF0D4FF02200BF017F809F00B
:10A2C00071FD8146002420E0FD1F04EB840108F1AC
:10A2D0006000A0EB8100C61F32462946BF4809F046
:10A2E000DBF8CB4609EBDB704210F01D811AE81D4C
:10A2F00009F0F6FD02200AF0EFFF00200AF096FFB9
:10A30000611C480008F041FF641C052CDCDB009850
:10A310000AF03EFABDE8F88F2DE9FF5F81460D4651
:10A3200016469846DDF838A048460AF031FA039000
:10A33000AB480AF07BFF042006F17A0305F1AC027A
:10A3400031460090284609F017FCA6480AF06EFF37
:10A3500000240AE005F1AA0204EB8403B11D01EB1D
:10A360004300A91C09F02CFA641C0C2CF2DB002021
:10A37000044620E0062C04DA214601EBD17252108B
:10A3800005E0204604EBD0725210C2F1040293465D
:10A3900058F8247006F17A03DB1B9A1F05F10803B5
:10A3A00003EB0411904B009753F82B00012309F0A5
:10A3B00099F8601C04460A2CDCDB28B2ADF80400D6
:10A3C000E81C00B2ADF8080030B2ADF8060006F1A6
:10A3D0007A0000B2ADF80A0001A80AF025FF834810
:10A3E0000AF024FFA8200AF0E1FE042006F17A0317
:10A3F00005F1AC0231460090284609F0BDFB002073
:10A400000AF012FF06F1790305EB0A02711C281D00
:10A4100009F084FB00200AF0C9FE49F2F3400AF07B
:10A4200005FF042006F17A0305F1AC0231460090E5
:10A43000284609F065FA324629464846FFF730FFBC
:10A44000484609F07FFE03980AF0A2F9BDE8FF9F95
:10A450002DE9F04FA5B02822654917A802F07AFF30
:10A460002822634928310DA802F074FF01200290D0
:10A4700040250A2001900DF0C9FA83460DF0D2FA6A
:10A480002490ABF1AC004010239024987A3840100F
:10A49000229058480AF0E4FE09F084FC56494988A5
:10A4A000081A052101EB60002190534800885844A8
:10A4B000411052A0219A08F02BFF7B23B422DDE942
:10A4C000221009F095FE8246BAF1000F02D125B0A4
:10A4D000BDE8F08F002408E004F001000121C1EB89
:10A4E000400003A941F82400641C01988442F3DB76
:10A4F0000020DDE92221FFF7D3FEFEF79DFD064691
:10A5000000BFFEF799FD871B0DAB00955046DDE9B6
:10A510002221FFF701FF02980544A42D01DA082D3E
:10A5200002DC029840420290002423E00DA850F87B
:10A53000240003A951F8241008440DA941F824006F
:10A540000DA850F8241017A850F824000A308142B2
:10A5500008DC0DA850F8241017A850F824000A3879
:10A56000814206DA03A850F82400404203A941F8CA
:10A570002400641C01988442D8DBFEF75DFDA0EB4B
:10A580000608A8EB07001F2806DAA8EB0701C1F1AF
:10A590001F0008F0CBFD01E009F094FAFEF722FB62
:10A5A000814643F69820874202DAB9F1000FA8D01D
:10A5B000504609F07BFE00BF89E710B515A11AA02F
:10A5C000FEF7D7FD0120FEF77AFD08F001FBFFF74B
:10A5D0003FFF08F0D9FB10BD5C2E03089031030843
:10A5E00010224A0030487700600100200091D90015
:10A5F000A83203080C8C0908DC990A085354656DCD
:10A6000057696E2062617267726170682064656D5F
:10A610006F000000416E696D617465642062617253
:10A620002067726170680000426172204772617039
:10A6300068000000F8B50DF0E9F944100DF0F2F9EA
:10A6400045103B480088401000EB4000261A38486F
:10A650004088401000EB40002F1A032003463A4682
:10A6600031460090324808F03DFF32A0FEF760FD11
:10A67000F8BD2DE9F0410DF0C9F906460DF0D2F90B
:10A68000074632221421324808F006FF31A0FEF7B7
:10A690004FFD40F6B830FEF764FD0020FEF70FFDD9
:10A6A00032221421224808F0F7FE30A0FEF740FDC8
:10A6B00040F6B830FEF755FD002415E000250BE00C
:10A6C0001B48408800FB05F21948008800FB04F194
:10A6D000174808F0E1FE6D1C1548408897FBF0F024
:10A6E000401CA842ECDC641C1148008896FBF0F08A
:10A6F000401CA042E2DC4FF4FA60FEF732FD20A0DD
:10A70000FEF716FDFFF796FFBDE8F08110B527A113
:10A7100034A0FEF72EFDFEF71EFD0020FEF7CFFC55
:10A72000FFF7A7FF4FF47A60FEF71BFD10BD000096
:10A73000683E03084269746D6170732063616E2026
:10A740006265206D61676E69666965642E2E2E00F4
:10A7500020460308524C4520436F6D707265737339
:10A760006564206269746D6170730000312F322F4F
:10A77000342F3820627070206269746D61707300CC
:10A780004269746D617073206D617920616C736FC3
:10A790002062650A6D61676E696669656420616E35
:10A7A0006420726F746174656400000053686F7791
:10A7B000696E670A646966666572656E74206269AF
:10A7C000746D61707320776974680A616E642077B4
:10A7D0006974686F757420636F6D707265737369E7
:10A7E0006F6E00004269746D617073002DE9F04F67
:10A7F00099B0502105A802F009FE0DF007F9824634
:10A800000DF010F903908E498EA0FEF7B2FC0120E6
:10A81000FEF755FC6FF07F400AF008FD8C480AF007
:10A820001FFD4FEA6A010C228AA008F071FD8C48D6
:10A830000AF016FD2B2201218AA008F061FD3F22BB
:10A84000012189A008F05CFD5322012188A008F0B5
:10A8500057FD6222012188A008F052FD71220121DA
:10A8600087A008F04DFD8522012187A008F048FD52
:10A870009922012186A008F043FD87480AF0F0FCE8
:10A880000DF014F8049005A80499FEF7EAFA83A1E4
:10A8900005A8FEF70EFB09200DF024F88146B9F15A
:10A8A000000F0BD07FA105A8FEF703FB494605A8C2
:10A8B000FEF7D7FA7CA105A8FEF7FBFA0398A0F1F2
:10A8C00019020C2105A808F01BFDFEF7B5FB074691
:10A8D000A6E0FEF7B1FBC01B4FF4FA6190FBF1F26A
:10A8E00001FB1206481096FBF0F808EB4800C0EB9D
:10A8F000C810A6EBC006B6F5FA7F00DD90E0C6EB07
:10A9000006204FF4FA7190FBF1F0C8EB082180EAC1
:10A91000010B0BEB0B2000EB0B446FF07F40051B92
:10A92000FF20342352462B21CDE900043C2008F0BF
:10A93000BBFEFF203E2352463521CDE900053C20D9
:10A9400008F0B2FE4FF47F40482352463F21CDE944
:10A9500000043C2008F0A8FE4FF47F4052235246EA
:10A960004921CDE900053C2008F09EFE4FF47F0010
:10A970005C2352465321CDE900043C2008F094FEAC
:10A980004FF47F00662352465D21CDE900053C204F
:10A9900008F08AFE4648702352466721CDE900043C
:10A9A0003C2008F081FE4FF6FF707A235246712159
:10A9B000CDE900053C2008F077FE4FF6FF708423B8
:10A9C00052467B21CDE900043C2008F06DFE394859
:10A9D0008E2352468521CDE900053C2008F064FE17
:10A9E0003448982352468F21CDE900043C2008F0DA
:10A9F0005BFE4FF0FF10A22352469921CDE90005DE
:10AA00003C2008F051FE4FF0FF10AC235246A3212A
:10AA1000CDE900043C2008F047FE09F053F800BFE0
:10AA2000FEF70AFBC01B41F27071884204DAFEF7A0
:10AA3000D9F800283FF44DAF19B0BDE8F08F000001
:10AA400020C00B08436F6C6F7220626172000000BF
:10AA50000C8C0908436F6C6F722062617273000086
:10AA600040670B0852656400477265656E00000020
:10AA7000426C7565000000004772657900000000B7
:10AA800059656C6C6F7700004379616E00000000BF
:10AA90004D6167656E746100E0440B082062707060
:10AAA000000000002C20000020636F6C6F727300A8
:10AAB0008080800000FFFF00034901600E2141609B
:10AAC00005210181704700006C0100202DE9FC5F29
:10AAD00006468846174600200190009000240CE0AE
:10AAE00056F83450286841880198814204DD28686E
:10AAF00040880190A8680090641C032CF0DB4A4851
:10AB00000AF0AEFB3A464146B06908F0F9FB09F09D
:10AB100031F9401C074445480AF0A2FB002428E014
:10AB200056F8345006EBC40090F80490009838446E
:10AB3000A968A0EB010B484609F0E0F829680988EC
:10AB4000081A4FEA600A1C2202FB0482511D5A4671
:10AB5000286808F0A1FC01983844801C02B21C202F
:10AB600000FB0480401D504401B2484608F0F4FA4E
:10AB7000641C032CD4DBBDE8FC9F2DE9F0412DEDD6
:10AB8000048B0CF043FF064602200AF0AFFB284876
:10AB90000AF066FB71100C2226A008F0B9FB4424D1
:10ABA000304622F036FB41EC190B9FED270B53EC9E
:10ABB000102B22F0A7F941EC180B22F0FBFA074604
:10ABC0004B25224605212248FFF780FF6219052107
:10ABD0002048FFF77BFF224639461F48FFF776FFE4
:10ABE000621939461D48FFF771FFBDEC048BBDE8C3
:10ABF000F08110B51AA123A0FEF7BBFA0120FEF7E1
:10AC00005EFA07F0E5FFFFF7B8FF4FF47A60FEF752
:10AC1000A8FA08F0B9F80021084608F075F81B48B2
:10AC200008F006F810BD0000206F0908A05C0B08B2
:10AC30000C8C0908417661696C61626C65206375F2
:10AC400072736F7273000000000000000000044087
:10AC5000344603086C460308504603088846030838
:10AC60005354656D57696E20737570706F7274738D
:10AC70000A736F66747761726520637572736F72A1
:10AC800000000000437572736F720000FC350B0802
:10AC90002DE9F04180460C4624B1012C05D0022C50
:10ACA00009D105E04625032607E03225012604E008
:10ACB0001E25072601E0BDE8F08100BFEC4951F8F0
:10ACC00024000BF039FF0746E94850F824004FF400
:10ACD0007A7101FB0600E64941F8240007FB05F004
:10ACE000E44A128802EB204001B2404606F092FB93
:10ACF00000BFE0E770B504460D46DF48DF4A126842
:10AD000030F82200DB4A1288104401B2204606F0D7
:10AD100081FBDA480068401CD8490860462801D108
:10AD20000020086070BD2DE9FF4F85B00D46164626
:10AD300099460CF06BFE03900398273804904FF06F
:10AD4000000B002405E055F82410059806F09AFA47
:10AD5000641CB442F7DB0AE0002404E055F8240048
:10AD60002146C847641CB442F8DB0BF1010B049880
:10AD70008345F1DBFEF760F907460120019000BF33
:10AD8000FEF75AF9A0EB0708002404E055F8240068
:10AD90002146C847641CB442F8DB019880B100200A
:10ADA000019008F08FFEB6480168059806F0B6FBE2
:10ADB000B4480168059806F0B1FB059811F09AFFB8
:10ADC000FDF710FF0290FEF737F9A0EB070AAAEB98
:10ADD00008000F2805DAAAEB0801C1F10F0008F0FE
:10ADE000A5F941F28830804502DA02980028C7D0E0
:10ADF000002405E055F82410059806F061FB641C5A
:10AE0000B442F7DBFEF781F909B0BDE8F08F10B569
:10AE1000044620680F2803D10120FEF750F903E013
:10AE2000204610F073FE00BF00BF10BD2DE9F04FAB
:10AE30008DB00CF0EBFD80460CF0F4FD834692489B
:10AE400010F00EFB0C9010F07BFF9049059011F074
:10AE500063FDA8F11406ABF14B05F22D0DDDF225D3
:10AE600005EB850080000B2190FBF1F0B04204DA85
:10AE700005EB8500800090FBF1F6A8EB0600401082
:10AE80000690ABEB05004FEA6009B9F1460F01DA15
:10AE90004FF0460910F054FF002140F602030590E0
:10AEA000CDE901312B463246039100904946069880
:10AEB00006F069FA8246092000231A461321009001
:10AEC000504606F0A9FB504611F04AFE0022704998
:10AED000504606F0BDFB01224FF40801504606F033
:10AEE000B7FB02220021504606F0B2FB032269495B
:10AEF000504606F0ADFB0121504606F002FC192138
:10AF0000504606F0BFFB0A21504606F0D0FB5046E3
:10AF100010F0A0FC00240CE0A8F127015E4A52F8D2
:10AF2000240000231A4606F08DFA07A941F82400F0
:10AF3000641C052CF0DBA5F10907192300220C2164
:10AF4000042006F019FB4E49086014230122022157
:10AF5000092006F011FB4B490860291F484800688A
:10AF600006F047FB6FF004014548006806F02EFB31
:10AF7000002443E004EB4401484A52F83100FEF754
:10AF8000D7F83F480168504606F099F93D480168F6
:10AF9000504606F094F904EB4400404901EBC00030
:10AFA0008068784340123349086004EB44003B4A10
:10AFB00002EBC000C06878434112504606F08CFB9B
:10AFC000A7F1090004EB4402344B03EBC2025268C0
:10AFD000504341122B48006806F0F8FA04EB440095
:10AFE0002E4901EBC000036904EB440001EBC000F3
:10AFF00007A942695046FFF796FE641C04EB440023
:10B00000264901EBC00000690028B3D11C48016843
:10B01000504606F083FA1B480168504606F07EFA57
:10B020001748006806F0D0FA1648006806F0CCFA17
:10B03000002405E007A951F8240006F03FFA641C3B
:10B04000052CF7DB504610F095FD0C9810F008FA2F
:10B050000DB0BDE8F08F10B511A11EA0FEF789F864
:10B06000FEF779F8FFF7E2FEFEF74FF810BD00009B
:10B07000C8B40120D8020020A4010020240300202D
:10B08000D0020020D40200207CA20B080FAE0008E2
:10B090004040400080808000BC020020DC02002094
:10B0A0004F7074696D697A65642064726177696E46
:10B0B0006720726F7574696E650A666F72206472BC
:10B0C0006177696E6720677261706820646174617E
:10B0D0000000000044726177696E6720612067722A
:10B0E000617068002DE9FC5F04460020009001902B
:10B0F000D4F8049020680F2867D0262803D0B0F534
:10B10000806F21D121E0A06810F061FE0646E7685B
:10B11000B6F5147F17D1042F13D1A0680CF0AAF94B
:10B12000804640F26111484610F020FE834608EB4D
:10B130004800A54A02EB80008168584610F074F878
:10B1400000BF00BF00BF00BF5DE0A0480068A0498D
:10B15000096808449D49086008460068642808DBBF
:10B160009B48006840429A490860642097490860FB
:10B170000BE096480068142807DC954800684042B8
:10B18000934908601420914908609220ADF80000AE
:10B190008E480088401F00B2ADF80200BDF80000E4
:10B1A0008C4909880844401E00B2ADF80400BDF87F
:10B1B0000200884949880844001D00B2ADF8060025
:10B1C0006946606811F058F91DE00CF02BFC05464B
:10B1D00081484188A94204DA80480AF023F807F040
:10B1E00015FE7D484088A5EB000A0AEBDA70421094
:10B1F0000021794808F050F9744892210268754896
:10B2000008F04AF900BF00BFBDE8FC9F2DE9F04FF0
:10B2100093B073A17DA0FDF7ACFFFDF76BFF10F0BD
:10B220008FFD834610F018FD10F08AFD83467B49A0
:10B2300011F072FB814610F083FD834678A04FF435
:10B24000B07100220223CDE900B3CDE902210490C0
:10B250001E234FF4A072002108460FF04CFF1290FD
:10B26000754912980FF0CEFF0E21129810F001F8D8
:10B270007249129810F00DF810F062FD834670A02C
:10B2800040F2611100220223CDE900B3CDE9022191
:10B29000049064238C222821A0200FF02CFF119011
:10B2A000684A08A9684809F005FE08A911980FF036
:10B2B000A9FF6FF07F4111980FF0EBFF012111986A
:10B2C0000FF0F9FF0E2111980FF0D3FF0CF0AAFB3D
:10B2D000079010F035FD83463C2037214FF414725F
:10B2E0000223CDE90232CDE904100320CDE900B0FC
:10B2F0000798A0F1280388221E210A200CF05FF88D
:10B30000824600250DE005EB45002F4B03EB800046
:10B31000426805EB450053F8201050460BF08CFFB7
:10B320006D1C092DEFD3494A012150460CF0AFF8AE
:10B33000474950460CF0C2F8504611F09BFB0127DC
:10B340000024FDF779FE42F2283100EB0108FDF7F9
:10B3500073FE00F57A7600BF322007F0E7FE10F0AA
:10B36000EFFC83464FF4806111F0C5FAFDF764FEEF
:10B37000B0420DDB06F57A760CB9012703E0082C04
:10B3800001D14FF0FF373C44214650460CF0A8F85D
:10B39000FDF752FE404503DAFDF724FC0028DBD020
:10B3A000129810F0E7FB119810F0E4FB504610F0F3
:10B3B000E1FB10F0C5FC8346494611F0ADFAFDF7FC
:10B3C000A4FE13B0BDE8F08F441008082803002045
:10B3D0002C030020A8FD0508BC2D0708CAC7B20031
:10B3E00044656D6F6E737472617465732074686503
:10B3F00020757365206F660A7468652049434F4E57
:10B4000056494557207769646765740049636F6ED4
:10B4100020566965772044656D6F0000E5B000082F
:10B420005354656D57696E2049434F4E56494557F1
:10B430002073616D706C65000C8C09084040FF0042
:10B4400000000000E4370B08D02D07080000FFC003
:10B45000A05C0B08F0B589B020223A4901A801F0A0
:10B4600079FF0CF0D3FA05460CF0DCFA04466E10B6
:10B470000020FDF724FE022009F038FF6FF07F4026
:10B4800009F0D4FE304809F0EBFE44F319123146BE
:10B490002EA007F03DFF2F4809F0E2FE04EB440028
:10B4A00000EBC400821131462BA007F031FF384871
:10B4B00009F0BCFE162060438211314635A007F02A
:10B4C00027FF404809F0CCFE16206043122101EB13
:10B4D000A01231463CA007F01BFF6FF07F4009F03F
:10B4E000A5FE1C4809F0BCFE08F0BEFC0746394624
:10B4F00001A801F09CFEC4EB44108211314601A862
:10B5000007F006FF26206043821137480088281A7A
:10B510004110364807F0C0FF6FF07F4009F086FE0B
:10B52000094809F09DFEC4EBC40040F3D90231463E
:10B530002FA007F0EDFE41F28830FDF78AFD09B03B
:10B54000F0BD0000B01008080C8C09085354656D5C
:10B5500057696E0040670B08556E697665727361B6
:10B560006C206772617068696320736F66747761BD
:10B5700072650A666F7220656D6265646465642039
:10B580006170706C69636174696F6E7300000000B4
:10B59000FF882200466F722053544D3332204D43B2
:10B5A000552050726F6475637473202D20436F7241
:10B5B000746578204D33202D20436F727465782098
:10B5C0004D340000C84B0B08436F6D70696C6564A7
:10B5D000204F637420313820323031342032323AF7
:10B5E00030393A353900000098CC090880730A08D0
:10B5F0007777772E73742E636F6D2F73746D33327C
:10B6000000000000F0B593B006460D463C2101A8AD
:10B6100001F0FCFEF4F780FEF521B0FBF1F201FB36
:10B620001204AA4850F8241001A801F0BDFD00241E
:10B630000BE0F4F771FE1A2190FBF1F201FB12000E
:10B640004130C1B206A80155641C052CF1DBF4F7AA
:10B6500063FE42F2107190FBF1F201FB1200A0EBCD
:10B66000610422469AA10BA801F040FC002408E0E6
:10B6700004EB840001A901EB800010A941F824002B
:10B68000641C032CF4DB35B110AA002130460DF008
:10B690004BFF074604E010A930460DF073FC074647
:10B6A000384613B0F0BD70B5054628460DF0DAFEF9
:10B6B000064601210BF05FFD012128460EF057F8E8
:10B6C000012128460EF071F8052128460EF02EF9CA
:10B6D000052128460EF016F9002417E07D4800EBFE
:10B6E000041083687B4800EB04100268794800EB83
:10B6F0000410416828460DF0FAFB764800EB041070
:10B700002146C26828460EF035F8641C032CE5DBA0
:10B7100028460DF096FE70BD2DE9F14F82B04FF036
:10B720000008C146C246C3464FF0FF37002400BFA1
:10B7300004EB4400684901EB8000806838B104EBF9
:10B740004401654A02EB81018868FDF7F1FC04EBD6
:10B750004400614901EB8000406807285CD2DFE8C3
:10B7600000F05B404A383034040002980DF0A1FE2E
:10B770000646002522E0594850F82A0000234A4690
:10B780004146009002980EF02AF80AF10100824624
:10B79000182801D14FF0000A02980DF07CFE08F144
:10B7A00001018846884201D14FF0000809F10100EB
:10B7B0008146B04201D14FF000096D1CB542DAD389
:10B7C0002AE002980DF0AAFE26E002980DF032FE63
:10B7D00022E08BF0010B5A46394602980EF0BAF877
:10B7E0001AE0002504E000210298FFF70BFF6D1C12
:10B7F000282DF8D310E0781C08B9002706E07F1C3C
:10B8000002980DF048FEB84200D100275A4639464A
:10B8100002980EF09FF800BF00BF04EB44012E4ACF
:10B8200052F8210007F082FC601C0446212804D253
:10B83000FDF7D8F900283FF47BAFBDE8FE8F2DE976
:10B84000FF470CF0E3F804460CF0ECF88046A4F156
:10B85000D2005521B1EB600F01DA451002E0A4F5EA
:10B8600091704510A8F14100C61010F069FA8146A8
:10B870004FF4007000210222CDE90092CDE90210C0
:10B88000A8F14100A0EB460306F14101D22228466F
:10B890000DF03CFD0746384611F0ECF83846FFF74E
:10B8A00002FF3846FFF738FF384610F063F9BDE86D
:10B8B000FF8710B50AA115A0FDF75BFC0120FDF77D
:10B8C000FEFBFDF748FCFFF7BAFF10BD3003002078
:10B8D00025690000D0100808001108088C1208081B
:10B8E00053686F777320736F6D652066656174753B
:10B8F000726573206F660A746865204C495354560C
:10B900004557207769646765740000004C6973745B
:10B91000766965772064656D6F0000002DE9F04F52
:10B9200087B005466868039028680F287ED10422F6
:10B9300002A9039810F008FB0298806800283AD109
:10B94000039810F027FB02990861039810F033FB6D
:10B95000029948610298C06A00680088029988606C
:10B960000298C06A006840880299C8600299096913
:10B97000029A9268881A00EBD0714910029A91617C
:10B9800002994969029AD268881A00EBD07149106D
:10B99000029AD1610299086900EBD0714910029AAC
:10B9A00011620299C86800EBD071029AD26902EB69
:10B9B0006101029A5162029800684FF46161484344
:10B9C0000299496890FBF1F700243DE0F848604394
:10B9D0000299496890FBF1F0F649394400EB0109FE
:10B9E00048460BF0A9F8804648460AF05BFA06463E
:10B9F0000298006B04EB440100EB81008460029824
:10BA000081697143026AA2EB21400299096B04EB40
:10BA1000440241F822000298C06900FB08F00014BB
:10BA20000299C96948430299896900E0B0E090FB36
:10BA3000F1F00299496A08440299096B04EB440247
:10BA400001EB82014860641C02984068A042BDDCA2
:10BA500000BF4FF0000A002438E00298006B04EBAE
:10BA6000440100EB810041680298026B601C00EB0E
:10BA7000400002EB80004068814226DD0298006BA6
:10BA800004EB440100EB8102D2E900109268CDE999
:10BA9000050204910298006B04EB440100EB810164
:10BAA0000298026B601C00EB400002EB80030DCBA0
:10BAB0000DC10298016B601C00EB400001EB80009F
:10BAC00004A90EC90EC04FF0010A641C0298406818
:10BAD000401EA042C1DCBAF1000FBAD100242BE015
:10BAE000029B1B6B04EB440C03EB8C035B68DDF8DF
:10BAF00008C0DCF80CB00BEBDB7CA3EB6C02029B08
:10BB00001B6B04EB440C53F82CC0029B9B68019305
:10BB100003EBD373ACEB6301029B1B6B04EB440C94
:10BB200003EB8C039B68DDF808C0DCF82CC05CF8E4
:10BB3000330007F0B1FC641C02984068A042CFDCDF
:10BB40000298806AD8B16FF07F4009F06FFB022045
:10BB500009F0CCFB984809F083FB02990A6B49680D
:10BB6000491E01EB410102EB81018968029AD26A08
:10BB700002EBC101A0224868962107F0C9FBFF2013
:10BB800009F054FB5F2278218C4807F085FC00BF48
:10BB900000BF07B0BDE8F08FF8B505466E682868AD
:10BBA00030284ED104226946304610F0CDF9EC68B9
:10BBB000206820B1012807D0022840D13BE080480E
:10BBC00060626420A0613AE0206A0099886200986F
:10BBD000006861680844009908600098006800994E
:10BBE000496801EBC10202EB0111B0EB810F0BDDE3
:10BBF000009800680099496801EBC10202EB01114D
:10BC0000A0EB8100009908600098006800280BDA1A
:10BC1000009800680099496801EBC10202EB01112C
:10BC200000EB810000990860304610F057F9074694
:10BC300010F05DFC03E000980068E06000BF00BF0A
:10BC400000BF00BFF8BD70B5044608F00BF905460B
:10BC50002E1900BF0A2007F069FA08F003F905461B
:10BC6000B542F7DBFCF7BEFF70BD2DE9F04786B0AB
:10BC70005448059009200599486053480599C862C1
:10BC80005248059908630020059908600BF0BEFE34
:10BC90000646C01706EB10700011C0EB001A0BF03F
:10BCA000C1FE0646C01706EB9070801000EB400402
:10BCB00010F046F806460420454903222346CDE904
:10BCC0000062CDE90210524614210A200FF06EFEE8
:10BCD00007462646A04604203E490322CDE90072CD
:10BCE000CDE9021004EBD870431004EBD67041107C
:10BCF000524600200FF05AFE8146042205A938461C
:10BD000010F092FF042205A9484610F08DFFFCF7C1
:10BD100069FF10B106B0BDE8F087C8231A460021BC
:10BD2000484610F04FFC4FF4FA60FFF78CFF30B13B
:10BD300048460FF01FFF38460FF01CFFEAE74FF4AC
:10BD400048731A460021484610F03CFC4FF4FA6054
:10BD5000FFF779FF30B148460FF00CFF38460FF07F
:10BD600009FFD7E74FF4FA631A460021484610F05E
:10BD700029FC4FF4FA60FFF766FF30B148460FF038
:10BD8000F9FE38460FF0F6FEC4E7C8235A420021F8
:10BD9000484610F017FC4FF4FA60FFF754FFD8B193
:10BDA00048460FF0E7FE38460FF0E4FEB2E7000029
:10BDB000407E0500905F0100EC530B086C5B0908A6
:10BDC0000100020048B50120805B0908DCB40120B5
:10BDD0001DB9000899BB00084FF448735A4200216E
:10BDE000484610F0EFFB4FF4FA60FFF72CFF30B13C
:10BDF00048460FF0BFFE38460FF0BCFE8AE74FF40E
:10BE0000FA635A420021484610F0DCFB4FF4FA6016
:10BE1000FFF719FF30B148460FF0ACFE38460FF07F
:10BE2000A9FE77E7002513E064234FF4FA7200219E
:10BE3000484610F001FC4FF4FA70FFF704FF30B1F0
:10BE400048460FF097FE38460FF094FE62E76D1CEF
:10BE5000052DE9DB48460FF08DFE38460FF08AFECF
:10BE600000BF57E710B5FDF745F9064906A0FDF7F5
:10BE700080F9012010F0A0FBFFF7F7FE002010F082
:10BE80009BFB10BD88CA0B0852616469616C204D30
:10BE9000656E75002DE9F04106460C4615463046A4
:10BEA0000DF007FB0746002130460DF06BF82346E6
:10BEB0003A46002130460DF0D8FC2B463A46012187
:10BEC00030460DF0D2FCBDE8F08110B50446606844
:10BED0001C2801D1052010BD204604F05DF8FAE7CA
:10BEE00070B5054600244FF4007128460FF03EFF60
:10BEF00006460121304610F06AFE012130460DF061
:10BF000054FC032130460DF0FDFC032130460DF0BA
:10BF10000DFD0023FAA2502130460CF0E8FF00236B
:10BF2000F9A2642130460CF0E2FF0EE004EB84003D
:10BF3000F74B03EBC00000F1140204EB840003EBA9
:10BF4000C0013046FFF7A6FF641C04EB8400F049F3
:10BF500011F830000028E9D170BD70B504464FF4E7
:10BF6000807120460FF002FF054628460FF071FE53
:10BF70004FF4C07120460FF0F9FE0546E5A12846B2
:10BF800003F00BF8E5A1284603F007F8E5A12846E1
:10BF900003F003F86FF07F420121284603F0C3FA53
:10BFA00000220121284603F014FB40F281112046B3
:10BFB0000FF0DCFE0546DCA1284602F0EEFFDFA113
:10BFC000284602F0EAFFE0A1284602F0E6FF6FF003
:10BFD0007F420121284603F0A6FA002201212846CB
:10BFE00003F0F7FA70BD2DE9F04105464FF40071FA
:10BFF00028460FF0BBFE074638460DF05AFA0646B3
:10C0000038460DF071FA0446002C24DBB44222DAE3
:10C0100004EB8400BE4A02EBC001CE4801F0C4F834
:10C02000CDA1CC4801F003F904EB8400B84A02EB3F
:10C03000C00000F11401C74801F0F9F84FF4807115
:10C0400028460FF093FE0746C249384603F03BFDF1
:10C050000120BDE8F0810020FBE770B504460D46E5
:10C060000022294620460DF0BFFE0646304607F066
:10C0700043FD70BD2DE9FC41044620680F282FD1F7
:10C080000BF0C4FC05460BF0CDFC06466FF07F407C
:10C0900009F0CCF8022009F029F9B048B04933463C
:10C0A0002A46CDE900100021084607F031FBAD48D3
:10C0B00009F0D6F80522B421ABA007F029F9B04861
:10C0C00009F0CEF807F04EFE07463A46B421ADA07F
:10C0D00007F01EF90A221421AE4807F0DDF900BF6F
:10C0E00020460FF013FD00BF00BFBDE8FC817FB507
:10C0F0000446656820680F2804D01D2815D026281E
:10C1000051D120E002A928460FF00CFE9448934933
:10C11000CDE90010BDF90E30BDF90C20BDF90A10B3
:10C12000BDF9080007F0F4FA41E000209A490860E0
:10C130002846FFF7D5FE012128460FF017FE0646D8
:10C1400010F098FC33E0E06802282BD1A0680FF0D3
:10C150003EFE0646012E02D0022E21D10FE0012024
:10C160008D4908602846FFF73EFF38B98BA18DA0A6
:10C17000FFF773FF284610F07DFC11E000BF01209F
:10C18000854908604FF4FA700090B423BE22502114
:10C19000606808F0B9FA0021606807F055FC00BF3C
:10C1A00000BF00BF03E020460FF0B0FC00BF00BF9F
:10C1B0007FBD2DE9F0410446656820680F2806D050
:10C1C0001D2831D0A0F2131000283AD106E06FF0FC
:10C1D0007F4009F027F806F019FE36E0794800683C
:10C1E000642814DA77480068801C764908604FF4A8
:10C1F000047128460FF0BAFD0646724801683046C1
:10C200000EF012F81421E06810F039FB0BE0E06842
:10C210000FF09FFC4FF4FA71606808F0B1F900214B
:10C22000606807F011FC10E00020664908602846AD
:10C230000FF07AFD07460023C82219460FF08CFB49
:10C2400003E020460FF062FC00BF00BFBDE8F081B4
:10C250002DE9FC5F0446676820680B2804D01D2880
:10C2600006D026284AD1BFE00120574908604CE19A
:10C270000020554908603846FFF76FFE4FF4A8715B
:10C2800038460FF073FD8146002250A148460EF05B
:10C290003BFA01224FA148460EF036FA02224FA186
:10C2A00048460EF031FA4FF4807138460FF05EFDCB
:10C2B00081460E21484603F066FC4A4A0021484662
:10C2C00003F092FB384610F04BFC38460FF02CFD83
:10C2D0008246504610F044FC6FF07041384604F03E
:10C2E000DDF800220121384603F0C0FC0121384668
:10C2F0000FF03CFD804610F0BDFB06E101E10000BF
:10C300004D616B65000000004F7074696F6E7300C3
:10C310000CD30A08426C7565000000004772656521
:10C320006E000000526564004E6176696761746951
:10C330006F6E2073797374656D0000004344205064
:10C340006C617965720000004F74686572202E2E52
:10C350002E0000007CB5012020000000FF8080003E
:10C360008080FF0040670B085354656D57696E204D
:10C370006E6F7720737570706F7274730A000000AF
:10C38000E8D20A0853206B2069206E206E206920B5
:10C390006E20670010B60A08B80800204552524FB8
:10C3A00052000000596F75206861766520746F2017
:10C3B00073656C65637420612076656869636C657C
:10C3C00021000000BC080020B408002046726F6EF7
:10C3D000740000005265617200000000426F7468D2
:10C3E00000000000F0F0F000E06802287ED1A068B4
:10C3F0000FF0EDFC8046B8F1010F4CD0B8F1020F00
:10C4000069D0B8F5B87F79D10FF09AFC8346002047
:10C4100000905B46A14A05210190A14806F040FD2D
:10C420000546A049284604F087F828460FF07AFA16
:10C430004FF4FA70B423BE2250210090284608F031
:10C440003BF919E0642006F071FE97480068012866
:10C4500012D1384610F0ADF870B193480068401C16
:10C46000914908604FF4807138460FF07FFC814697
:10C470008E49484603F027FB8D48006818B9FCF741
:10C48000B1FB0028DED0284610F093F810B1284602
:10C490000FF070FB32E00FF053FC83460020009059
:10C4A0005B46844A02210190834806F0F9FC064667
:10C4B000304610F0DDF87B49304604F03DF84FF48B
:10C4C000FA71304608F042F8384610F010F830465D
:10C4D00007F012FB00BF384610F06BF850B14FF474
:10C4E000FA71384608F04CF8002100E008E03846C0
:10C4F00007F0AAFA01206E49086000BF00BF00BF24
:10C5000003E020460FF002FB00BF00BFBDE8FC9F28
:10C51000FEB50446002000900190029066686748CE
:10C520006749096800EB01152068012824D0A0F2B2
:10C53000131048BBFCF756FB20B16421E06810F0F3
:10C540009EF918E02868009068680190287A8DF8B4
:10C550000800684608F0FCFBE968E06810F08FF915
:10C56000574800681A2801D1002002E054480068AA
:10C57000401C534908600BE0002340F2DC5219468E
:10C5800030460FF0E9F903E020460FF0BFFA00BF94
:10C5900000BFFEBD2DE9F04F87B04A4802F03CFCD9
:10C5A0008046494802F0E4FF814648480EF09EF874
:10C5B000824647480EF054FF834603F0E5FE06909E
:10C5C000444803F087FF022003F09EFF05900FF020
:10C5D000B7FB0746404910F09FF906460FF0B0FB45
:10C5E000074600203D49CDE9007001231A46CDE9F8
:10C5F000021001460FF0DAF905460FF0A1FB0746DD
:10C60000002000903B46364A0C210190354806F048
:10C6100047FC04462349204603F08EFF4FF4FA708E
:10C620006FF05903002211460090204608F044F8AC
:10C6300002E0642006F07AFD1D48006818B9FCF796
:10C64000D1FA0028F5D020460FF094FA28460FF0D2
:10C6500091FA0FF075FB0746314610F05DF9059829
:10C6600003F052FF069803F035FF58460EF0F8FE2F
:10C67000404602F0D1FB484602F07AFF50460EF0E9
:10C6800035F807B0BDE8F08F10B5FCF733FD16A103
:10C6900021A0FCF76EFDFFF77DFF10BDEFC0000885
:10C6A000F4D70A08CBBE0008B80800207CB50120EA
:10C6B000B4080020B3C1000880D80A08040700208D
:10C6C000C008002029ED000851F200082DA601083D
:10C6D0007CA20B0810770B0875C0000811C5000874
:10C6E00051C20008A4D60A0853686F777320736F8D
:10C6F0006D6520776964676574730A646973706C2B
:10C700006179656420776974682061206E6577209F
:10C71000736B696E00000000536B696E6E696E6723
:10C720002064656D6F0000002DE9F04F85B00BF0BF
:10C730006DF902900BF076F901904FF0000A002598
:10C740000298471E41260198A0F13D0807F0EBFA38
:10C75000049007F0CBFA0390039808F067FDFCF70C
:10C760006BFC814600BF43463A463146284607F0F7
:10C77000D5F90AF1010AFCF75FFC044609F16401EE
:10C78000601A0028EFDDA4EB0904781B401CA8EB1D
:10C790000601491C484300FB0AF000900098B0FBDA
:10C7A000F4F04FF47A7100FB01FB049808F03EFDB1
:10C7B000584605B0BDE8F08F2DE9F04796B0282126
:10C7C000684600F023FE0BF021F905460BF02AF92C
:10C7D00004460BF00FF9804606F0FAF9A0450DDD8E
:10C7E0000020ADF82800ADF82A0028B2ADF82C00E2
:10C7F00020B2ADF82E000AA808F016FD5EA16AA0CE
:10C80000FCF7B7FC002608E06A4951F8260006F05C
:10C8100045FB0EA941F82600761C082EF4DBFCF738
:10C820000BFC0746002667E006F007010EAA52F847
:10C83000210008F0FDFCF3F76FFD90FBF5F105FB1F
:10C840001100A94605EBD971A0EB610000B2ADF86B
:10C850003000F3F761FD90FBF4F104FB1100A146F9
:10C8600004EBD971A0EB610000B2ADF83200F3F730
:10C8700053FD90FBF5F105FB1101BDF830001430BC
:10C88000084400B2ADF83400F3F746FD90FBF4F134
:10C8900004FB1101BDF832001430084400B2ADF8B9
:10C8A0003600BDF93630BDF93420BDF93210BDF97E
:10C8B000300007F033F9BDF93400A84203DB681EED
:10C8C00000B2ADF83400BDF93600A04203DB601EB3
:10C8D00000B2ADF83600BDF93000002802DA0020C1
:10C8E000ADF83000BDF93600002802DA0020ADF8BE
:10C8F000360007F0E7F8761CFCF79EFBC01B41F200
:10C900008831884203DAFCF76DF900288CD0FCF7F7
:10C91000FCFBFFF709FF8246002008F085FC0020A1
:10C92000FCF7CDFB6FF07F4008F080FC022008F0A0
:10C93000DDFC214808F094FC052211461F4806F052
:10C94000ABFD1FA16846FCF7B4FA51466846FCF7F8
:10C9500088FA07F027FA201A4FEA600969104A4658
:10C96000684606F0D5FC4FF47A60FCF772FB06F0DF
:10C970000BFA16B0BDE8F0874D756C7469206C61D8
:10C9800079657220636C697070696E670A486967BF
:10C99000686C79206F7074696D697A65642064725F
:10C9A0006976657273000000486967682073706576
:10C9B00065640000B8D80A080C8C0908DC990A08DC
:10C9C000506978656C732F7365633A20000000002E
:10C9D0002DE9F0478046D8F804900BF017F806468A
:10C9E0000BF020F80446FE4805884788D8F8000078
:10C9F0000F286AD0B0F5806F10D0A0F20140002857
:10CA000062D1F848006840B9F748006828B90020AA
:10CA1000F44908600220F449086000BFF048058826
:10CA20004788F048006800280BDA701BEF49096856
:10CA3000884234DB0020EB490860801EEA49086028
:10CA40002DE0E948006800280BDAE01BE849096896
:10CA5000884224DB0220E34908600020E2490860A4
:10CA60001DE0E048006800280ADDE0480068002872
:10CA700015DB0020DB4908600220DB4908600EE07E
:10CA8000D948006800280ADDD9480068002806DB7C
:10CA90006FF00100D34908600020D3490860AE421E
:10CAA00006DAD2480068CF4909680844CF490860CF
:10CAB000BC4206DACE480068CB4909680844CC4934
:10CAC000086048460FF013FD4FE06FF07F4008F01C
:10CAD000A9FBAE4203DD701B4010C4490860BC4294
:10CAE00003DDE01B4010C2490860C1480268BF482E
:10CAF0000168BB4806F0D0FCBC48006838B1631E32
:10CB0000BA480068421E0021084606F08DF9B74871
:10CB100000682844B04207DA631E721EB3490968F0
:10CB20004819002106F080F9B148006858B1B048B2
:10CB30000068431EAD4800682844421E0021AB48EF
:10CB4000006806F071F9AA4800683844A0420BDA80
:10CB5000631EA64800682844421EA5480068C11903
:10CB6000A248006806F060F900BF00BFBDE8F0878A
:10CB70002DE9F04106460C46214630460FF0F6F806
:10CB8000074638460EF010FA0546B4F5987F03D0F4
:10CB9000A4F2311078B905E09648056030460FF0F0
:10CBA000A6FC08E09448056030460FF097F98046EF
:10CBB0000FF09DFC00BF00BFBDE8F0812DE9F04102
:10CBC0000446666820680F2833D01D2802D0262826
:10CBD0003DD120E04FF4987130460FF0C7F8804601
:10CBE000FF22002140460EF015FA824801684046B7
:10CBF0000EF02CFA40F2311130460FF0B7F88046B3
:10CC0000FF22002140460EF005FA7B4801684046AD
:10CC10000EF01CFA1BE0A0680FF0D9F80746E56893
:10CC2000052D04D139463046FFF7A2FF00BF00BFF3
:10CC30000DE07049087808F0B9FA704808F0F2FA87
:10CC400006F0E4F8002008F0B1FABDE8F08100BF7A
:10CC50006B48006818B1204669490968884700BFD9
:10CC6000F3E710B5044620680F2804D1624908781C
:10CC700008F09CFA00BF00BF204603F00BF800202C
:10CC800008F094FA10BD2DE9F04F87B00AF0BEFE0F
:10CC900083465C4803F01EFC022003F035FC4FF095
:10CCA000FF11002003F00CFC4FF0FF11012003F0F6
:10CCB00007FC0EF095FA049052480EF097FA4FF4E4
:10CCC0007F000EF099FA0FF03BF84F4902900FF0F9
:10CCD00023FE03900FF034F840F2014102900FF070
:10CCE0000AFEABF1DC003721029000EBD07040105F
:10CCF00000231A46CDE900010521444806F0D0F88A
:10CD0000804640460FF02CFF414940460FF004FE9C
:10CD100040460FF009F8069006980FF021FF3D49B4
:10CD200006980FF0F9FD364908601D2106980FF0AE
:10CD3000E2FD40460EF0F8FF4FF4987102900FF0BC
:10CD400015F8814640460EF0EFFF40F23111029097
:10CD50000FF00CF88246FCF76FF9064606F1280042
:10CD6000059000BF012006F0E1F9FCF765F90446E3
:10CD7000A51B05998C422EDB04F1280005900EF0CE
:10CD8000DFFF4FF4806102900FF0B5FD41F2883073
:10CD900095FBF0F100FB11554010854207DAC5EB19
:10CDA0000520800042F2107190FBF1F70AE0A5F631
:10CDB000C410C0EB0020800042F2107190FBF1F033
:10CDC000C0F1FF07394648460EF040F9C7F1FF01B0
:10CDD00050460EF03BF9FCF72FF9801B1CE00000D9
:10CDE0007C330B08D0080020D4080020D80800208D
:10CDF000DC080020C4080020C8080020AAAAAA0055
:10CE0000CC08002054A10B08D1C9000890330B08AE
:10CE100063CC0008BDCB000842F21071884203DAEF
:10CE2000FBF7E0FE00289DD040460EF0A3FE14481C
:10CE300003F050FB002003F067FB1249002003F0D1
:10CE40003FFB4FF47F01012003F03AFB04980EF002
:10CE5000CDF900200EF0D0F90EF072FF0290039988
:10CE60000FF05AFD07B0BDE8F08F10B506A111A074
:10CE7000FCF77FF9FCF73EF9FFF705FF10BD000056
:10CE8000C03E0B08404040005573657320616C70D4
:10CE9000686120626C656E64696E670A666F7220F5
:10CEA0007472616E73706172656E63792065666617
:10CEB000656374005472616E73706172656E742084
:10CEC0006469616C6F6700001CB50C46064B7B44BF
:10CED00069460090204600F0E4FB044600206946C5
:10CEE00000F0F2FB20461CBDF70700000FB41CB594
:10CEF000084B06AA7B4469460090059800F0D1FBD8
:10CF000004460020694600F0DFFB20461CBC5DF8AB
:10CF100014FB0000D10700002DE9F0410646002473
:10CF200010687529314615A510D000F00CFB0028BB
:10CF300002DA404212A507E031688A0701D511A53F
:10CF400002E0490704D510A5012401E000F004FB2C
:10CF500000210A2306F1240707E0B0FBF3F203FBEC
:10CF60001200303078541046491C0028F5D1234671
:10CF70002A463046BDE8F04100F020BB000000002A
:10CF80002D0000002B000000200000002DE9F05FC4
:10CF9000894604464FF0000ADFF874B1FB44C0F83C
:10CFA00020A02046E1688847002874D0252806D0B4
:10CFB000D4E901219047206A401C2062F1E7002655
:10CFC0005F462046E16888472028054607DB312D6B
:10CFD00005D2781910F8200C08B10643F1E7B00724
:10CFE00001D526F00406C4F81CA00027C4F818A038
:10CFF0002A2D09D028461FF0FEFD38B304EB870820
:10D00000303DC8F8185019E059F8041B204604EBCD
:10D0100087029161E1688847012F054618D1E069D0
:10D02000002820DA26F020061DE0D8F8180000EBD2
:10D03000800005EB40003038C8F818002046E16851
:10D04000884705461FF0D7FD0028EED1012F0AD0F2
:10D050002E2D08D12046E16888477F1C0546022F07
:10D0600046F02006C4DBA069002803DA404246F0FF
:10D070000106A061F00701D026F010066C2D0BD040
:10D08000682D09D04C2D39D06A2D35D0742D35D06E
:10D090007A2D33D016E038E0E1682F4620468847E5
:10D0A000B842054609D16C2F26D04FF48060E16864
:10D0B000064320468847054604E06C2F1AD04FF4FB
:10D0C000807006430DB3A5F14100192802D8203520
:10D0D00046F400664A462946204626604E46F3F747
:10D0E000ADF880B101280BD0F61D26F0070000F145
:10D0F000080956E74020E4E78020D8E70020D6E77B
:10D1000006F104094DE7284652E7206ABDE8F09F82
:10D11000A5EC0A000B4910B5A1F17C020A4CC2E94A
:10D120003712372106E000EB104342F82130074B5D
:10D1300000FB03400B1EA1F10101F4DC10BD012036
:10D14000E8E70000C0B90120E119D666CD0D010065
:10D1500040EA010310B59B070FD1042A0DD310C874
:10D1600008C9121F9C42F8D020BA19BA884201D9C6
:10D17000012010BD4FF0FF3010BD1AB1D30703D00E
:10D18000521C07E0002010BD10F8013B11F8014BC4
:10D190001B1B07D110F8013B11F8014B1B1B01D1E0
:10D1A000921EF1D1184610BD40EA0103024630B587
:10D1B0009B0710D14FF0013400E008C208C91D1BC5
:10D1C0009D4315EAC41FF8D013F0FF0102F8011BBC
:10D1D0000DD01B0AF8E711F8013B002B02F8013BC8
:10D1E00005D011F8013B002B02F8013BF3D130BD13
:10D1F00010B5431C02E010F8011B71B18107FAD190
:10D200004FF0013202C88C1A8C4314EAC211F9D0D3
:10D21000C01A0A0603D0C01E10BDC01A10BD0A04F1
:10D2200001D0801E10BD0902FCD0401E10BD421E60
:10D2300012F8013F002BFBD111F8013B002B02F843
:10D24000013BF9D17047032A40F2308010F0030C03
:10D2500000F0158011F8013BBCF1020F624498BF49
:10D2600011F801CB00F8013B38BF11F8013BA2F1E6
:10D27000040298BF00F801CB38BF00F8013B11F061
:10D28000030300F06780083AC0F0088051F8043BBF
:10D29000083A51F804CBA0E80810F5E7121D5CBF6E
:10D2A00051F8043B40F8043BAFF30080D20724BFA1
:10D2B00011F8013B11F801CB48BF11F8012B24BF35
:10D2C00000F8013B00F801CB48BF00F8012B704784
:10D2D000431A28BF9A427FF6B6AF032A104411447E
:10D2E00040F2268010F0030F1EBF11F8013D521EC0
:10D2F00000F8013D10F0030F7FF4F6AF11F00303C7
:10D3000000F01783083AC0F00B8051F8043D083A4A
:10D3100051F804CD40F8043D40F804CDFFF7F3BFC9
:10D32000121D5CBF51F8043D40F8043DAFF300808E
:10D33000D20724BF11F8013D11F801CD48BF11F803
:10D34000012C24BF00F8013D00F801CD48BF00F8D2
:10D35000012C704710B5203AC0F00B80B1E818508E
:10D36000203AA0E81850B1E81850A0E81850BFF4CF
:10D37000F5AF5FEA027C24BFB1E81850A0E818506E
:10D3800044BF18C918C0BDE810405FEA827C24BFC2
:10D3900051F8043B40F8043B08BF7047D20728BF50
:10D3A00031F8023B48BF11F8012B28BF20F8023B9F
:10D3B00048BF00F8012B704702F0FF0343EA032245
:10D3C00042EA024200F002B84FF000020429C0F025
:10D3D000128010F0030C00F01B80CCF1040CBCF1A7
:10D3E000020F18BF00F8012BA8BF20F8022BA1EBF9
:10D3F0000C0100F00DB85FEAC17C24BF00F8012BDE
:10D4000000F8012B48BF00F8012B70474FF00002D5
:10D4100000B5134694469646203922BFA0E80C502A
:10D42000A0E80C50B1F12001BFF4F7AF090728BF05
:10D43000A0E80C5048BF0CC05DF804EB890028BF81
:10D4400040F8042B08BF704748BF20F8022B11F0AA
:10D45000804F18BF00F8012B704700004FF0013CCF
:10D4600050F8042B51F8043B9A4221D1A2EB0C0353
:10D47000934313EACC1317D150F8042B51F8043B13
:10D480009A4215D1A2EB0C03934313EACC130BD1B0
:10D4900050F8042B51F8043B9A4209D1A2EB0C033B
:10D4A000934313EACC13DBD04FF00000704700BF6A
:10D4B000D01A01BAB1FA81F101F0180122FA01F093
:10D4C000CB40C1F12001DBB2C0B2C01A2CFA01F38B
:10D4D000D11A914311EAC311E6D1704770477047E2
:10D4E000704710B500F050FA006810BD10B5044642
:10D4F00000F04AFA046010BD70B504468569006802
:10D50000C10601D5302600E02026C00707D070BD37
:10D51000D4E9012130469047206A401C20626D1EEC
:10D52000F6D570BD70B5044685690078C00707D18F
:10D5300070BDD4E9012120209047206A401C206260
:10D540006D1EF6D570BD09684A0501D540B2704719
:10D55000C905FCD500B2704709684A0501D5C0B2BB
:10D560007047C905FCD580B2704770B50C460546BA
:10D57000012A05D02878800600D5EA69002302E058
:10D58000012305E05B1C934202D2E05C0028F9D144
:10D59000A869E618C01AA861286A184428622846B3
:10D5A000FFF7AAFF04E0D5E9012114F8010B904729
:10D5B000B442F8D32846FFF7B5FF70BD2DE9F04718
:10D5C0000D4699469246044600F1240801688806F3
:10D5D00004D5E06921F01001216000E00120A8429B
:10D5E00001DD471B00E00027A1697A1902EB090061
:10D5F000081AA0612078C00602D42046FFF77CFFFD
:10D60000002608E0D4E901211AF806009047206AB4
:10D61000401C761C20624E45F4DB2078C0060AD5FB
:10D620002046FFF769FF06E0D4E90121302090474A
:10D63000206A401C2062381EA7F10107F4DC07E0D5
:10D64000D4E9012118F805009047206A401C2062A7
:10D65000281EA5F10105F3DC2046FFF763FF2078C3
:10D66000000602D50220BDE8F0870120FBE7116823
:10D670000268006A530501D508700AE0D30501D598
:10D68000088006E0130603D5C217C1E9000200E0D6
:10D69000086001207047000001694A1C0261087897
:10D6A000704700B58FB0CDE90131002105910549E2
:10D6B0007944CDE9031011466846FFF767FC0FB0C7
:10D6C00000BD0000E5FFFFFF0A6802F8010B0A60D9
:10D6D000704700002DE9FF5F15468A460446DFF8D3
:10D6E000AC80F8440027D8E900103E46CDE9001090
:10D6F00010E03AF816106A4602A800F0C5FB411C7B
:10D7000007D02178890603D5E269391891420DD8EE
:10D710000744761C2078800602D5E069B84205DD12
:10D72000AE42E6DB3AF816000028E2D1A069C01B41
:10D73000A0612046FFF7E0FED8E90010CDE9001017
:10D74000002017E03AF818106A4602A800F09CFB87
:10D75000B0F1FF3F81460BD000250DF1080B05E02D
:10D76000D4E901211BF8050090476D1C4D45F7D306
:10D7700008F10100B0428046E4DB206A38442062B0
:10D780002046FFF7CFFEBDE8FF9F000072E50A00CC
:10D790002DE9F0418046D21D22F007020025D2E992
:10D7A0000002F52914A612D0002A06DA0023D0EBD5
:10D7B000030063EB020211A608E0D8F800108B0703
:10D7C00001D50FA602E0490701D50EA60125114695
:10D7D000002408F1240704E000F0DAF830323A556A
:10D7E000641C50EA0102F7D12B46324621464046DE
:10D7F000BDE8F041FFF7E2BE000000002D00000090
:10D800002B0000002000000030B4002100F12404AF
:10D8100008E002F00705D208303542EA4372DB081F
:10D820006554491C52EA0305F3D10468002310A291
:10D83000250708D504F020040C4304D0C469012353
:10D840000CA2641EC46130BCFFF7B8BE10B504461C
:10D8500021461068FFF780FE02462046BDE81040D2
:10D860000023D1E7D21D22F00701D1E90023CBE745
:10D870000000000030000000F0B40D4601880905EA
:10D8800002D5214C7C4402E01F4C7C440E34002124
:10D8900000F1240608E002F00F071209E75D42EAF2
:10D8A00003721B097754491C52EA0307F3D102782B
:10D8B0000023120704D5702D06D009B102231134BC
:10D8C0002246F0BCFFF77ABE01231034F8E770B5AA
:10D8D00004460D4621461068FFF73EFE02462946E3
:10D8E0002046BDE870400023C6E7D21D22F00703A2
:10D8F000D3E90023C0E70368126843F02003036004
:10D900000823C3610023B7E7D8E30A00431A28BFFE
:10D910009A427FF61FAD104410F0030F11441EBF52
:10D9200011F8013D521E00F8013D10F0030F7FF485
:10D93000F6AF103AC0F00A8010B531E91850103A2D
:10D9400020E91850BFF4F9AFBDE81040530724BFD9
:10D9500031E9081020E9081044BF51F8043D40F8AF
:10D96000043D12F0030F08BF7047D20728BF31F8FB
:10D97000023D48BF11F8012C28BF20F8023D48BFE6
:10D9800000F8012C704700000048704728BA0120B9
:10D9900030B5B0F10A024FEA900E71F100034EEA81
:10D9A000817EB0EB0E0061EB91014FEA101E4EEA52
:10D9B000017E10EB0E0041EB11114FEA102E4EEAE2
:10D9C000016E10EB0E0041EB11214FEA104E4EEAB2
:10D9D000014E10EB0E0041EB1141401841F10001E6
:10D9E0004FEAD00040EA41704FEAD10110EB8005C8
:10D9F0004FEA810444EA907444EB01046D1944EB4E
:10DA00000404521BA3414FF0000348BF0A3200D563
:10DA100030BD401C41F1000130BD70472DE9FF4F82
:10DA20000C461E464FF0FF378BB0D2E90001DDF8FF
:10DA300060800A908A46C1F30A5505B93D46002127
:10DA400008464FF00000BAF1000F00F4400005DA7C
:10DA500000EB80004FF4400101EA50004FEA90597A
:10DA6000B9F1010F00DDB9460A9850EA4A000ED01C
:10DA700044F61050A5F2FF3545432F14B8F1000FBE
:10DA80001ED07542291E1EDDC9F100021CE0B8F14E
:10DA9000010F4FF0000001D0302103E0F24305E018
:10DAA0002154401CB042FBDB3046002200212154AF
:10DAB0000B99C1F80880C1E900200FB0BDE8F08FD4
:10DAC000BD1B6D1CDEE74A4600DA694206A800F07D
:10DAD00071FA06AB93E8070003AB83E807005046F2
:10DAE0000A9900F0E1FA8DE80700A0F500501F3810
:10DAF00000900398002D09DD42F21F014A460844B8
:10DB000003A90390684600F040FD08E0A0F500502E
:10DB10004A461F3803A90390684600F04AFD8DE885
:10DB200007000004000C03D04FF0FF30410800E074
:10DB30001046B8F1000F03D00022009215461EE0F7
:10DB4000751E05D4FFF724FF303262556D1EF9D5DE
:10DB5000B3460122084302D000227F1C04E0207853
:10DB6000302801D100227F1E002A099786D01DE0AF
:10DB7000112D07DAFFF70CFF303262556D1C50EAA9
:10DB80000102F5D1084302D00098C8B10EE000218F
:10DB9000681E05E0235C625C63542254401E491CED
:10DBA0008142F7DBAB46A81B401E0990002004F819
:10DBB0000B000B98099AC0F80880C0E9002B7CE79D
:10DBC00011264FF0000859E72DE9F04F884604462A
:10DBD000D21D22F0070191B0D1E90001CDE90A017F
:10DBE0001EF004FE02460B98C00F01D02D2007E066
:10DBF0002068810701D52B2002E0202101EAC00026
:10DC0000032A099001D0072A05DB03464146204636
:10DC100000F090F909E12078800601D5E06900E084
:10DC20000620B8F1650F814606D0B8F1660F18D00E
:10DC3000B8F1670F70D131E00020B9F1110F0090F9
:10DC400001DB112301E009F101030AAA01A90CA8D3
:10DC5000FFF7E4FEDDE90C70002609F101058346BB
:10DC600047E001204B4600904FF000470AAA01A967
:10DC70000CA8FFF7D3FEDDE90DB00C995D46002638
:10DC800010B909F101000D18B9EB050003D4C0F17A
:10DC9000FF3609F10105A5EB09002BE0B9F1010FF1
:10DCA00001DA4FF001090020B9F1110F0090484648
:10DCB00001DD112300E003460AAA01A90CA8FFF721
:10DCC000ADFEDDE90C704D46002683462078000746
:10DCD0000AD4AB4500DA5D4601A8012D04DD4119E7
:10DCE00011F8011C302907D04F4502DA17F1040F53
:10DCF00004DA012082460FE06D1EEEE7002F02DC01
:10DD0000ED1B3E4403E0781CA84200DD7D1CB81BDF
:10DD100000F1010A4FF000472078000703D4AA451C
:10DD200001DB4FF0FF3A0021B7F1004F0DF143083E
:10DD30008DF8431022D002202B23002F01DA7F42DE
:10DD40002D234FF00A0C011EA0F1010000DC47B1A9
:10DD500097FBFCF10CFB11720F46303208F8012DD5
:10DD6000F1E7A8F1010003702188090501D54521DB
:10DD700000E06521A0F1010800F8011C09980FA935
:10DD8000A1EB0807FF1D00B10120411901EBEA706A
:10DD9000A1693844081A401EA0612078C00602D448
:10DDA0002046FFF7A9FB099828B1D4E90121904743
:10DDB000206A401C20622078C00622D52046FFF74A
:10DDC0009BFB1EE0002E04DBB34502DD01A8805D55
:10DDD00000E03020D4E901219047206A401C2062F5
:10DDE000761CAAF101005FEA000A0AD100F09EF851
:10DDF000C0680168405CD4E901219047206A401C5A
:10DE00002062281EA5F10105DCDC07E0D4E9012130
:10DE100018F8010B9047206A401C2062381EA7F1B9
:10DE20000107F3DC2046FFF77DFB022011B045E639
:10DE300010B5436913B1AFF3008001E0FFF795FB24
:10DE4000012010BD127800F124010A7000224A70EE
:10DE50000122EDE711684FF0FF32E9E710B54369A1
:10DE600013B1AFF3008001E0FFF734FC012010BDD7
:10DE7000128800F1240182840022C2840122EDE78D
:10DE800011684FF0FF32E9E770B516460C460546BB
:10DE900000F044F8036893F80101012806D0FF2C34
:10DEA0000FD8185D68B101202C7070BDD3F8070140
:10DEB0003246214603442846BDE8704003F207136A
:10DEC00018474FF0FF3070BD0048704728BA012056
:10DED0007546FFF7F9FFAE4605006946534620F048
:10DEE0000700854618B020B5F7F7A4F8BDE8204034
:10DEF0004FF000064FF000074FF000084FF0000B06
:10DF000021F00701AC46ACE8C009ACE8C009ACE8B8
:10DF1000C009ACE8C0098D467047000010B500F09C
:10DF200005F8001D10BD00BFE5ED01000048704779
:10DF300048BA01202DE9F0411F4604460326016836
:10DF4000072A01F4006004DB08B116A505E016A558
:10DF500003E008B115A500E015A521F01000206030
:10DF6000A069C01EA0610FB1401EA0612046FFF74E
:10DF7000C3FA4FB1D4E9012138469047206A401CCA
:10DF80002062C01C206206E0206AFAE7D4E9012181
:10DF900015F8010B9047761EF8D22046FFF7C2FA1B
:10DFA000BDE8F0814E414E006E616E00494E460064
:10DFB000696E66002DE9F047814616468AB0324800
:10DFC00078440DC88DE80D002F487844801C03ACC0
:10DFD0000DC884E80D0041F69B303722014491FBC7
:10DFE000F2F0A0F1800502FB10141B3C02D5644244
:10DFF000012000E00020DFF890A080460027FA44CE
:10E00000AAF1BA0A0DE0E00709D03246684607EBEC
:10E0100047010AEB810100F0CCFA8DE8070064109B
:10E020007F1C002CEFD1184F7F44A83F18E0E80771
:10E0300014D007EB04100DF1180A90E80E008AE8DE
:10E040000E00C068F04201D198190890324606A926
:10E0500003A800F0AEFA03AB83E807006D10641C60
:10E06000002DE4D132466946B8F1000F03A802D072
:10E0700000F08BFA01E000F09CFAC9E90001C9F850
:10E0800008200AB0BDE8F08740DD0A000446AFF37F
:10E0900000802046F2F739F9704700000149182046
:10E0A000ABBEFEE7260002005FEA400C08BF91F01D
:10E0B000000F4FEA8C234FEAC12243EA51514FEA45
:10E0C0001C5018BF00F5F0404FEA300018BF41F077
:10E0D00000415FEA6C5C00F02980BCF1FF3F08BFA3
:10E0E00040F080407047130C06BF12044FF0100C34
:10E0F0004FF0000C130E04BF12020CF1080C130FAA
:10E1000004BF12010CF1040C930F04BF92000CF138
:10E11000020CD30F04BF52000CF1010C11464FF05A
:10E120000002A0F11F00A0EB0C00704711F0004F9F
:10E1300008BF704731F000413FF4D5AF0B0C06BF6C
:10E1400009044FF0100C4FF0000C0B0E04BF090235
:10E150000CF1080C0B0F04BF09010CF1040C8B0F20
:10E1600004BF89000CF1020CCB0F04BF49000CF175
:10E17000010CCCF12003A0EB0C0022FA03F302FA0D
:10E180000CF241EA030100F10100704720F07F4CDE
:10E1900080EA030023F07F47ACEB070303F57C53D1
:10E1A00000F0004003F1FF032DE980494FEA154BD1
:10E1B00009B44FEA144325EA0B4E24EA03480FF250
:10E1C000042606EB132749083E785FEA320203FB78
:10E1D0000667C7F5000707FB06F64FEA54374FEA14
:10E1E000D64606F1020607FB066CCCF1005C4FEA4E
:10E1F0001C472CEA074C07FB06F40CFB06F504EB66
:10E2000015464FEA961634BF00204FF000404FEA03
:10E21000D13706FB07FC4FEA1C4C0CFB0BF7D21B5B
:10E2200003FB0CF761EB07010CFB0EF7B0EB0740AB
:10E2300072EB17420CFB08F734BFA2EB0742B2EBBC
:10E24000074261EB17414FEA0C444FEA910706FB86
:10E2500007FC4FEA1C4C0CFB0BF7B0EBC74072EB12
:10E26000573203FB0CF734BFA2EBC742B2EBC742F5
:10E2700061EB57310CFB0EF7B0EBC70072EB577236
:10E280000CFB08F734BFA2EBC702B2EBC70261EB8D
:10E290005771039F4FEA816141EA921104EBCC046C
:10E2A0004FEAD1374FEA826206FB07FC42EA90123E
:10E2B0004FEA80604FEA1C4C0CFB0BF7D21B03FBB0
:10E2C0000CF761EB07010CFB0EF7B0EB074072EBAC
:10E2D00017420CFB08F734BFA2EB0742B2EB074230
:10E2E00061EB17414FEA8C554FEA910704EB9C24F0
:10E2F00006FB07FC4FEA1C4C0CFB0BF7B0EBC740CE
:10E3000072EB573203FB0CF734BFA2EBC742B2EB00
:10E31000C74261EB57310CFB0EF7B0EBC70072EB55
:10E3200057720CFB08F734BFA2EBC702B2EBC7026F
:10E3300061EB577115EB4C254FEA816141EA92116F
:10E340004FEA82624FEAD13742EA901206FB07FC9D
:10E3500044F100044FEA80604FEA1C4C0CFB0BF7C1
:10E36000D21B03FB0CF761EB07010CFB0EF7B0EBC4
:10E37000074072EB17420CFB08F734BFA2EB0742D1
:10E38000B2EB074261EB174115EB1C154FEA8131E7
:10E3900041EA92414FEA823242EA90424FEA8030AB
:10E3A0004FEA0C7644F1000448EA03434EEA0B4876
:10E3B0004FF0000EB2EB080C71EB030724BF62466E
:10E3C00039464EEB0E0E4FF0000B001852414941FA
:10E3D0004BEB0B0BB2EB080C71EB03077BF1000B63
:10E3E00024BF624639464EEB0E0E4FF0000B00186C
:10E3F000524149414BEB0B0BB2EB080C71EB03079D
:10E400007BF1000B24BF624639464EEB0E0E51EAFB
:10E41000020718BF46F0010616EB0E7655F1000212
:10E4200054F1000103D5BDE88901BDE80088BDE8CD
:10E430008901B619BDE80048524141EB0101A3F141
:10E440000103704780807F7E7D7C7B7A7978777648
:10E4500076757473727171706F6E6E6D6C6C6B6AC1
:10E460006A6968686766666564646363626161605F
:10E47000605F5F5E5E5D5D5C5C5B5B5A5A595958DC
:10E480005857575656555555545453535252525146
:10E49000515050504F4F4F4E4E4D4D4D4C4C4C4B9C
:10E4A0004B4B4A4A4A4949494848484747474746E3
:10E4B000464645454544444444434343434242421F
:10E4C00042414141002B26D4770021D01CB54FEAB0
:10E4D000370703B44FF010004FF010014FF0000069
:10E4E0000FBC0BF1010BBDE81040BBF1010F08BFE1
:10E4F0005FEA170722BF12F1010211F101014FF08B
:10E50000004143F1000300F0004043EA000070477F
:10E51000F9D35708DAE746EA064613F1400F4FEA07
:10E5200016461FDD13F1200FDFBF16430A460021F8
:10E5300020335B42C8D0C3F1200746EA064602FA00
:10E5400007F74FEA164646EA0706C3F1200722FA04
:10E5500003F201FA07F721FA03F14FF0000342EA50
:10E560000702B1E746EA020646EA06464FEA1646C1
:10E5700046EA0106BCBF46EA0646360C4FF00003E9
:10E580004FF000024FF000019EE72DE9C04893468E
:10E5900030B491E8380007C831EA400C48BF34EA8B
:10E5A000430C03D5FFF7F2FDFFF78CFFF0BCBDE88D
:10E5B00000882DE9C048934630B491E8380007C878
:10E5C00010F0804F08BF13F0804F03D100F005F822
:10E5D000FFF778FFF0BCBDE8008820F07F4780EAB5
:10E5E000030023F07F4C07EB0C03A3F57C5300F0F2
:10E5F0000040A3F1FE0392F0000F00F0B38095F00D
:10E60000000F00F077802DE901494FEA11404FEAF1
:10E61000144621EA004800FB06FC24EA064708FBF2
:10E6200006F607FB08F800FB07F718EB06484CEB6B
:10E63000164C4FEA124B18EB07484FEA15464CEBC5
:10E64000174022EA0B4E0BFB06FC25EA06470EFBA1
:10E6500006F607FB0EFE0BFB07F71EEB064E4CEB18
:10E66000164C4FF000061EEB074E4CEB174B18EB09
:10E670000B0840F1000018EB0E0B58EB000840F1BE
:10E6800000008F1A4FF000013CBFC943661B14BF46
:10E69000B5EB040C00213CBFC943F61B4FEA1744FD
:10E6A0004EEA8E0E27EA04454FEA1C4704FB076238
:10E6B0002CEA074C05FB07F70CFB05F604FB0CFCEA
:10E6C00016EB074642EB174216EB0C4642EB1C4298
:10E6D0001BEB060658EB0202414146EA9E0601D5B5
:10E6E000BDE80189B619524141EB0101A3F10103D3
:10E6F000BDE801894FEA14454FEA114724EA05466F
:10E7000021EA074C05FB07F406FB07F70CFB06F1B3
:10E7100005FB0CFC11EB074144EB17444FEA124791
:10E7200011EB0C4144EB1C4422EA074C05FB07F2B9
:10E7300006FB07F70CFB06F605FB0CFC16EB074681
:10E7400042EB174216EB0C4642EB1C456A1854F19B
:10E75000000148BF7047B619524141EB0101A3F1D6
:10E760000103704795F0000F37D04FEA11424FEA8E
:10E77000144721EA024624EA074C02FB07F106FB94
:10E7800007F70CFB06F402FB0CFC14EB074441EB0F
:10E7900017414FEA154714EB0C4441EB1C4125EAA5
:10E7A000074C02FB07F506FB07F70CFB06F602FB1E
:10E7B0000CFC16EB074645EB174516EB0C4645EBF4
:10E7C0001C42121951F1000148BF7047B61952415D
:10E7D00041EB0101A3F1010370474FEA14454FEAF1
:10E7E000114724EA054621EA074C05FB07F106FB21
:10E7F00007F70CFB06F24FF0000605FB0CFC12EBD2
:10E80000074241EB174112EB0C4251EB1C4148BF50
:10E810007047921841EB0101A3F1010370470028F2
:10E8200000DC40427047000038B5456804460146A8
:10E8300028460CF077FD00282AD02068304A0F289F
:10E8400019D006DC0B2824D00C2810D00E2851D16A
:10E850002FE0112802D028284CD145E09268002AE8
:10E8600016D02146284601B0BDE830401047214669
:10E8700028465268F7E7284603F0EEFE0090406E07
:10E880000468684603F032FF002C01D02846A047F8
:10E8900038BD284603F0E0FE0090683003F03AFEF1
:10E8A000009803216C3003F03DFE684603F01EFF24
:10E8B00020E0E168486809680D2902D0202913D1B9
:10E8C00005E0002810DD284618F054FF06E0002877
:10E8D00004DD2846BDE8384018F04CBF2846BDE8A6
:10E8E0003840022118F05CBFE06818B900212846C2
:10E8F00000F0ACF92046BDE838400DF007B9000043
:10E90000880A00202DE9FF410AAF70CF0027039548
:10E910008DE8D00000F003F804B0BDE8F081F0B558
:10E9200085B00DF1280CBCE8F0004FF0000C8DE82C
:10E93000F01000F025F805B0F0BDF0B5044685B044
:10E940008069B4F90850668A0027CDE90265CDE9EF
:10E9500000170490B4F90C00B4F91060C118B4F9B0
:10E960000A00B4F90E50104433462A4600F008F865
:10E970000546616800F096F905B02846F0BD000034
:10E98000F0B585B00C46DDE90D514C31DFF850C0D3
:10E99000DDE90A67CDE902C12146CDE900670DF046
:10E9A00005F8040018D003F057FE10222946049001
:10E9B0000CF01EFF049830220A493430FEF7CAFCDE
:10E9C000084D04990C3D2868486604A803F08EFEA3
:10E9D000286841682046884705B02046F0BD000001
:10E9E00029E80008940A0020F0B5044680688B49A5
:10E9F00089B051F82050606800287DD0052804D0E7
:10EA000006287AD0122879D1AEE0E86900284FD0E4
:10EA100095E80E008DE80F0004F110010FC907F012
:10EA20007DFC002655F8260006F000FCA169E86987
:10EA30000A1A216901446069304404F0C1FEA169E9
:10EA4000E8690A1A21690144E069801B04F0B8FEF4
:10EA5000E169E8690A1A616901442069304404F0F7
:10EA600093FFE169E8690A1A61690144A069801BA2
:10EA700004F08AFF761C022ED4DBA86806F0D6FBD1
:10EA8000E069E9696669431A20694218521E3144F7
:10EA9000801C05F043F8E169E869A2690B1A616915
:10EAA0000144101A401C921E05F038F8EE6913E07C
:10EAB0005FF0000655F8260006F0B8FBE069831BFE
:10EAC000A069821B606981192069304404F0DAFE74
:10EAD000761C022EEEDB0226D5E90301CDE900010A
:10EAE0006169E06908444310A069891C821B2069A0
:10EAF000304404F00DFE02E089E012E08AE0D5E93E
:10EB00000501CDE90001E36960690121184401EBC9
:10EB10006001A0699B1E821B2069304404F0F8FD4F
:10EB200078E0206803F098FD049020680EF0E4FB84
:10EB300040B1A06808B1002008E00498006F28B137
:10EB4000012003E00498406F00B10220049901EB1A
:10EB50008000C56E04A803F0C9FD00231A462846AC
:10EB6000216804F0ABFA55E0206803F075FD0490CD
:10EB7000866EEEB3B0F95C70A168D1B3032942D0C0
:10EB80005FF0000100EB8101406D0C6C06F068FB4A
:10EB9000204606F04BFB05A805F0C0F8BDF81410A0
:10EBA000A88B0144ADF81410BDF81810081AADF880
:10EBB0001800BDF81600801CADF81600BDF81A004C
:10EBC000801EADF81A0004985E30B0F90220B0F94A
:10EBD000001005A806F07AF804A803F087FD0220CB
:10EBE00006F084FB304603F037FD3A4605A901E004
:10EBF0000BE006E0079004F0A5FB07A803F076FD04
:10EC000008E00121BEE70221BCE704A8F6E720687E
:10EC10000DF0A6FF09B00020F0BD0000ECA10B082C
:10EC2000044A0349116004494A6A48621046704721
:10EC3000C40A0020880A0020940A002000294FF00E
:10EC4000100101D00CF0F8BB0CF049BB4FF48072FE
:10EC50000029114601D00CF0EFBB0CF040BB0000C6
:10EC60000348024941600349816070479B8B020859
:10EC7000880A00209F86020808B50023009300F050
:10EC800001F808BD70B516460C46054619463046D3
:10EC9000049A04F0FBF9024621462846BDE870407C
:10ECA00000F028B82DE9FF410E4605004FF00104A1
:10ECB0001CD003F0D1FC0190876E01A8009703F0EF
:10ECC00015FD3146684607F001FF78B10098002431
:10ECD000B84208D0284603F0BFFC01900099816635
:10ECE00001A803F003FD28460DF001FC04B0204606
:10ECF000BDE8F081F8B515460C46060013D003F0C8
:10ED0000ABFC0090032C0BD800EB84006C3003F0BC
:10ED100001FC009800EB8400C56630460DF0E7FB6F
:10ED2000684603F0E3FCF8BD2DE9FF4704460068A0
:10ED300010B10EF0E1FA68B10022314850F822100B
:10ED400060680A2841D007DCF0B306280DD00728F8
:10ED500054D106E00122F0E712280AD019284DD13B
:10ED600037E0204610F0A4FB48E0204612F0DCFB20
:10ED700044E0206803F070FC0290B0F9548090F8F1
:10ED80005650476C466B02A803F0B0FC206800F0B8
:10ED900039F8814668460CF0B7FFBDF8001009EB62
:10EDA00005000844ADF80000246A304606F058FA21
:10EDB000022006F09BFA384606F038FA42466946C9
:10EDC000204604F0BFFA19E007E0204613F07EFB6E
:10EDD00014E0886904B0BDE8F08720680DF0C0FE3B
:10EDE000206803F039FC0390B0F90610B0F9022056
:10EDF000891A491CC16703A803F078FC0020E9E7E1
:10EE0000FCA10B0838B503F027FC0090C46F6846DE
:10EE100003F06CFC204638BD044A034911600449E4
:10EE2000CA69C86110467047500B0020AC10002022
:10EE3000B010002000B589B024216846FEF7E6FA3C
:10EE40001920019003480068806841686846884737
:10EE500009B000BDAC1000207CB5214C05462168EE
:10EE600031F8220F4A8D104408804888CA8D10441A
:10EE70004880284604F042FF2168498CADF8001014
:10EE80004618284607F084FC3044401EADF80400C4
:10EE900004F088FF2168898CADF802100844401EF8
:10EEA000ADF8060068460EF0BBF804E0284601F015
:10EEB00047FE0EF033F80028F8D10A2D04D0BDF833
:10EEC00004002168401C4884206830F8221F428DCD
:10EED000891A01804188C28D891A41807CBD000059
:10EEE000600900200B480068018990F8702011FB30
:10EEF00002F309490B80438913FB02F34B8083899A
:10EF00005B1C53435B1E8B80C089401C5043401EDA
:10EF1000C88070476009002034090020014800685B
:10EF2000704700009C0B00202DE9FC4100282ED0EA
:10EF3000112916D0132910D080460C4603F08CFB03
:10EF4000009000F08BFB0546684603F0CFFB20469F
:10EF50001CF08CFE064600241CE0BDE8FC4100F0DD
:10EF6000D8BABDE8FC4100F067B92146404600F040
:10EF700078FB019000781CF079FEC7B201A803F07D
:10EF8000B5FBB74205D12146404600F0FFFABDE887
:10EF9000FC81641CAC42E8DBF9E7F8B50C460500DF
:10EFA00013D0002C11D003F057FB0090C66B6846BD
:10EFB00003F09CFB2046FEF71BF9421C214630461D
:10EFC00003F0B8FB28460DF092FAF8BD2DE9FF4199
:10EFD00045680446284603F03FFB0190D0F888605E
:10EFE00001A803F083FB0EB1012700E000272146B2
:10EFF00028460CF097F9002855D020680F2856D0E5
:10F0000006DC0B2862D00C2843D00E282AD173E0EE
:10F01000112839D0212802D0262823D116E0E06813
:10F02000416800291EDD00680D281BD1304609F01B
:10F03000ACFB002806DB304609F0A7FB014628465A
:10F0400000F0A4FA284600F077F86EE0E0680128A6
:10F0500009D00A2802D00B286AD111E00A212846DB
:10F060000DF061FB64E0304609F08FFB00285FDBA8
:10F07000304609F08AFB0146284600F087FA54E042
:10F08000284600F059F853E0FFB9E068007A90BBD9
:10F090004EE0E06848B1007A08B1012100E00221A9
:10F0A00028460DF040FBBDE8FF810321F8E72E461E
:10F0B000284603F0D1FA0290D0F88400056802A82F
:10F0C00003F014FB0DB13046A84731E0284603F0A9
:10F0D000C3FA0090C06B03F06DFB0098D0F8880075
:10F0E0000CF048FD0098D0F8940003F0EBF9684666
:10F0F00003F0FCFA1CE010E0E0684168002917DD2D
:10F10000016809290DD00A2912D01B2910D0202905
:10F1100003D02846FFF708FFC5E7284600F0EEF8C1
:10F1200006E00CF03DFEB04202D128460DF0A2FCF4
:10F1300020460CF0EBFCB6E738B5040011D003F024
:10F140008BFA0090D0F8880040B10CF013FD0099C4
:10F150000020C1F8880020460DF0C9F9684603F088
:10F16000C5FA38BDF0B585B0B0F90850468A846953
:10F170000296CDE903540027CDE90017B0F90C1031
:10F18000B0F91050B0F90E40B0F90A00194410441B
:10F190002B46224600F002F805B0F0BD2DE9FF41F4
:10F1A0000C461D46DDE90D71DDE90B366C31DFF8EB
:10F1B00080E0DDF828C0CDE900C3CDE902E14FF0E1
:10F1C000FF3321460CF0F2FB04002DD003F044FA8B
:10F1D0001022394600900CF00BFB0098382215499C
:10F1E00080F88C604C30FEF7B5F8124E0098361F50
:10F1F0003168C0F88410002180F89010C586204640
:10F2000000F00BFA684603F071FA03F0D0FA0546F5
:10F21000204603F021FA0090C563684603F066FAC1
:10F22000306841682046884704B02046BDE8F08138
:10F23000CDEF0008F010002010B5044600F05CF996
:10F24000010000D0411E2046BDE8104000F09EB9EC
:10F25000F8B50546006803F0FFF90090448ED0F839
:10F260008860684603F042FA06B1012604F0010402
:10F2700028680EF041F80EB1002006E00CB1012024
:10F2800003E008B1022000E003201B4951F82010E0
:10F29000686858B302280CD0052802D0122828D15B
:10F2A00003E0284610F030F923E0284613F0E2FF8F
:10F2B0001FE06A69E8694FF0FF33801AA0F1080285
:10F2C00003EB6204421CAB69001B4510A3EB620612
:10F2D000C86905F0ABFF06E03219311B284604F07F
:10F2E0006FFA641E6D1C002CF6DA02E028680DF03F
:10F2F00037FC0020F8BD00005CA20B082DE9F14F9F
:10F300009EB01E9800287CD003F0A6F908901E98A5
:10F310000CF040FE1A900898B0F9367090F89010F2
:10F320001991C16B179190F88C90B0F93410079136
:10F3300000F094F9824608980BACB0F88E10159145
:10F34000B0F982100A91C16C0991D0E90012CDE99F
:10F350000512D0F894B0002100EB8102126D44F840
:10F360002120491C0329F7D300210EAD00EB8102B7
:10F37000D26D45F82120491C0329F7D3002111AE95
:10F3800000EB8102126F46F82120491C0329F7D3B4
:10F3900008A803F0ABF91E980CF0A0FD03F05CF98F
:10F3A0001490D0F8008014A803F0A0F94FEA284088
:10F3B00042420FFA88F0414205A805F087FC5FEA57
:10F3C000897003D5BDF81600C01B01E0BDF81A0016
:10F3D000ADF816001E980CF081FD01461A98CDE993
:10F3E000000702220292BDF91630BDF91420002058
:10F3F00009F05FF980465FEAC97009D04046199963
:10F4000000E076E009F0D8FB0121404609F01CFB42
:10F41000002708E03946179803F029FA01464046CC
:10F4200009F00BF87F1C5745F4D30027394654F8F0
:10F430002720404609F02DFB7F1C032FF6D3002424
:10F44000214655F82420404609F03AFC641C032C60
:10F45000F6D30024214656F82420404609F091FBBB
:10F46000641C032CF6D35FEA0B001ED003F0F4F803
:10F4700030F8025B00240126169011E0169804F083
:10F48000070100EBD40006FA01F10078084201D030
:10F49000012200E000222146404609F022FB641CC4
:10F4A000AC42EBDB16A803F021F94046159909F0B0
:10F4B00046FB4046099909F000FB40460A9909F0CD
:10F4C000EFFB40460DF0D6FA40461E9909F049FB85
:10F4D0004046079909F088FB01211E980DF023F999
:10F4E0001E9803F0B9F80890C0F8888008A803F0C7
:10F4F000FDF81FB0BDE8F08F38B5002438B103F037
:10F50000ABF80090B0F93440684603F0EFF82046BD
:10F5100038BD10B50446FFF7EFFF411C2046BDE89B
:10F52000104000F033B8F8B515460E46070019D064
:10F53000032E17D203F090F80090D0F8884000EB2B
:10F540008600016DA9420ED00565684603F0CEF82D
:10F5500038460CF0CCFF002C04D02A463146204619
:10F5600009F097FAF8BD684603F0C0F8F8BD00004E
:10F57000044A0349116004490A6B08631046704746
:10F58000A00B0020EC100020F010002038B50C4635
:10F59000050019D003F060F8009000F05FF800B1AA
:10F5A000401E844200DD04460098B0F93410A142A8
:10F5B0000BD08486684603F099F828460CF097FF34
:10F5C000042128460DF0AFF838BD684603F08EF8E8
:10F5D00038BDF8B515460E46070019D0032E17D2D0
:10F5E00003F03AF80090D0F8884000EB8600C16D37
:10F5F000A9420ED0C565684603F078F838460CF08D
:10F6000076FF002C04D02A463146204609F058FBEC
:10F61000F8BD684603F06AF8F8BDF8B5044603F093
:10F620001BF801460090B0F9380010B9C86C04F01E
:10F630003DFC0099CA6AB1F98030126800EB4300C2
:10F64000161808460DF0DDFC0546684603F04EF836
:10F650003246294620460DF0BCFAF8BDC06B03F0D7
:10F66000FAB838B50D46002402F0F6FF0090C06BE2
:10F67000294603F0FCF80546684603F037F81DB14B
:10F68000284602F0E9FF0446204638BD2DE9FC5F1C
:10F6900015460746DFF89C8028440190D8F8000002
:10F6A0001C460E46C06E01EB0409494642680198AB
:10F6B0009047781B0090D8F800004946C06E426819
:10F6C00000989047D8F8000006EB050B07EB0409FB
:10F6D000C06E5946426848469047D8F80000A6EBED
:10F6E000050A5146C06E426848469047002C1ED01D
:10F6F000D8F80000361B4546C06E31464268019876
:10F70000904728683146C06E426800989047286844
:10F710003C1B5946C06E42682046904728685146B7
:10F72000C06E426802B02046BDE8F05F1047BDE8F9
:10F73000FC9F0000600900202DE9FC470E465FEAAF
:10F74000000978D002F088FF009090F85470D0F84B
:10F750005880456BC46C684602F0C8FFB8F1000FD2
:10F7600004D0314648464246904761E0122E18D0F8
:10F7700006DC082E43D0102E3CD0112E06D112E00C
:10F78000132E21D01D2E43D01E2E3DD0202E4FDB18
:10F7900017B148460FF051FBB1B2484617F0A4F933
:10F7A00060B3611C27E04DB3284602F055FF0546C3
:10F7B0002146019006F04AF84419204606F008F860
:10F7C00001462346012210E0C5B1284602F044FF5D
:10F7D00005462146019006F039F84419204605F007
:10F7E000F7FF014623464FF0FF3248460EF00EFE6B
:10F7F00001A81BE0611E484600F0D5F918E0BCB135
:10F80000611E484600F0CFF948460FF016FB0FE0A6
:10F81000484602F021FF0090012F0ED0012180F810
:10F8200054102146484600F0BEF9684602F05EFFDB
:10F8300048460CF05CFEBDE8FC87002180F85410BF
:10F84000F3E7FEB54468054620460DF055FD064633
:10F85000294620460BF066FD002834D028680E2883
:10F860003DD004DC0B282FD00C284AD116E00F28FD
:10F8700025D0A0F58070133843D120460DF018F83C
:10F880002046002119F05DFA204602F0E5FE0190C5
:10F89000C06F00210CF0F3FF01A81DE0E86860B123
:10F8A000017A29B10168204600F0B3F8012100E097
:10F8B000022120460CF037FF23E00321F9E7012164
:10F8C000204619F03EFAFEBD204602F0C5FE00902B
:10F8D000343002F01FFE684602F008FF11E086B1E6
:10F8E000E868416800290CDD0168092909D00A2966
:10F8F00007D00D2905D01B2903D02046FFF71CFF98
:10F90000FEBD28460CF002F9FEBDF0B587B00446F6
:10F910000DF1080CD4E90567B0F90850408AACE84D
:10F92000E1000020CDE90010B4F90C00B4F910603A
:10F93000C118B4F90A00B4F90E50104433462A46EF
:10F9400000F008F8050002D0618A00F01CF907B049
:10F950002846F0BD2DE9FF410D46DDE90D640F9FFE
:10F96000DDE90AC141F480515837DFF874E0CDE990
:10F9700000C1CDE902E729460CF018F805002AD0AD
:10F9800002F06AFE1022314600900BF031FF009821
:10F990001C2214496030FDF7DDFC0099012081F83C
:10F9A0005500601C00D0012081F88000002C00DC94
:10F9B000082424B20C87002048874863641C6846EA
:10F9C00002F094FE2146284616F0A5FE18B92846F6
:10F9D0000CF0D0F8002504B02846BDE8F081000006
:10F9E00043F800085C0C0020F8B515460C460600EC
:10F9F0000ED002F031FE009038B1022C05D200EB9F
:10FA00008400456730460CF072FD684602F06EFED9
:10FA1000F8BD2DE9F04186B00C46060050D002F04A
:10FA20001BFE0090406B98B302F016FE0390009806
:10FA3000806E05F015FC804630460CF0ABFA0746A8
:10FA4000039804F0C5F90546009890F8601001F09D
:10FA50000301012916D002290DD0416EC06A006849
:10FA60000844241A641E039806F076FE0146002C12
:10FA70000FDA002115E0781B401C00EBD070A4EBDE
:10FA80006004F0E7406E791B081A241A641CEAE748
:10FA900013E0AC4205DC02462146039806F0FCFD6B
:10FAA0000146304600F07FF803A802F01FFE4046F2
:10FAB00005F0D6FB30460CF01AFD684602F016FE43
:10FAC00006B0BDE8F0812DE9FC4788465FEA0009F1
:10FAD0004FF0000555D002F0BFFD0090B0F938603E
:10FAE000446B684602F002FE0027B8F1000F3ED0DA
:10FAF0004CB1204602F0B0FD0190FDF779FB451CAA
:10FB000001A802F0F3FD404606F026FE0446B0428E
:10FB100000DD34462146404605F098FE461C711B28
:10FB2000484617F0AFF808B3484602F095FD00903C
:10FB3000406B02F091FD324641460190FDF783FB98
:10FB40000198304400F8017C0098C464B0F9381082
:10FB50008C4205D190F85410012901D1641EC4646F
:10FB6000684602F0C3FD01A802F0C0FD06E000985F
:10FB7000343002F0CFFC00984787C76448460CF049
:10FB8000B6FCBDE8FC8738B50C4605000AD002F08B
:10FB900063FD009018B1046628460CF0A8FC684686
:10FBA00002F0A4FD38BD1CB50C4602F055FD0090D6
:10FBB000406BF0B102F050FD019006F0CDFD0099D0
:10FBC00091F8542002B10122002C00DA0024844272
:10FBD00000DD0446B1F93800801AA04200DA04467C
:10FBE000C86CA04200D0CC640020086501A802F0D7
:10FBF0007DFD684602F07AFD1CBD2DE9F04389B019
:10FC0000984615460F4606004FF0000429D000F034
:10FC1000CDFB0446304600F08DFB814603A93046FB
:10FC200000F038FDF80706D0BDF91C00001B401B92
:10FC3000401C822109E0B8070028BDF918002844BB
:10FC400002DA40F2022100E002210096CDE90181B2
:10FC500023461A464946FEF755FE04460021FEF7A4
:10FC6000EDFF09B02046BDE8F083000010B5052384
:10FC7000FFF7C3FF0446054A0021FEF7FDFF0449D4
:10FC800020460CF049FE204610BD0000A5F30108F7
:10FC900059CB02082DE9F047456804468EB000268E
:10FCA000284602F0D9FC00905C30B0F820A0D0F8D3
:10FCB0000C90D0F82480C76A006800B106686846D6
:10FCC00002F014FD05E079682046884700283DD100
:10FCD0003F68002FF7D12068142844D009DCA0F138
:10FCE0000B00072839D2DFE800F0BE3989B434B4FC
:10FCF000110020287ED004DC17283ED01E282CD1ED
:10FD00004BE026283CD02A2827D110E02846E66878
:10FD100002F0A2FC0190717A39B9317A012904D13B
:10FD200030F87C1F41F48071018001A88FE02846E3
:10FD300002F092FC0090E16811B1C0F8841002E07A
:10FD4000D0F88400E060684602F0D0FC0EB0BDE858
:10FD5000F087002E7DD02846B0477AE0214628461D
:10FD600018F00EFDF2E705A9284600F093FCE068C4
:10FD70000699016007994160E8E7C4F80C90E5E74F
:10FD8000E0680228E2D10C95E0680D9027200A90E7
:10FD90000AA9A0680DF0CAFCD8E7E068012804D0E1
:10FDA0000021284600F075FBD0E740460CF001FC2E
:10FDB00058B140460CF05EFE40460CF0CFFA88B1D8
:10FDC000012140460BF038FB0CE048460CF0A0FE49
:10FDD0008046284602F040FC0090C0F880806846CB
:10FDE00002F084FC0121284600F053FBB8F1000F1B
:10FDF000ACD100E00EE00020E060A7E75FEA0A7007
:10FE000027D4E068C06820B3007A10B328460CF00D
:10FE100031FE1EE0E668E6B1294670680DF055FA3D
:10FE200020B1012128461AF0C3FE12E00021284625
:10FE30001AF0BEFE294630680DF036FA48B1284661
:10FE400002F00AFC03903168C0F8801003A802F0A9
:10FE50004DFC214628460BF065FA00288CD0204640
:10FE60000BF054FE72E7284602F0F6FB009070306B
:10FE700002F050FB6846EAE7F0B587B0B0F90840F9
:10FE80000DF10C0C0C9E87694568ACE8F000448AC3
:10FE90000025CDE900150294B0F90C10B0F910500E
:10FEA000B0F90E40B0F90A00194410442B4622461E
:10FEB00000F002F807B0F0BD2DE9F0478AB00DF16F
:10FEC0004C0CDDE91784BCE86006129F45F48055B0
:10FED0006034DFF8B8C0CDE902C4CDE900750BF09D
:10FEE00065FD04004DD002F0B7FB30224946049076
:10FEF0000BF07EFC0498282225493430FDF72AFABD
:10FF00000498234F5C30083FC0F808800684002620
:10FF100046620661C6627968016004A802F0E6FBE9
:10FF200005A9204600F0B6FB1A4841F282710396FB
:10FF30000094CDE90110BDF91E00BDF91A10BDF9FC
:10FF40001C20431ABDF918005B1C121A521C0BF03E
:10FF50002DFD06467868416820468847204602F015
:10FF60007BFB0490866604A802F0C0FB42F204000A
:10FF7000054202D120460BF061FE5146204600F0BA
:10FF800041FB0AB02046BDE8F087000095FC000860
:10FF9000800C0020A30901082DE9F041044694B02B
:10FFA000006800F0B7F908B1D94D01E0D84D2C3503
:10FFB000606815281ED00CDC0B281FD004DC00283C
:10FFC0007ED005287DD12EE10E287BD01228F9D1D4
:10FFD00041E1162806D0172808D0182808D01C2878
:10FFE000F0D109E0E86914B0BDE8F081286AFAE7C9
:10FFF000686AF8E7A86AF6E76869F4E720680B9092
:020000040801F1
:100000001C200C90206802F027FB0390016D0BA8C8
:100010008847064603A802F069FB022E0EDB95E82E
:1000200007008DE80700D4E904023346A16906F011
:1000300043F920698719A069801B2BE0286805F027
:10004000F5F82169E8690A18521E606903F0B8FBE7
:10005000A269E869111A491C606903F0B1FB67697C
:1000600020697F1C394603F0EDFB3946A06903F097
:10007000E9FB686805F0DAF820693946401C03F0AE
:10008000E1FBA0693946401E03F0DCFB2769A0694B
:10009000BF1C801E8046286805F0C8F842463946D5
:1000A000606903F08DFB686805F0C0F8606942463E
:1000B000401C394603F084FB686A02280FDD02E029
:1000C00015E1AFE000E1A86805F0B0F861696A6A7F
:1000D000881C8B1801465B1E4246384627E0296A79
:1000E000B14226DD6069022E074600F1020801DBFD
:1000F000374401E007F10207206901DB304401E0E9
:1001000000F1020022693B460A44A2F10102414685
:1001100003F004FD022E02DBA069821B01E0A2694C
:10012000921EA069E9693B46401A401C414603F013
:10013000F5FC022E02DB6069064401E06669B61C2C
:10014000E76928687F1E05F071F83A463146206954
:1001500003F01AFC3A463146A06903F015FCE76942
:100160006868BF1E05F062F820693A46401C3146B7
:1001700003F00AFCA0693A46401E314603F004FC35
:10018000E869022802DC286A022823DDA86A02281E
:1001900002DDE1690F1A01E0E769BF1EA86805F0FA
:1001A00045F8E969022909DD20693B46421800F15A
:1001B000020C521E3146604603F0B0FC286A022849
:1001C00008DDA269E8693B46101A401C921E3146C0
:1001D00003F0A4FC286805F029F8D4E90620216979
:1001E00003F0EEFA686805F021F8A2692169E06978
:1001F000521E491C401E03F0E3FAA86A022811DDD2
:100200002669A169E469B61C271AA1F102087F1CBE
:10021000A41EA86805F00AF823464246394630462F
:1002200003F07CFC72E0208A06B2ADF81460A08A6C
:1002300001B2ADF81610208B02B2ADF81820A08BD9
:1002400003B2ADF81A30D5E90304CDE90004304615
:1002500003F05EFA5AE0208A298B0844ADF81400B6
:10026000A08AADF81600208B298B401AADF8180033
:10027000A08BADF81A00206802F0EEF90390006F31
:10028000F0B1022005F032F8039991F87C00C0F338
:10029000C00001EB8000006C04F0C8FF0398406BC5
:1002A00004F0DEFF0398006F02F0D6F903990A907C
:1002B000B1F95A2005A903F045F80AA802F016FA88
:1002C00003A802F013FA21E0208AADF81400A08AF6
:1002D000ADF81600208BADF81800A08BADF81A0011
:1002E000A86804F0A3FF05A803F03CFC0EE020681A
:1002F00002F0B2F9039030F85A1F41F00C0101806E
:1003000003A802F0F3F920680CF02AFC00206AE64A
:10031000BC0C002038B5002450B102F09DF90090CB
:1003200090F87C00000700D50124684602F0DEF951
:10033000204638BD38B505004FF000040CD002F05F
:100340008BF90090C06D00218068026828469047B4
:100350000446684602F0CAF9204638BDF8B50E4694
:1003600005004FF000040CD002F076F90090C06D4B
:10037000314680680268284690470446684602F085
:10038000B5F92046F8BD000001480068704700003C
:10039000800C0020022905D2034A52F821102C2299
:1003A000FCF7D8BF704700006CA20B0830B587B0CF
:1003B00005004FF000040ED001A900F06BF92846AB
:1003C00002F04AF90090B0F95440684602F08EF904
:1003D0000CB9BDF9044007B0204630BD30B5044625
:1003E0008BB0006802F038F9009090F87C10246A15
:1003F000006FC1F3C00508B102F02EF90690E06865
:10040000029020690390A088401EADF81000E0899A
:10041000ADF812002089401CADF81400608AADF8D8
:100420001600BDF80800401CADF80800BDF80A0031
:10043000401CADF80A00BDF80C00401EADF80C00E1
:100440000098406B04F00CFF009808AA02A9B0F9CC
:100450005A30069805F06EFB009800EB8500806B23
:1004600007F07AFC009800EB8500006C07F0ACFC0C
:1004700008AB02AA04A906980BF0CAF8684602F075
:1004800035F9069810B106A802F030F90BB000203B
:1004900030BD002801D01AF08BBB704738B50C4630
:1004A00000280CD002F0D8F80090816CA14203D053
:1004B0008464806E0CF01BF8684602F017F938BDB2
:1004C000022803D2024A02EB80004160704700001C
:1004D000800C00200149086070470000800C00205B
:1004E000074A0649054B1160064A083BD169586026
:1004F0001B68C2E90630084670470000B00C0020B7
:100500007C0C0020800C0020024AB2F92610D08416
:1005100008467047800C002038B50D46040009D00D
:1005200002F09AF800900566684602F0DFF820466F
:100530000BF0DDFF38BD00002DE9FC478846814601
:1005400002F08AF80190C16D8C6800F00AF9074644
:1005500001A802F0CBF822680121484690470646E0
:1005600022680321484690470546226800214846F4
:1005700090470446484602F06FF801900C49C0F8D5
:100580005080C16501A802F0B1F8484600F0D2F9E8
:100590002B46324639464846009400F05AF9484600
:1005A0000CF0DEFA48460BF0A2FFBDE8FC87000025
:1005B000B00C002070B50D460146022D1ED2104C25
:1005C0002C2254F82500FCF7C5FE54F82510022013
:1005D000CA69022A00DAC86154F825100A6A022A98
:1005E00000DA086254F825104A6A022A00DA4862E2
:1005F00054F825108A6A022A00DA886270BD000069
:100600006CA20B087CB50D46040019D002F024F84A
:100610000090006F0190684602F068F8294601A832
:1006200006F054FA00280BD0204602F015F800908E
:1006300001990167684602F059F820460BF057FF10
:100640007CBD38B50C4605000ED002F005F80090D0
:10065000B0F95A10A14204D0A0F85A4028460BF035
:1006600046FF684602F042F838BD38B50C46050032
:100670000FD001F0F1FF0022009000EB8201521C2C
:100680000C64022AF9D3684602F030F828460BF0D1
:100690002EFF38BD2DE9F34F85B000270C46B84634
:1006A000059801F0D9FF0090C06D0121856805987B
:1006B0002A68904782462A6803210598904704904B
:1006C0002A6802210598904703902A68002105981E
:1006D0009047064600980CF094FC834600980CF076
:1006E00097FC8146009890F83210890601D5B0F940
:1006F000588000F036F805460098C06E10B10BF037
:100700005AFC074625806780A4F804A0049AABEB46
:10071000020006EB0802401E2A4420813A44E2808F
:10072000039BA9EB0302521E6281A4F80CA0208255
:100730007019E681401E6082684601F0D7FFB4F967
:100740000C000190B4F91000029002AA01A90598CA
:1007500000F039F80198A0810298208207B0BDE826
:10076000F08F10B50146002091F83220920607D58F
:10077000B1F95400002803D1486B03F09CFB801CA6
:1007800010BD70B58AB00C46054601F065FF0990B2
:10079000C06D866809A801F0A9FF009534B1012C4D
:1007A00006D0022C0BD0032C04D10AE0182000E064
:1007B000162001907168684688470AB070BD152000
:1007C000F7E71720F5E72DE9FC47904689460446F0
:1007D00001F042FF0090C16D056868468E6801F027
:1007E00085FF3268002120469047064620460BF0E0
:1007F000C5FA2F1404462DB227E001F02DFF019019
:10080000B0F90010B0F90420B0F90230491B521BB6
:10081000DB1BB34212D190F82800000607D5D8F8A8
:10082000000088420ADB491EC8F8001006E0D9F82B
:100830000000904202DC521CC9F8002001A801F01F
:1008400055FF20460BF032FB0446002CD5D1BDE805
:10085000FC872DE9FF4F83B00E460746DDF8409038
:1008600001F0FAFE0190C16D8D68FFF77AFF044632
:1008700001A801F03BFF2A680121384690478346D2
:100880002A6803213846904782462A680021384664
:1008900090470546B44207D105998B4504D1069986
:1008A0008A4501D14D4542D0A41B0026B0463846AA
:1008B0000BF064FA39E001F0CFFE0090806A010687
:1008C00002D54FEA805002E0810528D500060028B5
:1008D00025DB24B12246114638460BF059FF00981B
:1008E00090F8280000060AD50698A5EB0902A0EBAF
:1008F0000A0004FB1601761C38460BF012FF009824
:10090000008D80050BD50599A5EB0902ABEB010025
:1009100004FB080108F1010838460BF002FF6846A5
:1009200001F0E4FE38460BF0C1FA0700C3D107B06E
:10093000BDE8F08F70B586B0064601F08DFE0590DB
:10094000D0E91A4505A801F0D1FE54EA050026D0E9
:1009500069463046FFF79EFEACB1BDF90620BDF9F1
:10096000041020460BF0B2FEBDF90A00BDF90610D6
:10097000421ABDF90800BDF90410521C411A491C65
:1009800020460CF026F9002D09D0BDF90600BDF96E
:100990000210421ABDF9041028460BF097FE06B06B
:1009A00070BD2DE9F0430446406885B006460BF063
:1009B00095FA814601F050FE0090D0F88080876C57
:1009C000456E684601F092FE2068172859D008DC71
:1009D0000E2837D00F280BD0142852D015283AD122
:1009E0004FE01E2818D01F2827D0222833D146E0F8
:1009F0006FF07040874204D0384607F0ADF902F03E
:100A000005FA002D12D0D4E902122068CDE90106C2
:100A1000CDE9031201A822E0E068002806D05FEAD1
:100A2000080006D0B04504D00CF024F805B0BDE8AD
:100A3000F08330460CF06CF816E0214648460AF088
:100A400071FCF3E7E0684168002904DD00680928CB
:100A5000EFD00A2805D0A5B12046C4F80490A847D5
:100A6000E4E730460CF05CF80446484601F0F4FD3B
:100A70000090C0F88040684601F038FED6E7E76095
:100A8000D4E720460BF042F8D0E700002DE9F74FFD
:100A900014468A4602FB04F002EBD47100EB6106B7
:100AA0002649AAEB04080AEB04090868406948B122
:100AB000B0F906204A4500DA9146B0F902004045F7
:100AC00000DD8046012527468B4616E0AAEB05018E
:100AD000414511DB49450FDC05FB05F007FB07022B
:100AE000B24201DD7F1EF9E7DBF800300098DB6ED3
:100AF000C219C01B1B6898476D1CA542E6DB002588
:100B0000274616E00AEB0501414511DB49450FDC9C
:100B100005FB05F007FB0702B24201DD7F1EF9E786
:100B2000DBF800300098DB6EC219C01B1B689847C9
:100B30006D1CA542E6DBBDE8FE8F000060090020C9
:100B400010B504460A280FD00D2C11D009480068B2
:100B5000C06901682046884707480168002907D016
:100B60002046BDE810400847BDE8104002F024BB15
:100B700010BD000060090020880900202DE9F04325
:100B80000446C56887B090468946002004F065FB9E
:100B9000064625B1287910B146F0020001E026F0A2
:100BA000020004F05AFB2069012558B1D4E9021271
:100BB0008DE82600039563882288046841464846EC
:100BC000A0471EE0124F134B214638681B68427C39
:100BD000E068984730B9E088012801D0002001E0A2
:100BE0003868806BA288E388A1680095CDE904107D
:100BF000CDE902320195638822884146484606F0D5
:100C00009BFC07B03046BDE8F04304F026BB000073
:100C100060090020580900202DE9F04781468846E8
:100C200040F2C32050434FF47A7190FBF1F502FB80
:100C300002F002EBD27100EB61066D1C1746002337
:100C400041464846FEF722FD012413E004FB04F070
:100C500007FB0700B04206DD3B46224641464846B8
:100C6000FEF714FD7F1E3B46224641464846FEF7EE
:100C70000DFD641CAC42E9DDBDE8F0871CB5002425
:100C8000019401AC009400F0E7F81CBD2DE9FF4F82
:100C900083B0814606988A46A0EB0A08109E002081
:100CA0000090A2EB09043568934654EA080018D076
:100CB0002046FDF7B4FD07464046FDF7B0FD8742EC
:100CC0000BDA2046444680464846D146824658467E
:100CD000DDF818B0069001200090002C07DD2046BA
:100CE00006E007B04846BDE8F04F00F03BB960426F
:100CF000A0420AD04846D9466442C8F1000883465B
:100D00004FF0FF37DDF818A000E001275148B8F197
:100D1000000F11D004EBD4714FEA610B01DACBF173
:100D2000000B4C480068807E88B3002F02DA3068E0
:100D30002044306000257BE000990029016821D023
:100D4000897E11B10027804615E007B05A46494612
:100D50005046BDE8F04F06F053BD28466D1C1AF012
:100D600095F838B9D8F8000009EB0701C06E426861
:100D7000504690477F1CA742EFDD6D1E356007B0DF
:100D8000BDE8F08F8A7E1AB10027804617E019E08F
:100D9000C86E5A465146036807B04846BDE8F04F52
:100DA000184728466D1C1AF071F838B9D8F80010A9
:100DB00009EB0700C96E4A68514690477F1CA7425D
:100DC000EFDDDAE700250FE008FB05B090FBF4F15A
:100DD00001EB0A00009951B11E4A09EB05011268A6
:100DE000D26E526890476D1CA542EDDDC7E71949E8
:100DF00009EB05030968C96E4A6801461846F1E720
:100E000008FB05B090FBF4F101EB0A00019030689B
:100E1000384430601AF03AF848B9009890B10D485B
:100E200009EB05010068C06E4268019890476D1C8F
:100E3000A542E5DD3068002F01DA20443060C01B98
:100E400030609CE7034909EB05000968C96E4A68F0
:100E50000199EBE7600900202DE9FF470F46404963
:100E60001646804609680C981D460A7E012A1CD049
:100E7000A8EB0600791B50EA01031CD0A2F101097E
:100E80001BF024FE00F58060824605F047FF00FB62
:100E900009F4504605F046FF00FB09F1002C0CDA7E
:100EA000C4F50070801240420AE000903246394694
:100EB0004046FFF7EBFEBDE8FF8704F50074A01283
:100EC000002904DAC1F5007189124C4202E001F5F3
:100ED00000718C12002804DD411C01EBD171491016
:100EE00003E000EBD0714910401E00EBD0704210BF
:100EF000002C04DD601C00EBD070401003E004EB1C
:100F0000D4704010641E04EBD47308EB0104ADF8F8
:100F100000403C18ADF80240A8EB02045B10B21A86
:100F2000ADF80440ADF808203144FC1AEA1AADF8D7
:100F30000C102844ADF80A20ADF80E000023ADF8DF
:100F400006401A460421684600F08CF839464046AF
:100F500011F096FF2946304611F092FFABE70000F2
:100F600060090020064A13681A7E012A05D0521E25
:100F700002EBD272521000F005B8DA6E52681047D8
:100F8000600900202DE9F05F0646884640F2C32044
:100F900050434FF47A7190FBF1F702FB02F002EB41
:100FA000D27100EB610B254914467F1C096832445D
:100FB000301BC96E0B684146984701253AE000BFD7
:100FC00005FB05F004FB040159451CDDBC4219DD9D
:100FD0001A4B06EB050AA6EB05091B68AAF10102EC
:100FE00008EB0401DB6E09F101001B689847134B05
:100FF000AAF10102A8EB04011B6809F10100DB6EF4
:101000001B689847641E0D4806EB040AA6EB04090A
:10101000006808EB05015246C06E036848469847D1
:101020000648A8EB050152460068C06E03684846B2
:1010300098476D1CBD42C3DDBDE8F09F60090020EC
:1010400070B514460E4605460119001B01F0A2F9C1
:10105000224631462846FFF719FDBDE8704001F0F1
:10106000C5B800002DE9FF4F40F6FF740F466642F9
:1010700083B09B46814600210BE000BF09EB810055
:10108000B0F90200A04200DA0446B04200DD064694
:10109000491CB942F2DB68480068406900280DD05D
:1010A000B0F906101A46A1EB0B01B14200DA0E4668
:1010B000B0F90200801AA04200DD0446B5E0DFF876
:1010C0007CA100200546CAF8000089E0781E854210
:1010D00001DA6B1C00E0002309EB850C09EB8302AD
:1010E000BCF90200B2F90210A04245D1A14215D1CB
:1010F00039F92330059A39F9251003EB020C4E4AD1
:1011000005981268084404EB0B01D26E6045136821
:1011100001DA62462BE00246604628E02846A446F3
:101120004FF000087A1E0BE008B1401E00E0781E68
:1011300009EB8003B3F90230634504D108F10108DB
:101140009045F1DB2346A34249D0A3EB040239F9D1
:101150002500A1EB040C059B92EA0C0209D4364A47
:10116000184404EB0B011268D26E136802469847CC
:1011700035E00CF0F1FB32E0A14230D001DBA042BF
:1011800003DDA0422BDBA14229DCE04688420ADCD9
:101190000346A04223DC0846A14220DBB8F900C088
:1011A000B2F9001008E00B46A14218DCA04216DBA1
:1011B000B2F900C0B8F90010E21AA1EB0C015143DA
:1011C0000029A0EB030202DD01EB620102E0A1EBCA
:1011D0006201491CC01A91FBF0F06044C9E76D1C24
:1011E000BD42FFF673AF0598009004EB0B00019031
:1011F00000208046054613E01149B8F1000F31F98F
:1012000015A009D0009901EB0A0208440A490968AF
:10121000C96E0B680199984788F0010850466D1C0B
:10122000064909688D42E7DB641CB4427FF747AF8B
:1012300007B0BDE8F08F0000600900204C100020CE
:1012400068B8012010B5002003F0ECFF6FF07F407C
:1012500003F0ECFF012004F037F8002004F03CF824
:10126000002004F043F8002003F0F7FF0448006872
:1012700003F0F6FFBDE81040002004F001B80000C4
:101280005C09002033B583B0040016D001F0E4F906
:101290000190456E01A801F029FA049801F0DCF9EB
:1012A00000908460684601F021FA042204A92846CF
:1012B00001F040FA20460BF01AF905B030BD33B505
:1012C00083B0040016D001F0C7F90090856E68461F
:1012D00001F00CFA049801F0BFF90190846001A8B4
:1012E00001F004FA042204A9284601F023FA20465A
:1012F0000BF0FDF805B030BD2DE9F04104460025A6
:10130000D4E90007B0F5407F00D1012521463846D9
:101310000AF008F8064615B1384615F094FE002E7E
:101320002FD02068052806D00B280ED00F2806D015
:10133000262821D10EE0384615F085FE1CE03846FF
:10134000E168BDE8F04116F0DDBB3846BDE8F0418C
:1013500016F043BAE06805280ED138460AF0EBFDD6
:10136000A168884205D038460AF0DCFDA1688842B1
:1013700002D1606817F0B5F92046BDE8F0410AF0E7
:10138000C5BBBDE8F081F0B585B00DF1280CBCE817
:10139000F0004FF0000C8DE8F01000F003F805B0FD
:1013A000F0BD00002DE9F04186B00DF1300CDDE913
:1013B0000F84BCE8E0006C34DFF850C003948DE883
:1013C00060100AF0F3FA04001BD001F0F0F90546B2
:1013D00001F0EDF90646204601F03EF90490C0E91F
:1013E0001956002241460AF003FA049830220849AF
:1013F0003430FBF7AFFF0498A0F8787004A801F030
:1014000075F906B02046BDE8F0810000F912010828
:10141000140D002003B583B001F01EF9009060B1F7
:10142000406A01F019F901460190022304AA0098CC
:1014300000F07EF901A801F059F9684601F056F96B
:1014400005B000BD2DE9F043814685B01D469046AC
:101450000F462C2001F01BF8060024D0780001F084
:1014600016F804000ED0B8F1000F0BD055B120468D
:1014700001F0F2F86A0041460090FBF7E4FE68468E
:1014800001F034F9304601F0E7F80949029000F123
:101490000C024462A2E8A2020649016006494160CA
:1014A00002A801F023F905B03046BDE8F083000042
:1014B000216C0208AF7C02086B78020816F0D5B9DF
:1014C0002DE9FC478946070026D001F0C5F80190B8
:1014D000466E01A801F00AF9304601F0BCF9054654
:1014E000002414E02146304601F0C1F970B101F04A
:1014F000B3F80090D0F80080684601F0F7F8C845CE
:1015000004D12146304601F07DF902E0641CAC4272
:10151000E8DB38460AF0EBFFBDE8FC872DE9FC4725
:101520008946070026D001F097F80090866E68463D
:1015300001F0DCF8304601F08EF90546002414E095
:101540002146304601F093F970B101F085F8019021
:10155000D0F8008001A801F0C9F8C84504D121469F
:10156000304601F04FF902E0641CAC42E8DB38463B
:101570000AF0BDFFBDE8FC872DE9F8430746984611
:1015800015460E46302000F082FF040015D001F011
:1015900063F80090C0E905768584094AB7EE000A31
:1015A000C0F81C8080ED0A0AD2E90012C0E90312DB
:1015B00004490160684601F099F82046BDE8F883C7
:1015C000440D0020877D020800F07CBF38B50D4631
:1015D000002460B101F040F80090046AAC4203D0EE
:1015E000056280680AF083FF684601F07FF82046B4
:1015F00038BD38B50D46002460B101F02DF80090DB
:101600004469AC4203D0456180680AF070FF6846C7
:1016100001F06CF8204638BD2DE9F8431D46DDF891
:10162000208016460F46040010D001F015F80090F7
:10163000C0F860804765C0E91665684601F056F855
:10164000204615F000FD20460AF051FFBDE8F88362
:10165000F8B515460E4607004FF0000410D000F014
:10166000FBFF0090042D08D200EB8500446BB442D0
:1016700003D0466338460AF03AFF684601F036F870
:101680002046F8BDF8B50D4606004FF000040CD01A
:1016900000F0E2FF0090446CAC4203D04564304659
:1016A0000AF025FF684601F021F82046F8BDF8B59C
:1016B0000D4606004FF000040CD000F0CDFF009066
:1016C000846CAC4203D0856430460AF010FF684653
:1016D00001F00CF82046F8BDF8B50D4606004FF0B5
:1016E00000040CD000F0B8FF0090046DAC4203D0B1
:1016F0000565304600F04EF8684600F0F7FF2046DA
:10170000F8BDF8B50D4606004FF000040ED000F00D
:10171000A3FF009090F86C40AC4204D080F86C506D
:1017200030460AF0E4FE684600F0E0FF2046F8BDCF
:101730002DE9F041044680681D4617460E460028F4
:1017400026D0D4E9040290420ED1521E6A43711988
:101750003046FBF7BDFD20692A46401E05FB0060B0
:101760003946FBF7B5FD0EE005FB0013401C206178
:101770002A4639461846FBF7ABFDE16819B1204609
:10178000BDE8F0410847A068BDE8F04100F002B8AC
:10179000BDE8F08110B58AB0044600F05DFF09A9EC
:1017A00004AACDE9002105AB089006AA07A914F008
:1017B00074FC08A800F09AFF02A920460AF024FB56
:1017C000BDF8080007990844ADF80800BDF80A0004
:1017D00006990844ADF80A00BDF80C000599401AB6
:1017E000ADF80C00BDF80E000499401AADF80E00DB
:1017F00002A920460AF040FE0AB010BD70B50C46A2
:10180000054600F0F1F8A8682168C16261680163CB
:10181000A1684163490707D5D0E90021C0E900125A
:10182000D0E90221C0E90212A1898184216900293D
:1018300003D001DC4FF00001016270BD2DE9F041E1
:101840001E4617468846054600F0CEF8AC6868226A
:10185000414604F58470FBF77DFD2846B8472846CD
:10186000B047286980688047A062BDE8F081000029
:1018700010B5044600F0B8F8A0680E494C30114A83
:10188000C1650D4981650D4901660D4981660021DB
:10189000C166136843660C4BC0E91E31516841674D
:1018A00030F8261C21F0030120F8261C074941646A
:1018B00010BD0000B1AF020869B4020879AF020898
:1018C000A3A50208780A002009A702085DAE020855
:1018D00010B5044600F088F8A4680C489034102134
:1018E00020650B4860650B48A0650B48E0650B4818
:1018F000E0600B482061206BA06654F890292046D8
:1019000090471020A0630748606410BDA111020831
:10191000AD45020829190108591A01085DA50208F8
:10192000A9BF020858B90B08F8B5846815460F46D8
:1019300094F8260080074CD5D4F8FC302046984710
:101940000646D4F800312A46394620469847D4F84E
:10195000943005461BB1002201212046984720699A
:10196000B04201DD012000E00020A169B14201DAAE
:10197000012100E0002108436169A94201DD012144
:1019800000E000210843E169A94201DA012100E0F9
:10199000002108430AD06068401E00902368D4F8F4
:1019A000A4705B1E002211462046B847D4F8A83028
:1019B0002A46314620469847D4F89C10204688474E
:1019C000D4F8943005466BB1012200212046984797
:1019D00008E0D4F8A83020469847D4F89C10204658
:1019E000884705462846F8BD70B50446806800283B
:1019F00012D14FF4B875284600F0A2FD2A46002106
:101A0000A06005F00FF9A0680221C18401210464DF
:101A100001620249C0F8041170BD0000211A0108DA
:101A200010B590B0044620220A496846FBF792FCA4
:101A300008492022203108A8FBF78CFC606B5DF878
:101A40002010C4F8FC1008A951F82000C4F80001C7
:101A500010B010BD6C380B082DE9F8438468984627
:101A6000154694F826000F46800740D5D4F8FC3080
:101A7000204698470646D4F800312A463946204683
:101A8000984705462069B04201DD012000E00020B2
:101A9000A169B14201DA012100E000210843616936
:101AA000A94201DD012100E000210843E169A942CA
:101AB00001DA012100E0002108430AD06068401EDD
:101AC00000902368D4F8A4705B1E002211462046C3
:101AD000B847D4F8A8302A46314620469847D4F86B
:101AE000A02001B041462046BDE8F0431047D4F89D
:101AF000A830F2E72DE9F04FDFF828B191B04FF0B0
:101B0000FF35DBF80030B3F922100691DE69B3F936
:101B10002490F469A189814206D8E289824203D3E4
:101B2000471AD4F8008012E0D4E9018100296FD06F
:101B30000A8882426CD84D88854269D3801A82B265
:101B4000486800EB8200B0F90070B0F90250781CD0
:101B50005ED0307EA17C10FB01FA217CCDE908012A
:101B6000B3F92A60304606F0AFF9C0B20E90DBF848
:101B7000000007FB0A81A37C826B0127CDE90412D8
:101B8000CDE90273C069DDE90832C17E807ECDE90E
:101B900000014946069805F0CFFC681C18D046F0B5
:101BA000020006F091F9DBF80000A37C05FB0A8136
:101BB000826BCDE90273CDE90412C069DDE9083218
:101BC000C17E807ECDE900014946069805F0B4FC4F
:101BD000DBF800005D46C069417E007E814214D979
:101BE000022E12D086F0040006F06EF92868C06953
:101BF000027EC37E12FB0391437E857E099A06987E
