:020000040800F2
:10000000A0210020A14B0008590400085B0400084F
:100010005F04000863040008670400080000000093
:100020000000000000000000000000006B04000859
:100030006D04000800000000FD6300086F04000864
:10004000BB4B0008BB4B0008BB4B0008BB4B000878
:10005000BB4B0008BB4B00087F040008BB4B0008EB
:10006000BB4B0008BB4B0008BB4B0008BB4B000858
:10007000BB4B0008BB4B0008BB4B0008BB4B000848
:10008000BB4B0008BB4B0008BB4B0008BB4B000838
:10009000BB4B0008BB4B0008BB4B0008BB4B000828
:1000A000BB4B0008BB4B0008BB4B0008BB4B000818
:1000B000BB4B0008BB4B0008BB4B0008BB4B000808
:1000C000BB4B0008BB4B0008BB4B0008BB4B0008F8
:1000D000BB4B0008A90C0008BB4B0008BB4B000839
:1000E000BB4B0008BB4B0008BB4B0008BB4B0008D8
:1000F000BB4B0008BB4B0008BB4B0008BB4B0008C8
:10010000BB4B0008BB4B0008BB4B0008BB4B0008B7
:10011000BB4B0008BB4B0008BB4B0008BB4B0008A7
:10012000BB4B0008BB4B0008BB4B0008BB4B000897
:10013000BB4B0008BB4B0008BB4B0008BB4B000887
:10014000BB4B0008BB4B0008BB4B0008BB4B000877
:10015000BB4B0008BB4B0008BB4B0008BB4B000867
:10016000BB4B0008BB4B0008BB4B0008BB4B000857
:10017000BB4B0008BB4B0008BB4B0008BB4B000847
:10018000BB4B0008BB4B000800F002F800F092F8EF
:100190000AA090E8000C82448344AAF10107DA45E2
:1001A00001D100F087F8AFF2090EBAE80F0013F0A2
:1001B000010F18BFFB1A43F00103184760B5000098
:1001C00080B50000103A24BF78C878C1FAD8520729
:1001D00024BF30C830C144BF04680C6070470000C1
:1001E0000023002400250026103A28BF78C1FBD840
:1001F000520728BF30C148BF0B6070476E2908F016
:10020000BF81702908F0FF82662909F07284652990
:1002100009F06F84672909F06C846129AFF30080CD
:1002200003681B0A28BF41F08001692908F06E812C
:10023000642908F06B81752908F068816F2908F03E
:100240008D82782908F0CB82E92908F02982E429F7
:1002500008F02682F52908F02382EF2908F08A8227
:10026000F82908F0CA820368DB0928BF41F0800141
:10027000632908F04A86732908F04F86E32908F0BD
:100280005A86F32908F05F86002070471FB509F0F1
:100290002BFC08F0A9FE04000020002109F00EFC50
:1002A000401C60600020002109F0F2FBE0601FBDEF
:1002B00010B510BD08F06BFE1146FFF7E7FF00F028
:1002C0004FF808F041FF03B4FFF7F2FF03BC08F05A
:1002D00085FF000030B5304800686422B0FBF2F1C1
:1002E000481EB0F1807F00D31BE0481E4FF0E02293
:1002F000506150170F22002807DA13071D0E274BF5
:1003000000F00F04241F1D5503E013071C0E244B9F
:100310001C5400BF00204FF0E022906107201061C4
:1003200000BF30BD70B50546FFF7D4FF4FF4E13094
:1003300000F07EFC00F01CFD01F01DFA00F03AFB1D
:1003400000F099FB00F05BFA00F02BFC00F0E9F8FC
:1003500000F091F907F043FB044607F008FA70BD7E
:1003600000B585B004F0AAFC06F052FC0120AFF203
:100370004B0102020B4BCDE90132CDE90310002005
:100380000123024608A100900A4806F02BFF06F060
:1003900068FC002005B000BD5C00002018ED00E006
:1003A00000E400E0D4000020496E69745F5461737A
:1003B0006B000000D4040020F0B50C46134605463F
:1003C0002646102B1BD304F00307C7B900F0030720
:1003D000AFB92946324608E080CA80C180CA80C1D0
:1003E00080CA80C180CA80C1103B102BF4D202E0C9
:1003F00080CA80C11B1F042BFAD20D46164603E0AB
:1004000016F8017B05F8017B1F00A3F10103F7D16A
:10041000F0BDF0B50C460546042A15D300F00306DE
:1004200096B9014644EA042343EA034304E008C1C1
:1004300008C108C108C1103A102AF8D201E008C169
:10044000121F042AFBD20D4601E005F8014B1600ED
:10045000A2F10102F9D1F0BD704700BFFEE700BF75
:10046000FEE700BFFEE700BFFEE77047704710B52C
:1004700006F00EFE06F001FE06F0CCFD10BD704742
:1004800010B502460AE0002005E0002100E0491C0A
:10049000A829FCD3401CB0F57A7FF6D31300A2F153
:1004A0000102F0D110BD1CB510E04FF61F0001F0A5
:1004B00038F82FA010210B46C822CDE90010B42136
:1004C000142004F02EFBC82006F080FFEDE788B072
:1004D00018222EA102A807F081FF002420E015E0D9
:1004E0004FF2DE7001F01DF804F13000C0B28DF85B
:1004F0001C0002A810210B46C822CDE900101146AD
:10050000142004F00EFBC820FFF7BAFF601C04465D
:100510000A28E5DB0A2C00D10024642006F056FFEF
:10052000DDE700B585B00120AFF2850180221D4BCB
:10053000CDE90132CDE9031000200A2302461AA1B9
:1005400000901B4806F04EFE0120AFF27D01802294
:10055000184BCDE90132CDE9031000200B230246F0
:1005600015A10090164806F03DFE05B000BD000044
:1005700048656C6C6F205468697320697320466904
:10058000727374205461736B0000000054686973C7
:10059000206973205365636F6E64205461736B3AF6
:1005A000200000002C0500207461736B31000000F6
:1005B0002C0900202C0700207461736B32000000AE
:1005C0008409002010B50D2000F082FB0A2000F005
:1005D0007FFB10BD08B532A64CE00024304600F089
:1005E0008CFB2BE0684600F053FB9DF800000D28C3
:1005F00003D100202C49085521E09DF8000008286F
:1006000010D1002C1ADD601EC4B200202649085506
:10061000082000F05DFB202000F05AFB082000F0CD
:1006200057FB0BE09DF8000042B22046611CCCB2A3
:100630001D490A549DF8000000F04AFBD2E700BFB4
:10064000FFF7C0FF18480078A0B14FF48062002186
:100650001648FFF7DEFE00BF4FF4806213491248D0
:1006600007F062FCC5B2114800F047FBFFF7AAFF94
:10067000002DF1D0B1E700B585B00120AFF2AB019C
:1006800002020B4BCDE90132CDE90310002011230A
:10069000024608A100900A4806F0A4FD05B000BD7E
:1006A0007261772D6F732300340E0020340F002009
:1006B000DC0900205368656C6C205461736B00008A
:1006C000DC0D0020F0B587B005460F46144600202B
:1006D00004900590069003AA0121204607F0B5FC7E
:1006E0000646314604A8039AFFF766FE002004A9D7
:1006F000039A885402A904A800F0F2F803AA022180
:10070000204607F0A2FC0646314604A8039AFFF7EC
:1007100053FE002004A9039A885401A904A800F0FC
:10072000DFF80298012802D0022826D111E00198B2
:1007300020B1012806D100F04EFB08E0012000F0B6
:1007400035FB04E037A1284607F021FD00BF00BFBC
:1007500018E0019810B1012808D103E0022000F050
:1007600025FB08E0022000F036FB04E02DA128461E
:1007700007F00DFD00BF00BF04E030A1284607F0E0
:1007800006FD00BF00BF012007B0F0BD0BE0012057
:1007900000F036FB322006F019FE022000F030FB9C
:1007A000322006F013FEF2E770B586B004460D461F
:1007B00016460120AFF22B018022264BCDE90132F3
:1007C000CDE9031000201023024623A10090254804
:1007D00006F008FD012006B070BD70B504460D4658
:1007E0001646204806F0C6FE012070BD70B50446CE
:1007F0000D4616461B4806F02FFF012070BD10B5B0
:1008000019491A4807F062FB19491A4807F05EFBBC
:1008100019491A4807F05AFB19491A4807F056FBBC
:1008200010BD0000706172613220697320657272C0
:100830006F722830206F7220312909007061726157
:1008400031206973206572726F7228312C32290948
:1008500000000000341300204C45445F5461736B6A
:10086000000000003415002000000020F89A000865
:1008700008000020089B000810000020189B0008BA
:1008800018000020289B0008F0B5034614460020FD
:1008900000220DE0B3FBF4F604FB1636184F17F8F0
:1008A00006C00646471CF8B201F806C0B3FBF4F3D5
:1008B000002BEFD100260E5400B90E70002209E083
:1008C0008D5C861A761E8E5D8E54861A761E8D5528
:1008D000561CF2B200EBD077B2EB670FF0DBF0BD45
:1008E00010B5002207E010F8014B02EB820304EB85
:1008F0004303A3F130020378002BF4D10A6010BD4A
:10090000200000207CB504460D46164600200090CD
:1009100001902FA1204607F03AFC31208DF800000D
:100920002E208DF8010030208DF8020035208DF842
:10093000030036208DF8040000208DF8050069467C
:10094000204607F024FC01207CBDFEB505460E467E
:1009500017462448006800902248001F0068019054
:1009600020480838006802901E480A3004881EA0FB
:10097000009900F0DCF921A0019900F0D8F921A03C
:10098000029900F0D4F9214620A000F0D0F901200E
:10099000FEBD00BFBFF34F8F2148006800F4E06048
:1009A00020490843001D1E490860BFF34F8F00BF58
:1009B00000BFFEE710B51C491C4807F087FA1C4928
:1009C0001C4807F083FA1C491C4807F07FFA10BD49
:1009D0005241572D4F532056657273696F6E3A20FE
:1009E00000000000187AFF1F636869702069643A8C
:1009F0002020202030582530385820002530385805
:100A00002000000025303858200D0A00466C617324
:100A1000682053697A653A202564204B420D0A000C
:100A20000CED00E00000FA0530000020389B0008C3
:100A300038000020489B000840000020589B000818
:100A40002DE9F8430746884691460E4804680CE0B5
:100A50002668A4F120056946284606F05EFCE96C8C
:100A600009A0009A00F063F9344606488442EFD1A9
:100A70000120BDE8F88310B51049114807F026FAA7
:100A800010BD0000B80000207461736B206E616DB2
:100A9000652069732025313573202A2A2A20746144
:100AA000736B206672656520737461636B20736974
:100AB0007A652069732025640D0A00004800002033
:100AC000689B0008014606E0002000E0401C42F25E
:100AD00010729042FAD30A00A1F10101F4D17047DB
:100AE0007CB504460D46164600F045FE6420FFF72F
:100AF000E9FF4FF6E07000F014FD6420FFF7E2FF1D
:100B00004FF4784000F00DFD6420FFF7DBFF1F205D
:100B100000F007FD6420FFF7D5FF4FF4FC6000F004
:100B200000FD6420FFF7CEFF002000F0FAFC6420F7
:100B3000FFF7C8FF4FF6FF7000F0F3FC6420FFF7EB
:100B4000C1FF4FF2DE7000F0ECFC6420FFF7BAFF4B
:100B500040F21F5000F0E5FC6420FFF7B3FF4FF6B2
:100B60001F0000F0DEFC4FF4784064231A46142185
:100B70000090084603F020FE4FF6E0706423DC226C
:100B800014210090782003F0C7FE09A010210B4625
:100B9000C822CDE90010B421142003F0C2FF0120C7
:100BA0007CBD10B50849094807F090F910BD000058
:100BB00048656C6C6F2054686973206973204C43DE
:100BC000442054657374000050000020789B000896
:100BD0001CB50121084604F0A3FF072209215E4845
:100BE00004F08BFD07220A215B4804F086FD4FF4D8
:100BF000C060009002208DF804008DF80500694661
:100C0000554804F0EFFC1CBD08B54FF4407004F0EB
:100C1000EFF825208DF8000000208DF801008DF8F8
:100C2000020001208DF80300684604F0E6F808BDD4
:100C30001FB50446FFF7CCFF0121102004F0CAFFC6
:100C400000940020ADF80400ADF80600ADF80800EF
:100C5000ADF80C000C20ADF80A0069463F4805F0DD
:100C600006F940F227713D4805F071FA012240F281
:100C700025513A4805F039FAFFF7C6FF01213748F8
:100C800005F07DF9002236A1384806F06DF81FBD49
:100C900010B504464FF0FF31344806F007F92F48ED
:100CA00005F09CF9207010BD10B506F0F1F940F286
:100CB00025512A4805F054FA38B140F22551274809
:100CC00005F089FA294806F0B0F806F0A3F910BD3E
:100CD00010B5044600BF4021204805F02BFA00283B
:100CE000F9D021461D4805F075F900BF40211B4889
:100CF00005F020FA0028F9D010BD10B5044600BF59
:100D00004021164805F016FA0028F9D00BE014F837
:100D1000011B124805F05EF900BF40210F4805F0A5
:100D200009FA0028F9D020780028F0D110BD0FB4BE
:100D300000B5ADF5017D83A880906846809A8299C0
:100D400007F03AFB002080906846FFF7D6FF0DF5CC
:100D5000017D5DF814FB000000000240001001401E
:100D60005553415254315F53454D00008C150020BE
:100D70001CB50121202004F0D3FE4FF4C060009088
:100D800001208DF8040000208DF8060001208DF868
:100D9000070002208DF805006946264804F022FC71
:100DA0004FF4C061234804F099FC1CBD10B5044603
:100DB000012C02D0022C0CD105E04FF400711D482B
:100DC00004F08CFC05E04FF480611A4804F086FCC6
:100DD00000BF00BF10BD10B50446012C02D0022C8C
:100DE0000CD105E04FF40071124804F079FC05E0E5
:100DF0004FF480610F4804F073FC00BF00BF10BDCA
:100E0000012802D0022812D108E00A4914310968E9
:100E100081F40071074A1432116008E00549143169
:100E2000096881F48061034A1432116000BF00BF79
:100E30007047000000140240014606E0002000E078
:100E4000401C42F210729042FAD30A00A1F1010153
:100E5000F4D17047FE4A10804FF0D842A2F88010BB
:100E6000704710B50446FA4804800120FFF7E4FFFC
:100E70004FF0D840B0F8800010BD00B5F54880882C
:100E800049F2413188420BD0F248808846F604018D
:100E9000884205D0EF48808845F21031884203D15E
:100EA0002920EB4908800FE0EA48808845F210517C
:100EB000884204D14FF42450E549088004E040F210
:100EC00073110720FFF7C6FF00BD00B5E148808819
:100ED00049F2413188420BD0DE48808846F6040151
:100EE000884205D0DB48808845F21031884203D122
:100EF0002820D74908800EE0D648808845F2105156
:100F0000884204D14FF42050D149088003E00021E9
:100F10000720FFF79FFF00BD2DE9F04104460023A5
:100F20009846CC48807901281ED1CA48808846F668
:100F30000401884218D0082C15D2DFE804F004061A
:100F4000080A0C0E101206240DE007240BE00424FE
:100F500009E0052407E0012405E0002403E0032460
:100F600001E0022400BF00BFBA48808849F2413145
:100F7000884211D0B748808846F6040188420BD0D9
:100F8000B448808845F21031884205D0B148808845
:100F900045F21051884274D1082C1CD2DFE804F0CD
:100FA0000406090C0F12151800BF14E043F080036B
:100FB00011E043F040030EE043F0C0030BE043F0C8
:100FC000200308E043F0600305E043F0A00302E0E3
:100FD00043F0E00300BF00BF9E48808845F21051F7
:100FE000884202D14FF4585801E04FF03608994832
:100FF000808845F21031884207D09648808845F2B3
:101000001051884201D043F008039248808846F688
:101010000401884201D143F0020319464046FFF71C
:1010200019FF03F0200018B98A48807901280DD1F2
:101030008848008887494988884214DA85480788A3
:10104000408884490880084647800CE08148008831
:1010500080494988884206DD7E48078840887D4966
:101060000880084647807B48807901280AD1794862
:10107000808846F60401884204D076484588068870
:1010800003E081E07348058846887248808845F20D
:10109000105188424CD16F4840896D49088000202A
:1010A0004FF0D841A1F880006A484089401C684947
:1010B000088000204FF0D841A1F8800065484089A1
:1010C000801CA1F87E00681EC0F30F20A1F88000EC
:1010D00060484089C01CA1F87E00681EC0B2A1F81B
:1010E00080005C4880895A49088000204FF0D84130
:1010F000A1F8800057488089401C5549088000208D
:101100004FF0D841A1F8800052488089801CA1F896
:101110007E00701EC0F30F20A1F880004D4880892A
:10112000C01CA1F87E00701EC0B2A1F880005FE074
:10113000484840894649088000204FF0D841A1F82E
:1011400080004349891C0880681EC0F30F204FF0BF
:10115000D841A1F88000681EC0B2A1F880003D48C7
:1011600080893B4908800020891C08804FF0D841C5
:10117000A1F88000701EC0F30F20A1F88000701E3F
:10118000C0B2A1F8800033E0082C1CD2DFE804F0E4
:1011900004070A0D0F12151843F0300313E043F053
:1011A000100310E043F020030DE000BF0BE043F01C
:1011B000380308E043F0280305E043F0180302E099
:1011C00043F0080300BF00BF2248808848F6891119
:1011D000884205D14FF0110846F24000034303E076
:1011E0004FF0030843F4805319464046FFF732FEA0
:1011F000BDE8F08110B50446002C58D1154988711E
:10120000F02008804FF4A07048800846808849F29A
:10121000413188420BD00F48808846F6040188424D
:1012200005D00C48808845F21031884220D12C200E
:10123000084908812A2048812B2088810846808817
:1012400046F6040188420BD00248808804E0000082
:101250007E00006CA415002045F21031884206D1B2
:101260004FF4A070FE4908804FF4F070488079E098
:10127000FB48808845F21051884210D14FF430501D
:10128000F74908814FF4285048814FF42C50888149
:101290004FF4F07008804FF44870488062E02220DC
:1012A000EF49088120204881212088815AE00120CF
:1012B000EB4988714FF4A0700880F0204880084600
:1012C000808849F24131884205D0E548808845F25E
:1012D0001031884207D12C20E14908812A20488119
:1012E0002B2088812BE0DE48808846F60401884266
:1012F00007D12C20DA4908812B2048812A208881B7
:101300001DE0D748808845F21051884210D14FF433
:101310003050D34908814FF4285048814FF42C5065
:1013200088814FF4487008804FF4F070488006E0E0
:101330002220CB4908812120488120208881C8486B
:10134000808846F60401884205D0C548808845F269
:101350001031884206D14FF4F070C14908804FF433
:10136000A07048800020FFF7D7FD10BD2DE9FF5F7A
:1013700004460D4616461F46A019401E86B2E819BF
:10138000401E87B2B648808849F2413188420BD06E
:10139000B348808845F21031884205D0B048808833
:1013A00046F60401884224D1AD484089AD49088001
:1013B00020124FF0D841A1F88000E0B2A949891C61
:1013C000088030120880F0B24FF0D841A1F88000B8
:1013D000A3488089A34908802812891C0880E8B2A4
:1013E000088038120880F8B24FF0D841A1F8800088
:1013F00087E09B48808845F2105188424ED198483A
:1014000040899849088020124FF0D841A1F8800007
:1014100093484089401C93490880E0B24FF0D8417E
:10142000A1F880008E484089801C8E4908803012C7
:101430004FF0D841A1F8800089484089C01C8949F3
:101440000880F0B24FF0D841A1F88000844880892C
:101450008449088028124FF0D841A1F880008048C4
:101460008089401C7F490880E8B24FF0D841A1F83C
:1014700080007B488089801C7A49088038124FF0B0
:10148000D841A1F8800076488089C01C7549088041
:10149000F8B24FF0D841A1F8800032E0704880796E
:1014A00001280ED1A846B9466D480088801B401E11
:1014B0001FFA80FA6A480088001B401E1FFA80FB52
:1014C00003E0A046B146AA46BB46502003905120F7
:1014D0000290522001905320009041460398FFF75C
:1014E000B9FC49460298FFF7B5FC51460198FFF751
:1014F000B1FC59460098FFF7ADFC2946204608F09C
:101500002FFABDE8FF9F70B505460E4614463146DA
:10151000284608F025FA08F091FA5248801C048009
:1015200070BD70B5044600264D4805884088454387
:101530004B48808846F60401884216D14848807995
:10154000012812D10020464988712A2048812B2089
:1015500088810021084608F003FA0120404988717B
:101560002B2048812A20888103E00021084608F0CA
:10157000F7F908F063FA002603E03A48801C04807B
:10158000761CAE42F9D370BD10B504462CB14FF4B1
:101590000041354804F0A2F804E04FF4004132481D
:1015A00004F09EF810BD00B597B00121084604F084
:1015B000EFFA012001900020029009200390002002
:1015C0000490059006904FF08050079006200890F8
:1015D000002009900A9010200B9000200C900D9094
:1015E0000E900F9010904FF48050119000201290A8
:1015F0001390149001A81590169008A803F083FC8E
:101600000121062003F02BFD17B000BD1CB5012100
:10161000022004F085FA4FF40040009001208DF87C
:10162000040000208DF8060001208DF8070003203B
:101630008DF8050069460C4803F0D4FF4FF40041D3
:10164000094804F04DF80121782004F069FA4CF2C1
:101650003370009002208DF80400032006E00000A3
:10166000A41500207E00006C000402408DF80500E7
:1016700000208DF806008DF807006946FE4803F04B
:10168000B1FF0C220021FC4804F037F80C220121A4
:10169000F94804F032F80C220421F74804F02DF840
:1016A0000C220521F44804F028F80C220821F24805
:1016B00004F023F80C220921EF4804F01EF80C2254
:1016C0000A21ED4804F019F80C220E21EA4804F032
:1016D00014F80C220F21E84804F00FF84FF6807040
:1016E00000906946E54803F07DFF0C220721E3489E
:1016F00004F003F80C220821E04803F0FEFF0C225E
:101700000921DE4803F0F9FF0C220A21DB4803F02F
:10171000F4FF0C220B21D94803F0EFFF0C221146F5
:10172000D64803F0EAFF0C220D21D44803F0E5FF70
:101730000C220E21D14803F0E0FF0C220F21CF48EC
:1017400003F0DBFF4FF4805000906946CC4803F073
:1017500049FF0C221146CA4803F0CFFF4FF48050D6
:1017600000906946C74803F03DFF0C221146C5486A
:1017700003F0C3FF1CBD10B5FFF748FFFFF713FFD1
:1017800001210020FFF766FB3220FFF755FB002008
:10179000FFF767FBBC49888008468088FF280ADB82
:1017A000084680884FF6FF71884204D0B64880888A
:1017B000B0F5134F7ED1D320B4490880881C00882F
:1017C000B1498880B148801C00888880AF48801C5F
:1017D00000888880084680884FF6FF7101EA002063
:1017E000A9498880084680884FF0D841B1F8801018
:1017F0000843A54988800846808849F241318842DB
:1018000058D0BF20A1490880881C00889E49888044
:101810009E48801C008888809C48801C00888880A6
:101820009A48801C00888880084680884FF6FF719F
:1018300001EA002094498880084680884FF0D8410A
:10184000B1F880100843904988800846808846F6A1
:101850000401884256D0D4208C490880881C008816
:10186000894988808948801C008888808748801C36
:1018700000888880084680884FF6FF7101EA0020C2
:1018800081498880084680884FF0D841B1F880109F
:1018900008437D4988800846808845F21031884297
:1018A00030D04FF45A4079490880881C0088764926
:1018B000888000E026E04FF45B408104A1F87E00C0
:1018C0007248801C008870498880084680884FF6DE
:1018D000FF7101EA00206C4988804FF45C404FF0B2
:1018E000D841A1F87E0068488088B1F8801008438C
:1018F0006549888008468088B0F5004F02D145F2DE
:10190000105088806048808849F2413188420BD06D
:101910005D48808845F21031884205D05A48808859
:1019200045F2105188421DD15948006820F00F003F
:101930004FF02041C1F81C010846D0F81C0120F4EA
:101940007060C1F81C010846D0F81C0140F003008B
:10195000C1F81C010846D0F81C0140F40070C1F821
:101960001C0128E04848808846F60401884205D0DA
:10197000454880884CF2055188421CD14448006893
:1019800020F00F004FF02041C1F81C010846D0F8AC
:101990001C0120F47060C1F81C010846D0F81C013D
:1019A00040F00A00C1F81C010846D0F81C0140F4C0
:1019B0004060C1F81C013448808849F241318842B6
:1019C00068D1CF203149088000204FF0D841A1F8DC
:1019D0008000641CC1202D49891C088030200880AB
:1019E000ED20891E08806420891C0880032008805F
:1019F0001220088081200880E820891E0880852028
:101A0000891C0880102008807A200880CB20891E3D
:101A100008803920891C08802C200880002008803C
:101A20003420088002200880F720891E08802020AA
:101A3000891C0880EA20891E08800020891C0880F3
:101A40000880C020891E08801B20891C0880C120B6
:101A5000891E08800120891C0880C520891E0880F5
:101A60003020891C08800880C720891E0880B72084
:101A7000891C088036200EE0000C02400010024055
:101A80000014024000180240A41500207E00006CE3
:101A90001C0100A089E0891E08804820891C08805C
:101AA0003A20891E08805520891C0880B120891E93
:101AB00008800020891C08801A200880B620891E12
:101AC00008800A20891C0880A2200880F220891E34
:101AD00008800020891C08802620891E088001209B
:101AE000891C0880E020891E08800F20891C08803E
:101AF0002A20088028200880082008800E200880DE
:101B00000820088054200880A920088043200880ED
:101B10000A2008800F2008800020088008800880A4
:101B20000880E120891E08800020891C088015207B
:101B300008801720088007200880112008800620D0
:101B400008802B200880562008803C200880052033
:101B50000880102008800F2008803F20088008801F
:101B60000F2008802B20891E08800020891C0880F7
:101B70000880012008803F2008802A20891E0880D4
:101B80000020891C088008800880EF200880112030
:101B90004FF0D841A1F87E004FF49660FFF74CF962
:101BA0002920FE49088002F0FCBDFD48808846F6E9
:101BB000040188427ED11120F84908801420FFF7E3
:101BC0003BF9D0204FF0D841A1F87E000720F3491F
:101BD000891C0880422008801D200880D120891E91
:101BE00008800020891C08801A20088009200880AD
:101BF000D220891E08800120891C088022200880AC
:101C0000C020891E08801020891C08803B20088085
:101C1000002008800220088011200880C520891E2D
:101C200008800320891C0880C820891E08800020A5
:101C3000891C088025200880212008800520088034
:101C4000002008800A200880652008802520088060
:101C500077200880502008800F200880002008800E
:101C6000F820891E08800120891C0880FE20891E1A
:101C700008800020891C0880022008802020891EFE
:101C80000880362008800820891C08803A20891E98
:101C900008805520891C08802B20891E0880002080
:101CA000891C08800880012008803F2008802A20A5
:101CB000891E00E014E008800020891C088008804C
:101CC00001200880DF204FF0D841A1F88000782063
:101CD000FFF7B2F829204FF0D841A1F87E0062E763
:101CE000AF48808845F21031884240F02C85ED20C5
:101CF000AA49088001204FF0D841A1F88000FE20B9
:101D0000A649891C0880EE20891E0880DE20891CD7
:101D1000088021200880F120891E08800120891C6C
:101D20000880DF20891E08801020891C0880C420BC
:101D3000891E08808F20891C0880C620891E088083
:101D40000020891C0880E220088008800880BF20CD
:101D5000891E0880AA20891C0880B020891E08805E
:101D60000D20891C0880002008800D20088000209C
:101D70000880112008800020088019200880002099
:101D8000088021200880002008802D200880002065
:101D900008803D200880002008805D200880002009
:101DA00008805D20088000200880B120891E0880FE
:101DB0008020891C0880002008808B20088000205B
:101DC00008809620088000200880B220891E0880A4
:101DD0000020891C088008800220088000200880DC
:101DE0000320088000200880B320891E088000207E
:101DF000891C088008800880088008800880088086
:101E00000880088008800880088008800880088092
:101E10000880088008800880088008800880088082
:101E20000880B420891E08808B20891C088000202F
:101E300008809620088000200880A12008800020CB
:101E40000880B520891E08800220891C0880002097
:101E500008800320088000200880042008800020DB
:101E60000880B620891E08800020891C0880088010
:101E7000B720891E08800020891C088008803F2028
:101E80000880002008805E200880002008806420F0
:101E90000880002008808C20088000200880AC206A
:101EA000088000200880DC20088000200880702046
:101EB0000880002008809020088000200880EB2007
:101EC000088000200880DC20088000200880B820DE
:101ED000891E08800020891C0880088008800880EE
:101EE0000880088008800880BA20891E0880242085
:101EF0004FF0D841A1F8800000202849891C0880B3
:101F00004FF0D841A1F880002449891C0880C120E5
:101F1000891E08802020891C088000200880542009
:101F2000088000200880FF20088000200880C22050
:101F3000891E08800A20891C08800020088004204F
:101F4000088000200880C320891E08803C20891C4E
:101F50000880002008803A2008800020088039206E
:101F600008800020088037200880002008803C205E
:101F70000880002008803620088000200880322059
:101F80000880002008802F200880002008802C2056
:101F90000880002008802920088003E07E00006C73
:101FA000A41500200020088026200880002008803A
:101FB0002420088000200880242008800020088039
:101FC00023200880002008803C2008800020088012
:101FD00036200880002008803220088000200880F9
:101FE0002F200880002008802C20088000200880F6
:101FF00029200880002008802620088000200880F2
:1020000024200880002008802420088000200880E8
:102010002320088000200880C420891E08806220B8
:10202000891C088000200880052008800020088086
:102030008420088000200880F0200880002008808C
:102040001820088000200880A42008800020088034
:102050001820088000200880502008800020088078
:102060000C200880002008801720088000200880AD
:102070009520088000200880F32008800020088038
:10208000E620088000200880C520891E08803220B4
:10209000891C0880002008804420088000200880D7
:1020A00065200880002008807620088000200880B5
:1020B0008820088000200880C620891E08802020F3
:1020C000891C0880002008801720088000200880D4
:1020D0000120088000200880C720891E0880002079
:1020E000891C0880088008800880C820891E088014
:1020F0000020891C0880088008800880C920891E6B
:1021000008800020891C08800880088008800880DA
:10211000088008800880088008804FF0D841A1F826
:102120008000FE4908800880088008800880E02040
:10213000891E08801620891C0880002008801C2029
:102140000880002008802120088000200880362098
:102150000880002008804620088000200880522047
:1021600008800020088064200880002008807A20F1
:102170000880002008808B2008800020088099209B
:10218000088000200880A820088000200880B9204E
:10219000088000200880C420088000200880CA2011
:1021A000088000200880D220088000200880D920E4
:1021B000088000200880E020088000200880F320AC
:1021C000088000200880E120891E08801620891CD4
:1021D0000880002008801C20088000200880222021
:1021E00008800020088036200880002008804520D4
:1021F0000880002008805220088000200880642089
:102200000880002008807A200880002008808B2029
:102210000880002008809920088000200880A820DD
:10222000088000200880B920088000200880C42091
:10223000088000200880CA20088000200880D22062
:10224000088000200880D820088000200880E02036
:10225000088000200880F320088000200880E22009
:10226000891E08800520891C0880002008800B201A
:102270000880002008801B2008800020088034206F
:1022800008800020088044200880002008804F201B
:1022900008800020088061200880002008807920C4
:1022A000088000200880882008800020088097206F
:1022B000088000200880A620088000200880B72021
:1022C000088000200880C220088000200880C720E5
:1022D000088000200880D120088000200880D620B7
:1022E000088000200880DD20088000200880F3207E
:1022F000088000200880E320891E08800520891CB2
:102300000880002008800A200880002008801C2007
:1023100008800020088033200880002008804420A6
:102320000880002008805020088000204FF0D8410D
:10233000A1F8800062207949088000200880782078
:1023400008800020088088200880002008809720CE
:10235000088000200880A620088000200880B72080
:10236000088000200880C220088000200880C72044
:10237000088000200880D120088000200880D52017
:10238000088000200880DD20088000200880F320DD
:10239000088000200880E420891E08800120891C14
:1023A000088000200880012008800020088002208A
:1023B0000880002008802A200880002008803C2017
:1023C0000880002008804B200880002008805D20C5
:1023D0000880002008807420088000200880842065
:1023E0000880002008809320088000200880A22018
:1023F000088000200880B320088000200880BE20CC
:10240000088000200880C420088000200880CD209B
:10241000088000200880D320088000200880DD206C
:10242000088000200880F320088000200880E52034
:10243000891E08800020891C088008800880088088
:1024400002200880002008802920088000200880C1
:102450003C200880002008804B2008800020088055
:102460005D200880002008807420088000200880FB
:1024700084200880002008809320088000200880A5
:10248000A220088000200880B32008800020088057
:10249000BE20088000200880C4200880002008801A
:1024A000CD20088000200880D320088000200880EC
:1024B000DC20088000200880F320088000200880AD
:1024C000E620891E08801120891C088000200880D1
:1024D00034200880002008805620088000200880D2
:1024E000762008800020088077200880002008805F
:1024F000662008800020088088200880002008804E
:102500009920088000200880BB20088000200880D7
:102510009920088000200880662001E08000006C7F
:102520000880002008805520088000200880552061
:102530000880002008804520088000200880432073
:10254000088000204FF0D841A1F880004420FE49C7
:10255000088000200880E720891E08803220891C1E
:102560000880002008805520088000200880762000
:1025700008800020088066200880002008806720EE
:1025800008800020088067200880002008808720BD
:102590000880002008809920088000200880BB2047
:1025A000088000200880992008800020088077207B
:1025B00008800020088044200880002008805620E1
:1025C0000880002008802320088000200880332015
:1025D0000880002008804520088000200880E8202E
:1025E000891E08800020891C0880088099200880A6
:1025F000002008808720088000200880882008802C
:10260000002008807720088000200880662008804D
:10261000002008808820088000200880AA200880E8
:1026200000200880BB2008800020088099200880B6
:10263000002008806620088000200880552008803F
:102640000020088055200880002008804420088051
:102650000020088044200880002008805520088041
:1026600000200880E920891E0880AA20891C088093
:102670000020088008800880891E0880AA20891C04
:102680000880CF20891E08800020891C08800880CF
:1026900008800880088008800880088008800880FA
:1026A0000880088008800880088008800880F02062
:1026B000891E08800020891C088050200880002086
:1026C000088008800880F320891E08800020891C6B
:1026D0000880F920891E08800620891C08801020A7
:1026E000088029200880002008803A20891E088060
:1026F0005520891C088011204FF0D841A1F87E0098
:102700006420FEF799FB29208F49891E0880352017
:1027100008800020891C08805120891E0880FF2025
:10272000891C08805320891E08802C20891C088061
:102730005520891E08808220891C08802C20891E33
:10274000088002F02EB88148808845F210518842F6
:102750007ED155214FF47040FEF77CFBAA214FF249
:102760000100FEF777FB52214FF20200FEF772FBE9
:1027700008214FF20300FEF76DFB01214FF2040028
:10278000FEF768FB0D214FF43040FEF763FB0D218F
:102790004BF20100FEF75EFB0D214BF20200FEF74B
:1027A00059FB34214FF43640FEF754FB34214BF2F1
:1027B0000160FEF74FFB34214BF20260FEF74AFB4B
:1027C0000D214FF43140FEF745FB0D214BF2011076
:1027D000FEF740FB0D214BF20210FEF73BFB3421CC
:1027E0004FF43740FEF736FB34214BF20170FEF711
:1027F00031FB34214BF20270FEF72CFB00214FF429
:102800003240FEF727FB00214BF20120FEF722FBAE
:1028100000214BF20220FEF71DFB24214FF438402B
:10282000FEF718FB24214BF60100FEF713FB2421D1
:102830004BF60200FEF70EFB01214FF43F40FEF77E
:1028400009FB0F214FF43340FEF704FB0F2100E09A
:10285000FEE34BF20130FEF7FDFA0F214BF202309E
:10286000FEF7F8FA34214FF43940FEF7F3FA342139
:102870004BF60110FEF7EEFA34214BF60210FEF78C
:10288000E9FA08214FF43540FEF7E4FA08214BF24B
:102890000150FEF7DFFA08214BF20250FEF7DAFA98
:1028A00003214FF44240FEF7D5FA24214FF43A4079
:1028B000FEF7D0FA24214BF60120FEF7CBFA2421B3
:1028C0004BF60220FEF7C6FA00214FF43C40FEF71B
:1028D000C1FA78214BF60140FEF7BCFA00214BF615
:1028E0000240FEF7B7FA00214FF43D40FEF7B2FA7E
:1028F00078214BF60150FEF7ADFA00214BF602505D
:10290000FEF7A8FA00214FF43E40FEF7A3FA642137
:102910004BF60160FEF79EFA00214FF45140FEF79E
:1029200099FA33214DF20110FEF794FA00214DF28D
:102930000210FEF78FFA34214DF20310FEF78AFAE7
:1029400000214DF2041003E08000006CA41500206B
:10295000FEF780FA3A214DF20510FEF77BFA0021CE
:102960004DF20610FEF776FA4A214DF20710FEF7F7
:1029700071FA00214DF20810FEF76CFA5C214DF25D
:102980000910FEF767FA00214DF20A10FEF762FA0D
:1029900081214DF20B10FEF75DFA00214DF20C1073
:1029A000FEF758FAA6214DF20D10FEF753FA00215A
:1029B0004DF20E10FEF74EFAE5214DF20F10FEF724
:1029C00049FA01214DF21010FEF744FA13214DF29D
:1029D0001110FEF73FFA01214DF21210FEF73AFAFC
:1029E00054214DF21310FEF735FA01214DF2141067
:1029F000FEF730FA82214DF21510FEF72BFA012175
:102A00004DF21610FEF726FACA214DF21710FEF706
:102A100021FA02214DF21810FEF71CFA00214DF2A6
:102A20001910FEF717FA02214DF21A10FEF712FAEA
:102A300001214DF21B10FEF70DFA02214DF21C1080
:102A4000FEF708FA34214DF21D10FEF703FA0221B9
:102A50004DF21E10FEF7FEF967214DF21F10FEF732
:102A6000F9F902214DF22010FEF7F4F984214DF21C
:102A70002110FEF7EFF902214DF22210FEF7EAF9DC
:102A8000A4214DF22310FEF7E5F902214DF22410A6
:102A9000FEF7E0F9B7214DF22510FEF7DBF9022130
:102AA0004DF22610FEF7D6F9CF214DF22710FEF792
:102AB000D1F902214DF22810FEF7CCF9DE214DF2BA
:102AC0002910FEF7C7F902214DF22A10FEF7C2F9CC
:102AD000F2214DF22B10FEF7BDF902214DF22C1020
:102AE000FEF7B8F9FE214DF22D10FEF7B3F90321E0
:102AF0004DF22E10FEF7AEF910214DF22F10FEF719
:102B0000A9F903214DF23010FEF7A4F933214DF25B
:102B10003110FEF79FF903214DF23210FEF79AF9BA
:102B20006D214DF23310FEF795F900214FF452401C
:102B3000FEF790F933214DF20120FEF78BF90021C9
:102B40004DF20220FEF786F934214DF20320FEF704
:102B500081F900214DF20420FEF77CF93A214DF273
:102B60000520FEF777F900214DF20620FEF772F9F5
:102B70004A214DF20720FEF76DF900214DF20820A1
:102B8000FEF768F95C214DF20920FEF763F9002198
:102B90004DF20A20FEF75EF981214DF20B20FEF77F
:102BA00059F900214DF20C20FEF754F9A6214DF2FF
:102BB0000D20FEF74FF900214DF20E20FEF74AF9E5
:102BC000E5214DF20F20FEF745F901214DF21020CD
:102BD000FEF740F913214DF21120FEF73BF90121D8
:102BE0004DF21220FEF736F954214DF21320FEF774
:102BF00031F901214DF21420FEF72CF982214DF21A
:102C00001520FEF727F901214DF21620FEF722F9D3
:102C1000CA214DF21720FEF71DF902214DF21820AE
:102C2000FEF718F900214DF21920FEF713F90221E1
:102C30004DF21A20FEF70EF901214DF21B20FEF78E
:102C400009F902214DF21C20FEF704F934214DF25E
:102C50001D20FEF7FFF802214DF21E20FEF7FAF8C4
:102C600067214DF21F20FEF7F5F802214DF22020DA
:102C7000FEF7F0F884214DF22120FEF7EBF8022157
:102C80004DF22220FEF7E6F8A4214DF22320FEF7B4
:102C9000E1F802214DF22420FEF7DCF8B7214DF2D5
:102CA0002520FEF7D7F802214DF22620FEF7D2F8B4
:102CB000CF214DF22720FEF7CDF802214DF228203A
:102CC000FEF7C8F8DE214DF22920FEF7C3F80221F5
:102CD0004DF22A20FEF7BEF8F2214DF22B20FEF72E
:102CE000B9F802214DF22C20FEF7B4F8FE214DF286
:102CF0002D20FEF7AFF803214DF22E20FEF7AAF8A3
:102D000010214DF22F20FEF7A5F803214DF23020BF
:102D1000FEF7A0F833214DF23120FEF79BF8032196
:102D20004DF23220FEF796F86D214DF23320FEF77A
:102D300091F800214FF45340FEF78CF833214DF207
:102D40000130FEF787F800214DF20230FEF782F8DD
:102D500034214DF20330FEF77DF800214DF20430AE
:102D6000FEF778F83A214DF20530FEF773F80021AE
:102D70004DF20630FEF76EF84A214DF20730FEF7AD
:102D800069F800214DF20830FEF764F85C214DF23D
:102D90000930FEF75FF800214DF20A30FEF75AF8CD
:102DA00081214DF20B30FEF755F800214DF20C3029
:102DB000FEF750F8A6214DF20D30FEF74BF800213A
:102DC0004DF20E30FEF746F8E5214DF20F30FEF7DA
:102DD00041F801214DF21030FEF73CF813214DF27D
:102DE0001130FEF737F801214DF21230FEF732F8BC
:102DF00054214DF21330FEF72DF801214DF214301D
:102E0000FEF728F882214DF21530FEF723F8012154
:102E10004DF21630FEF71EF8CA214DF21730FEF7BC
:102E200019F802214DF21830FEF714F800214DF286
:102E30001930FEF70FF802214DF21A30FEF70AF8AA
:102E400001214DF21B30FEF705F802214DF21C3036
:102E5000FEF700F834214DF21D30FDF7FBFF022193
:102E60004DF21E30FDF7F6FF67214DF21F30FDF7E2
:102E7000F1FF02214DF22030FDF7ECFF84214DF2ED
:102E80002130FDF7E7FF02214DF22230FDF7E2FF8E
:102E9000A4214DF22330FDF7DDFF02214DF2243055
:102EA000FDF7D8FFB7214DF22530FDF7D3FF022102
:102EB0004DF22630FDF7CEFFCF214DF22730FDF742
:102EC000C9FF02214DF22830FDF7C4FFDE214DF28B
:102ED0002930FDF7BFFF02214DF22A30FDF7BAFF7E
:102EE000F2214DF22B30FDF7B5FF02214DF22C30CF
:102EF000FDF7B0FFFE214DF22D30FDF7ABFF0321B2
:102F00004DF22E30FDF7A6FF10214DF22F30FDF7C8
:102F1000A1FF03214DF23030FDF79CFF33214DF22C
:102F20003130FDF797FF03214DF23230FDF792FF6C
:102F30006D214DF23330FDF78DFF00214FF45440E9
:102F4000FDF788FF33214DF20140FDF783FF00219B
:102F50004DF20240FDF77EFF34214DF20340FDF7B4
:102F600079FF00214DF20440FDF774FF3A214DF244
:102F70000540FDF76FFF00214DF20640FDF76AFFA7
:102F80004A214DF20740FDF765FF00214DF2084050
:102F9000FDF760FF5C214DF20940FDF75BFF00216A
:102FA0004DF20A40FDF756FF81214DF20B40FDF72F
:102FB00051FF00214DF20C40FDF74CFFA6214DF2D0
:102FC0000D40FDF747FF00214DF20E40FDF742FF97
:102FD000E5214DF20F40FDF73DFF01214DF210407C
:102FE000FDF738FF13214DF21140FDF733FF0121AA
:102FF0004DF21240FDF72EFF54214DF21340FDF724
:1030000029FF01214DF21440FDF724FF82214DF2EA
:103010001540FDF71FFF01214DF21640FDF71AFF85
:10302000CA214DF21740FDF715FF02214DF218405D
:10303000FDF710FF00214DF21940FDF70BFF0221B3
:103040004DF21A40FDF706FF01214DF21B4000E052
:1030500008E3FDF7FFFE02214DF21C40FDF7FAFEEA
:1030600034214DF21D40FDF7F5FE02214DF21E40C8
:10307000FDF7F0FE67214DF21F40FDF7EBFE022148
:103080004DF22040FDF7E6FE84214DF22140FDF790
:10309000E1FE02214DF22240FDF7DCFEA4214DF2BB
:1030A0002340FDF7D7FE02214DF22440FDF7D2FE6A
:1030B000B7214DF22540FDF7CDFE02214DF226400D
:1030C000FDF7C8FECF214DF22740FDF7C3FE0221D8
:1030D0004DF22840FDF7BEFEDE214DF22940FDF7FE
:1030E000B9FE02214DF22A40FDF7B4FEF2214DF265
:1030F0002B40FDF7AFFE02214DF22C40FDF7AAFE5A
:10310000FE214DF22D40FDF7A5FE03214DF22E408C
:10311000FDF7A0FE10214DF22F40FDF79BFE03218D
:103120004DF23040FDF796FE33214DF23140FDF770
:1031300091FE03214DF23240FDF78CFE6D214DF2E0
:103140003340FDF787FE00214FF45540FDF782FE26
:1031500033214DF20150FDF77DFE00214DF202506A
:10316000FDF778FE34214DF20350FDF773FE002188
:103170004DF20450FDF76EFE3A214DF20550FDF779
:1031800069FE00214DF20650FDF764FE4A214DF222
:103190000750FDF75FFE00214DF20850FDF75AFE83
:1031A0005C214DF20950FDF755FE00214DF20A5009
:1031B000FDF750FE81214DF20B50FDF74BFE002133
:1031C0004DF20C50FDF746FEA6214DF20D50FDF7D5
:1031D00041FE00214DF20E50FDF73CFEE5214DF27F
:1031E0000F50FDF737FE01214DF21050FDF732FE72
:1031F00013214DF21150FDF72DFE01214DF2125019
:10320000FDF728FE54214DF21350FDF723FE012156
:103210004DF21450FDF71EFE82214DF21550FDF7C0
:1032200019FE01214DF21650FDF714FECA214DF290
:103230001750FDF70FFE02214DF21850FDF70AFE60
:1032400000214DF21950FDF705FE02214DF21A50F2
:10325000FDF700FE01214DF21B50FDF7FBFD0221A1
:103260004DF21C50FDF7F6FD34214DF21D50FDF7D7
:10327000F1FD02214DF21E50FDF7ECFD67214DF2EC
:103280001F50FDF7E7FD02214DF22050FDF7E2FD52
:1032900084214DF22150FDF7DDFD02214DF2225037
:1032A000FDF7D8FDA4214DF22350FDF7D3FD0221F7
:1032B0004DF22450FDF7CEFDB7214DF22550FDF71C
:1032C000C9FD02214DF22650FDF7C4FDCF214DF27C
:1032D0002750FDF7BFFD02214DF22850FDF7BAFD42
:1032E000DE214DF22950FDF7B5FD02214DF22A50A5
:1032F000FDF7B0FDF2214DF22B50FDF7ABFD0221A1
:103300004DF22C50FDF7A6FDFE214DF22D50FDF79C
:10331000A1FD03214DF22E50FDF79CFD10214DF231
:103320002F50FDF797FD03214DF23050FDF792FD30
:1033300033214DF23150FDF78DFD03214DF2325016
:10334000FDF788FD6D214DF23350FDF783FD00211F
:103350004FF45640FDF77EFD33214DF20160FDF73D
:1033600079FD00214DF20260FDF774FD34214DF22C
:103370000360FDF76FFD00214DF20460FDF76AFD6B
:103380003A214DF20560FDF765FD00214DF2066022
:10339000FDF760FD4A214DF20760FDF75BFD00215E
:1033A0004DF20860FDF756FD5C214DF20960FDF716
:1033B00051FD00214DF20A60FDF74CFD81214DF2D7
:1033C0000B60FDF747FD00214DF20C60FDF742FD5B
:1033D000A6214DF20D60FDF73DFD00214DF20E607E
:1033E000FDF738FDE5214DF20F60FDF733FD0121BA
:1033F0004DF21060FDF72EFD13214DF21160FDF727
:1034000029FD01214DF21260FDF724FD54214DF2FA
:103410001360FDF71FFD01214DF21460FDF71AFD49
:1034200082214DF21560FDF715FD01214DF2166068
:10343000FDF710FDCA214DF21760FDF70BFD0221CB
:103440004DF21860FDF706FD00214DF21960FDF701
:1034500001FD02214DF21A60FDF7FCFC01214DF245
:103460001B60FDF7F7FC02214DF21C60FDF7F2FC3A
:1034700034214DF21D60FDF7EDFC02214DF21E607E
:10348000FDF7E8FC67214DF21F60FDF7E3FC022128
:103490004DF22060FDF7DEFC84214DF22160FDF746
:1034A000D9FC02214DF22260FDF7D4FCA4214DF29B
:1034B0002360FDF7CFFC02214DF22460FDF7CAFC2A
:1034C000B7214DF22560FDF7C5FC02214DF22660C3
:1034D000FDF7C0FCCF214DF22760FDF7BBFC0221B8
:1034E0004DF22860FDF7B6FCDE214DF22960FDF7B4
:1034F000B1FC02214DF22A60FDF7ACFCF2214DF245
:103500002B60FDF7A7FC02214DF22C60FDF7A2FC19
:10351000FE214DF22D60FDF79DFC03214DF22E6042
:10352000FDF798FC10214DF22F60FDF793FC03216D
:103530004DF23060FDF78EFC33214DF23160FDF726
:1035400089FC03214DF23260FDF784FC6D214DF2C0
:103550003360FDF77FFC55214FF47040FDF77AFC96
:10356000AA214FF20100FDF775FC52214FF2020033
:10357000FDF770FC08214FF20300FDF76BFC002102
:103580004FF20400FDF766FCCC214FF43140FDF70B
:1035900061FC00214BF20110FDF75CFC05214FF4AA
:1035A0003640FDF757FC70214FF43740FDF752FCD1
:1035B00070214BF20170FDF74DFC01214FF43840B2
:1035C000FDF748FC03214BF60100FDF743FC032106
:1035D0004BF60200FDF73EFC03214BF60300FDF71E
:1035E00039FC02214FF43C40FDF734FC00214BF63E
:1035F0000140FDF72FFC00214BF60240FDF72AFCAD
:10360000D0214FF44940FDF725FC02214CF6011072
:10361000FDF720FC50214CF60210FDF71BFC502159
:103620004CF60310FDF716FC50214CF60410FDF784
:1036300011FC00214FF45450FDF70CFC55214FF4C0
:103640006850FDF707FC4FF48850FE4908800520BC
:10365000FDF7F2FB4FF424504FF0D841A1F87E0063
:1036600001F09FB8F848808849F2253188427DD121
:1036700047F6F001E520FDF7EDFB4FF480710120E6
:10368000FDF7E8FB4FF4E0610220FDF7E3FB41F2B8
:1036900030010320FDF7DEFB00210420FDF7DAFBFB
:1036A00040F202210820FDF7D5FB00210920FDF79B
:1036B000D1FB00210A20FDF7CDFB00210C20FDF7F6
:1036C000C9FB00210D20FDF7C5FB00210F20FDF7F0
:1036D000C1FB00211020FDF7BDFB07211120FDF7E4
:1036E000B9FB00211220FDF7B5FB00211320FDF7E7
:1036F000B1FB00210720FDF7ADFB41F290611020E6
:10370000FDF7A8FB40F227211120FDF7A3FB9D2127
:103710001220FDF79FFB4FF4C8511320FDF79AFBD1
:1037200025212920FDF796FB0D212B20FDF792FB8B
:1037300007213020FDF78EFB40F203313120FDF7E9
:1037400089FB03213220FDF785FB40F2062135205D
:10375000FDF780FB08213620FDF77CFB40F2064197
:103760003720FDF777FB4FF4417100E058E0382037
:10377000FDF770FB07213920FDF76CFB40F2026179
:103780003C20FDF767FB08213D20FDF763FB00218E
:103790005020FDF75FFBEF215120FDF75BFB00217F
:1037A0005220FDF757FB40F23F115320FDF752FB2B
:1037B0004FF427416020FDF74DFB01216120FDF70B
:1037C00049FB00216A20FDF745FB00218020FDF721
:1037D00041FB00218120FDF73DFB00218220FDF708
:1037E00039FB00218320FDF735FB00218420FDF704
:1037F00031FB00218520FDF72DFB10219020FDF7E6
:1038000029FB4FF4C0619220FDF724FB40F23311F5
:103810000720FDF71FFB22210020FDF71BFB1FE700
:103820008948808849F2283188427DD141F28F0150
:10383000EC20FDF70FFB41F23421EF20FDF70AFBEE
:103840004FF480710120FDF705FB4FF4E061022089
:10385000FDF700FB41F230010320FDF7FBFA0021E8
:103860000420FDF7F7FA40F202210820FDF7F2FAF2
:1038700000210920FDF7EEFA00210A20FDF7EAFAFF
:1038800001210C20FDF7E6FA00210D20FDF7E2FAF8
:1038900000210F20FDF7DEFA00211020FDF7DAFAF3
:1038A00007211120FDF7D6FA00211220FDF7D2FAE8
:1038B00000211320FDF7CEFA01210720FDF7CAFAF7
:1038C0003220FDF7B9FA41F290411020FDF7C2FA1B
:1038D00040F227211120FDF7BDFA3220FDF7ACFAA6
:1038E0008A211220FDF7B6FA3220FDF7A5FA4FF42F
:1038F000D0511320FDF7AEFA06212920FDF7AAFAD0
:103900000D212B20FDF7A6FA3220FDF795FA0021B4
:103910002020FDF79FFA00212120FDF79BFA32209D
:10392000FDF78AFA002100E075E03020FDF792FAF9
:1039300040F204613120FDF78DFA40F2053132206A
:10394000FDF788FA00213520FDF784FA40F6094199
:103950003620FDF77FFA4FF401713720FDF77AFA30
:1039600040F201313820FDF775FA40F20771392035
:10397000FDF770FA00213C20FDF76CFA40F60A21B1
:103980003D20FDF767FA3220FDF756FA002150205E
:10399000FDF760FAEF215120FDF75CFA002152207B
:1039A000FDF758FA40F23F115320FDF753FA4FF458
:1039B00027416020FDF74EFA01216120FDF74AFA08
:1039C00000216A20FDF746FA00218020FDF742FA27
:1039D00000218120FDF73EFA00218220FDF73AFA0E
:1039E00000218320FDF736FA00218420FDF732FA0A
:1039F00000218520FDF72EFA10219020FDF72AFAEC
:103A00004FF4C0619220FDF725FA40F233110720F0
:103A1000FDF720FA24E60C48808849F220318842DC
:103A20007ED100210846FDF715FA4FF48071012080
:103A3000FDF710FA4FF4E0610220FDF70BFA41F2B6
:103A4000300103E07E00006CA41500200320FDF788
:103A500001FA00210420FDF7FDF940F202210820BF
:103A6000FDF7F8F900210920FDF7F4F900210A20FB
:103A7000FDF7F0F901210C20FDF7ECF900210D20F4
:103A8000FDF7E8F900210F20FDF7E4F93220FDF7FA
:103A9000D3F940F201110720FDF7DCF93220FDF7E0
:103AA000CBF94FF486511020FDF7D4F907211120EE
:103AB000FDF7D0F94FF488711220FDF7CBF94FF4E0
:103AC00030611320FDF7C6F900212920FDF7C2F966
:103AD00044F210012B20FDF7BDF900215020FDF725
:103AE000B9F9EF215120FDF7B5F900215220FDF77A
:103AF000B1F940F23F115320FDF7ACF94FF41C51DE
:103B00006020FDF7A7F901216120FDF7A3F900214D
:103B10006A20FDF79FF900218020FDF79BF900E066
:103B200032E000218120FDF795F900218220FDF788
:103B300091F900218320FDF78DF900218420FDF704
:103B400089F900218520FDF785F910219020FDF7E6
:103B500081F900219220FDF77DF901219320FDF7E5
:103B600079F94FF488719520FDF774F900219720B9
:103B7000FDF770F900219820FDF76CF940F2731100
:103B80000720FDF767F96BE5FE48808849F231317F
:103B900088427DD141F21401E720FDF75BF94FF433
:103BA00080710120FDF756F94FF400710220FDF7F6
:103BB00051F941F238010320FDF74CF940F202219E
:103BC0000820FDF747F900210920FDF743F90021FE
:103BD0000A20FDF73FF900210C20FDF73BF90021F9
:103BE0000D20FDF737F900210F20FDF733F90021F3
:103BF0001020FDF72FF907211120FDF72BF90021E7
:103C00001220FDF727F900211320FDF723F9C82022
:103C1000FDF712F941F290611020FDF71BF940F217
:103C200027211120FDF716F93220FDF705F90C21A7
:103C30001220FDF70FF93220FDF7FEF84FF4006176
:103C40001320FDF707F911212920FDF703F90B21B6
:103C50002B20FDF7FFF83220FDF7EEF800212020A1
:103C6000FDF7F8F840F23F112120FDF7F3F80021AD
:103C70003020FDF7EFF84FF483713120FDF7EAF8BB
:103C800000213220FDF7E6F84FF40171352000E005
:103C900064E0FDF7DFF841F20A613620FDF7DAF85B
:103CA00040F207713720FDF7D5F84FF483713820C3
:103CB000FDF7D0F840F207713920FDF7CBF840F25C
:103CC00002413C20FDF7C6F840F60F413D20FDF7CC
:103CD000C1F800215020FDF7BDF8EF215120FDF77C
:103CE000B9F800215220FDF7B5F840F23F115320FA
:103CF000FDF7B0F84FF41C516020FDF7ABF801213F
:103D00006120FDF7A7F800216A20FDF7A3F8002144
:103D10008020FDF79FF800218120FDF79BF800210E
:103D20008220FDF797F800218320FDF793F800210A
:103D30008420FDF78FF800218520FDF78BF81021F6
:103D40009020FDF787F84FF4C0619220FDF782F8CC
:103D500040F233110720FDF77DF881E4894880881F
:103D600045F2084188427DD14FF480710120FDF772
:103D700071F84FF4E0610220FDF76CF841F2300178
:103D80000320FDF767F800210420FDF763F840F2F7
:103D900007210820FDF75EF800210920FDF75AF8F9
:103DA00000210A20FDF756F800210C20FDF752F8FB
:103DB00000210D20FDF74EF800210F20FDF74AF8F5
:103DC0001420FDF739F841F2B0611020FDF742F8F8
:103DD00001211120FDF73EF801211720FDF73AF8E7
:103DE0004FF49C711220FDF735F84FF40061132059
:103DF000FDF730F809212920FDF72CF809212A20A8
:103E0000FDF728F80021A420FDF724F80021502018
:103E1000FDF720F8EF215120FDF71CF8002152207A
:103E2000FDF718F840F23F115320FDF713F84FF457
:103E30001C516020FDF70EF801216120FDF70AF802
:103E400000216A20FDF706F800218020FDF702F826
:103E500000218120FCF7FEFF00218220FCF7FAFF01
:103E6000002100E024E08320FCF7F4FF00218420FF
:103E7000FCF7F0FF00218520FCF7ECFF13219020D8
:103E8000FCF7E8FF00219220FCF7E4FF03219320D8
:103E9000FCF7E0FF4FF488719520FCF7DBFF40F260
:103EA00073110720FCF7D6FF3220FCF7C5FFB6E4FC
:103EB0003448808841F2055188427DD10021072095
:103EC000FCF7C8FF3220FCF7B7FF4FF48E711220C9
:103ED000FCF7C0FF0121A420FCF7BCFF0F21082044
:103EE000FCF7B8FF08210A20FCF7B4FF08210D20D9
:103EF000FCF7B0FF40F207713020FCF7ABFF072161
:103F00003120FCF7A7FF40F203613220FCF7A2FF4B
:103F10004FF4E0613320FCF79DFF40F20221342092
:103F2000FCF798FF02213520FCF794FF41F60F7152
:103F30003620FCF78FFF40F207713720FCF78AFF2D
:103F400000213820FCF786FF00213920FCF782FF92
:103F500040F207713A20FCF77DFF00213B20FCF77F
:103F600079FF07213C20FCF775FF00213D20FCF77D
:103F700071FF3220FCF760FF01210720FCF76AFF88
:103F8000012101E0A41500201720FCF763FF322077
:103F9000FCF752FF4FF4BD511020FCF75BFF40F2DD
:103FA00017211120FCF756FF4FF48F711220FCF7F8
:103FB00051FF4FF4706100E098E01320FCF74AFFD6
:103FC00000212A20FCF746FF0A212920FCF742FFA6
:103FD0004FF49F711220FCF73DFF00215020FCF7A9
:103FE00039FFEF215120FCF735FF00215220FCF76B
:103FF00031FF40F23F115320FCF72CFF4FF41C51CE
:104000006020FCF727FF01216120FCF723FF00213E
:104010006A20FCF71FFF00218020FCF71BFF002116
:104020008120FCF717FF00218220FCF713FF0021FD
:104030008320FCF70FFF00218420FCF70BFF0021F9
:104040008520FCF707FF13219020FCF703FF4FF4B6
:1040500040719220FCF7FEFE05219320FCF7FAFE4A
:1040600000219520FCF7F6FE00219720FCF7F2FED8
:1040700000219820FCF7EEFE4FF480710120FCF740
:10408000E9FE4FF4E0610220FCF7E4FE41F2380162
:104090000320FCF7DFFE00210420FCF7DBFE0021FB
:1040A0000C20FCF7D7FE00210F20FCF7D3FE0021E7
:1040B0002020FCF7CFFE00212120FCF7CBFE2121A0
:1040C0000720FCF7C7FE1420FCF7B6FE612107208D
:1040D000FCF7C0FE1420FCF7AFFE40F2731107207E
:1040E000FCF7B8FE1420FCF7A7FE5AE3FE488088D0
:1040F0004BF2055188427CD100210846FCF7AAFE0C
:1041000000210846FCF7A6FE00210846FCF7A2FEA7
:1041100000210846FCF79EFE0121A420FCF79AFE30
:104120001420FCF789FE4FF41C516020FCF792FE2E
:1041300040F202210820FCF78DFE4FF4057130207B
:10414000FCF788FE43F215713120FCF783FE40F244
:1041500004613220FCF77EFE40F616613320FCF746
:1041600079FE42F211213420FCF774FE4FF4A8517D
:104170003520FCF76FFE48F207513620FCF76AFE47
:1041800041F207413720FCF765FE41F20341382038
:10419000FCF760FE20213920FCF75CFE1A219020FC
:1041A000FCF758FE00211020FCF754FE07211120D7
:1041B000FCF750FE00211220FCF74CFE00211320DA
:1041C000FCF748FE1420FCF737FE4FF4E6611020A0
:1041D000FCF740FE40F237111120FCF73BFE1420A3
:1041E000FCF72AFE4FF4DC711220FCF733FE14209A
:1041F00000E085E0FCF720FE4FF470611320FCF72F
:1042000029FE80212A20FCF725FE48212920FCF7E1
:1042100021FE1420FCF710FE4FF480710120FCF702
:1042200019FE4FF4E0610220FCF714FE41F2380160
:104230000320FCF70FFE40F202210820FCF70AFEE3
:1042400000210A20FCF706FE00210C20FCF702FEEC
:1042500000210D20FCF7FEFD30210E20FCF7FAFDB9
:1042600000215020FCF7F6FDEF215120FCF7F2FD74
:1042700000215220FCF7EEFD40F23F115320FCF7E5
:10428000E9FD4FF41C516020FCF7E4FD01216120A1
:10429000FCF7E0FD00216A20FCF7DCFD11219020F5
:1042A000FCF7D8FD4FF4C0619220FCF7D3FD40F23B
:1042B00002419320FCF7CEFD02219420FCF7CAFDB9
:1042C0001420FCF7B9FD01210720FCF7C3FD1420E1
:1042D000FCF7B2FD61210720FCF7BCFD40F2731131
:1042E0000720FCF7B7FD00212020FCF7B3FD0021DB
:1042F0002120FCF7AFFD22210020FCF7ABFD50E2AE
:10430000794880884CF2055188427CD100210846CA
:10431000FCF7A0FD00210846FCF79CFD1420FCF7EB
:104320008BFD00210846FCF795FD00210846FCF7AF
:1043300091FD00210846FCF78DFD00210846FCF7A1
:1043400089FD0121A420FCF785FD1420FCF774FDF4
:104350004FF41C516020FCF77DFD40F6060108205B
:10436000FCF778FD40F203713020FCF773FD01216A
:104370003120FCF76FFD04213220FCF76BFD4FF478
:1043800081713320FCF766FD4FF440713420FCF757
:1043900061FD40F203113520FCF75CFD1F21362042
:1043A000FCF758FD40F203713720FCF753FD012163
:1043B0003820FCF74FFD04213920FCF74BFD152177
:1043C0009020FCF747FD4FF482611020FCF742FD7E
:1043D00040F247211120FCF73DFD4FF4DE71122021
:1043E000FCF738FD4FF460611320FCF733FD7820B3
:1043F000FCF722FD4FF480710120FCF72BFD4FF4F8
:104400000071022000E052E0FCF724FD41F230018F
:104410000320FCF71FFD08210A20FCF71BFD0021EB
:104420000C20FCF717FD20210E20FCF713FD0021C6
:104430000F20FCF70FFD00212020FCF70BFD0021D1
:104440002120FCF707FD3D212A20FCF703FD142065
:10445000FCF7F2FC2D212920FCF7FCFC0021502068
:10446000FCF7F8FC4DF2EF015120FCF7F3FC0021C2
:104470005220FCF7EFFC40F23F115320FCF7EAFC1E
:1044800000216120FCF7E6FC00216A20FCF7E2FC39
:104490004FF440719220FCF7DDFC05219320FCF7DE
:1044A000D9FC4FF480710720FCF7D4FC79E10E4869
:1044B000808844F2315188427ED101210020FCF7EE
:1044C000C9FC0A20FCF7B8FC41F228611020FCF777
:1044D000C1FC0E211220FCF7BDFC40F6392113204F
:1044E000FCF7B8FC0A2001E0A4150020FCF7A4FCAE
:1044F00040211120FCF7AEFC50211520FCF7AAFC4E
:104500000A20FCF799FC1E211220FCF7A3FC0A20CC
:10451000FCF792FC4FF4B1511020FCF79BFC42F6E3
:1045200039211320FCF796FC0A20FCF785FC4FF498
:1045300080710120FCF78EFC4FF440710220FCF7E3
:1045400089FC41F238010320FCF784FC40F202218F
:104550000820FCF77FFC08210A20FCF77BFC0021E7
:104560003020FCF777FC40F202413120FCF772FC6E
:104570004FF483713220FCF76DFC40F2035133207D
:10458000FCF768FC4FF482713420FCF763FC40F2C6
:1045900001313520FCF75EFC40F207713620FCF754
:1045A00059FC40F205313720FCF754FC4FF40271FE
:1045B0003820FCF74FFC00E03EE040F60B7139205C
:1045C000FCF748FC02214120FCF744FC4FF41C514D
:1045D0006020FCF73FFC01216120FCF73BFC4FF41D
:1045E00004719020FCF736FC4FF485719220FCF7A3
:1045F00031FC04219320FCF72DFC4FF48071A020A6
:10460000FCF728FC01210720FCF724FC21210720CE
:10461000FCF720FC23210720FCF71CFC332107209A
:10462000FCF718FC40F233110720FCF713FC0021C3
:10463000A020FCF70FFCB4E0FE48808844F235511E
:104640008842F8D130211520FCF704FC10219A2073
:10465000FCF700FC20211120FCF7FCFB43F2284171
:104660001020FCF7F7FB02211220FCF7F3FB41F2CC
:1046700038011320FCF7EEFB2820FCF7DDFB1221AC
:104680000846FCF7E7FB2820FCF7D6FB43F2204165
:104690001020FCF7DFFB43F238011320FCF7DAFBB4
:1046A0004620FCF7C9FB00213020FCF7D3FB40F289
:1046B00002413120FCF7CEFB40F207313220FCF7FB
:1046C000C9FB4FF441713320FCF7C4FB04213420B3
:1046D000FCF7C0FB40F201413520FCF7BBFB40F288
:1046E00007713620FCF7B6FB40F205313720FCF7A6
:1046F000B1FB4FF4C2613820FCF7ACFB4FF4C26150
:104700003920FCF7A7FB4FF480710120FCF7A2FBD6
:104710004FF440710220FCF79DFB41F23001032071
:10472000FCF798FB40F608010820FCF793FB0821F2
:104730000A20FCF78FFB4FF41C516020FCF78AFB2A
:1047400001216120FCF786FB4FF49F719020FCF75C
:1047500081FB4FF480719220FCF77CFB4FF4807159
:104760009320FCF777FB4FF44051A020FCF772FB3D
:104770001021A320FCF76EFB01210720FCF76AFB48
:1047800021210720FCF766FB23210720FCF762FBB1
:1047900033210720FCF75EFB40F233110720FCF7C2
:1047A00059FB0020FCF726FD0120FCF7EDFE4FF63B
:1047B000FF70FCF7B6FE10BD2DE9FC5F05460E4606
:1047C00017469846DDF8309000200190994880887F
:1047D00046F60401884229D196488079012825D1DE
:1047E000AB46354693480088C01B401E86B24746FC
:1047F00090480088A0EB0B00401E1FFA80F80020B4
:104800008C4988712A2048812B20888143463A466A
:1048100031462846CDF80090FFF7CEFF01208549AC
:1048200088712B2048812A2088811DE0781B401C3C
:1048300080B20190344615E02146284605F090F8F4
:1048400005F0FCF84FF0000A07E04FF0D840A0F860
:1048500080900AF101001FFA80FA01988245F4DB8A
:10486000601C84B24445E7DDBDE8FC9F2DE9FF4FA5
:1048700085B081468A460020039083460798A0EBC6
:1048800009050898A0EB0A06CDF80890CDF804A019
:10489000002D01DD012705E00DB9002702E04FF0F2
:1048A000FF376D42002E02DD4FF0010806E016B919
:1048B0004FF0000802E04FF0FF387642B54201DDCC
:1048C0002C4600E03446002004901EE0019A91B28C
:1048D000029A90B2129AFCF716FE039828440390AD
:1048E000B3440398A04205DD0398001B039002988F
:1048F00038440290A34504DDABEB040B019840441F
:1049000001900498401C80B20490611C0498884275
:10491000DCDD09B0BDE8F08F2DE9F84305460E4611
:1049200017469846089C33463A4631462846009436
:10493000FFF79CFF43462A46314628460094FFF77E
:1049400095FF43463A46414628460094FFF78EFFBE
:1049500043463A46314638460094FFF787FFBDE8A4
:10496000F8832DE9F04706460F4690469A46002404
:1049700045460320A0EB480944E07A1B91B2321966
:1049800090B25246FCF7BFFD3A1B91B2721990B239
:104990005246FCF7B8FD3A1991B2721990B25246DC
:1049A000FCF7B1FD7A1991B2321990B25246FCF778
:1049B000AAFD7A1991B2321B90B25246FCF7A3FDC0
:1049C0003A1991B2721B90B25246FCF79CFD7A1BC9
:1049D00091B2321B90B25246FCF795FD3A1B91B250
:1049E000721B90B25246FCF78EFD641CB9F1000FA9
:1049F00003DAA000801D814404E0601B80000A30BF
:104A000081446D1EAC42B8DDBDE8F0872DE9F84F5A
:104A100080460E4617461C46B3462046E31704EB75
:104A20005373DB1021464FEAE47C04EB5C7C4FEAD5
:104A3000EC0C01E0A4150020A4EBCC0CBCF1000FA1
:104A400002D04FF0010C01E04FF0000C634422460D
:104A500004EBD27C4FEA6C0C03FB0CF3DBB200934B
:104A6000A7F12000C7B2002556E00C2C07D107EBB8
:104A70004700454901EB800010F8059013E0102C29
:104A800005D1424800EB071010F805900BE0182CF8
:104A900007D107EBC7003E4901EB800010F80590F5
:104AA00001E0BDE8F88F4FF0000A2FE009F0800028
:104AB00030B13848028831464046FCF724FD07E013
:104AC0000A9828B93448028831464046FCF71BFD55
:104AD0004FEA49604FEA1069701C86B22F4840883F
:104AE000B04200DCDDE7A6EB0B00A0420AD15E4637
:104AF00008F101001FFA80F828480088404500DCD2
:104B0000CFE706E00AF1010000F0FF0ABAF1080F52
:104B1000CCDB00BF681CC5B200988542A5DB00BF96
:104B2000BFE72DE9F84F04460D4690469946DDE96A
:104B30000A6704F0FF0A08EB04001FFA80F809EB8B
:104B400005001FFA80F916E0444502DB5446A81917
:104B500085B24D4500DB14E0002000903A783346E2
:104B600029462046FFF752FF304606EBD07104EB92
:104B700061018CB27F1C38787E2802DC38782028CE
:104B8000E2DA00BFBDE8F88F889B0008FC9F0008B0
:104B9000ECA50008580000205A000020A4150020B1
:104BA0000948804709480047FEE7FEE7FEE7FEE7C1
:104BB000FEE7FEE7FEE7FEE7FEE7FEE704480549FD
:104BC000054A064B70470000BD4C000889010008EB
:104BD000A01B0020A0210020A01D0020A01D00205F
:104BE0000CB50020019000907648006840F48030B9
:104BF0007449086000BF7348006800F400300090FA
:104C00000198401C0190009818B90198B0F5A04F88
:104C1000F1D16C48006800F4003010B10120009020
:104C200001E0002000900098012846D165484030FE
:104C3000006840F080506349403108606248006875
:104C400040F44040604908605E48083000685D49B3
:104C5000083108600846006840F4004008600846D3
:104C6000006840F4A05008605848091F0860081FF9
:104C7000006840F08070091F086000BF514800685C
:104C800000F000700028F9D040F20560504908603B
:104C90004C480830006820F003004A490831086099
:104CA0000846006840F00200086000BF4548083030
:104CB000006800F00C000828F8D10CBD10B545487C
:104CC000006840F47000434908603E48006840F0C6
:104CD00001003C49086000203A4908310860394821
:104CE00000683D490840374908603C48091D086094
:104CF000081F006820F48020091F08600020314947
:104D00000C310860FFF76CFF4FF0006031498039CB
:104D1000086010BD70B5002000220223002402218B
:104D2000284D08352D6805F00C0020B1042806D068
:104D3000082834D107E02A4D2A4E356033E02A4D49
:104D4000284E35602FE01F4D2D1D2D68C5F3805472
:104D50001C4D2D1D2D6805F03F0154B1224DB5FBB2
:104D6000F1F5184E361D3668C6F3881605FB06F2B7
:104D700009E01B4DB5FBF1F5124E361D3668C6F342
:104D8000881605FB06F20F4D2D1D2D68C5F3014554
:104D90006D1C6B00B2FBF3F5124E356003E0104D55
:104DA000104E356000BF00BF064D08352D68C5F3B5
:104DB00003150E4E705D0B4D2D68C540094E3560D4
:104DC00070BD0000003802400070004008544007E9
:104DD000003C024088ED00E0FFFFF6FE10300024AA
:104DE0000024F4005C00002000127A006000002023
:104DF00032490143324A1160704770B500210023E7
:104E00000F22C4781CB32E4C246804F4E064C4F56B
:104E1000E064C4F30721C1F10404E3B20A41447819
:104E20009C40E1B28478144021430C07210E254CAC
:104E300005786155047804F01F050124AC4005781D
:104E40006D11AD0005F1E025C5F8004109E00478D9
:104E500004F01F050124AC401B4D0678761145F87F
:104E6000264070BD194A0A400243154B1B1F1A60A9
:104E7000704739B1124A121D12680243104B1B1DB4
:104E80001A6006E00E4A121D126882430C4B1B1D6D
:104E90001A607047042808D14FF0E021096941F0F9
:104EA00004014FF0E022116107E04FF0E0210969B1
:104EB00021F004014FF0E022116170470000FA0573
:104EC0000CED00E000E400E080E100E080FFFF1F67
:104ED00030B943F2DB028100A1F1C0410A6005E074
:104EE00043F2D2028100A1F1C0410A606FF070422A
:104EF000411C8900A1F1C0410A608100A1F1C041BB
:104F0000C1F804217047D0E901121143C26811436E
:104F1000026911434269114382691143C269114315
:104F2000026A1143426A1143826A1143C26A114301
:104F3000026B114302689200A2F1C04211608168C5
:104F400008290BD101688900A1F1C041096841F02D
:104F5000400201688900A1F1C0410A60416B096803
:104F6000426B526841EA0211426B926841EA0221A7
:104F7000426B928941EA0241426B128A41EA025134
:104F8000426B127D41EA0261426B926911430268F1
:104F9000521C9200A2F1C0421160C16AB1F5804F6B
:104FA0001BD1816B0968826B526841EA0211826BE6
:104FB000926841EA0221826B128A41EA0251826BB5
:104FC000127D41EA0261826B92691143026892008C
:104FD000A2F1C042C2F8041107E06FF0704201680C
:104FE0008900A1F1C041C1F804217047002101608E
:104FF0000221416000218160C160016141618161E4
:10500000C16101624FF48051416249008162002117
:10501000C16201630F21426B1160426B5160FF213D
:10502000426B91600F21426BD160426B1161426B08
:1050300051610021426B91610F21826B1160826B83
:105040005160FF21826B91600F21826BD160826B76
:105050001161826B51610021826B9161704751B186
:105060008200A2F1C042126842F001038200A2F164
:10507000C042136009E08200A2F1C0421268F94BFD
:105080001A408300A3F1C0431A60704710280AD168
:1050900018214FF020421166402151664FF0FC313B
:1050A0009166D16610E01821EF4A116040214FF05F
:1050B0002042C2F884104FF0FC31EB4A08321160F4
:1050C0004FF02042C2F88C10704730B5002100220A
:1050D0000023446844F0080485682C43C5682C43C9
:1050E00005692C43456944EA4524856944EA45310C
:1050F000C4692468C5696D6844EA0524C5692D89B9
:1051000044EA0544C5692D7B44EA0562046A2468C3
:10511000056A6D6844EA0524056A2D8944EA054458
:10512000056A2D7B44EA05630468102C05D14FF015
:1051300020442166A266E36608E0CB4C21604FF074
:105140002044C4F88820C84C0C34236030BD1021A2
:105150000160002141608160C16001614161816144
:10516000FC21C2691160C2695160C2699160C26963
:10517000D160026A1160026A5160026A9160026A3B
:10518000D160704799B1102808D14FF02042126EBB
:1051900042F004024FF020431A661DE0B24A126842
:1051A00042F004024FF02043C3F8802014E010289E
:1051B00009D14FF02042126EAA4BDB1E1A404FF06D
:1051C00020431A6608E0A84A1268A64BDB1E1A4064
:1051D0004FF02043C3F88020704799B1102808D1C0
:1051E0004FF02042126E42F040024FF020431A6608
:1051F0001DE09D4A126842F040024FF02043C3F880
:10520000802014E0102809D14FF02042126E954BF7
:105210003F3B1A404FF020431A6608E0924A12685A
:10522000904B3F3B1A404FF02043C3F8802070471B
:1052300001460020102903D14FF02042506F02E0B8
:10524000894A143210687047182087492031086055
:1052500000200906C1F8A4004FF0FC308249283133
:105260000860091D0860091D08607047016841F069
:105270001001426841EA4221826841EA42317A4A99
:1052800020321160C1680968C268526841EA02218F
:10529000C268128941EA0241C268127B41EA026196
:1052A000714A28321160016909680269526841EA4D
:1052B00002210269128941EA02410269127B41EA34
:1052C0000261694A2C321160416909684269526879
:1052D00041EA02214269128941EA02414269127B94
:1052E00041EA02614FF02042C2F8B010704700213D
:1052F000016041608160FC21C2681160C268516038
:10530000C2689160C268D16002691160026951602F
:10531000026991600269D16042691160426951601D
:10532000426991604269D160704748B14E4920316D
:10533000096841F004014FF02042C2F8A01009E0D2
:10534000494920310968474AD21E11404FF0204296
:10535000C2F8A010704710B5F2B1102807D14FF075
:1053600020435B6E0B434FF02044636632E0B0F5A0
:10537000807F08D13C4B1B1D1B680B434FF0204422
:10538000C4F8843026E0384B24331B680B434FF0BD
:105390002044C4F8A4301DE0102807D14FF020436A
:1053A0005B6E8B434FF02044636613E0B0F5807F63
:1053B00008D12D4B1B1D1B688B434FF02044C4F8B4
:1053C000843007E0284B24331B688B434FF0204484
:1053D000C4F8A43010BD10B5024600200023102AE6
:1053E00003D14FF02044636E09E0B2F5807F03D112
:1053F0001D4C241D236802E01B4C2434236803EA5F
:1054000001040CB1012000E0002010BD102807D1DC
:105410004FF02042526E8A434FF020435A6613E009
:10542000B0F5807F08D1104A121D12688A434FF0F0
:105430002043C3F8842007E00B4A243212688A43D1
:105440004FF02043C3F8A420704770B502460020F7
:10545000002300240025102A08D14FF02046736E47
:105460000DE00000FEFF0F00800000A0B2F5807F7D
:1054700002D1184E336802E0164E2036336803EA34
:10548000010403EAD10514B10DB1012000E00020B0
:1054900070BD102808D14FF02042526E22EAD1028E
:1054A0004FF020435A6614E0B0F5807F08D1094AD6
:1054B000126822EAD1024FF02043C3F8842008E0AA
:1054C000044A2032126822EAD1024FF02043C3F886
:1054D000A4207047840000A010B504469848844278
:1054E00008D10121084600F086FB0021012000F0D0
:1054F00082FB76E09348844208D10121022000F02B
:105500007AFB0021022000F076FB6AE08E4884429C
:1055100008D10121042000F06EFB0021042000F0DE
:105520006AFB5EE08948844208D10121082000F02E
:1055300062FB0021082000F05EFB52E084488442B8
:1055400008D10121102000F056FB0021102000F0AE
:1055500052FB46E07F48844208D10121202000F020
:105560004AFB0021202000F046FB3AE07A488442C2
:1055700008D10121402000F03EFB0021402000F036
:105580003AFB2EE07548844208D10121802000F0CA
:1055900032FB0021802000F02EFB22E07048844284
:1055A00008D10121801500F026FB0021A01500F094
:1055B00022FB16E06B48844208D10121401500F01F
:1055C0001AFB0021601500F016FB0AE066488442D1
:1055D00007D10121001500F00EFB0021201500F07D
:1055E0000AFB10BDF0B50A4600210023002400BFCD
:1055F0003DE0012505FA01F3156805EA03049C4224
:1056000034D105684F000326BE40B54305601579C7
:105610004E00B5400668354305601579012D02D06E
:105620001579022D16D185684F000326BE40B5437B
:10563000856055794E00B54086683543856045687C
:1056400001268E40B5434560456896798E40B6B2D6
:1056500035434560C5684F000326BE40B543C5606D
:10566000D5794E00B540C6683543C560491C102940
:10567000BFD3F0BD4FF6FF71016000210171417190
:105680008171C171704708B54FF480320092009A61
:105690000A430092009AC261C161009AC261C26964
:1056A0000092C269009208BD0246002013690B40B7
:1056B0000BB1012000E0002070470146086980B26C
:1056C00070470246002053690B400BB1012000E0F7
:1056D000002070470146486980B2704701837047D7
:1056E000418370470AB1018300E041837047416103
:1056F000704742694A4042617047F0B50023002478
:105700004D07ED0E02FA05F3CE1000F1200555F815
:1057100026504E07F70E0F26BE40B543CF1000F1BE
:10572000200646F82750CE1000F1200555F82650E7
:1057300045EA0304CE1000F1200545F82640F0BDEF
:10574000000002400004024000080240000C024039
:10575000001002400014024000180240001C0240E9
:10576000002002400024024000280240F94800685E
:1057700040F00100F74908600020F6490831086050
:10578000F4480068F4490840F2490860F348091DEC
:105790000860F348EF4984310860F0481038091D6B
:1057A0000860EC48006820F48020EA490860002086
:1057B000E8490C310860E7498C31086070470021E6
:1057C000E44A921C117011460870704710B50146EA
:1057D0000022002300204A11012A02D1DD4C236857
:1057E00008E0022A03D1DB4C7034236802E0D94C74
:1057F0007434236801F01F02012494401C400CB152
:10580000012000E0002010BD38B5002000900024E9
:10581000002500BF3120FFF7D9FF05460098401C46
:1058200000900098B0F5A04F01D0002DF2D03120AB
:10583000FFF7CCFF08B1012400E00024204638BD6A
:1058400001460020C34A106820F0F80040EAC10079
:1058500010607047C349086070470021BD4A70322C
:1058600011701170012802D004280AD104E001212E
:10587000B84A7032117005E00521B64A70321170D5
:1058800000E000BF00BF7047B7490860704770B5BF
:10589000049C41EA82150126C6EB530645EA0645FB
:1058A000054345EA0465AB4E361D356070BDAD4914
:1058B00008667047820142EA0172A64B84331A607F
:1058C0007047A8498866704710B5830143EA0163B1
:1058D00043EA02739F4C8834236010BDA1490867D6
:1058E0007047A049C864704702460020994B0833AE
:1058F000186820F0EC6042EA01031843954B083326
:105900001860704702460020924B0833186820F058
:10591000784042EA010318438E4B08331860704701
:10592000014600208B4A0832106820F0030008432B
:105930001060704787480830006800F00C0070471E
:1059400001460020834A0832106820F0F000084326
:1059500010607047014600207E4A0832106820F42B
:10596000E05008431060704701460020794A083231
:10597000106820F4604040EAC10010607047F0B544
:10598000002100220024022500260223714F08373F
:105990003F6807F00C0121B1042905D0082937D14F
:1059A00005E0724F076036E0714F076033E0694FE2
:1059B0003F1D3F68C7F38056664F3F1D3F6807F0A5
:1059C0003F036EB16A4FB7FBF3F7DFF888C10CF104
:1059D000040CDCF800C0CCF3881C07FB0CF40CE0D2
:1059E000624FB7FBF3F7DFF86CC10CF1040CDCF885
:1059F00000C0CCF3881C07FB0CF4564F3F1D3F68DA
:105A0000C7F301477F1C7D00B4FBF5F7076002E098
:105A1000564F076000BF00BF4E4F08373F6807F082
:105A2000F0010909534F7A5C0768D7404760494F36
:105A300008373F6807F4E051890A4E4F7A5C47689F
:105A4000D7408760434F08373F6807F46041490BF0
:105A5000484F7A5C4768D740C760F0BD002100F42A
:105A60004072B2F5407F0AD13A4A0832116821F4F7
:105A7000F811414A02401143364A08321160354A52
:105A800070321268C0F30B031A43324B70331A6042
:105A900070473549443908607047334940390860D8
:105AA000704736490860704701460020294A8C3209
:105AB000106820F01F004A1E1043264A8C321060E6
:105AC000704701460020234A8C32106820F4F850B9
:105AD0004A1E40EA02201F4A8C321060704701467D
:105AE00000201C4A8C32106820F4401008431060DB
:105AF000704701460020174A8C32106820F440009D
:105B000008431060704701460020124A8C3210682A
:105B100020F440300843106070471949086070470E
:105B200039B10C4A3032126802430A4B30331A60E2
:105B300006E0084A303212688243064B30331A605E
:105B40007047F9B1034A343212680243014B3433CF
:105B50001A601CE000380240FFFFF6EA1030002413
:105B60000030002000004742800E47420024F4002D
:105B700000127A0070000020FFFCFF0F5C0147421A
:105B8000E0114742854A12688243844B1A6070478D
:105B900039B1824A121D12680243804B1B1D1A60E4
:105BA00006E07E4A121D126882437C4B1B1D1A6060
:105BB000704739B1794A0C3212680243774B0C3383
:105BC0001A6006E0754A0C3212688243734B0C333C
:105BD0001A60704739B1714A1032126802436F4B34
:105BE00010331A6006E06D4A1032126882436B4B24
:105BF00010331A60704739B1684A243A1268024378
:105C0000664B243B1A6006E0644A243A12688243D9
:105C1000624B243B1A60704739B1604A203A1268DF
:105C200002435E4B203B1A6006E05C4A203A126851
:105C300082435A4B203B1A60704739B1574A1C3A8D
:105C400012680243554B1C3B1A6006E0534A1C3A4B
:105C500012688243514B1C3B1A60704739B14F4A5E
:105C6000143A126802434D4B143B1A6006E04B4A4B
:105C7000143A12688243494B143B1A60704739B199
:105C8000464A103A12680243444B103B1A6006E041
:105C9000424A103A12688243404B103B1A607047E8
:105CA00039B13E4A1C32126802433C4B1C331A6025
:105CB00006E03A4A1C3212688243384B1C331A60A1
:105CC000704739B1354A203212680243334B2033D2
:105CD0001A6006E0314A2032126882432F4B20338B
:105CE0001A60704739B12D4A2432126802432B4B97
:105CF00024331A6006E0294A243212688243274B73
:105D000024331A60704739B1244A2C321268024396
:105D1000224B2C331A6006E0204A2C321268824350
:105D20001E4B2C331A60704739B11C4A303212684E
:105D300002431A4B30331A6006E0184A30321268B8
:105D40008243164B30331A60704739B1134A273AF1
:105D500012780243114B273B1A7006E00F4A273A8C
:105D6000127882430D4B273B1A7070470B48403026
:105D7000006840F080700949403108607047014672
:105D80000020064A283A12680A400AB1012000E0C1
:105D900000207047014926390870704734380240A6
:105DA00010B50446FA48844208D101211020FFF7BB
:105DB00066FF00211020FFF762FF57E0F54884429C
:105DC00009D101214804FFF749FF00214FF40030B9
:105DD000FFF744FF4AE0F048844209D101218804DA
:105DE000FFF73CFF00214FF48020FFF737FF3DE035
:105DF000EA48844209D10121C804FFF72FFF00219E
:105E00004FF40020FFF72AFF30E0E548844209D133
:105E100001210805FFF722FF00214FF48010FFF752
:105E20001DFF23E0DF48844208D101212020FFF735
:105E300026FF00212020FFF722FF17E0DA488442E6
:105E400009D101218807FFF709FF00214FF08040A9
:105E5000FFF704FF0AE0D548844207D1012140053D
:105E6000FFF7FCFE00216005FFF7F8FE10BD2DE9ED
:105E7000FF4705460E460024A14600BFA046B08954
:105E800000B100BF2C8A24F44054F08804432C82D3
:105E9000AC8941F20C608443B08831890843718930
:105EA00008430443AC81AC8A24F44074B0890443B1
:105EB000AC826846FFF763FDB548854202D0B94819
:105EC000854202D1DDF80C9001E0DDF80890A88948
:105ED00000F4004040B109EBC90000EB0910316843
:105EE0004900B0FBF1F707E009EBC90000EB09102E
:105EF00031688900B0FBF1F76420B7FBF0F00401D2
:105F00002009642101FB1078A88900F4004040B109
:105F1000322000EBC800B0FBF1F000F007000443B2
:105F200008E0322000EB08106421B0FBF1F000F033
:105F30000F0004432C81BDE8FF874FF41651016028
:105F400000218180C18001810C214181002181815A
:105F5000704710B502460020108A20F470600B884C
:105F60004C8823438C882343CC88234318431082D6
:105F700010BD0021018041808180C180704721B126
:105F8000828942F40052828104E082894DF6FF73D7
:105F90001A4082817047028B02F47F420283028B97
:105FA0000A430283704721B1828942F40042828110
:105FB00003E08289C2F30E028281704721B1828A96
:105FC00042F40062828204E0828A4FF2FF731A4038
:105FD00082827047C1F30802828070470146888838
:105FE000C0F308007047028A4FF6F0731A4002822D
:105FF000028A0A430282704721B1828942F002027A
:10600000828104E082894FF6FD731A4082817047D5
:1060100082894FF2FF731A40828182890A4382810A
:106020007047028A4FF6DF731A400282028A0A43DF
:106030000282704721B1028A42F48042028204E067
:10604000028A4BF6FF731A4002827047818941F041
:1060500001018181704721B1828A42F00802828267
:1060600004E0828A4FF6F7731A4082827047028BEF
:10607000D2B20283028B42EA01220283704721B12D
:10608000828A42F02002828204E0828A4FF6DF7325
:106090001A408282704721B1828A42F010028282C5
:1060A00004E0828A4FF6EF731A4082827047828A38
:1060B0004FF6FB731A408282828A0A4382827047BB
:1060C00021B1828A42F00202828204E0828A4FF683
:1060D000FD731A40828270471AB1838A0B43838210
:1060E00002E0838A8B4383827047F0B50346002425
:1060F00000260025002040F66A17B94200D100BFF3
:106100001846C1F3421401F01F06012707FA06F5ED
:10611000012C01D10C3004E0022C01D1103000E040
:1061200014301AB107682F43076002E00768AF43D5
:106130000760F0BD02460020B1F5007F00D100BF2E
:1061400013880B400BB1012000E00020704701F4E0
:106150000072B2F5007F00D100BFCA4302807047D1
:1061600070B50246002400230025002040F66A1680
:10617000B14200D100BFC1F3421501F01F03012657
:1061800006FA03F3012D13D19689334017E000007E
:10619000001001400044004000480040004C004016
:1061A000005000400014014000780040007C004096
:1061B000022D02D1168A334001E0968A33400C1238
:1061C000012606FA04F41688344013B10CB10120FC
:1061D00000E0002070BD10B50022002340F66A14D4
:1061E000A14200D100BF0A1201249440A3B2DC43B3
:1061F000048010BDF0B504460D4604EB850121F086
:1062000007010846AA27061F304637600A27061FDF
:10621000304637601527061F304637601427061FA3
:10622000304637601327061F304637601227061F97
:10623000304637601127061F304637601027061F8B
:10624000304637600927061F304637600827061F8B
:10625000304637600727061F304637600627061F7F
:10626000304637600527061F304637600427061F73
:10627000304637600327061F304637600227061F67
:10628000304637600127061F304637600027061F5B
:10629000304637604FF08077061F30463760061F64
:1062A000304633606FF00107061F304637604FF00D
:1062B0001237061F304637604FF00337061F30464F
:1062C00037604FF00237061F304637607F10061FD9
:1062D00030463760061F304632603127061F304691
:1062E00037603027061F304637602927061F3046A3
:1062F00037602827061F304637602727061F30469D
:1063000037602627061F304637602527061F304690
:1063100037602427061F304637602327061F304684
:1063200037602227061F304637602127061F304678
:1063300037602027061F304637601927061F304672
:1063400037601827061F304637601727061F30466C
:1063500037601627061F304637604FF01137061F8B
:10636000304637604FF01037061F304637604FF029
:106370000937061F304637604FF00837061F304692
:1063800037604FF00737061F304637604FF006374B
:10639000061F304637604FF00537061F304637601E
:1063A0004FF00437061F30463760F0BDEFF3108022
:1063B00072B6704780F31088704772B6704762B645
:1063C00070471F484FF0FF010170002080F30988DB
:1063D000EFF30880C008C00080F3088819484FF028
:1063E0008051016062B6FEE716484FF080510160AF
:1063F000704714484FF080510160704772B6EFF358
:10640000098060B120ED108B203880E8F00F0E4934
:106410000968086000B500F0DFFD5DF804EB0A488C
:106420000A490A680260106890E8F00F2030B0EC6A
:10643000108B80F309884EF0040E62B6704700009E
:1064400022ED00E004ED00E0880000208400002040
:10645000002400BF0EE0FFF7A9FF04460648D0E97C
:1064600000305A1C40F100000349C1E900202046D9
:10647000FFF7A0FFEFE700009000002010B50446F2
:106480000CB9252010BD032A05D0022A03D0042A06
:1064900001D01C20F6E700BF2460646000BF00202C
:1064A0002073A160206160612276637612206073A0
:1064B0000020E7E72DE9F84F06460F469046B9461B
:1064C0004FF0000A746D4CB1607B122806D1207E1B
:1064D000032803D1657E554500DDAA464D46F46983
:1064E0001BE0207E022806D0032810D1657E55458A
:1064F00000DDAA460CE0A346584600F0C4F928B9CE
:10650000DBF80000001F00900098457E00E000BF0F
:1065100000BF4D4500DAA9466469002CE1D157451A
:1065200004DA1A20A8F80000BDE8F88F0020A8F8C7
:1065300000004846F8E72DE9F05F05468846AE7E44
:10654000B24605F11C0920E0444503D16069C9F851
:1065500000001AE0207E022804D003280DD194F810
:1065600019A00BE02746384600F08DF920B93868AD
:10657000A0F1040B9BF819A000E000BF00BF564536
:1065800000DD564604F1140900BFD9F80040002C84
:10659000DAD1687EB04203D03146284601F065F872
:1065A000BDE8F09F2DE9F04104460F46666DBA48FC
:1065B0000078052801DDBDE8F081B7480078401C6F
:1065C000B549087008460078B4490978884203DD67
:1065D000B1480078B1490870707B122813D1307E21
:1065E000022810D13569687E617E884204DD617EB3
:1065F000284601F03AF806E0687EB84203D100214F
:106600002846FFF798FFA4480078401EA24908706A
:1066100000BFD0E770B50446656D687B12280BD1CA
:10662000287E022808D12E69707E617E884203D1BF
:1066300000213046FFF77FFF70BD2DE9F041044691
:106640000E46002714B92520BDE8F0819448007853
:1066500008B12720F8E700BFFFF7A8FE074600BFF4
:10666000607B122806D000BF3846FFF7A3FE00BFAC
:106670003620E9E78B4920690968884209D1A07E64
:10668000401CA07600BF3846FFF794FE00BF1820DC
:10669000DAE7207E03280CD182480068807E617E84
:1066A000884206DA00BF3846FFF784FE00BF1A2092
:1066B000CAE7256905BB7B48006820617948006806
:1066C000C069606177480068C4610120A076207EBF
:1066D00003280AD173480068407E617E884204DD49
:1066E000617E7048006800F0C0FF00BF3846FFF7C9
:1066F00061FE00BF0020A7E736B900BF3846FFF7AC
:1067000059FE00BF06209FE700BF6748007830B100
:1067100000BF3846FFF74EFE00BF072094E700BFDA
:10672000207E02280BD15F480068407E697E884247
:1067300005DA5C480068417E284600F096FF324644
:1067400058480168204600F0C9F900BF3846FFF7F5
:1067500031FE00BF00F03CFA00215248006800F012
:10676000B3FC804640466FE72DE9F0410446002720
:1067700014B92520BDE8F0814948007808B12720E8
:10678000F8E700BFFFF712FE074600BF607B122844
:1067900006D000BF3846FFF70DFE00BF3620E9E700
:1067A000404920690968884206D000BF3846FFF793
:1067B00001FE00BF1720DDE7A07E401EA076A07E70
:1067C00030B100BF3846FFF7F5FD00BF1820D1E714
:1067D000214634480068FFF7AEFE2646304600F0FA
:1067E00052F840B10020206100BF3846FFF7E2FDBB
:1067F00000BF0020BEE73068051F284600F056F9AC
:106800002561E8696061EC610120A076207E0328A3
:1068100007D1687E617E884203DD617E284600F0F4
:1068200024FF00BF3846FFF7C5FD00BF00F0D0F9D8
:1068300000209FE72DE9F0410746D7F81C801DE0B6
:10684000D4F814802646304600F01DF8A0B9306810
:10685000051F284600F02AF92561E8696061EC61AE
:10686000207E03280AD1687E617E884206DD617E33
:10687000284600F0FAFE01E0002020615FEA0804EB
:10688000DED1BDE8F08101460868884201D10120CF
:1068900070470020FCE70000B4000020B500002095
:1068A00083000020880000208200002042684A60A7
:1068B000086042681160416070470146142008700A
:1068C0000020024608E00B1D03EBC20000604060A0
:1068D00000BF501CC0B20246142AF4DB70472DE9F9
:1068E000F04705460E462F46A94696F81980D9F876
:1068F000004004E0607D404500DD02E02468BC42C9
:10690000F8D100BF311D2046FFF7D0FFBDE8F0876A
:1069100030B5024602EBE10201F007050124AC406C
:10692000E3B214781C43147030BD70B504460E46B3
:10693000757E211D51F83500311DFFF7B7FF29463F
:1069400004F1A400FFF7E4FF2078A84200DD2570E1
:1069500070BD70B504460E46757E211D01EBC50065
:10696000311DFFF7A3FF294604F1A400FFF7D0FF74
:106970002078A84200DD257070BD70B505460C4634
:10698000607E90490968497E884204D121462846A4
:10699000FFF7DFFF03E021462846FFF7C6FF70BD83
:1069A000F8B505460F467C7E381D00F004F9291D18
:1069B00001EBC4000168814201D1012100E0002106
:1069C00001B9F8BD05F1A400014601EBE40104F0B2
:1069D000070C012303FA0CF3DAB20B7893430B7024
:1069E00000BF2878A04200D0EBE7C4F11402214692
:1069F00005F1A40000F0A0FB0646002E02DBA01962
:106A0000287007E00020009000BF9DF800000028DB
:106A1000FBD000BF00BFD4E770B505460C46617ED1
:106A2000281D00EBC106201D00F0C5F8211D3046D1
:106A3000FFF73CFF70BD10B50278031D53F832100C
:106A40000B1F614C236010BD38B5044694F850000C
:106A5000012806D0022805D003280FD0052814D11C
:106A60000BE000BF201D00F0A6F821465748FFF7B5
:106A700084FF002084F850000FE000BF201D00F0CC
:106A80009AF8042084F8500007E00020009000BF2E
:106A90009DF800000028FBD000BF00BF204600F09A
:106AA000F6FF002084F85100606538BD10B504463B
:106AB0002046FFF7C9FF10BD70B504460D4665645A
:106AC0002046FFF7C1FF70BD70B504460E4615465F
:106AD0006664A5642046FFF7B7FF70BDF8B50646AB
:106AE0000C4615463DB90020009000BF9DF80000FF
:106AF0000028FBD000BF6665681C18B9012084F827
:106B0000500006E02946204600F0B1FF022084F83C
:106B1000500021462D48FFF743FF307B012804D168
:106B2000211D3046FFF7C2FE03E021463046FFF745
:106B3000D6FE0020F8BD38B5044694F85000012870
:106B400006D0022805D003280FD0052814D10BE069
:106B500000BF201D00F02FF821461C48FFF70DFF55
:106B6000002084F850000FE000BF201D00F023F843
:106B7000042084F8500007E00020009000BF9DF83A
:106B800000000028FBD000BF00BF204600F07FFFC0
:106B9000032084F851000020606538BD70B50446BC
:106BA000656D287B30B9201D00F005F82146606D29
:106BB000FFF795FE70BDD0E900121160D0E9002109
:106BC000516070478800002084000020B415002028
:106BD00010B500245348007810B95348007800B12C
:106BE00010BDFFF7E3FB04465048FFF724FF504871
:106BF000006850490968884203D12046FFF7DAFB54
:106C0000EEE7FFF7F1FB2046FFF7D4FB00BFE7E715
:106C100000B585B00520484908704448FFF74DFE8F
:106C200000F020FF45480060406000BF012044495B
:106C30008022444BCDE90132CDE90310002013231B
:106C4000024641A10090434800F0CCFA01F0F1F86F
:106C50000023022240A14348FFF710FC002005B0AA
:106C600000BD10B53448007805280CD12F48FFF737
:106C7000E2FE2F4800682F49086004202E49087062
:106C8000FFF79FFB01E0042010BD0320FCE72DE986
:106C9000F041064600272548001D00EBC60500BF51
:106CA000FFF784FB074600BF28460168814201D1F7
:106CB000012100E0002131B100BF3846FFF77AFB27
:106CC00000BFBDE8F0812868041F207E012805D19F
:106CD00000BF3846FFF76EFB00BFF2E72868006888
:106CE000A84205D100BF3846FFF764FB00BFE8E7C4
:106CF000206910B12069401E2061206928B100BFC1
:106D00003846FFF757FB00BFDBE721460748FFF790
:106D100083FE6069206100BF3846FFF74BFB00BF70
:106D200000BFCEE78300002082000020B4150020C1
:106D3000840000208800002080000020B80000208F
:106D400051640008B416002069646C655F74617357
:106D50006B0000005C16002074696D65725F6D75D4
:106D600074657800241B002003460BB9252070476A
:106D7000501C08B91520FAE700BF1B605B6000BF1C
:106D80001A6199600020187358611120587300200F
:106D9000EDE72DE9F04104460E46002700BFFFF75E
:106DA00005FB074600BF607B112807D000BF3846AF
:106DB000FFF700FB00BF3620BDE8F08125462846DE
:106DC00000F0FCF8C0B12069401C30B900BF384663
:106DD000FFF7F0FA00BF1520EEE72069401C2061A4
:106DE00000BF3846FFF7E6FA00BF606910B12046E1
:106DF000616988470020DFE756B103E02968081F72
:106E0000FFF754FE284600F0D9F80028F6D003E03A
:106E10002968081FFFF74AFE00BF3846FFF7CAFA85
:106E200000BFFFF7D5FE0020C6E710B504460CB939
:106E3000252010BD00212046FFF7ABFFF9E710B574
:106E400004460CB9252010BD00212046FFF7A1FF04
:106E5000F9E710B504460CB9252010BD01212046E4
:106E6000FFF797FFF9E770B504460D4600260CB909
:106E7000252070BD5548007808B12720F9E700BFEC
:106E8000FFF794FA064600BF607B112806D000BFCA
:106E90003046FFF78FFA00BF3620EAE7656100BF92
:106EA0003046FFF787FA00BF0020E2E72DE9F04106
:106EB00004460D46002614B92520BDE8F08143485C
:106EC000007808B12720F8E700BFFFF76FFA064601
:106ED00000BF607B112806D000BF3046FFF76AFA7A
:106EE00000BF3620E9E7206948B12069401E2061D3
:106EF00000BF3046FFF75EFA00BF0020DDE735B97E
:106F000000BF3046FFF756FA00BF0620D5E700BFA6
:106F10002F48007830B100BF3046FFF74BFA00BF72
:106F20000720CAE700BF2A462A4801682046FFF723
:106F3000D5FD00BF3046FFF73DFA00BFFFF748FE22
:106F400000212448006800F0BFF807463846B4E73F
:106F50002DE9F04104460D460027264614B92520A8
:106F6000BDE8F0811948007808B12720F8E700BF94
:106F7000FFF71CFA074600BF607B112806D000BF50
:106F80003846FFF717FA00BF3620E9E7206908B155
:106F900025610CE0304600F011F808B1256106E0EB
:106FA00000BF3846FFF706FA00BF1620D8E700BF3B
:106FB0003846FFF7FFF900BF0020D1E70146086817
:106FC000884201D1012070470020FCE783000020A7
:106FD000820000208800002008B50D490968C86AB1
:106FE000016839B10021009100BF9DF8001000290F
:106FF000FBD000BF064909680968814207D2002119
:10700000009100BF9DF800100029FBD000BF08BD13
:107010008800002010B50024FFF7C8F904466B482B
:10702000007818B92046FFF7C5F910BD6748007809
:10703000401E664908700846007818B12046FFF7E0
:10704000B9F9F2E76248007818B12046FFF7B2F9C3
:10705000EBE76048FFF7EFFC5F4800685F490968AD
:10706000884203D12046FFF7A5F9DEE7FFF7C1F913
:107070002046FFF79FF900BFD7E710B500F012FDDB
:1070800056490968487EFFF702FE00F0C3FE10BDB6
:1070900010B500244D480078642801DB412010BD64
:1070A00000BFFFF783F9044600BF48480078401C42
:1070B0004649087000BF2046FFF77CF900BF00205A
:1070C000EDE747480068704718B50246002092F87F
:1070D000513033B1012B09D0022B09D0032B0BD136
:1070E00008E009B1546C0C6000200DE008200BE0B2
:1070F000092009E00A2007E00024009400BF9DF861
:107100000040002CFBD000BF00BF18BD70B5044686
:1071100000252E48007808B1272070BD00BFFFF77A
:1071200045F9054600BF2E48046000BF2846FFF71A
:1071300041F900BF0020F0E7F0B505460B461646C2
:107140002C46581104EB800403F01F0048B103F0F3
:107150001F0C012000FA0CF0401E276827EA0002ED
:1071600000E0226800212BE002B311B903F01F00F8
:10717000091A90B208B9120C1031D0B208B9120A2B
:10718000083102F00F0008B91209091D02F00300CE
:1071900008B99208891C02F0010000B9491CB142EB
:1071A00001DA0846F0BD4FF0FF30FBE709B12031AE
:1071B00003E003F01F00C0F12001201D0446026817
:1071C000B142D1DB4FF0FF30ECE70000830000203C
:1071D00082000020B41500208400002088000020D8
:1071E000980000202DE9FF4F81B004468B461D46D4
:1071F000DDF84890DDE90F68002000901CB92520DB
:1072000005B0BDE8F08F142D01DB1320F8E70EB9AF
:107210002320F5E7119808B92320F1E7FA48007810
:1072200008B12720ECE700BFFFF7C0F8009000BFCF
:10723000132D0CD1F548007830B100BF0098FFF74E
:10724000B9F800BF0120DBE70120F049087000BF5A
:107250000098FFF7AFF800BF582200212046F9F749
:10726000D8F80E9810B10E98606101E0322060618C
:107270006069206102202076B9F1000F03D0002060
:1072800084F8500004E0042084F850000120E076E7
:10729000E66237464FF0000A03E0002001C70AF11A
:1072A000010AC245F9D341463046119B039AFEF7C5
:1072B000A1FF2060C4F84CB06576A576C4F828809C
:1072C00000BFFFF773F8009000BFD14804F1200120
:1072D00042684A60086042681160416000BFB9F1CD
:1072E000000F03D02146CB48FFF733FBCA48007894
:1072F000042806D000BF0098FFF75CF800BF052007
:107300007EE700BF0098FFF755F800BFB9F1000F06
:1073100001D0FFF75DFC002072E730B50246002483
:107320000AB9252030BD09B92320FBE7D36A00E064
:10733000641C20CB002DFBD00C600020F2E710B5C0
:107340000024B148007808B1272010BDB348007868
:10735000FA2801D30F20F8E700BFFFF727F804460B
:1073600000BFAE480078401CAC49087000BF204602
:10737000FFF720F800BF0020E7E710B50024A2487F
:10738000007808B1272010BDA448007808B90E2065
:10739000F9E700BFFFF70AF8044600BF9F480078EE
:1073A000401E9E4908700846007830B100BF204654
:1073B000FFF700F800BF0D20E5E700BF2046FEF70D
:1073C000F9FF00BFFFF704FC0020DCE770B50446BE
:1073D00000268D48007808B1272070BD00BFFEF759
:1073E000E5FF064600BFDCB100BF8C48007830B135
:1073F00000BF3046FEF7DEFF00BF0720EDE700BF0D
:1074000006208749096881F85000214684480068B1
:1074100000F02DFB824801687E48FFF7C1FA04E0C6
:107420007F4801687B48FFF7F7FA00BF3046FEF758
:10743000C1FF00BFFFF7CCFB34B1002178480068E2
:10744000FFF742FE054600E000252846C5E72DE986
:10745000F04705460E46904699466B48007810B1B5
:107460002720BDE8F08742F20F70864201D93B2009
:10747000F7E7B5F57A7F01D33A20F2E764244FF4B9
:10748000FA70B0FBF4F0484460434FF47A71B0FBFB
:10749000F1F14FF461606843C6EB061200EB820025
:1074A000404400FB04171FB13846FFF78FFFD8E7B1
:1074B0003C20D6E770B50446002500BFFEF776FFF6
:1074C000054600BF5648006884420BD100BF5348B0
:1074D000007830B100BF2846FEF76CFF00BF0720E0
:1074E00070BD00BF94F85000082832D2DFE800F0E9
:1074F00004141A2320220E210120E076042084F8AF
:10750000500021464348FFF74BFA29E00120E0767E
:10751000072084F8500023E00120E076052084F85D
:1075200050001DE00120E076032084F8500017E0B1
:1075300000BF00BF00BFE07E401CE076E07EFA287E
:1075400006D300BF2846FEF735FF00BF1120C7E76E
:1075500006E000BF2846FEF72DFF00BF1020BFE762
:1075600000BF00BF2846FEF725FF00BFFFF730FB36
:107570000020B5E710B504460CB9252010BD607E8B
:10758000132801D12E20F9E72046FFF793FFF5E7F6
:1075900070B50446002500BFFEF708FF054600BF92
:1075A00094F85000082846D2DFE800F00406073CB3
:1075B0000E24051B00BF00BF00BF00BF2846FEF71A
:1075C000F9FE00BF122070BDE07E401EE076E07E36
:1075D00030B9002084F8500021460E48FFF7CDF95D
:1075E00030E0E07E401EE076E07E10B9062084F8B0
:1075F000500027E0E07E401EE076E07E10B90120DA
:1076000084F850001EE0000083000020810000206C
:10761000B8000020B4150020800000208200002067
:1076200088000020E07E401EE076E07E10B9022057
:1076300084F8500006E000BF2846FEF7BBFE00BFFE
:107640001020C0E700BF00BF2846FEF7B3FE00BF12
:10765000FFF7BEFA0020B6E710B504460CB92520A6
:1076600010BD2046FFF794FFFAE770B504460D46BB
:10767000002600BF94F85000082829D2DFE800F067
:10768000041B1C1E181D17192146F248FFF788F924
:107690006576F1480068844204D12146ED48FFF741
:1076A00044F903E02146EB48FFF753F912E000BF2D
:1076B00000BF65760EE000BF00BF00BF667E657646
:1076C0002046FFF76BFA31462046FEF76BFF01E0DC
:1076D000102070BD00BF0020FBE72DE9F8430446F1
:1076E0000D4616460027B84600BFDC48007810B1AA
:1076F0002720BDE8F8830CB92520FAE70EB925202C
:10770000F7E7607E132801DB2B20F2E7132D01D170
:107710002B20EEE700BFFEF749FE804600BF6A4619
:1077200029462046FEF7C6FE0746BDF8000000B118
:1077300015E0A5763D46607E307029462046FFF76D
:1077400094FF0090BDF8000000B108E000BF404683
:10775000FEF730FE00BFFFF73BFA0020C9E700BF8D
:107760004046FEF727FE00BFBDF80000C1E770B538
:10777000044600250CB9252070BDB848007808B132
:107780002720F9E7607E132801D12D20F4E700BF00
:10779000FEF70CFE054600BFAF48006884420BD1DF
:1077A00000BFAF48007830B100BF2846FEF702FEA8
:1077B00000BF0720E0E700BF2046FFF73BF894F842
:1077C0005000082820D2DFE800F0040F1112091041
:1077D0000A0B21469F48FFF7E3F81CE01BE000BFBF
:1077E000204600F054F916E000BF00BF00BF20465D
:1077F00000F04DF9201D00F026F9082084F8500013
:107800002046FEF707FF06E000BF2846FEF7D2FD40
:1078100000BF1020B0E700BF082084F8500004F13A
:10782000200000F010F900BF2846FEF7C3FD00BF9E
:10783000FFF7CEF900209FE72DE9F04104460D4601
:107840001646002700BFFEF7B1FD074600BF04F152
:107850000C0040F8265000BF3846FEF7ABFD00BFD5
:10786000BDE8F081024602F10C0050F8210070479B
:1078700070B504460D4600260CB9252070BD77482A
:10788000007808B12720F9E700BFFEF78FFD064614
:1078900000BF0DB1656101E0322060616069206167
:1078A00000BF3046FEF786FD00BF0020E6E770B55A
:1078B00005460C4600260DB9252070BD012C03D0CD
:1078C000022C01D02620F8E76448007808B1272070
:1078D000F3E700BFFEF76AFD064600BF2C7600BF47
:1078E0003046FEF767FD00BF0020E6E770B50446AE
:1078F0000D4600260CB9252070BD0DB92520FBE7EB
:107900005648007808B12720F6E700BFFEF74EFD85
:10791000064600BF207E287000BF3046FEF74AFDB5
:1079200000BF0020E8E770B5044600250CB925200B
:1079300070BD4A48007808B12720F9E700BFFEF77C
:1079400035FD054600BF94F85000082836D2DFE820
:1079500000F0041E1F1D051C0D0E36E0002084F8EB
:10796000500021463B48FFF708F82EE000BF2046B4
:1079700000F08DF821463748FEF7FFFF002084F81D
:107980005000012084F851001FE000BF00BF00BF7D
:10799000204600F07CF8201D00F055F821462D48C7
:1079A000FEF7EBFF002084F85000012084F851001E
:1079B0002046FEF72FFE0020606506E000BF284647
:1079C000FEF7F8FC00BF1020B2E700BF00BF28465A
:1079D000FEF7F0FC00BFFFF7FBF80020A8E71E4809
:1079E000006870472DE9F04704460E4617464FF0F1
:1079F00000091A48007810B12720BDE8F08700BFC1
:107A0000FEF7D4FC814600BF25680AE0D5F8008067
:107A10000EB1281FB0471FB12168081FFFF746F8B5
:107A20004546A542F2D100BF4846FEF7C3FC00BF61
:107A3000FFF7CEF80020E0E74FF4457000F5207026
:107A40000830801C7047D0E900121160D0E9002195
:107A500051607047B415002088000020830000208A
:107A60008200002063480060406000BF704770B52E
:107A700004460D4655B1604800682844A063E5639C
:107A80005C4E2146304600F08FF8266470BD70B51C
:107A90000446256C2DB104F1300000F07EF8002082
:107AA000206470BD2DE9F8434FF0000800BFFEF7D9
:107AB0007DFC804600BF50480068401C4E4908606D
:107AC0004C4E356860E0B5425DD02F68A5F13004BA
:107AD0004949A06B0968884254D194F850000228A3
:107AE00013D0032827D0062802D007283FD134E03E
:107AF000002084F8510084F850002046FFF7C7FFAB
:107B000021463E48FEF739FF39E02046FFF7BFFF28
:107B1000201D00F042F821463848FEF72EFF0220D3
:107B200084F85100002084F850002046FEF772FDD2
:107B30000020606523E02046FFF7A9FF201D00F02C
:107B40002CF8022084F85100042084F850002046CC
:107B5000FEF760FD0020606511E0042084F850000D
:107B6000002084F851002046FFF791FF07E0002035
:107B7000009000BF9DF800000028FBD000BF00BFB0
:107B80003D4601E001E000E09DE700BF00BF404648
:107B9000FEF710FC00BFBDE8F883D0E900121160C9
:107BA000D0E9002151607047F0B502460B461446FB
:107BB0001746DE6B38680CE0A0F13005DFF838C0FE
:107BC000A96BDCF800C0A1EB0C01B14200D902E0C6
:107BD0000068A042F0D100BF03F13001D0F804C02A
:107BE000C1F804C00860D0F804C0CCF800104160AF
:107BF00000BFF0BD9C00002098000020B4150020BC
:107C000010B59D4800F034F910BDF0B5024613469A
:107C100016468D6930680BE00446DFF860C267697C
:107C2000DCF800C0A7EB0C07AF4200D902E0006807
:107C30009842F1D100BF00BF47684F6008604768B5
:107C40003960416000BFF0BD816849B100BFD0E933
:107C500000231A60D0E900325A6000BF002282601F
:107C60007047F8B504460E460CB92520F8BD844887
:107C7000007808B12720F9E794F82900182801D0E6
:107C80003620F3E794F82800022801D12120EDE7FF
:107C900094F82800032801D12120E7E766624FF01D
:107CA000FF317848FEF7C9FC05463DB10020009041
:107CB00000BF9DF800000028FBD000BF6F49E069BD
:107CC000096808446061E069A0616B48A0602146D2
:107CD000FFF79BFF022084F828006A48FEF744FD66
:107CE0000020C3E72DE9F04704460F4615461E461F
:107CF000DDE9099ADDF8208014B92520BDE8F08778
:107D00000DB92320FAE7B8F1000F01D12220F5E7E1
:107D10005B48007808B12720F0E7E76025616662DC
:107D2000C4F81C80C4F820900020A061606101208C
:107D300084F828000020A060204600F099F8182060
:107D400084F82900BAF1000F03D031462046FFF72E
:107D500088FF0020D2E708B500214B48FFF7F8F86C
:107D600000BF56E04FF0FF314748FFF79FF84FF054
:107D7000FF314448FEF761FC07463FB10020009008
:107D800000BF9DF800000028FBD000BF3B48006802
:107D9000401C3A490860384D2E6835E0AE4232D07A
:107DA000D6F800903446354960690968884229D17F
:107DB0002046FFF749FF206A60B1206AA0612F4981
:107DC000A0690968084460612B48A0602146FFF75C
:107DD0001CFF02E0012084F82800206980B121699D
:107DE000606A88478046B8F1880F09D194F8280066
:107DF000012805D02046FFF727FF012084F828003E
:107E00004E4601E001E000E0C8E700BF1D48FEF774
:107E1000ABFCA7E710B51D480068401E1B49086071
:107E20000846006820B9012008601748FEF7FDFFEA
:107E300010BD00B585B0012014490860FFF7E0FED1
:107E40000120AFF2ED018022114BCDE90132CDE9E5
:107E500003100020052302460EA100901148FFF7F1
:107E6000C1F9002210A10848FEF77EFF05B000BD51
:107E70000060406070470000A4000020AC000020BB
:107E800083000020241B00200C1B0020B0000020D9
:107E90000C19002074696D65725F6F626A656374A6
:107EA00000000000B418002074696D65725F73658E
:107EB0006D0000000246114600E0491C087810B130
:107EC00008782028F9D1881AC0B2704708B538B9A7
:107ED0000022009200BF9DF80020002AFBD000BFC6
:107EE00039B90022009200BF9DF80020002AFBD083
:107EF00000BF086000224A607A4A12685160794ADD
:107F0000116008BD01460020012209E00B78202BFA
:107F100004D122B1431C58B2002200E00122491CC6
:107F20000B78002BF2D170472DE9F84F05460E462D
:107F300017464FF000083DB90020009000BF9DF8A3
:107F400000000028FBD000BF3EB90020009000BF19
:107F50009DF800000028FBD000BF3FB90020009032
:107F600000BF9DF800000028FBD000BF5E480068FD
:107F700078BB5E485C49086031E05B480068006897
:107F8000D0F800904846FFF795FF82462846FFF755
:107F900091FF0446544501DDA34600E0D3465A460E
:107FA0004946284600F023F9A0B94F480068006808
:107FB00090F90C0000280BDB2846FFF7A3FF4A4985
:107FC0000968096891F90C10884201D04FF0010846
:107FD00009E009E0444800684068434908604248B5
:107FE00000680028C9D100BF3F48006858B1B8F107
:107FF000010F08D13A463E49304600F0BCF8002057
:10800000394908601EE038480068A0B13A460021AE
:108010003046F8F7FEF93448006800682A463946C9
:108020008368304698478046B8F1010F0AD1002096
:108030002D49086006E03A462E49304600F09BF88C
:108040004FF001084046BDE8F88F30B503460024E4
:108050000020002515601FE000E05B1C1D7815B1B5
:108060001D78202DF9D100E05B1C1D7815B11D781D
:10807000202DF9D01D7875B1641C8C420CD11846A6
:1080800003E015686D1C15605B1C1D7815B11D782B
:10809000202DF6D102E001E08C42DDDB00BF30BDD7
:1080A0002DE9F04106460D4617461348006810B901
:1080B0000E48114908601048006800682A46416867
:1080C000304600F058F80C48006840680A490860DB
:1080D0000846006808B9012400E000242046BDE8F5
:1080E000F0810000C8000020CC000020C00000206B
:1080F00038B6000894B60008D000002070B5884259
:108100000BD803460C4603E014F8015B03F8015B4F
:108110001500A2F10102F7D10EE0034613440C460C
:10812000144405E0651E2C462E785D1E2B462E70ED
:108130001500A2F10102F5D170BDF0B50346002093
:108140001C460D4608E026782F78F61B300000D03C
:1081500004E0641C6D1C521E002AF4D800BFF0BD60
:1081600010B50246104600BF11F8014B02F8014B52
:10817000002CF9D110BD10B5034605E00C781C7039
:1081800004B1491C5B1C521E002AF7D110BD10B56A
:108190000246104600E0521C1378002BFBD100BFB2
:1081A00011F8014B02F8014B002CF9D110BD30B58C
:1081B000034618468AB100E05B1C1C78002CFBD1FA
:1081C00004E0541E220001D11C7005E011F8015B8F
:1081D00003F8015B002DF4D100BF30BD01460A4613
:1081E00000E0521C10780028FBD1501A704730B5BF
:1081F00003460C460FE013F8011B14F8015BA9427B
:1082000006D0A94202DA4FF0FF3030BD0120FCE772
:1082100001B902E0521E002AEDD100BF0020F4E7B0
:1082200010B502460B460EE012F8011B13F8014B85
:10823000A14206D0A14202DA4FF0FF3010BD01206A
:10824000FCE701B900E0EFE700BF0020F6E72DE909
:10825000F04103460C464EA700254FF0010C00E00C
:108260005B1C18782028FBD018780928F8D01878DB
:108270002B2804D02D2804D14FF0FF3C00BF5B1CFD
:1082800000BF00BF00BF102A11D1187830280ED1CE
:108290005B1C1878612805DB18787A2802DC1878CE
:1082A000203800E01878582800D01DE05B1CAAB9DF
:1082B0001878302811D15B1C1878612805DB1878F4
:1082C0007A2802DC1878203800E01878582802D183
:1082D0005B1C102202E0082200E00A22022A01DBD5
:1082E000242A00DD0A2200BF1CE03E46002110E0E7
:1082F0001878612805DB18787A2802DC187820388D
:1083000000E0187896F80080404500D103E0761C24
:10831000491C9142ECDB00BF914200DB06E005FB0B
:1083200002155B1C18780028DFD100BF04B1236060
:1083300005FB0CF0BDE8F081F0B504460E46304672
:10834000FFF74CFF07461EE020783178884213D1B2
:10835000254600E06D1C2878202802DD2878232897
:10836000F8D1281BB84207D13A4631462046FFF7DC
:10837000E4FE08B92046F0BD00BF207818B114F81B
:10838000011B0A29F9D120780028DDD100BFF2E7CE
:10839000303132333435363738394142434445463B
:1083A0004748494A4B4C4D4E4F50515253545556E5
:1083B0005758595A000000001CB50C46064B7B4428
:1083C00069460090204600F0F4F804460020694613
:1083D00000F002F920461CBD1702000010B5203A3B
:1083E000C0F00B80B1E81850203AA0E81850B1E86E
:1083F0001850A0E81850BFF4F5AF5FEA027C24BF24
:10840000B1E81850A0E8185044BF18C918C0BDE81A
:1084100010405FEA827C24BF51F8043B40F8043BE3
:1084200008BF7047D20728BF31F8023B48BF11F898
:10843000012B28BF20F8023B48BF00F8012B7047F2
:1084400070477047704770B5044685690068C1067B
:1084500001D5302600E02026C00707D070BDD4E942
:10846000012130469047206A401C20626D1EF6D5DF
:1084700070BD70B5044685690078C00707D170BD2E
:10848000D4E9012120209047206A401C20626D1E03
:10849000F6D570BD09684A0501D540B27047C905D7
:1084A000FCD500B2704709684A0501D5C0B27047D3
:1084B000C905FCD580B2704770B50C460546012A47
:1084C00005D02878800600D5EA69002302E0012360
:1084D00005E05B1C934202D2E05C0028F9D1A86958
:1084E000E618C01AA861286A184428622846FFF7CF
:1084F000AAFF04E0D5E9012114F8010B9047B4422A
:10850000F8D32846FFF7B5FF70BD00002DE9F04114
:108510000646002410687529314615A510D0FFF7CE
:10852000B9FF002802DA404212A507E031688A0745
:1085300001D511A502E0490704D510A5012401E0E9
:10854000FFF7B1FF00210A2306F1240707E0B0FB83
:10855000F3F203FB1200303078541046491C002817
:10856000F5D123462A463046BDE8F04100F05FBA17
:10857000000000002D0000002B0000002000000083
:1085800011680268006A530501D508700AE0D30536
:1085900001D5088006E0130603D5C217C1E9000221
:1085A00000E008600120704701694A1C02610878F8
:1085B000704700B58FB0CDE9013100210591054923
:1085C0007944CDE903101146684600F027F90FB051
:1085D00000BD0000E5FFFFFF0A6802F8010B0A601A
:1085E000704700002DE9FF5F15468A460446DFF814
:1085F000AC80F8440027D8E900103E46CDE90010D1
:1086000010E03AF816106A4602A800F0A0FC411CDF
:1086100007D02178890603D5E269391891420DD82F
:108620000744761C2078800602D5E069B84205DD53
:10863000AE42E6DB3AF816000028E2D1A069C01B82
:10864000A0612046FFF7FFFED8E90010CDE9001039
:10865000002017E03AF818106A4602A800F077FCEC
:10866000B0F1FF3F81460BD000250DF1080B05E06E
:10867000D4E901211BF8050090476D1C4D45F7D347
:1086800008F10100B0428046E4DB206A38442062F1
:108690002046FFF7EEFEBDE8FF9F0000622D0000C0
:1086A0002DE9F0418046D21D22F007020025D2E9D3
:1086B0000002F52914A612D0002A06DA0023D0EB16
:1086C000030063EB020211A608E0D8F800108B0744
:1086D00001D50FA602E0490701D50EA601251146D6
:1086E000002408F1240704E000F05CF930323A5528
:1086F000641C50EA0102F7D12B463246214640461F
:10870000BDE8F04100F093B9000000002D0000002A
:108710002B0000002000000030B4002100F12404F0
:1087200008E002F00705D208303542EA4372DB0860
:108730006554491C52EA0305F3D10468002310A2D2
:10874000250708D504F020040C4304D0C469012394
:108750000CA2641EC46130BC00F069B910B50446B7
:1087600021461068FFF79FFE02462046BDE81040F4
:108770000023D1E7D21D22F00701D1E90023CBE786
:108780000000000030000000F0B40D46018809052B
:1087900002D5214C7C4402E01F4C7C440E34002165
:1087A00000F1240608E002F00F071209E75D42EA33
:1087B00003721B097754491C52EA0307F3D102786C
:1087C0000023120704D5702D06D009B102231134FD
:1087D0002246F0BC00F02BB901231034F8E770B545
:1087E00004460D4621461068FFF75DFE0246294605
:1087F0002046BDE870400023C6E7D21D22F00703E3
:10880000D3E90023C0E70368126843F02003036044
:108810000823C3610023B7E7C82B00002DE9F05FF0
:10882000894604464FF0000ADFF874B1FB44C0F8F3
:1088300020A02046E1688847002874D0252806D06B
:10884000D4E901219047206A401C2062F1E700260C
:108850005F462046E16888472028054607DB312D22
:1088600005D2781910F8200C08B10643F1E7B007DB
:1088700001D526F00406C4F81CA00027C4F818A0EF
:108880002A2D09D0284601F0FBF838B304EB8708FD
:10889000303DC8F8185019E059F8041B204604EB85
:1088A00087029161E1688847012F054618D1E06988
:1088B000002820DA26F020061DE0D8F8180000EB8A
:1088C000800005EB40003038C8F818002046E16809
:1088D0008847054601F0D4F80028EED1012F0AD0D0
:1088E0002E2D08D12046E16888477F1C0546022FBF
:1088F00046F02006C4DBA069002803DA404246F0B7
:108900000106A061F00701D026F010066C2D0BD0F7
:10891000682D09D04C2D39D06A2D35D0742D35D025
:108920007A2D33D016E038E0E1682F46204688479C
:10893000B842054609D16C2F26D04FF48060E1681B
:10894000064320468847054604E06C2F1AD04FF4B2
:10895000807006430DB3A5F14100192802D82035D7
:1089600046F400664A462946204626604E46F7F7FA
:1089700045FC80B101280BD0F61D26F0070000F160
:10898000080956E74020E4E78020D8E70020D6E732
:1089900006F104094DE7284652E7206ABDE8F09F3A
:1089A000582B000030B5B0F10A024FEA900E71F179
:1089B00000034EEA817EB0EB0E0061EB91014FEABD
:1089C000101E4EEA017E10EB0E0041EB11114FEA32
:1089D000102E4EEA016E10EB0E0041EB11214FEA12
:1089E000104E4EEA014E10EB0E0041EB11414018C3
:1089F00041F100014FEAD00040EA41704FEAD10155
:108A000010EB80054FEA810444EA907444EB0104C2
:108A10006D1944EB0404521BA3414FF0000348BFFF
:108A20000A3200D530BD401C41F1000130BD2DE9B6
:108A3000F0470D4699469246044600F12408016825
:108A4000880604D5E06921F01001216000E00120D2
:108A5000A84201DD471B00E00027A1697A1902EB5B
:108A60000900081AA0612078C00602D42046FFF74A
:108A7000EAFC002608E0D4E901211AF80600904734
:108A8000206A401C761C20624E45F4DB2078C0062C
:108A90000AD52046FFF7D7FC06E0D4E901213020B3
:108AA0009047206A401C2062381EA7F10107F4DCC1
:108AB00007E0D4E9012118F805009047206A401C1E
:108AC0002062281EA5F10105F3DC2046FFF7D1FC4A
:108AD0002078000602D50220BDE8F0870120FBE7E0
:108AE00070472DE9FF4F0C461E464FF0FF378BB005
:108AF000D2E90001DDF860800A908A46C1F30A5588
:108B000005B93D46002108464FF00000BAF1000FBC
:108B100000F4400005DA00EB80004FF4400101EA68
:108B200050004FEA9059B9F1010F00DDB9460A989B
:108B300050EA4A000ED044F61050A5F2FF354543E6
:108B40002F14B8F1000F1ED07542291E1EDDC9F189
:108B500000021CE0B8F1010F4FF0000001D03021FD
:108B600003E0F24305E02154401CB042FBDB3046F9
:108B70000022002121540B99C1F80880C1E900208E
:108B80000FB0BDE8F08FBD1B6D1CDEE74A4600DA72
:108B9000694206A800F06CFA06AB93E8070003AB45
:108BA00083E8070050460A9900F01FFB8DE8070094
:108BB000A0F500501F3800900398002D09DD42F207
:108BC0001F014A46084403A90390684600F07EFD51
:108BD00008E0A0F500504A461F3803A903906846F4
:108BE00000F088FD8DE807000004000C03D04FF072
:108BF000FF30410800E01046B8F1000F03D000221A
:108C0000009215461EE0751E05D4FFF7CBFE3032EC
:108C100062556D1EF9D5B3460122084302D00022E9
:108C20007F1C04E02078302801D100227F1E002A1A
:108C3000099786D01DE0112D07DAFFF7B3FE303219
:108C400062556D1C50EA0102F5D1084302D000982C
:108C5000C8B10EE00021681E05E0235C625C63542D
:108C60002254401E491C8142F7DBAB46A81B401E24
:108C70000990002004F80B000B98099AC0F80880AE
:108C8000C0E9002B7CE711264FF0000859E72DE9D9
:108C9000F04F88460446D21D22F0070191B0D1E979
:108CA0000001CDE90A0100F0D3FE02460B98C00F87
:108CB00001D02D2007E02068810701D52B2002E09C
:108CC000202101EAC000032A099001D0072A05DB10
:108CD00003464146204600F08BF909E120788006E2
:108CE00001D5E06900E00620B8F1650F814606D0A5
:108CF000B8F1660F18D0B8F1670F70D131E00020DD
:108D0000B9F1110F009001DB112301E009F101031A
:108D10000AAA01A90CA8FFF7E4FEDDE90C70002601
:108D200009F10105834647E001204B4600904FF0D2
:108D300000470AAA01A90CA8FFF7D3FEDDE90DB090
:108D40000C995D46002610B909F101000D18B9EB28
:108D5000050003D4C0F1FF3609F10105A5EB0900B8
:108D60002BE0B9F1010F01DA4FF001090020B9F150
:108D7000110F0090484601DD112300E003460AAAC6
:108D800001A90CA8FFF7ADFEDDE90C704D460026E9
:108D90008346207800070AD4AB4500DA5D4601A877
:108DA000012D04DD411911F8011C302907D04F4570
:108DB00002DA17F1040F04DA012082460FE06D1E7B
:108DC000EEE7002F02DCED1B3E4403E0781CA842D6
:108DD00000DD7D1CB81B00F1010A4FF00047207830
:108DE000000703D4AA4501DB4FF0FF3A0021B7F199
:108DF000004F0DF143088DF8431022D002202B23A1
:108E0000002F01DA7F422D234FF00A0C011EA0F142
:108E1000010000DC47B197FBFCF10CFB11720F461F
:108E2000303208F8012DF1E7A8F101000370218824
:108E3000090501D5452100E06521A0F1010800F8F0
:108E4000011C09980FA9A1EB0807FF1D00B1012023
:108E5000411901EBEA70A1693844081A401EA0616B
:108E60002078C00602D42046FFF7EDFA099828B111
:108E7000D4E901219047206A401C20622078C00676
:108E800022D52046FFF7DFFA1EE0002E04DBB345B3
:108E900002DD01A8805D00E03020D4E90121904787
:108EA000206A401C2062761CAAF101005FEA000AD9
:108EB0000AD100F099F8C0680168405CD4E901214A
:108EC0009047206A401C2062281EA5F10105DCDCC9
:108ED00007E0D4E9012118F8010B9047206A401CF3
:108EE0002062381EA7F10107F3DC2046FFF7C1FA24
:108EF000022011B045E610B5436913B1AFF300800D
:108F000001E0FFF7D9FA012010BD127800F1240129
:108F10000A7000224A700122EDE711684FF0FF321B
:108F2000E9E710B5436913B1AFF3008001E0FFF743
:108F300059FB012010BD128800F124018284002217
:108F4000C2840122EDE711684FF0FF32E9E770B506
:108F500016460C46054600F03FF8036893F80101F9
:108F6000012806D0FF2C0FD8185D68B101202C70A5
:108F700070BDD3F807013246214603442846BDE8B8
:108F8000704003F2071318474FF0FF3070BD75466D
:108F900000F0E0F8AE4605006946534620F00700B1
:108FA000854618B020B5FBF709FEBDE820404FF01C
:108FB00000064FF000074FF000084FF0000B21F0C3
:108FC0000701AC46ACE8C009ACE8C009ACE8C00990
:108FD000ACE8C0098D46704710B500F005F8001DDB
:108FE00010BD00BFD90A000000487047601B002078
:108FF0002DE9F0411F46044603260168072A01F4C3
:10900000006004DB08B116A505E016A503E008B171
:1090100015A500E015A521F010002060A069C01E74
:10902000A0610FB1401EA0612046FFF70CFA4FB1BE
:10903000D4E9012138469047206A401C2062C01CB8
:10904000206206E0206AFAE7D4E9012115F8010B55
:109050009047761EF8D22046FFF70BFABDE8F08164
:109060004E414E006E616E00494E4600696E6600CC
:109070002DE9F047814616468AB0324878440DC83B
:109080008DE80D002F487844801C03AC0DC884E89F
:109090000D0041F69B303722014491FBF2F0A0F124
:1090A000800502FB10141B3C02D56442012000E045
:1090B0000020DFF890A080460027FA44AAF1BA0AFF
:1090C0000DE0E00709D03246684607EB47010AEB9E
:1090D000810100F00FFB8DE8070064107F1C002C5D
:1090E000EFD1184F7F44A83F18E0E80714D007EBF2
:1090F00004100DF1180A90E80E008AE80E00C0680E
:10910000F04201D198190890324606A903A800F050
:10911000F1FA03AB83E807006D10641C002DE4D165
:1091200032466946B8F1000F03A802D000F0CEFA2B
:1091300001E000F0DFFAC9E90001C9F808200AB02F
:10914000BDE8F087982300000446AFF30080204676
:10915000F7F7B9F800487047401B00204FF0013C7A
:1091600050F8042B51F8043B9A4221D1A2EB0C0396
:10917000934313EACC1317D150F8042B51F8043B56
:109180009A4215D1A2EB0C03934313EACC130BD1F3
:1091900050F8042B51F8043B9A4209D1A2EB0C037E
:1091A000934313EACC13DBD04FF00000704700BFAD
:1091B000D01A01BAB1FA81F101F0180122FA01F0D6
:1091C000CB40C1F12001DBB2C0B2C01A2CFA01F3CE
:1091D000D11A914311EAC311E6D170470149182011
:1091E000ABBEFEE72600020070475FEA400C08BFF6
:1091F00091F0000F4FEA8C234FEAC12243EA51510C
:109200004FEA1C5018BF00F5F0404FEA300018BF7D
:1092100041F000415FEA6C5C00F02980BCF1FF3F47
:1092200008BF40F080407047130C06BF12044FF097
:10923000100C4FF0000C130E04BF12020CF1080CBE
:10924000130F04BF12010CF1040C930F04BF920022
:109250000CF1020CD30F04BF52000CF1010C1146AB
:109260004FF00002A0F11F00A0EB0C00704711F0BE
:10927000004F08BF704731F000413FF4D5AF0B0CF1
:1092800006BF09044FF0100C4FF0000C0B0E04BF8A
:1092900009020CF1080C0B0F04BF09010CF1040CBE
:1092A0008B0F04BF89000CF1020CCB0F04BF4900E7
:1092B0000CF1010CCCF12003A0EB0C0022FA03F31B
:1092C00002FA0CF241EA030100F10100704720F0BC
:1092D0007F4C80EA030023F07F47ACEB070303F5E4
:1092E0007C5300F0004003F1FF032DE980494FEA71
:1092F000154B09B44FEA144325EA0B4E24EA034800
:109300000FF2042606EB132749083E785FEA320283
:1093100003FB0667C7F5000707FB06F64FEA54375D
:109320004FEAD64606F1020607FB066CCCF1005C5C
:109330004FEA1C472CEA074C07FB06F40CFB06F52A
:1093400004EB15464FEA961634BF00204FF000405C
:109350004FEAD13706FB07FC4FEA1C4C0CFB0BF71E
:10936000D21B03FB0CF761EB07010CFB0EF7B0EB14
:10937000074072EB17420CFB08F734BFA2EB074221
:10938000B2EB074261EB17414FEA0C444FEA9107F9
:1093900006FB07FC4FEA1C4C0CFB0BF7B0EBC7407D
:1093A00072EB573203FB0CF734BFA2EBC742B2EBB0
:1093B000C74261EB57310CFB0EF7B0EBC70072EB05
:1093C00057720CFB08F734BFA2EBC702B2EBC7021F
:1093D00061EB5771039F4FEA816141EA921104EBFF
:1093E000CC044FEAD1374FEA826206FB07FC42EA1F
:1093F00090124FEA80604FEA1C4C0CFB0BF7D21B1B
:1094000003FB0CF761EB07010CFB0EF7B0EB074019
:1094100072EB17420CFB08F734BFA2EB0742B2EB2A
:10942000074261EB17414FEA8C554FEA910704EB75
:109430009C2406FB07FC4FEA1C4C0CFB0BF7B0EB23
:10944000C74072EB573203FB0CF734BFA2EBC742A5
:10945000B2EBC74261EB57310CFB0EF7B0EBC70024
:1094600072EB57720CFB08F734BFA2EBC702B2EBEA
:10947000C70261EB577115EB4C254FEA816141EA58
:1094800092114FEA82624FEAD13742EA901206FB0C
:1094900007FC44F100044FEA80604FEA1C4C0CFBCF
:1094A0000BF7D21B03FB0CF761EB07010CFB0EF76C
:1094B000B0EB074072EB17420CFB08F734BFA2EB8E
:1094C0000742B2EB074261EB174115EB1C154FEA5F
:1094D000813141EA92414FEA823242EA90424FEAB8
:1094E00080304FEA0C7644F1000448EA03434EEA28
:1094F0000B484FF0000EB2EB080C71EB030724BFD2
:10950000624639464EEB0E0E4FF0000B00185241EA
:1095100049414BEB0B0BB2EB080C71EB03077BF1F2
:10952000000B24BF624639464EEB0E0E4FF0000B87
:109530000018524149414BEB0B0BB2EB080C71EB9D
:1095400003077BF1000B24BF624639464EEB0E0E3B
:1095500051EA020718BF46F0010616EB0E7655F1E8
:10956000000254F1000103D5BDE88901BDE800887F
:10957000BDE88901B619BDE80048524141EB01013F
:10958000A3F10103704780807F7E7D7C7B7A7978B0
:10959000777676757473727171706F6E6E6D6C6CB8
:1095A0006B6A6A696868676666656464636362615A
:1095B0006160605F5F5E5E5D5D5C5C5B5B5A5A59DB
:1095C0005958585757565655555554545353525247
:1095D0005251515050504F4F4F4E4E4D4D4D4C4C9F
:1095E0004C4B4B4B4A4A4A494949484848474747E8
:1095F0004746464645454544444444434343434225
:10960000424242414141002B26D4770021D01CB573
:109610004FEA370703B44FF010004FF010014FF03E
:1096200000000FBC0BF1010BBDE81040BBF1010FB6
:1096300008BF5FEA170722BF12F1010211F1010111
:109640004FF0004143F1000300F0004043EA000006
:109650007047F9D35708DAE746EA064613F1400F98
:109660004FEA16461FDD13F1200FDFBF16430A46EF
:10967000002120335B42C8D0C3F1200746EA0646EA
:1096800002FA07F74FEA164646EA0706C3F1200733
:1096900022FA03F201FA07F721FA03F14FF000036F
:1096A00042EA0702B1E746EA020646EA06464FEA00
:1096B000164646EA0106BCBF46EA0646360C4FF09F
:1096C00000034FF000024FF000019EE72DE9C04873
:1096D000934630B491E8380007C831EA400C48BFDF
:1096E00034EA430C03D5FFF7F2FDFFF78CFFF0BC23
:1096F000BDE800882DE9C048934630B491E83800B1
:1097000007C810F0804F08BF13F0804F03D100F05E
:1097100005F8FFF778FFF0BCBDE8008820F07F4730
:1097200080EA030023F07F4C07EB0C03A3F57C5386
:1097300000F00040A3F1FE0392F0000F00F0B380B0
:1097400095F0000F00F077802DE901494FEA1140B4
:109750004FEA144621EA004800FB06FC24EA0647CB
:1097600008FB06F607FB08F800FB07F718EB0648AE
:109770004CEB164C4FEA124B18EB07484FEA1546D4
:109780004CEB174022EA0B4E0BFB06FC25EA064782
:109790000EFB06F607FB0EFE0BFB07F71EEB064E55
:1097A0004CEB164C4FF000061EEB074E4CEB174BE4
:1097B00018EB0B0840F1000018EB0E0B58EB0008FB
:1097C00040F100008F1A4FF000013CBFC943661BF7
:1097D00014BFB5EB040C00213CBFC943F61B4FEA94
:1097E00017444EEA8E0E27EA04454FEA1C4704FB55
:1097F00007622CEA074C05FB07F70CFB05F604FB98
:109800000CFC16EB074642EB174216EB0C4642EBFC
:109810001C421BEB060658EB0202414146EA9E063B
:1098200001D5BDE80189B619524141EB0101A3F10F
:109830000103BDE801894FEA14454FEA114724EAC4
:10984000054621EA074C05FB07F406FB07F70CFB6E
:1098500006F105FB0CFC11EB074144EB17444FEA02
:10986000124711EB0C4144EB1C4422EA074C05FB68
:1098700007F206FB07F70CFB06F605FB0CFC16EBE4
:10988000074642EB174216EB0C4642EB1C456A18A2
:1098900054F1000148BF7047B619524141EB010134
:1098A000A3F10103704795F0000F37D04FEA114242
:1098B0004FEA144721EA024624EA074C02FB07F16B
:1098C00006FB07F70CFB06F402FB0CFC14EB074449
:1098D00041EB17414FEA154714EB0C4441EB1C4197
:1098E00025EA074C02FB07F506FB07F70CFB06F61B
:1098F00002FB0CFC16EB074645EB174516EB0C4636
:1099000045EB1C42121951F1000148BF7047B619CE
:10991000524141EB0101A3F1010370474FEA1445A5
:109920004FEA114724EA054621EA074C05FB07F1F7
:1099300006FB07F70CFB06F24FF0000605FB0CFCDC
:1099400012EB074241EB174112EB0C4251EB1C4169
:1099500048BF7047921841EB0101A3F10103704722
:1099600010B503460C463348808849F2413188429D
:1099700005D03048808845F21031884218D12D48F2
:1099800040892D49088018124FF0D841A1F8800075
:10999000D8B2A1F880002748808927490880201282
:1099A000891C0880E0B24FF0D841A1F880003FE068
:1099B0002048808845F21051884226D11D484089B0
:1099C0001D49088018124FF0D841A1F880001948AD
:1099D0004089401C18490880D8B24FF0D841A1F8FE
:1099E0008000144880891449088020124FF0D84123
:1099F000A1F880000F488089401C0F490880E0B220
:109A00004FF0D841A1F8800012E00A48807901287F
:109A100004D108480088401EC01A83B2054948890D
:109A20001946F7F717FA034988892146F7F712FA1A
:109A300010BD0000A41500207E00006C02480089C3
:109A40000249088070470000A41500207E00006CC9
:109A500003B401984100009850EAC12018BF0420C7
:109A60004A0D18BF40F0010040F2FF72B2EB515FA7
:109A700008BF40F00200012808BF052002B070476F
:109A800030380A2801D201207047002070470000BA
:109A900010B500290AD00878002807D00548784476
:109AA000FFF75CFB002801D0002010BD024878447D
:109AB00010BD00009E1C0000961C000010B500297F
:109AC0000AD00878002807D005487844FFF746FBFD
:109AD000002801D0002010BD0248784410BD0000CD
:109AE0008E1C0000861C00004FF04070E1EE100A52
:109AF0007047FFF7CCB80000F0B4000830B400089D
:109B0000C50600080200000000B50008C8B400083F
:109B1000A907000800000000F4B4000878B40008A9
:109B2000DB070008000000000CB50008A0B4000826
:109B3000ED07000800000000C0B5000888B5000867
:109B40000509000800000000B8B5000850B500087D
:109B50004B09000800000000C8B5000818B500084F
:109B6000930900080000000000B60008D0B5000806
:109B7000410A0008000000002CB6000808B60008E2
:109B8000E10A0008000000000000000000000000E2
:109B900000000000000000003F4000000000000046
:109BA00000003000400030004000000009000BC001
:109BB0003D000BC03D00090018C024407FE022405A
:109BC00031800000180024C01B000D80324001804D
:109BD00003801C4027401C800740004010006000AC
:109BE00000000000000000000000000000001F80D6
:109BF000204040200000402020401F800000000046
:109C0000090006001F80060009000000040004008F
:109C10003F8004000400000000100060000000000D
:109C20000000000004000400040004000400000020
:109C3000000000400000000000000000002001C003
:109C400006003800400000001F80204020402040D7
:109C50001F800000000010403FC0004000000000D6
:109C600018C02140224024401840000010802040AD
:109C7000244024401B80000002000D0011003FC062
:109C8000014000003C802440244024402380000008
:109C90001F80244024403440038000003000200016
:109CA00027C03800200000001B80244024402440AE
:109CB0001B8000001C0022C0224022401F800000A8
:109CC000000000000840000000000000000000004C
:109CD0000460000000000000000004000A00110001
:109CE0002080404009000900090009000900000027
:109CF00000004040208011000A00040018002000ED
:109D000023402400180000001F80204027402940E5
:109D10001F400000004007C039000F0001C0004094
:109D200020403FC0244024401B8000001F80204072
:109D3000204020403080000020403FC02040204094
:109D40001F80000020403FC024402E4030C0000053
:109D500020403FC024402E00300000000F00108043
:109D6000204022403380020020403FC00400040015
:109D70003FC02040204020403FC020402040000005
:109D80000060202020203FC02000200020403FC055
:109D900024400B0030C0204020403FC02040004005
:109DA000004000C03FC03C0003C03C003FC000007A
:109DB00020403FC00C4023003FC020001F802040B7
:109DC000204020401F80000020403FC0244024004D
:109DD000180000001F802140214020E01FA000004B
:109DE00020403FC02440260019C0004018C0244035
:109DF0002440224031800000300020403FC02040FD
:109E00003000000020003F80004000403F802000E4
:109E100020003E0001C0070038002000380007C0C5
:109E20003C0007C038000000204039C0060039C09F
:109E3000204000002000384007C0384020000000CB
:109E4000304021C02640384020C000000000000003
:109E50007FE0402040200000000070000C000380E4
:109E6000004000000000402040207FE00000000093
:109E70000000200040002000000000000010001042
:109E80000010001000100010000000004000000052
:109E900000000000000002800540054003C00040B3
:109EA00020003FC004400440038000000000038005
:109EB00004400440064000000000038004402440A9
:109EC0003FC0004000000380054005400340000003
:109ED000000004401FC0244024402000000002E095
:109EE000055005500650042020403FC004400400A7
:109EF00003C000400000044027C0004000000000F4
:109F000000100010041027E00000000020403FC0B7
:109F10000140070004C00440204020403FC00040F2
:109F20000040000007C0040007C0040003C0000098
:109F3000044007C00440040003C000400000038048
:109F40000440044003800000041007F00450044063
:109F500003800000000003800440045007F000105C
:109F6000044007C002400400040000000000064056
:109F70000540054004C00000000004001F800440AC
:109F800000400000040007800040044007C000407B
:109F90000400070004C0018006000400060001C0A0
:109FA000070001C006000000044006C0010006C012
:109FB000044000000410071004E0018006000400C3
:109FC0000000044005C006400440000000000000FE
:109FD00004007BE040200000000000000000FFF0D3
:109FE00000000000000040207BE0040000000000B2
:109FF00040008000400020002000400000000000E1
:10A000000000000000000000000000000000000050
:10A0100000001FCC000C0000000000000000080041
:10A02000300060000800300060000000022003FCE7
:10A030001E20022003FC1E200220000000000E183B
:10A0400011043FFF10840C78000000000F00108402
:10A050000F3800C0077818840078000000780F845B
:10A0600010C411240E9800E4008400080800680061
:10A070007000000000000000000000000000000070
:10A08000000007E018182004400200000000400211
:10A090002004181807E00000000000000240024001
:10A0A00001800FF00180024002400000008000802B
:10A0B00000800FF800800080008000000001000D8B
:10A0C000000E000000000000000000000000008002
:10A0D0000080008000800080008000800000000C74
:10A0E000000C00000000000000000000000000065E
:10A0F000001800600180060018002000000007F032
:10A10000080810041004080807F000000000080404
:10A1100008041FFC000400040000000000000E0CF6
:10A1200010141024104411840E0C000000000C18B0
:10A1300010041104110412880C700000000000E0EB
:10A140000320042408241FFC0024000000001F98A2
:10A15000108411041104108810700000000007F032
:10A1600008881104110418880070000000001C0009
:10A17000100010FC13001C001000000000000E383E
:10A1800011441084108411440E38000000000700B0
:10A19000088C10441044088807F0000000000000FC
:10A1A0000000030C030C0000000000000000000091
:10A1B0000001010600000000000000000000008017
:10A1C00001400220041008081004000002200220B0
:10A1D00002200220022002200220000000001004C1
:10A1E00008080410022001400080000000000E005A
:10A1F0001200100C106C10800F00000003E00C180F
:10A2000013E4142417C4082807D000000004003CFD
:10A2100003C41C40074000E4001C000410041FFCA1
:10A220001104110411040E880070000003E00C18E2
:10A2300010041004100410081C10000010041FFC6F
:10A24000100410041004080807F0000010041FFC9C
:10A250001104110417C410040818000010041FFC96
:10A260001104110017C010000800000003E00C18D2
:10A270001004100410441C780040000010041FFC5F
:10A2800010840080008010841FFC10040000100463
:10A2900010041FFC10041004000000000003000163
:10A2A000100110011FFE10001000000010041FFC20
:10A2B000110403801464181C1004000010041FFC17
:10A2C0001004000400040004000C000010041FFC33
:10A2D0001F0000FC1F001FFC1004000010041FFCE6
:10A2E0000C04030000E010181FFC100007F0080821
:10A2F000100410041004080807F0000010041FFCEC
:10A3000010841080108010800F00000007F00818E3
:10A3100010241024101C080A07F2000010041FFC6F
:10A320001104110011C011300E0C000400000E1CAD
:10A3300011041084108410441C3800001800100010
:10A3400010041FFC100410001800000010001FF87B
:10A3500010040004000410041FF8100010001E0078
:10A3600011E0001C007013801C0010001FC0103C86
:10A3700000E01F0000E0103C1FC000001004180C9B
:10A38000163401C001C01634180C100410001C0053
:10A39000130400FC13041C00100000000804101C2F
:10A3A0001064108413041C04101800000000000046
:10A3B00000007FFE4002400240020000000030002A
:10A3C0000C0003800060001C00030000000040023D
:10A3D000400240027FFE000000000000000000007C
:10A3E000200040004000400020000000000100016B
:10A3F0000001000100010001000100010000400017
:10A400004000200000000000000000000000009854
:10A41000012401440144014400FC000410001FFC1D
:10A420000088010401040088007000000000007032
:10A43000008801040104010400880000000000708D
:10A4400000880104010411081FFC0004000000F84A
:10A45000014401440144014400C80000000001041B
:10A4600001040FFC1104110411001800000000D6B3
:10A4700001290129012901C90106000010041FFC5E
:10A48000008401000100010400FC0004000001043C
:10A49000190419FC0004000400000000000000037F
:10A4A00000010101190119FE0000000010041FFC49
:10A4B0000024004001B4010C01040000000010045D
:10A4C00010041FFC0004000400000000010401FC53
:10A4D0000104010001FC0104010000FC010401FC75
:10A4E000008401000100010400FC0004000000F8E9
:10A4F000010401040104010400F80000010101FF4E
:10A500000085010401040088007000000000007054
:10A51000008801040104010501FF00010104010498
:10A5200001FC00840104010001800000000000CC57
:10A5300001240124012401240198000000000100ED
:10A54000010007F80104010400000000010001F807
:10A55000000400040004010801FC00040100018063
:10A560000170000C001001600180010001F0010C7D
:10A57000003001C00030010C01F0010000000104B6
:10A58000018C00740170018C010400000101018143
:10A590000171000E001801600180010000000184BB
:10A5A000010C013401440184010C00000000000092
:10A5B0000000000001003EFC4002400200000000DC
:10A5C00000000000FFFF000000000000000040024B
:10A5D00040023EFC0100000000000000000060009E
:10A5E00080008000400040002000200000000000AB
:10A5F000000000000000000000000000000000005B
:10A60000000000000000000000000000000000004A
:10A610000000000000000000000000000000000F2B
:10A6200080380FFE380F8038000000000000000066
:10A630000000000000000000000001000006000013
:10A640000C00003800003100000600000C0000384B
:10A650000000300000000000000000006180006782
:10A66000F807F980006180006180006180006180EE
:10A670000067F807F980006180000000000000001A
:10A68000000001C0E003E0F00630080418081FFFD6
:10A69000FE040E080787F00381E0000000000000C0
:10A6A00001F000060C00040408060C7001F9C0005B
:10A6B0000E00003BE000EC18070808040C1800032B
:10A6C000E00000000001E00007F003F818041C0897
:10A6D00004170807E1D003C0E00023B0003C0800E5
:10A6E0002008000010000000000000010000310000
:10A6F000003200001C00000000000000000000000C
:10A700000000000000000000000000000000000049
:10A710000000000000000000000000007F0001FFBA
:10A72000C00780F00C001810000420000200000098
:10A730000000002000021000040C00180780F00147
:10A74000FFC0007F000000000000000000000000CB
:10A7500000000000000000004200006600006600EB
:10A76000003C0000180003FFC0001800003C00007F
:10A7700066000066000042000000000008000008BB
:10A780000000080000080000080001FFC0000800E9
:10A790000008000008000008000008000000000099
:10A7A000000100003100003200001C000000000029
:10A7B0000000000000000000000000000000000099
:10A7C0000000000008000008000008000008000069
:10A7D0000800000800000800000800000800000849
:10A7E00000000000000000000000000038000038F9
:10A7F0000000380000000000000000000000000021
:10A800000000000000000000000000000006000042
:10A810001C000070000180000E0000380000C00025
:10A820000700001C000030000000000000000000D5
:10A830007F8001FFE0038070060018040008040018
:10A840000806001803807001FFE0007F8000000010
:10A8500000000000000001000801000801000803DA
:10A86000FFF807FFF80000080000080000080000DB
:10A870000000000000000001C03802C05804009829
:10A88000040118040218040418061C1803F818011F
:10A89000E0F800000000000000000001C0E003C07C
:10A8A000F004000804080804080806180803F4184F
:10A8B00001E7F00001E000000000000000000000DF
:10A8C0000300000D00001100006100008108030179
:10A8D0000807FFF80FFFF80001080001080000005A
:10A8E0000000000000E007FCD0060808061008067B
:10A8F0001008061008061838060FF00607C00000FA
:10A9000000000000000000003F8001FFE0038430F1
:10A91000020818041008041008041008071810038F
:10A920000FF00007C000000000000000000003C09E
:10A93000000700000600000600F80607F8061800E9
:10A9400006E0000700000600000000000000000113
:10A95000E1E003F7F0063410041808041808040CAA
:10A9600008040C0806161803F3F001C1E00000000B
:10A9700000000000F80003FC30030638040208045D
:10A9800002080402080404100308F001FFC0007F5D
:10A9900000000000000000000000000000000000B7
:10A9A00000000000703800703800703800000000AF
:10A9B0000000000000000000000000000000000097
:10A9C0000000000000000000301A00301C000000F1
:10A9D0000000000000000000000000000000000077
:10A9E0000000000800001400002200004100008068
:10A9F0008001004002002004001008000800000050
:10AA000000000000210000210000210000210000C2
:10AA10002100002100002100002100002100002170
:10AA20000000000000000000000008000804001002
:10AA30000200200100400080800041000022000050
:10AA4000140000080000000000000003C00004C063
:10AA500000040000080038080F3808083808100003
:10AA60000C300007E00003C0000000000000000000
:10AA70003F8000FFE0038070020F1006708804C062
:10AA800088048308047F8802C09003012000FE40F0
:10AA90000000080000180001F8003E0801C200078D
:10AAA000020007E20000FE00001FC80001F80000DD
:10AAB0003800000804000807FFF807FFF80408083A
:10AAC00004080804080804080806180803F4180114
:10AAD000E7F00001E0000000000000003F8001FFFF
:10AAE000E003807002001804000804000804000855
:10AAF0000400100600200780C000000004000807C2
:10AB0000FFF807FFF8040008040008040008040028
:10AB10001802001003807001FFE0007F8000000039
:10AB200004000807FFF807FFF804080804080804F1
:10AB30000808040808043E0804000806001801007C
:10AB40006000000004000807FFF807FFF804080889
:10AB5000040800040800040800043E000600000683
:10AB60000000018000000000000000003F8001FFA5
:10AB7000E0038070060018040008040208040208BC
:10AB80000203F00783F0000200000200040008073F
:10AB9000FFF807FFF8040808000800000800000894
:10ABA0000000080004080807FFF807FFF804000881
:10ABB000000000000000040008040008040008076A
:10ABC000FFF807FFF804000804000804000800006C
:10ABD0000000000000000000000600000700000167
:10ABE00004000104000104000307FFFE07FFFC044A
:10ABF000000004000004000004000807FFF807FF3D
:10AC0000F8040C08001800003E0004C7800503C8C3
:10AC10000600F804003804001800000804000807C3
:10AC2000FFF807FFF8040008000008000008000013
:10AC30000800000800000800001800006000000084
:10AC400004000807FFF807800807FC00007FC00029
:10AC500003F80007C000780007800807FFF807FF27
:10AC6000F804000804000807FFF807000803C00004
:10AC700000E000003800001E000007000001C004D2
:10AC800000F007FFF8040000000000007F8001FFD3
:10AC9000E00380700600180400080400080600188D
:10ACA00003003001FFE0007F80000000040008077F
:10ACB000FFF807FFF8040408040400040400040477
:10ACC00000040400060C0003F80001F0000000007E
:10ACD000000000007F8001FFE00380700600880410
:10ACE00000880400C806003C03003E01FFE6007F28
:10ACF0008400000004000807FFF807FFF8040808B4
:10AD0000040800040C00040F00040BC00610F0033C
:10AD1000F03801E00800000800000001E0F803F04E
:10AD200030063010041808041808040C08040C0835
:10AD30000206180207F00781E0000000018000060B
:10AD4000000004000004000004000807FFF807FFEB
:10AD5000F804000804000004000006000001800060
:10AD600004000007FFE007FFF004001800000800DF
:10AD7000000800000800000800000804001007FF99
:10AD8000E004000004000006000007E00007FE00E9
:10AD9000041FE00001F80000380001E0043E000755
:10ADA000C00006000004000004000007E00007FFE8
:10ADB000C0041FF80007C007F80007FF80043FF831
:10ADC0000007C004F80007000004000000000004B1
:10ADD000000806001807C07805F1C8003E00001FF3
:10ADE000800463E80780F8060018040008000000EB
:10ADF00004000006000007800007E008047C08004B
:10AE00001FF80007F800180804E008070000060013
:10AE1000000400000000000100080600380400F8EB
:10AE20000403E8040F08047C0805F00807C00807BD
:10AE30000018040060000000000000000000000096
:10AE4000000000000000003FFFFE20000220000282
:10AE5000200002200002200002000000000000008C
:10AE6000000008000007000000C0000038000006D5
:10AE7000000001C000003000000E000001000000D2
:10AE8000000000000000200002200002200002203C
:10AE900000022000023FFFFE000000000000000052
:10AEA000000000000000000000000000000800009A
:10AEB00010000030000020000030000010000008EA
:10AEC0000000000000000000000001000001000080
:10AED000010000010000010000010000010000016C
:10AEE000000001000001000001000001000000005E
:10AEF00000000000002000002000001000001000F2
:10AF00000000000000000000000000000000000041
:10AF10000000000000F00019F8001B1800220800D3
:10AF20002608002408002410003FF8001FF8000045
:10AF30000800001800000004000007FFF80FFFF0F1
:10AF40000018180010080020080020080030180021
:10AF50001FF0000FC00000000000000007C0001F2D
:10AF6000F0001830002008002008002008003C08ED
:10AF7000001C100000600000000000000000000045
:10AF800007C0001FF000381800200800200800202B
:10AF90000804101007FFF80FFFF000001000000079
:10AFA0000000000000000007C0001FF00012300089
:10AFB0002218002208002208003208001E10000E8D
:10AFC00020000000000000002000002008002008F1
:10AFD00001FFF803FFF806200804200804200807F2
:10AFE000200003000000000000000000000E000E22
:10AFF0006E001FF30031B10020B10020B10031918B
:10B00000001F13002E1E00200E0030000000000460
:10B01000000807FFF80FFFF80010080020000020CC
:10B0200000002008003FF8001FF8000008000000A2
:10B030000000000000000020080020080020080692
:10B040003FF8063FF8000008000008000008000074
:10B0500000000000000000000000000003000003EA
:10B06000002001002001002003063FFE063FFC00F7
:10B07000000000000000000000000004000807FFBE
:10B08000F80FFFF8000188000300002FC00038F817
:10B090000020380020080000080000000000000028
:10B0A000000004000804000804000807FFF80FFF70
:10B0B000F800000800000800000800000000000080
:10B0C000002008003FF8003FF800100800200000B2
:10B0D0003FF8003FF8001008002000003FF8003F54
:10B0E000F8000008000000002008003FF8003FF8CA
:10B0F000001008001000002000002008003FF800A9
:10B100001FF80000080000000000000007C0000F4A
:10B11000F000183000300800200800200800300837
:10B12000001830000FF00007C00000000000000011
:10B130002001003FFF003FFF001011002009002008
:10B1400008002008003038001FF0000FC000000089
:10B150000000000007C0001FF000381800200800A1
:10B160002008002009001011001FFF003FFF000011
:10B1700001000000002008002008002008003FF81F
:10B18000003FF80008080010080020080020000018
:10B190003000003000000000000000000000000C43
:10B1A00078001E18003308002308002108002188B9
:10B1B0000021980030F0003860000000000000001E
:10B1C000200000200000200000FFF003FFF8002016
:10B1D00008002008002008000030000000000000E7
:10B1E000000000002000003FF0007FF80000180081
:10B1F0000008000008002010003FF8007FF0000069
:10B2000010000000000000002000003000003C00A2
:10B21000003F800023F000007800007000238000D1
:10B220003C00003000002000002000003C00003FF7
:10B23000E00023F80000E0002700003E00003FE0AF
:10B240000021F80001E0003E0000200000000000A6
:10B250002008002008003838003E680027800003DE
:10B26000C8002CF800383800201800200800000022
:10B27000000000002000003003003C01003F83007C
:10B2800023EC000070002380003C00002000002020
:10B290000000000000000000000000380800203816
:10B2A0000020F80023E8002F88003E08003808003E
:10B2B00020180000700000000000000000000000E6
:10B2C000000000000000000008000014001FF7FC50
:10B2D0003000062000020000000000000000000016
:10B2E0000000000000000000000000000000FFFF60
:10B2F000FF0000000000000000000000000000004F
:10B300000000000000002000023000061FF7FC00D3
:10B310001400000800000000000000000000000011
:10B320000000000000000018000060000040000065
:10B33000400000200000100000080000040000048D
:10B3400000000C000010000014B70008E8B6000868
:10B35000A1800008000000000000000000000000C4
:10B36000303132333435363738394142434445463B
:10B370004030580030313233343536373839616235
:10B380006364656640307800040000080000000037
:10B390000000000200010000100000000240000058
:10B3A000000000A00000000005400000000000C8F0
:10B3B000000000000C4000000000409C0000000065
:10B3C000194000000020BCBE000000003440000016
:10B3D000BFC91B8E00000004B5400000504BCFD009
:10B3E0006607E2CF010000006C4100003E8251AAD6
:10B3F000DFEEA73401000000D9420000DCB5A0E276
:10B400003A301F97FFFFFFFFB4450000FD25A0C89D
:10B41000E9A3C14FFFFFFFFFFF3F000000000080D6
:10B4200000000000FF3F000000000080000000005E
:10B430006C65643A20202020202020202020203C01
:10B440006C6564206E756D6265723E203C6F6E2087
:10B450006F72206F66663E206C6564206E756D624B
:10B46000657228312C32292C6F6E2831292C6F6699
:10B47000662830292E0000006C65645F73746F705D
:10B480003A20202020202073746F702020206C65CB
:10B4900064207761746572207461736B2E00000004
:10B4A0006C65645F73746172743A2020202020738D
:10B4B0007461727420206C656420776174657220F9
:10B4C0007461736B2E0000006C65645F7761746556
:10B4D000723A2020202020437265617465206C65DB
:10B4E00064207761746572207461736B2E000000B4
:10B4F0006C6564006C65645F73746F7000000000BD
:10B500006C65645F77617465720000006C65645FF0
:10B5100073746172740000007265626F6F743A2018
:10B520002020202020202067657420746865206317
:10B5300068697020393620626974732069642061FB
:10B540006E6420666C6173682073697A652E0000F2
:10B55000636869705F69643A20202020202020679A
:10B5600065742074686520636869702039362062CC
:10B5700069747320696420616E6420666C6173680D
:10B580002073697A652E000076657273696F6E3A72
:10B590002020202020202067657420746865207298
:10B5A00061772D6F73206B65726E656C20766572A6
:10B5B00073696F6E2E000000636869705F696400D4
:10B5C00076657273696F6E007265626F6F740000EA
:10B5D000737461636B3A2020202020202020207388
:10B5E000686F7720616C6C2066726565207461738A
:10B5F0006B20737461636B2073697A650D0A0000B8
:10B60000737461636B0000006C63645F74657374D2
:10B610003A20202020202074657374206C636420FD
:10B62000646973706C61792E0D0A00006C63645F4D
:10B6300074657374000000000D496E636F7272656B
:10B64000637420636F6D6D616E6420706172616DF3
:10B65000657465722873292E2020456E74657220EA
:10B660002268656C702220746F207669657720618E
:10B67000206C697374206F6620617661696C616209
:10B680006C6520636F6D6D616E64732E0D0A0D0A1B
:10B69000000000000D436F6D6D616E64206E6F746D
:10B6A000207265636F676E697365642E2020456E36
:10B6B000746572202268656C702220746F20766930
:10B6C00065772061206C697374206F6620617661F4
:10B6D000696C61626C6520636F6D6D616E64732E61
:10B6E0000D0A0D0A0000000068656C703A204C6974
:10B6F00073747320616C6C2074686520726567696F
:10B7000073746572656420636F6D6D616E64730D33
:10B710000A00000068656C700000000068B800084E
:10B7200000000020D4000000C40100083CB900085B
:10B73000D4000020CC200000E00100081C00000024
:10B7400043000000F8FFFFFF0C0000000E000000A7
:10B750000F0000002E000000100100004300000058
:10B76000F8FFFFFF00404040404040404040414122
:10B7700041414140404040404040404040404040C6
:10B780004040404040050202020202020202020260
:10B79000020202020220202020202020202020025D
:10B7A00002020202020290909090909010101010ED
:10B7B0001010101010101010101010101010101089
:10B7C000020202020202888888888888080808081D
:10B7D00008080808080808080808080808080808E9
:10B7E0000202020240000000000000000000000011
:10B7F0000000000000000000000000000000000049
:10B800000000000000000000000000000000000038
:10B810000000000000000000000000000000000028
:10B820000000000000000000000000000000000018
:10B830000000000000000000000000000000000008
:10B8400000000000000000000000000000000000F8
:10B8500000000000000000000000000000000000E8
:10B8600000000000000000000000000000000000D8
:10B8700000000000000000000000000000000000C8
:10B88000000000000000000030313233343536371C
:10B8900038394142434445460000000000000000A2
:10B8A0000000000000000000000000000000000098
:10B8B0000000000000000000000000000000000088
:10B8C0000000FFFF007A030A0000000000000000F3
:10B8D0000102030406070809000000000102030436
:10B8E0000102030406070809000000000000000030
:10B8F0000000000000000000000000000000000048
:10B900000000000000000000000000000000000037
:10B910000000000000000000000000000000000027
:10B92000000000000000000048B300080000000014
:0CB93000C000002000000000000000002B
:040000050800018965
:00000001FF
