:020000040800F2
:10000000780F0020BD06000895030008970300083C
:100010009B0300089F030008A303000800000000E2
:10002000000000000000000000000000A70300081E
:10003000A90300080000000061160008AB030008D7
:10004000D7060008D7060008D7060008D70600081C
:10005000D7060008D706000821060008D7060008C2
:10006000410600086106000881060008D70600085E
:10007000D7060008D7060008D7060008D7060008EC
:10008000D7060008D7060008D7060008D7060008DC
:10009000D7060008D7060008D7060008D7060008CC
:1000A000D7060008D7060008D7060008D7060008BC
:1000B000D7060008D7060008D7060008D7060008AC
:1000C000D7060008D7060008D7060008D70600089C
:1000D000D7060008D7060008D7060008D70600088C
:1000E000D7060008D7060008D7060008D70600087C
:1000F000D7060008D7060008D7060008D70600086C
:10010000D7060008D7060008D7060008D70600085B
:10011000D7060008D7060008D7060008D70600084B
:10012000D7060008D7060008D7060008D70600083B
:10013000D7060008D7060008D7060008D70600082B
:10014000D7060008D7060008D7060008D70600081B
:10015000D7060008D7060008D7060008D70600080B
:10016000D7060008D7060008D7060008D7060008FB
:10017000D7060008D7060008D7060008D7060008EB
:10018000D7060008D706000800F002F800F03CF897
:100190000AA090E8000C82448344AAF10107DA45E2
:1001A00001D100F031F8AFF2090EBAE80F0013F0F8
:1001B000010F18BFFB1A43F0010318472028000065
:1001C00040280000103A24BF78C878C1FAD85207F6
:1001D00024BF30C830C144BF04680C6070470000C1
:1001E0000023002400250026103A28BF78C1FBD840
:1001F000520728BF30C148BF0B6070471FB502F0DF
:10020000E8FB1FBD10B510BD02F0ADFB1146FFF7B6
:10021000F5FF00F041F802F0CBFB03B4FFF7F2FF6B
:1002200003BC02F0CFFB000030B52A48006864220E
:10023000B0FBF2F1481EB0F1807F00D31BE0481EF6
:100240004FF0E022506150170F22002807DA130701
:100250001D0E214B00F00F04241F1D5503E0130752
:100260001C0E1E4B1C5400BF00204FF0E02290617A
:100270000720106100BF30BD70B50546FFF7D4FF01
:1002800000F0E8F800F04AF900F0ACF802F05FFA8C
:10029000044602F02DF970BD00B585B000F09CFA5F
:1002A000FFF7C2FF01F0CEFB0120AFF233010202E3
:1002B0000B4BCDE90132CDE90310002001230246AA
:1002C00008A100900A4801F05FFE01F0DCFB00206D
:1002D00005B000BD0000002018ED00E000E400E0E3
:1002E00054000020496E69745F5461736B00000014
:1002F00054040020F0B50C46134605462646102B44
:100300001BD304F00307C7B900F00307AFB92946B0
:10031000324608E080CA80C180CA80C180CA80C1DC
:1003200080CA80C1103B102BF4D202E080CA80C189
:100330001B1F042BFAD20D46164603E016F8017B6C
:1003400005F8017B1F00A3F10103F7D1F0BDF0B563
:100350000C460546042A15D300F0030696B901465B
:1003600044EA042343EA034304E008C108C108C186
:1003700008C1103A102AF8D201E008C1121F042A5D
:10038000FBD20D4601E005F8014B1600A2F1010277
:10039000F9D1F0BD704700BFFEE700BFFEE700BF28
:1003A000FEE700BFFEE77047704710B501F042FD61
:1003B00001F037FD01F002FD10BD000007E04FF035
:1003C000FF311B4801F07CFC012000F08BF8F6E7C0
:1003D00007E04FF0FF31164801F072FC022000F0F8
:1003E00081F8F6E700B585B00120AFF22F01402279
:1003F000104BCDE90132CDE903100020072302465E
:100400000DA100900E4801F0BFFD0120AFF23F01A9
:1004100040220C4BCDE90132CDE903100020082326
:10042000024609A100900A4801F0AEFD05B000BDEA
:1004300050070020A80400207461736B3100000095
:10044000A8060020A80500207461736B320000002C
:10045000FC0600201CB50121202000F073FE4FF4A3
:10046000C060009001208DF8040000208DF8060087
:1004700001208DF8070002208DF805006946264806
:1004800000F0C2FB4FF4C061234800F039FC1CBDF2
:1004900010B50446012C02D0022C0CD105E04FF41B
:1004A00000711D4800F02CFC05E04FF480611A48F3
:1004B00000F026FC00BF00BF10BD10B50446012CA3
:1004C00002D0022C0CD105E04FF40071124800F06C
:1004D00019FC05E04FF480610F4800F013FC00BFE9
:1004E00000BF10BD012802D0022812D108E00A493D
:1004F0001431096881F40071074A1432116008E070
:1005000005491431096881F48061034A143211608D
:1005100000BF00BF704700000014024000B585B066
:100520000121084600F00EFE0121102000F00AFE15
:100530000121880300F060FE0120019000208DF869
:1005400008008DF80B0001A9554800F05DFB1C2048
:10055000019000208DF8080001208DF80B0001A902
:10056000504800F051FB0021084600F03CFF0221FA
:10057000042000F038FF0321042000F034FF0421A0
:10058000084600F030FF0120039000208DF8100095
:1005900008208DF8110001208DF8120003A800F04A
:1005A00033FA1C20039000208DF810000C208DF8E9
:1005B000110001208DF8120003A800F025FA062092
:1005C0008DF8000000208DF801000F208DF802004A
:1005D00001208DF80300684600F09DF908208DF891
:1005E000000002208DF80100684600F094F909200F
:1005F0008DF8000003208DF80100684600F08BF9AB
:100600000A208DF8000004208DF80100684600F0F3
:1006100082F9002224A1284801F0B0FA05B000BDFB
:1006200010B501F007FC012000F054FA28B122486F
:1006300001F005FB012000F058FA01F0BFFB10BDEE
:1006400010B501F0F7FB042000F044FA28B11A4875
:1006500001F0F5FA042000F048FA01F0AFFB10BDFC
:1006600010B501F0E7FB082000F034FA28B1124879
:1006700001F0E5FA082000F038FA01F09FFB10BD08
:1006800010B501F0D7FB102000F024FA28B10A4879
:1006900001F0E9FA102000F028FA01F08FFB10BDFC
:1006A00000000240001002404B45595F53454D4148
:1006B00050484F524500000050070020094880472D
:1006C00009480047FEE7FEE7FEE7FEE7FEE7FEE734
:1006D000FEE7FEE7FEE7FEE704480549054A064B4C
:1006E00070470000D9070008890100087809002038
:1006F000780F0020780B0020780B00200CB500202C
:10070000019000907648006840F480307449086099
:1007100000BF7348006800F4003000900198401C4E
:100720000190009818B90198B0F5A04FF1D16C482C
:10073000006800F4003010B10120009001E00020BA
:1007400000900098012846D165484030006840F08C
:1007500080506349403108606248006840F440407E
:10076000604908605E48083000685D4908310860EB
:100770000846006840F4004008600846006840F4FD
:10078000A05008605848091F0860081F006840F022
:100790008070091F086000BF5148006800F00070B9
:1007A0000028F9D040F20560504908604C480830F4
:1007B000006820F003004A490831086008460068D4
:1007C00040F00200086000BF45480830006800F0B3
:1007D0000C000828F8D10CBD10B54548006840F45D
:1007E0007000434908603E48006840F001003C4901
:1007F000086000203A4908310860394800683D49DE
:100800000840374908603C48091D0860081F006817
:1008100020F48020091F0860002031490C31086055
:10082000FFF76CFF4FF0006031498039086010BD60
:1008300070B500200022022300240221284D083533
:100840002D6805F00C0020B1042806D0082834D10A
:1008500007E02A4D2A4E356033E02A4D284E356098
:100860002FE01F4D2D1D2D68C5F380541C4D2D1DEF
:100870002D6805F03F0154B1224DB5FBF1F5184E3E
:10088000361D3668C6F3881605FB06F209E01B4DD7
:10089000B5FBF1F5124E361D3668C6F3881605FB1A
:1008A00006F20F4D2D1D2D68C5F301456D1C6B0023
:1008B000B2FBF3F5124E356003E0104D104E35607B
:1008C00000BF00BF064D08352D68C5F303150E4E59
:1008D000705D0B4D2D68C540094E356070BD000040
:1008E000003802400070004008544007003C0240BD
:1008F00088ED00E0FFFFF6FE103000240024F40035
:100900000000002000127A00040000203249014358
:10091000324A1160704770B5002100230F22C4785D
:100920001CB32E4C246804F4E064C4F5E064C4F302
:100930000721C1F10404E3B20A4144789C40E1B2CA
:100940008478144021430C07210E254C057861550D
:10095000047804F01F050124AC4005786D11AD004A
:1009600005F1E025C5F8004109E0047804F01F0511
:100970000124AC401B4D0678761145F8264070BD29
:10098000194A0A400243154B1B1F1A60704739B1C0
:10099000124A121D12680243104B1B1D1A6006E01A
:1009A0000E4A121D126882430C4B1B1D1A607047C1
:1009B000042808D14FF0E021096941F004014FF00B
:1009C000E022116107E04FF0E021096921F0040104
:1009D0004FF0E022116170470000FA050CED00E0D5
:1009E00000E400E080E100E080FFFF1F00204149BB
:1009F0000860091D0860091D0860091D08603E485F
:100A00003C4914310860704700213A498279002A34
:100A10003AD00A46126803689A430B461A600A1DC8
:100A2000126803689A430B1D1A60027911440A6820
:100A300003681A430A602F4A0832126803689A430F
:100A40002C4B08331A601A1D126803689A43294B0D
:100A50000C331A604279102A0ED11A1F12680368EB
:100A60001A43244B08331A601A1D126803681A438C
:100A7000204B0C331A600DE01E49427911440A687C
:100A800003681A430A6005E0027911440A680368A2
:100A90009A430A6070470021016001710C21417185
:100AA0000021817170471349103109680143114ACF
:100AB000103211607047014600200E4A143212684D
:100AC0000A400AB1012000E00020704709491431B2
:100AD0000860704701460020064A143212680A4036
:100AE0000AB1012000E0002070470249143108607B
:100AF00070470000003C0140FFFF7F0010B5044636
:100B00009848844208D10121084600F086FB002164
:100B1000012000F082FB76E09348844208D1012155
:100B2000022000F07AFB0021022000F076FB6AE050
:100B30008E48844208D10121042000F06EFB002180
:100B4000042000F06AFB5EE08948844208D101215C
:100B5000082000F062FB0021082000F05EFB52E05C
:100B60008448844208D10121102000F056FB002166
:100B7000102000F052FB46E07F48844208D101215A
:100B8000202000F04AFB0021202000F046FB3AE044
:100B90007A48844208D10121402000F03EFB002128
:100BA000402000F03AFB2EE07548844208D1012134
:100BB000802000F032FB0021802000F02EFB22E09C
:100BC0007048844208D10121801500F026FB0021E5
:100BD000A01500F022FB16E06B48844208D10121E9
:100BE000401500F01AFB0021601500F016FB0AE02A
:100BF0006648844207D10121001500F00EFB002158
:100C0000201500F00AFB10BDF0B50A4600210023B4
:100C1000002400BF3DE0012505FA01F3156805EA4F
:100C200003049C4234D105684F000326BE40B543FF
:100C3000056015794E00B5400668354305601579A5
:100C4000012D02D01579022D16D185684F0003269B
:100C5000BE40B543856055794E00B5408668354342
:100C60008560456801268E40B543456045689679A4
:100C70008E40B6B235434560C5684F000326BE407E
:100C8000B543C560D5794E00B540C6683543C560EB
:100C9000491C1029BFD3F0BD4FF6FF710160002140
:100CA000017141718171C171704708B54FF4803293
:100CB0000092009A0A430092009AC261C161009AB0
:100CC000C261C2690092C269009208BD024600205A
:100CD00013690B400BB1012000E000207047014672
:100CE000086980B270470246002053690B400BB17F
:100CF000012000E0002070470146486980B270473B
:100D000001837047418370470AB1018300E041834A
:100D100070474161704742694A4042617047F0B58F
:100D2000002300244D07ED0E02FA05F3CE1000F16A
:100D3000200555F826504E07F70E0F26BE40B54346
:100D4000CF1000F1200646F82750CE1000F1200504
:100D500055F8265045EA0304CE1000F1200545F869
:100D60002640F0BD0000024000040240000802409E
:100D7000000C024000100240001402400018024023
:100D8000001C0240002002400024024000280240D3
:100D9000F948006840F00100F74908600020F64972
:100DA00008310860F4480068F4490840F2490860D6
:100DB000F348091D0860F348EF4984310860F048A2
:100DC0001038091D0860EC48006820F48020EA49CA
:100DD00008600020E8490C310860E7498C31086060
:100DE00070470021E44A921C117011460870704748
:100DF00010B501460022002300204A11012A02D129
:100E0000DD4C236808E0022A03D1DB4C70342368F0
:100E100002E0D94C7434236801F01F02012494408D
:100E20001C400CB1012000E0002010BD38B50020AE
:100E300000900024002500BF3120FFF7D9FF0546B0
:100E40000098401C00900098B0F5A04F01D0002DF4
:100E5000F2D03120FFF7CCFF08B1012400E00024DC
:100E6000204638BD01460020C34A106820F0F80033
:100E700040EAC10010607047C34908607047002114
:100E8000BD4A703211701170012802D004280AD1B5
:100E900004E00121B84A7032117005E00521B64A1C
:100EA0007032117000E000BF00BF7047B7490860A2
:100EB000704770B5049C41EA82150126C6EB5306C3
:100EC00045EA0645054345EA0465AB4E361D3560E7
:100ED00070BDAD4908667047820142EA0172A64BB7
:100EE00084331A607047A8498866704710B583013B
:100EF00043EA016343EA02739F4C8834236010BDC8
:100F0000A14908677047A049C8647047024600209D
:100F1000994B0833186820F0EC6042EA010318434B
:100F2000954B08331860704702460020924B0833F7
:100F3000186820F0784042EA010318438E4B0833CA
:100F400018607047014600208B4A0832106820F074
:100F5000030008431060704787480830006800F0BD
:100F60000C00704701460020834A0832106820F0C8
:100F7000F000084310607047014600207E4A0832A6
:100F8000106820F4E05008431060704701460020CC
:100F9000794A0832106820F4604040EAC1001060CD
:100FA0007047F0B50021002200240225002602230C
:100FB000714F08373F6807F00C0121B1042905D0B3
:100FC000082937D105E0724F076036E0714F07609E
:100FD00033E0694F3F1D3F68C7F38056664F3F1DA2
:100FE0003F6807F03F036EB16A4FB7FBF3F7DFF8D6
:100FF00088C10CF1040CDCF800C0CCF3881C07FBA2
:101000000CF40CE0624FB7FBF3F7DFF86CC10CF1A6
:10101000040CDCF800C0CCF3881C07FB0CF4564F22
:101020003F1D3F68C7F301477F1C7D00B4FBF5F708
:10103000076002E0564F076000BF00BF4E4F083701
:101040003F6807F0F0010909534F7A5C0768D74001
:101050004760494F08373F6807F4E051890A4E4F0F
:101060007A5C4768D7408760434F08373F6807F48A
:101070006041490B484F7A5C4768D740C760F0BD74
:10108000002100F44072B2F5407F0AD13A4A08329A
:10109000116821F4F811414A02401143364A0832DE
:1010A0001160354A70321268C0F30B031A43324B99
:1010B00070331A60704735494439086070473349C6
:1010C0004039086070473649086070470146002083
:1010D000294A8C32106820F01F004A1E1043264A0D
:1010E0008C321060704701460020234A8C32106811
:1010F00020F4F8504A1E40EA02201F4A8C32106049
:101100007047014600201C4A8C32106820F44010C1
:1011100008431060704701460020174A8C3210685F
:1011200020F4400008431060704701460020124A36
:101130008C32106820F44030084310607047194921
:101140000860704739B10C4A3032126802430A4BCA
:1011500030331A6006E0084A303212688243064B88
:1011600030331A607047F9B1034A343212680243CF
:10117000014B34331A601CE000380240FFFFF6EAEE
:10118000103000240030002000004742800E47420B
:101190000024F40000127A0014000020FFFCFF0F6E
:1011A0005C014742E0114742854A12688243844B02
:1011B0001A60704739B1824A121D12680243804B8F
:1011C0001B1D1A6006E07E4A121D126882437C4B8A
:1011D0001B1D1A60704739B1794A0C3212680243FC
:1011E000774B0C331A6006E0754A0C321268824362
:1011F000734B0C331A60704739B1714A1032126860
:1012000002436F4B10331A6006E06D4A10321268C9
:1012100082436B4B10331A60704739B1684A243AE5
:1012200012680243664B243B1A6006E0644A243A83
:1012300012688243624B243B1A60704739B1604A9E
:10124000203A126802435E4B203B1A6006E05C4A7B
:10125000203A126882435A4B203B1A60704739B1DA
:10126000574A1C3A12680243554B1C3B1A6006E071
:10127000534A1C3A12688243514B1C3B1A60704718
:1012800039B14F4A143A126802434D4B143B1A606D
:1012900006E04B4A143A12688243494B143B1A60E9
:1012A000704739B1464A103A12680243444B103B2A
:1012B0001A6006E0424A103A12688243404B103BE3
:1012C0001A60704739B13E4A1C32126802433C4BE7
:1012D0001C331A6006E03A4A1C3212688243384BCB
:1012E0001C331A60704739B1354A20321268024304
:1012F000334B20331A6006E0314A203212688243B1
:101300002F4B20331A60704739B12D4A24321268AE
:1013100002432B4B24331A6006E0294A2432126818
:101320008243274B24331A60704739B1244A2C3248
:1013300012680243224B2C331A6006E0204A2C32FA
:10134000126882431E4B2C331A60704739B11C4A15
:101350003032126802431A4B30331A6006E0184AE2
:10136000303212688243164B30331A60704739B1FD
:10137000134A273A12780243114B273B1A7006E0B2
:101380000F4A273A127882430D4B273B1A70704759
:101390000B484030006840F08070094940310860D7
:1013A000704701460020064A283A12680A400AB1EE
:1013B000012000E00020704701492639087070477D
:1013C0003438024010B501218803FFF76AFF00217D
:1013D0004FF48040FFF765FF10BD1C49086070475F
:1013E0001B490862704730B500228B071C0F0F2382
:1013F00003FA04F2154B08338C1053F8243093434E
:10140000124C08348D1044F8253023468C1053F8C4
:1014100024308C07240F00FA04F423430B4C0834C7
:101420008D1044F8253030BD0949DC310860704723
:10143000084908607047002004492031096801F418
:10144000807109B1012000E00020704700380140A0
:101450000000274200042742F0B504460D4604EB85
:10146000850121F007010846AA27061F304637608C
:101470000A27061F304637601527061F304637609B
:101480001427061F304637601327061F3046376083
:101490001227061F304637601127061F3046376077
:1014A0001027061F304637600927061F3046376071
:1014B0000827061F304637600727061F304637606B
:1014C0000627061F304637600527061F304637605F
:1014D0000427061F304637600327061F3046376053
:1014E0000227061F304637600127061F3046376047
:1014F0000027061F304637604FF08077061F3046C2
:101500003760061F304633606FF00107061F304614
:1015100037604FF01237061F304637604FF0033701
:10152000061F304637604FF00237061F30463760DF
:101530007F10061F30463760061F30463260312765
:10154000061F304637603027061F30463760292790
:10155000061F304637602827061F3046376027278A
:10156000061F304637602627061F3046376025277E
:10157000061F304637602427061F30463760232772
:10158000061F304637602227061F30463760212766
:10159000061F304637602027061F30463760192760
:1015A000061F304637601827061F3046376017275A
:1015B000061F304637601627061F304637604FF04B
:1015C0001137061F304637604FF01037061F304680
:1015D00037604FF00937061F304637604FF0083745
:1015E000061F304637604FF00737061F304637601A
:1015F0004FF00637061F304637604FF00537061F9D
:10160000304637604FF00437061F30463760F0BD74
:10161000EFF3108072B6704780F31088704772B68F
:10162000704762B670471F484FF0FF0101700020FD
:1016300080F30988EFF30880C008C00080F30888B1
:1016400019484FF08051016062B6FEE716484FF02E
:1016500080510160704714484FF08051016070471D
:1016600072B6EFF3098060B120ED108B203880E86E
:10167000F00F0E490968086000B500F081FB5DF8C5
:1016800004EB0A480A490A680260106890E8F00F03
:101690002030B0EC108B80F309884EF0040E62B657
:1016A0007047000022ED00E004ED00E03000002073
:1016B0002C000020002400BF0EE0FFF7A9FF044625
:1016C0000648D0E900305A1C40F100000349C1E946
:1016D00000202046FFF7A0FFEFE7000038000020C1
:1016E00042684A6008604268116041607047014684
:1016F0000A2008700020024608E00B1D03EBC20020
:101700000060406000BF501CC0B202460A2AF4DBF1
:1017100070472DE9F04705460E462F46A94696F834
:101720001980D9F8004004E0607D404500DD02E00A
:101730002468BC42F8D100BF311D2046FFF7D0FF1E
:10174000BDE8F08730B5024602EBE10201F0070583
:101750000124AC40E3B214781C43147030BD70B562
:1017600004460E46757E211D51F83500311DFFF7E8
:10177000B7FF294604F15400FFF7E4FF2078A842A0
:1017800000DD257070BD70B504460E46757E211DC6
:1017900001EBC500311DFFF7A3FF294604F15400FA
:1017A000FFF7D0FF2078A84200DD257070BD70B52E
:1017B00005460C46607E90490968497E884204D1FE
:1017C00021462846FFF7DFFF03E021462846FFF7C2
:1017D000C6FF70BDF8B505460F467C7E381D00F08B
:1017E00004F9291D01EBC4000168814201D10121E6
:1017F00000E0002101B9F8BD05F15400014601EBFC
:10180000E40104F0070C012303FA0CF3DAB20B78BD
:1018100093430B7000BF2878A04200D0EBE7C4F1DF
:101820000A02214605F1540000F058FB0646002E3E
:1018300002DBA019287007E00020009000BF9DF88F
:1018400000000028FBD000BF00BFD4E770B50546FC
:101850000C46617E281D00EBC106201D00F0C5F876
:10186000211D3046FFF73CFF70BD10B50278031D07
:1018700053F832100B1F614C236010BD38B504467D
:1018800094F84C00012806D0022805D003280FD078
:10189000052814D10BE000BF201D00F0A6F821465A
:1018A0005748FFF784FF002084F84C000FE000BF8A
:1018B000201D00F09AF8042084F84C0007E0002076
:1018C000009000BF9DF800000028FBD000BF00BFC3
:1018D000204600F092FF002084F84D00206538BDBE
:1018E00010B504462046FFF7C9FF10BD70B5044689
:1018F0000D4625642046FFF7C1FF70BD70B5044654
:101900000E461546266465642046FFF7B7FF70BD96
:10191000F8B506460C4615463DB90020009000BFBC
:101920009DF800000028FBD000BF2665681C18B990
:10193000012084F84C0006E02946204600F04DFFC7
:10194000022084F84C0021462D48FFF743FF307BEE
:10195000012804D1211D3046FFF7C2FE03E02146D5
:101960003046FFF7D6FE0020F8BD38B5044694F89F
:101970004C00012806D0022805D003280FD00528E6
:1019800014D10BE000BF201D00F02FF821461C48A9
:10199000FFF70DFF002084F84C000FE000BF201D72
:1019A00000F023F8042084F84C0007E000200090A9
:1019B00000BF9DF800000028FBD000BF00BF2046FC
:1019C00000F01BFF032084F84D000020206538BD87
:1019D00070B50446256D287B30B9201D00F005F850
:1019E0002146206DFFF795FE70BDD0E90012116011
:1019F000D0E9002151607047300000202C00002009
:101A00006807002010B500244F48007810B94F48EF
:101A1000007800B110BDFFF7FBFD04464C48FFF70E
:101A200024FF4C4800684C490968884203D120468D
:101A3000FFF7F2FDEEE7FFF709FE2046FFF7ECFDAA
:101A400000BFE7E700B585B005204449087040486D
:101A5000FFF74DFE00F0BCFE41480060406000BF53
:101A6000012040494022404BCDE90132CDE903102D
:101A70000020092302463DA100903F4800F084FA6F
:101A8000002005B000BD10B53448007805280CD101
:101A90002F48FFF7EAFE2F4800682F49086004200E
:101AA0002E490870FFF7BFFD01E0042010BD0320A0
:101AB000FCE72DE9F041064600272548001D00EB14
:101AC000C60500BFFFF7A4FD074600BF2846016812
:101AD000814201D1012100E0002131B100BF38462F
:101AE000FFF79AFD00BFBDE8F0812868041F207E43
:101AF000012805D100BF3846FFF78EFD00BFF2E791
:101B000028680068A84205D100BF3846FFF784FD69
:101B100000BFE8E7206910B12069401E20612069FC
:101B200028B100BF3846FFF777FD00BFDBE721464D
:101B30000748FFF78BFE6069206100BF3846FFF75A
:101B40006BFD00BF00BFCEE72B0000202A00002065
:101B5000680700202C000020300000202800002012
:101B60004C000020B51600081408002069646C655C
:101B70005F7461736B000000C007002003460BB95F
:101B800025207047501C08B91520FAE700BF1B60DC
:101B90005B6000BF1A6199600020187358611120C2
:101BA00058730020EDE72DE9F04104460E4600276A
:101BB00000BFFFF72DFD074600BF607B112807D04F
:101BC00000BF3846FFF728FD00BF3620BDE8F08192
:101BD0002546284600F0C6F8C0B12069401C30B93F
:101BE00000BF3846FFF718FD00BF1520EEE720695B
:101BF000401C206100BF3846FFF70EFD00BF606942
:101C000010B12046616988470020DFE756B103E044
:101C10002968081FFFF764FE284600F0A3F8002893
:101C2000F6D003E02968081FFFF75AFE00BF3846C8
:101C3000FFF7F2FC00BFFFF7E5FE0020C6E710B596
:101C400004460CB9252010BD00212046FFF7ABFF4C
:101C5000F9E710B504460CB9252010BD0021204637
:101C6000FFF7A1FFF9E710B504460CB9252010BD18
:101C700001212046FFF797FFF9E770B504460D46AE
:101C800000260CB9252070BD3A48007808B12720FD
:101C9000F9E700BFFFF7BCFC064600BF607B1128D8
:101CA00006D000BF3046FFF7B7FC00BF3620EAE79A
:101CB000656100BF3046FFF7AFFC00BF0020E2E7E0
:101CC0002DE9F04104460D46002614B92520BDE853
:101CD000F0812848007808B12720F8E700BFFFF717
:101CE00097FC064600BF607B112806D000BF304637
:101CF000FFF792FC00BF3620E9E7206948B1206970
:101D0000401E206100BF3046FFF786FC00BF002068
:101D1000DDE735B900BF3046FFF77EFC00BF062087
:101D2000D5E700BF1448007830B100BF3046FFF758
:101D300073FC00BF0720CAE700BF2A460F480168AE
:101D40002046FFF7E5FD00BF3046FFF765FC00BF0A
:101D5000FFF758FE00210948006800F087F80746A1
:101D60003846B4E701460868884201D1012070472F
:101D70000020FCE72B0000202A000020300000207B
:101D800008B50D490968886A016839B100210091D8
:101D900000BF9DF800100029FBD000BF064909686C
:101DA0000968814207D20021009100BF9DF8001010
:101DB0000029FBD000BF08BD3000002010B5002472
:101DC000FFF726FC04466A48007818B92046FFF75A
:101DD00023FC10BD66480078401E6549087008461F
:101DE000007818B12046FFF717FCF2E76148007849
:101DF00018B12046FFF710FCEBE75F48FFF735FD11
:101E00005E4800685E490968884203D12046FFF7B2
:101E100003FCDEE7FFF71FFC2046FFF7FDFB00BFDA
:101E2000D7E710B500F0F4FC55490968487EFFF784
:101E300040FE10BD10B500244D480078642801DB39
:101E4000412010BD00BFFFF7E3FB044600BF484838
:101E50000078401C4649087000BF2046FFF7DCFBB5
:101E600000BF0020EDE747480068704718B50246FC
:101E7000002092F84D3033B1012B09D0022B09D04C
:101E8000032B0BD108E009B1146C0C6000200DE0AD
:101E900008200BE0092009E00A2007E00024009454
:101EA00000BF9DF80040002CFBD000BF00BF18BD54
:101EB00070B5044600252E48007808B1272070BD73
:101EC00000BFFFF7A5FB054600BF2E48046000BF1A
:101ED0002846FFF7A1FB00BF0020F0E7F0B505465C
:101EE0000B4616462C46581104EB800403F01F00E5
:101EF00048B103F01F0C012000FA0CF0401E2768C7
:101F000027EA000200E0226800212BE002B311B9A9
:101F100003F01F00091A90B208B9120C1031D0B2A8
:101F200008B9120A083102F00F0008B91209091D98
:101F300002F0030008B99208891C02F0010000B900
:101F4000491CB14201DA0846F0BD4FF0FF30FBE713
:101F500009B1203103E003F01F00C0F12001201D72
:101F600004460268B142D1DB4FF0FF30ECE70000DD
:101F70002B0000202A000020680700202C000020F1
:101F800030000020400000202DE9FF4F81B00446C2
:101F90008B461D46DDF84890DDE90F680020009073
:101FA0001CB9252005B0BDE8F08F0A2D01DB1320F8
:101FB000F8E70EB92320F5E7119808B92320F1E7D7
:101FC000FA48007808B12720ECE700BFFFF720FBB4
:101FD000009000BF092D0CD1F548007830B100BF4A
:101FE0000098FFF719FB00BF0120DBE70120F04953
:101FF000087000BF0098FFF70FFB00BF54220021BC
:102000002046FEF7A4F90E9810B10E98606101E029
:10201000322060616069206102202076B9F1000FF2
:1020200003D0002084F84C0004E0042084F84C0025
:102030000120E076A66237464FF0000A03E0002058
:1020400001C70AF1010AC245F9D341463046119B46
:10205000039AFFF701FA2060C4F848B06576A576C8
:10206000C4F8248000BFFFF7D3FA009000BFD14826
:1020700004F11C0142684A600860426811604160D6
:1020800000BFB9F1000F03D02146CB48FFF77BFB1F
:10209000CA480078042806D000BF0098FFF7BCFAB1
:1020A00000BF05207EE700BF0098FFF7B5FA00BF2C
:1020B000B9F1000F01D0FFF7A5FC002072E730B5A1
:1020C000024600240AB9252030BD09B92320FBE7C8
:1020D000936A00E0641C20CB002DFBD00C60002034
:1020E000F2E710B50024B148007808B1272010BDF0
:1020F000B3480078FA2801D30F20F8E700BFFFF7B4
:1021000087FA044600BFAE480078401CAC4908700E
:1021100000BF2046FFF780FA00BF0020E7E710B5B8
:102120000024A248007808B1272010BDA4480078F8
:1021300008B90E20F9E700BFFFF76AFA044600BFAE
:102140009F480078401E9E4908700846007830B1CC
:1021500000BF2046FFF760FA00BF0D20E5E700BF93
:102160002046FFF759FA00BFFFF74CFC0020DCE7E0
:1021700070B5044600268D48007808B1272070BD50
:1021800000BFFFF745FA064600BFDCB100BF8C4830
:10219000007830B100BF3046FFF73EFA00BF07209D
:1021A000EDE700BF06208749096881F84C00214609
:1021B0008448006800F011FB824801687E48FFF700
:1021C00009FB04E07F4801687B48FFF73FFB00BF45
:1021D0003046FFF721FA00BFFFF714FC34B10021AD
:1021E00078480068FFF742FE054600E000252846D3
:1021F000C5E72DE9F04705460E46904699466B48DF
:10220000007810B12720BDE8F08742F20F708642B7
:1022100001D93B20F7E7B5F57A7F01D33A20F2E701
:1022200064244FF4FA70B0FBF4F0484460434FF478
:102230007A71B0FBF1F14FF461606843C6EB0612AE
:1022400000EB8200404400FB04171FB13846FFF743
:102250008FFFD8E73C20D6E770B50446002500BFC5
:10226000FFF7D6F9054600BF5648006884420BD1F7
:1022700000BF5348007830B100BF2846FFF7CCF9C3
:1022800000BF072070BD00BF94F84C00082832D270
:10229000DFE800F004141A2320220E210120E0764A
:1022A000042084F84C0021464348FFF793FA29E0C4
:1022B0000120E076072084F84C0023E00120E0763E
:1022C000052084F84C001DE00120E076032084F80E
:1022D0004C0017E000BF00BF00BFE07E401CE0766E
:1022E000E07EFA2806D300BF2846FFF795F900BF25
:1022F0001120C7E706E000BF2846FFF78DF900BFB1
:102300001020BFE700BF00BF2846FFF785F900BFD8
:10231000FFF778FB0020B5E710B504460CB925207F
:1023200010BD607E092801D12E20F9E72046FFF775
:1023300093FFF5E770B50446002500BFFFF768F985
:10234000054600BF94F84C00082846D2DFE800F0AC
:102350000406073C0E24051B00BF00BF00BF00BFE2
:102360002846FFF759F900BF122070BDE07E401EDD
:10237000E076E07E30B9002084F84C0021460E481B
:10238000FFF715FA30E0E07E401EE076E07E10B9FF
:10239000062084F84C0027E0E07E401EE076E07ED8
:1023A00010B9012084F84C001EE000002B00002032
:1023B000290000204C000020680700202800002091
:1023C0002A00002030000020E07E401EE076E07E03
:1023D00010B9022084F84C0006E000BF2846FFF741
:1023E0001BF900BF1020C0E700BF00BF2846FFF761
:1023F00013F900BFFFF706FB0020B6E710B504464F
:102400000CB9252010BD2046FFF794FFFAE770B500
:1024100004460D46002600BF94F84C00082825D23B
:10242000DFE800F0041B1C1E181D17192146E448A4
:10243000FFF7D0F96576E3480068844204D121466D
:10244000DF48FFF78CF903E02146DD48FFF79BF9F1
:102450000EE000BF00BF65760AE000BF00BF00BF0E
:10246000667E65762046FFF7B3FA01E0102070BD66
:1024700000BF0020FBE72DE9F04704460D46164655
:102480004FF00008C14600BFCF48007810B12720A8
:10249000BDE8F0870CB92520FAE70EB92520F7E74B
:1024A000607E092801DB2B20F2E7092D01D12B20CA
:1024B000EEE700BFFFF7ACF8814600BFA576607E6F
:1024C000307029462046FFF7A2FF074607B108E013
:1024D00000BF4846FFF7A0F800BFFFF793FA0020BF
:1024E000D6E700BF4846FFF797F800BF3846CFE76A
:1024F00070B5044600250CB9252070BDB24800789F
:1025000008B12720F9E7607E092801D12D20F4E7E2
:1025100000BFFFF77DF8054600BFAA480068844267
:102520000BD100BFA948007830B100BF2846FFF7A3
:1025300073F800BF0720E0E700BF94F84C000828BC
:102540001DD2DFE800F0040F111209100A0B21461A
:102550009B48FFF73FF919E018E000BF204600F064
:102560004CF913E000BF00BF00BF204600F045F962
:10257000201D00F01DF9082084F84C0006E000BF83
:102580002846FFF749F800BF1020B6E700BF082033
:1025900084F84C0004F11C0000F00AF900BF284642
:1025A000FFF73AF800BFFFF72DFA0020A5E72DE965
:1025B000F04104460D461646002700BFFFF728F8F5
:1025C000074600BF04F10C0040F8265000BF384613
:1025D000FFF722F800BFBDE8F081024602F10C00CF
:1025E00050F82100704770B504460D4600260CB91E
:1025F000252070BD7448007808B12720F9E700BF96
:10260000FFF706F8064600BF0DB1656101E0322014
:1026100060616069206100BF3046FEF7FDFF00BFCA
:102620000020E6E770B505460C4600260DB92520CA
:1026300070BD012C03D0022C01D02620F8E762489F
:10264000007808B12720F3E700BFFEF7E1FF064658
:1026500000BF2C7600BF3046FEF7DEFF00BF002033
:10266000E6E770B504460D4600260CB9252070BD7E
:102670000DB92520FBE75448007808B12720F6E77C
:1026800000BFFEF7C5FF064600BF207E287000BFD2
:102690003046FEF7C1FF00BF0020E8E770B50446F2
:1026A00000250CB9252070BD4748007808B12720C7
:1026B000F9E700BFFEF7ACFF054600BF94F84C00F9
:1026C000082833D2DFE800F0041E1F1D051C0D0E84
:1026D00033E0002084F84C0021463948FFF767F8C2
:1026E0002BE000BF204600F088F821463448FFF771
:1026F0005EF8002084F84C00012084F84D001CE0B6
:1027000000BF00BF00BF204600F077F8201D00F09A
:102710004FF821462A48FFF74AF8002084F84C0079
:10272000012084F84D000020206506E000BF284607
:10273000FEF772FF00BF1020B5E700BF00BF2846BC
:10274000FEF76AFF00BFFFF75DF90020ABE71D4809
:10275000006870472DE9F04704460E4617464FF0D3
:1027600000091948007810B12720BDE8F08700BFA4
:10277000FEF74EFF814600BF25680AE0D5F80080CD
:102780000EB1281FB0471FB12168081FFFF7A8F836
:102790004546A542F2D100BF4846FEF73DFF00BFC7
:1027A000FFF730F90020E0E74FF4E07008307047A1
:1027B000D0E900121160D0E900215160704700009B
:1027C00068070020300000202B0000202A00002095
:1027D00060480060406000BF704770B504460D4619
:1027E00055B15D48006828446063A563594E214691
:1027F000304600F088F8E66370BD70B50446E56BBE
:102800002DB104F12C0000F077F80020E06370BDDA
:102810002DE9F8434FF0000800BFFEF7F9FE8046AF
:1028200000BF4D480068401C4B490860494E356860
:1028300059E0B54256D02F68A5F12C044649606B8B
:10284000096888424DD194F84C00022813D003281F
:1028500023D0062802D0072838D12DE0002084F8A4
:102860004D0084F84C002046FFF7C7FF21463B4847
:10287000FEF79DFF32E02046FFF7BFFF201D00F06E
:102880003BF821463548FEF792FF022084F84D00C0
:10289000002084F84C00206520E02046FFF7ADFFC3
:1028A000201D00F029F8022084F84D00042084F84F
:1028B0004C000020206511E0042084F84C0000202A
:1028C00084F84D002046FFF798FF07E000200090B5
:1028D00000BF9DF800000028FBD000BF00BF3D46B0
:1028E00001E001E000E0A4E700BF00BF4046FEF7C2
:1028F00093FE00BFBDE8F883D0E900121160D0E973
:10290000002151607047F0B502460B461446174649
:102910009E6B38680CE0A0F12C05DFF83CC0696BB9
:10292000DCF800C0A1EB0C01B14200D902E0006864
:10293000A042F0D100BF03F12C01D0F804C0C1F8CF
:1029400004C00860D0F804C0CCF80010416000BF9B
:10295000F0BD000044000020400000206807002077
:10296000704770477047754600F028F8AE4605007E
:102970006946534620F00700854618B020B5FDF79C
:10298000ABFEBDE820404FF000064FF000074FF0CF
:1029900000084FF0000B21F00701AC46ACE8C0097D
:1029A000ACE8C009ACE8C009ACE8C0098D46704786
:1029B0000446AFF300802046FDF72FFC0048704727
:1029C0001409002001491820ABBEFEE726000200D2
:1029D00070474FF04070E1EE100A7047FC29000884
:1029E0000000002054000000C4010008502A000824
:1029F00054000020240F0000E0010008007A030AC0
:102A0000000000000000000001020304060708099E
:102A10000000000001020304010203040607080984
:102A200000000000000000000000000000000000A6
:102A30000000000000000000000000000000000096
:102A40000000000000000000000000000000000086
:040000050800018965
:00000001FF
