:020000040800F2
:10000000B8170020450900089D0300089F03000859
:10001000A3030008A7030008AB03000800000000CA
:10002000000000000000000000000000AF03000816
:10003000B103000800000000991B0008B30300088A
:100040005F0900085F0900085F0900085F090008F0
:100050005F0900085F090008C30300085F09000882
:100060005F0900085F0900085F0900085F090008D0
:100070005F0900085F0900085F0900085F090008C0
:100080005F0900085F0900085F0900085F090008B0
:100090005F0900085F0900085F0900085F090008A0
:1000A0005F0900085F0900085F0900085F09000890
:1000B0005F0900085F0900085F0900085F09000880
:1000C0005F0900085F0900085F0900085F09000870
:1000D0005F090008DD0700085F0900085F090008E4
:1000E0005F0900085F0900085F0900085F09000850
:1000F0005F0900085F0900085F0900085F09000840
:100100005F0900085F0900085F0900085F0900082F
:100110005F0900085F0900085F0900085F0900081F
:100120005F0900085F0900085F0900085F0900080F
:100130005F0900085F0900085F0900085F090008FF
:100140005F0900085F0900085F0900085F090008EF
:100150005F0900085F0900085F0900085F090008DF
:100160005F0900085F0900085F0900085F090008CF
:100170005F0900085F0900085F0900085F090008BF
:100180005F0900085F09000800F002F800F03CF881
:100190000AA090E8000C82448344AAF10107DA45E2
:1001A00001D100F031F8AFF2090EBAE80F0013F0F8
:1001B000010F18BFFB1A43F0010318475C3400001D
:1001C0007C340000103A24BF78C878C1FAD85207AE
:1001D00024BF30C830C144BF04680C6070470000C1
:1001E0000023002400250026103A28BF78C1FBD840
:1001F000520728BF30C148BF0B6070471FB503F0DE
:1002000006F91FBD10B510BD03F0CBF81146FFF77E
:10021000F5FF00F045F803F0E9F803B4FFF7F2FF4B
:1002200003BC03F0EDF8000030B52C4800686422F0
:10023000B0FBF2F1481EB0F1807F00D31BE0481EF6
:100240004FF0E022506150170F22002807DA130701
:100250001D0E234B00F00F04241F1D5503E0130750
:100260001C0E204B1C5400BF00204FF0E022906178
:100270000720106100BF30BD70B50546FFF7D4FF01
:100280004FF4E13000F06EFA00F0F8FA00F0B7F940
:1002900000F0F0F802F0F7FC044602F0C5FB70BD78
:1002A00000B585B000F0DCFBFFF7BEFF01F066FE95
:1002B0000120AFF23B0102020B4BCDE90132CDE947
:1002C000031000200123024608A100900A4802F012
:1002D000F7F801F074FE002005B000BD30000020EA
:1002E00018ED00E000E400E098000020496E697419
:1002F0005F5461736B00000098040020F0B50C4659
:10030000134605462646102B1BD304F00307C7B936
:1003100000F00307AFB92946324608E080CA80C121
:1003200080CA80C180CA80C180CA80C1103B102BA6
:10033000F4D202E080CA80C11B1F042BFAD20D4602
:10034000164603E016F8017B05F8017B1F00A3F1B8
:100350000103F7D1F0BDF0B50C460546042A15D3CC
:1003600000F0030696B9014644EA042343EA034336
:1003700004E008C108C108C108C1103A102AF8D227
:1003800001E008C1121F042AFBD20D4601E005F866
:10039000014B1600A2F10102F9D1F0BD704700BF78
:1003A000FEE700BFFEE700BFFEE700BFFEE77047C5
:1003B000704710B501F0DAFF01F0CFFF01F09AFFAE
:1003C00010BD704710B50D2000F01CFA0A2000F097
:1003D00019FA10BD08B532A64BE00024304600F0F3
:1003E00026FA2AE0684600F0EDF99DF800000D2895
:1003F00003D100202C49085520E09DF80000082872
:1004000010D1002C19DD601EC4B200202649085509
:10041000082000F0F7F9202000F0F4F9082000F09F
:10042000F1F90AE09DF800202046611CCCB21E497B
:100430000A549DF8000000F0E5F9D3E700BFFFF78C
:10044000C1FF19480078A0B14FF48062002117481D
:10045000FFF781FF00BF4FF480621449124802F099
:1004600055FDC5B2114800F0E2F9FFF7ABFF002DD2
:10047000F1D0B2E700B585B00120AFF2A7010202CA
:100480000B4BCDE90132CDE90310002007230246D2
:1004900008A100900A4802F013F805B000BD000062
:1004A0007261772D6F73230040090020400A0020FD
:1004B000EC0400205368656C6C205461736B000081
:1004C000EC080020F0B587B005460F461446002022
:1004D00004900590069003AA0121204602F0A7FD92
:1004E0000646314604A8039AFFF708FF002004A936
:1004F000039A885402A904A800F0F2F803AA022182
:10050000204602F094FD0646314604A8039AFFF700
:10051000F5FE002004A9039A885401A904A800F05C
:10052000DFF80298012802D0022826D111E00198B4
:1005300020B1012806D100F0D4F908E0012000F034
:10054000BBF904E037A1284602F013FE00BF00BF4C
:1005500018E0019810B1012808D103E0022000F052
:10056000ABF908E0022000F0BCF904E02DA1284618
:1005700002F0FFFD00BF00BF04E030A1284602F0FA
:10058000F8FD00BF00BF012007B0F0BD0BE0012067
:1005900000F0BCF9322002F087F8022000F0B6F932
:1005A000322002F081F8F2E770B586B004460D46BD
:1005B00016460120AFF22B014022264BCDE9013235
:1005C000CDE9031000200623024623A10090254810
:1005D00001F076FF012006B070BD70B504460D46EF
:1005E0001646204802F034F9012070BD70B504466B
:1005F0000D4616461B4802F09DF9012070BD10B54E
:1006000019491A4802F054FC19491A4802F050FCE2
:1006100019491A4802F04CFC19491A4802F048FCE2
:1006200010BD0000706172613220697320657272C2
:100630006F722830206F7220312909007061726159
:1006400031206973206572726F7228312C3229094A
:1006500000000000400E00204C45445F5461736B65
:1006600000000000400F00200000002018340008A7
:10067000080000202834000810000020383400084A
:100680001800002048340008F0B503461446002046
:1006900000220DE0B3FBF4F604FB1636184F17F8F2
:1006A00006C00646471CF8B201F806C0B3FBF4F3D7
:1006B000002BEFD100260E5400B90E70002209E085
:1006C0008D5C861A761E8E5D8E54861A761E8D552A
:1006D000561CF2B200EBD077B2EB670FF0DBF0BD47
:1006E00010B5002207E010F8014B02EB820304EB87
:1006F0004303A3F130020378002BF4D10A6010BD4C
:10070000200000201CB50121084600F0D7FD07227B
:100710000921544800F0BFFB07220A21514800F08C
:10072000BAFB4FF4C060009002208DF804008DF8F1
:10073000050069464B4800F023FB1CBD08B54FF48B
:10074000407000F027FA25208DF8000000208DF879
:1007500001008DF8020001208DF80300684600F0CA
:100760001EFA08BD1FB50446FFF7CCFF012110207B
:1007700000F0FEFD00940020ADF80400ADF8060086
:10078000ADF80800ADF80C000C20ADF80A00694681
:10079000354800F03AFF40F22771334801F0A5F8E0
:1007A000012240F22551304801F06DF8FFF7C6FFF5
:1007B00001212D4800F0B1FF00222CA12E4801F0AC
:1007C00079FC1FBD10B504464FF0FF312A4801F0F7
:1007D00013FD254800F0D0FF207010BD10B501F0CA
:1007E000C5FD40F22551204801F088F838B140F2AB
:1007F00025511D4801F0BDF81F4801F0BCFC01F077
:1008000079FD10BD10B5044600BF4021164801F027
:100810005FF80028F9D02146134800F0A9FF00BF77
:100820004021114801F054F80028F9D010BD10B54E
:10083000044600BF40210C4801F04AF80028F9D0D6
:100840000BE014F8011B084800F092FF00BF4021A4
:10085000054801F03DF80028F9D020780028F0D1B3
:1008600010BD0000000002400010014055534152ED
:1008700054315F53454D0000940F00201CB50121F9
:10088000202000F01BFD4FF4C060009001208DF887
:10089000040000208DF8060001208DF807000220DA
:1008A0008DF805006946264800F06AFA4FF4C061E9
:1008B000234800F0E1FA1CBD10B50446012C02D01B
:1008C000022C0CD105E04FF400711D4800F0D4FA61
:1008D00005E04FF480611A4800F0CEFA00BF00BF77
:1008E00010BD10B50446012C02D0022C0CD105E03D
:1008F0004FF40071124800F0C1FA05E04FF4806136
:100900000F4800F0BBFA00BF00BF10BD012802D0A5
:10091000022812D108E00A491431096881F40071F3
:10092000074A1432116008E005491431096881F45E
:100930008061034A1432116000BF00BF704700009D
:10094000001402400948804709480047FEE7FEE7D7
:10095000FEE7FEE7FEE7FEE7FEE7FEE7FEE7FEE76F
:1009600004480549054A064B70470000610A000823
:1009700089010008B8110020B8170020B813002022
:10098000B81300200CB50020019000907648006854
:1009900040F480307449086000BF7348006800F478
:1009A000003000900198401C0190009818B90198FF
:1009B000B0F5A04FF1D16C48006800F4003010B1E0
:1009C0000120009001E0002000900098012846D10D
:1009D00065484030006840F080506349403108600D
:1009E0006248006840F44040604908605E48083052
:1009F00000685D49083108600846006840F400401E
:100A000008600846006840F4A05008605848091F74
:100A10000860081F006840F08070091F086000BF70
:100A20005148006800F000700028F9D040F20560DD
:100A3000504908604C480830006820F003004A49DB
:100A4000083108600846006840F00200086000BFF6
:100A500045480830006800F00C000828F8D10CBDAB
:100A600010B54548006840F47000434908603E48AE
:100A7000006840F001003C49086000203A49083114
:100A80000860394800683D490840374908603C48DB
:100A9000091D0860081F006820F48020091F0860F5
:100AA000002031490C310860FFF76CFF4FF0006007
:100AB00031498039086010BD70B500200022022342
:100AC00000240221284D08352D6805F00C0020B1C6
:100AD000042806D0082834D107E02A4D2A4E356074
:100AE00033E02A4D284E35602FE01F4D2D1D2D6817
:100AF000C5F380541C4D2D1D2D6805F03F0154B1E8
:100B0000224DB5FBF1F5184E361D3668C6F3881632
:100B100005FB06F209E01B4DB5FBF1F5124E361D43
:100B20003668C6F3881605FB06F20F4D2D1D2D689D
:100B3000C5F301456D1C6B00B2FBF3F5124E356039
:100B400003E0104D104E356000BF00BF064D083564
:100B50002D68C5F303150E4E705D0B4D2D68C54015
:100B6000094E356070BD0000003802400070004042
:100B700008544007003C024088ED00E0FFFFF6FE0D
:100B8000103000240024F4003000002000127A000D
:100B90003400002032490143324A1160704770B579
:100BA000002100230F22C4781CB32E4C246804F4C7
:100BB000E064C4F5E064C4F30721C1F10404E3B2C6
:100BC0000A4144789C40E1B28478144021430C07E8
:100BD000210E254C05786155047804F01F05012489
:100BE000AC4005786D11AD0005F1E025C5F8004178
:100BF00009E0047804F01F050124AC401B4D067881
:100C0000761145F8264070BD194A0A400243154B3B
:100C10001B1F1A60704739B1124A121D1268024335
:100C2000104B1B1D1A6006E00E4A121D126882430B
:100C30000C4B1B1D1A607047042808D14FF0E021AF
:100C4000096941F004014FF0E022116107E04FF023
:100C5000E021096921F004014FF0E02211617047A1
:100C60000000FA050CED00E000E400E080E100E0A7
:100C700080FFFF1F10B504469848844208D1012127
:100C8000084600F086FB0021012000F082FB76E0A0
:100C90009348844208D10121022000F07AFB002110
:100CA000022000F076FB6AE08E48844208D10121E0
:100CB000042000F06EFB0021042000F06AFB5EE0DF
:100CC0008948844208D10121082000F062FB0021FC
:100CD000082000F05EFB52E08448844208D10121E4
:100CE000102000F056FB0021102000F052FB46E0DF
:100CF0007F48844208D10121202000F04AFB0021D6
:100D0000202000F046FB3AE07A48844208D10121D5
:100D1000402000F03EFB0021402000F03AFB2EE096
:100D20007548844208D10121802000F032FB002167
:100D3000802000F02EFB22E07048844208D101217F
:100D4000801500F026FB0021A01500F022FB16E024
:100D50006B48844208D10121401500F01AFB0021A4
:100D6000601500F016FB0AE06648844207D10121B5
:100D7000001500F00EFB0021201500F00AFB10BD4D
:100D8000F0B50A4600210023002400BF3DE0012504
:100D900005FA01F3156805EA03049C4234D105689D
:100DA0004F000326BE40B543056015794E00B5409F
:100DB0000668354305601579012D02D01579022D9D
:100DC00016D185684F000326BE40B543856055792E
:100DD0004E00B540866835438560456801268E40E3
:100DE000B5434560456896798E40B6B23543456057
:100DF000C5684F000326BE40B543C560D5794E0097
:100E0000B540C6683543C560491C1029BFD3F0BD45
:100E10004FF6FF7101600021017141718171C17153
:100E2000704708B54FF480320092009A0A4300924E
:100E3000009AC261C161009AC261C2690092C2692E
:100E4000009208BD0246002013690B400BB101203F
:100E500000E0002070470146086980B270470246F2
:100E6000002053690B400BB1012000E000207047C7
:100E70000146486980B270470183704741837047DB
:100E80000AB1018300E041837047416170474269C4
:100E90004A4042617047F0B5002300244D07ED0E33
:100EA00002FA05F3CE1000F1200555F826504E0742
:100EB000F70E0F26BE40B543CF1000F1200646F8CE
:100EC0002750CE1000F1200555F8265045EA0304BE
:100ED000CE1000F1200545F82640F0BD000002408C
:100EE0000004024000080240000C024000100240D2
:100EF0000014024000180240001C02400020024082
:100F00000024024000280240F948006840F0010037
:100F1000F74908600020F64908310860F448006885
:100F2000F4490840F2490860F348091D0860F34895
:100F3000EF4984310860F0481038091D0860EC481A
:100F4000006820F48020EA4908600020E8490C315C
:100F50000860E7498C31086070470021E44A921C20
:100F6000117011460870704710B501460022002329
:100F700000204A11012A02D1DD4C236808E0022A30
:100F800003D1DB4C7034236802E0D94C74342368FD
:100F900001F01F02012494401C400CB1012000E02C
:100FA000002010BD38B5002000900024002500BFAF
:100FB0003120FFF7D9FF05460098401C00900098AB
:100FC000B0F5A04F01D0002DF2D03120FFF7CCFFBB
:100FD00008B1012400E00024204638BD014600206D
:100FE000C34A106820F0F80040EAC1001060704762
:100FF000C349086070470021BD4A703211701170FA
:10100000012802D004280AD104E00121B84A703234
:10101000117005E00521B64A7032117000E000BF82
:1010200000BF7047B7490860704770B5049C41EA3B
:1010300082150126C6EB530645EA0645054345EAF7
:101040000465AB4E361D356070BDAD49086670470E
:10105000820142EA0172A64B84331A607047A849A4
:101060008866704710B5830143EA016343EA02735F
:101070009F4C8834236010BDA14908677047A04980
:10108000C864704702460020994B0833186820F066
:10109000EC6042EA01031843954B0833186070472F
:1010A00002460020924B0833186820F0784042EA4C
:1010B000010318438E4B0833186070470146002027
:1010C0008B4A0832106820F0030008431060704714
:1010D00087480830006800F00C0070470146002087
:1010E000834A0832106820F0F0000843106070470F
:1010F000014600207E4A0832106820F4E050084380
:101100001060704701460020794A0832106820F4C8
:10111000604040EAC10010607047F0B50021002235
:101120000024022500260223714F08373F6807F08C
:101130000C0121B1042905D0082937D105E0724FEF
:10114000076036E0714F076033E0694F3F1D3F682D
:10115000C7F38056664F3F1D3F6807F03F036EB1EF
:101160006A4FB7FBF3F7DFF888C10CF1040CDCF829
:1011700000C0CCF3881C07FB0CF40CE0624FB7FBFB
:10118000F3F7DFF86CC10CF1040CDCF800C0CCF311
:10119000881C07FB0CF4564F3F1D3F68C7F30147FF
:1011A0007F1C7D00B4FBF5F7076002E0564F076037
:1011B00000BF00BF4E4F08373F6807F0F001090934
:1011C000534F7A5C0768D7404760494F08373F68FC
:1011D00007F4E051890A4E4F7A5C4768D740876030
:1011E000434F08373F6807F46041490B484F7A5C2A
:1011F0004768D740C760F0BD002100F44072B2F5E7
:10120000407F0AD13A4A0832116821F4F811414A64
:1012100002401143364A08321160354A7032126872
:10122000C0F30B031A43324B70331A6070473549D1
:10123000443908607047334940390860704736497F
:101240000860704701460020294A8C32106820F05F
:101250001F004A1E1043264A8C3210607047014618
:101260000020234A8C32106820F4F8504A1E40EACD
:1012700002201F4A8C3210607047014600201C4A31
:101280008C32106820F4401008431060704701460B
:101290000020174A8C32106820F440000843106088
:1012A000704701460020124A8C32106820F440300A
:1012B00008431060704719490860704739B10C4AFB
:1012C0003032126802430A4B30331A6006E0084A93
:1012D000303212688243064B30331A607047F9B1DE
:1012E000034A343212680243014B34331A601CE063
:1012F00000380240FFFFF6EA1030002400300020E2
:1013000000004742800E47420024F40000127A0099
:1013100044000020FFFCFF0F5C014742E011474200
:10132000854A12688243844B1A60704739B1824AF9
:10133000121D12680243804B1B1D1A6006E07E4A94
:10134000121D126882437C4B1B1D1A60704739B115
:10135000794A0C3212680243774B0C331A6006E06C
:10136000754A0C3212688243734B0C331A60704713
:1013700039B1714A1032126802436F4B10331A6050
:1013800006E06D4A1032126882436B4B10331A60CC
:10139000704739B1684A243A12680243664B243BCD
:1013A0001A6006E0644A243A12688243624B243B86
:1013B0001A60704739B1604A203A126802435E4BA6
:1013C000203B1A6006E05C4A203A126882435A4B7E
:1013D000203B1A60704739B1574A1C3A12680243E1
:1013E000554B1C3B1A6006E0534A1C3A1268824374
:1013F000514B1C3B1A60704739B14F4A143A12687E
:1014000002434D4B143B1A6006E04B4A143A1268F3
:101410008243494B143B1A60704739B1464A103A2F
:1014200012680243444B103B1A6006E0424A103AED
:1014300012688243404B103B1A60704739B13E4AF4
:101440001C32126802433C4B1C331A6006E03A4AD5
:101450001C3212688243384B1C331A60704739B112
:10146000354A203212680243334B20331A6006E0BB
:10147000314A2032126882432F4B20331A60704762
:1014800039B12D4A2432126802432B4B24331A609F
:1014900006E0294A243212688243274B24331A601B
:1014A000704739B1244A2C3212680243224B2C3344
:1014B0001A6006E0204A2C32126882431E4B2C33FD
:1014C0001A60704739B11C4A3032126802431A4B15
:1014D00030331A6006E0184A303212688243164BE5
:1014E00030331A60704739B1134A273A12780243F1
:1014F000114B273B1A7006E00F4A273A12788243B5
:101500000D4B273B1A7070470B484030006840F085
:101510008070094940310860704701460020064A42
:10152000283A12680A400AB1012000E00020704702
:1015300001492639087070473438024010B5044616
:10154000FA48844208D101211020FFF766FF0021EC
:101550001020FFF762FF57E0F548844209D10121CE
:101560004804FFF749FF00214FF40030FFF744FF24
:101570004AE0F048844209D101218804FFF73CFF8A
:1015800000214FF48020FFF737FF3DE0EA48844216
:1015900009D10121C804FFF72FFF00214FF40020DB
:1015A000FFF72AFF30E0E548844209D10121080510
:1015B000FFF722FF00214FF48010FFF71DFF23E00B
:1015C000DF48844208D101212020FFF726FF0021B7
:1015D0002020FFF722FF17E0DA48844209D10121D9
:1015E0008807FFF709FF00214FF08040FFF704FF55
:1015F0000AE0D548844207D101214005FFF7FCFEEF
:1016000000216005FFF7F8FE10BD2DE9FF470546F4
:101610000E460024A14600BFA046B08900B100BF1D
:101620002C8A24F44054F08804432C82AC8941F283
:101630000C608443B08831890843718908430443AE
:10164000AC81AC8A24F44074B0890443AC8268460F
:10165000FFF763FDB548854202D0B948854202D103
:10166000DDF80C9001E0DDF80890A88900F4004056
:1016700040B109EBC90000EB091031684900B0FB2B
:10168000F1F707E009EBC90000EB091031688900A8
:10169000B0FBF1F76420B7FBF0F0040120096421EE
:1016A00001FB1078A88900F4004040B1322000EB23
:1016B000C800B0FBF1F000F00700044308E032205E
:1016C00000EB08106421B0FBF1F000F00F000443C0
:1016D0002C81BDE8FF874FF4165101600021818005
:1016E000C18001810C21418100218181704710B5A9
:1016F00002460020108A20F470600B884C88234337
:101700008C882343CC8823431843108210BD0021CA
:10171000018041808180C180704721B1828942F47B
:101720000052828104E082894DF6FF731A40828163
:101730007047028B02F47F420283028B0A430283CA
:10174000704721B1828942F40042828103E082899C
:10175000C2F30E028281704721B1828A42F4006294
:10176000828204E0828A4FF2FF731A4082827047BD
:10177000C1F308028280704701468888C0F30800E0
:101780007047028A4FF6F0731A400282028A0A43B7
:101790000282704721B1828942F00202828104E014
:1017A00082894FF6FD731A408281704782894FF219
:1017B000FF731A40828182890A4382817047028ABC
:1017C0004FF6DF731A400282028A0A430282704790
:1017D00021B1028A42F48042028204E0028A4BF67E
:1017E000FF731A4002827047818941F001018181B3
:1017F000704721B1828A42F00802828204E0828A24
:101800004FF6F7731A4082827047028BD2B202837E
:10181000028B42EA01220283704721B1828A42F0A0
:101820002002828204E0828A4FF6DF731A408282AD
:10183000704721B1828A42F01002828204E0828ADB
:101840004FF6EF731A4082827047828A4FF6FB731D
:101850001A408282828A0A438282704721B1828A38
:1018600042F00202828204E0828A4FF6FD731A403F
:10187000828270471AB1838A0B43838202E0838A93
:101880008B4383827047F0B5034600240026002571
:10189000002040F66A17B94200D100BF1846C1F3D4
:1018A000421401F01F06012707FA06F5012C01D1A9
:1018B0000C3004E0022C01D1103000E014301AB1D9
:1018C00007682F43076002E00768AF430760F0BD79
:1018D00002460020B1F5007F00D100BF13880B4005
:1018E0000BB1012000E00020704701F40072B2F556
:1018F000007F00D100BFCA430280704770B5024626
:10190000002400230025002040F66A16B14200D1D1
:1019100000BFC1F3421501F01F03012606FA03F3CD
:10192000012D13D19689334017E0000000100140CB
:101930000044004000480040004C0040005000407F
:101940000014014000780040007C0040022D02D1CC
:10195000168A334001E0968A33400C12012606FABB
:1019600004F41688344013B10CB1012000E00020CB
:1019700070BD10B50022002340F66A14A14200D1C8
:1019800000BF0A1201249440A3B2DC43048010BDBE
:10199000F0B504460D4604EB850121F00701084629
:1019A000AA27061F304637600A27061F30463760D1
:1019B0001527061F304637601427061F304637604C
:1019C0001327061F304637601227061F3046376040
:1019D0001127061F304637601027061F3046376034
:1019E0000927061F304637600827061F3046376034
:1019F0000727061F304637600627061F3046376028
:101A00000527061F304637600427061F304637601B
:101A10000327061F304637600227061F304637600F
:101A20000127061F304637600027061F3046376003
:101A30004FF08077061F30463760061F3046336010
:101A40006FF00107061F304637604FF01237061F50
:101A5000304637604FF00337061F304637604FF08F
:101A60000237061F304637607F10061F304637604A
:101A7000061F304632603127061F30463760302758
:101A8000061F304637602927061F30463760282753
:101A9000061F304637602727061F30463760262747
:101AA000061F304637602527061F3046376024273B
:101AB000061F304637602327061F3046376022272F
:101AC000061F304637602127061F30463760202723
:101AD000061F304637601927061F30463760182723
:101AE000061F304637601727061F30463760162717
:101AF000061F304637604FF01137061F30463760FB
:101B00004FF01037061F304637604FF00937061F79
:101B1000304637604FF00837061F304637604FF0C9
:101B20000737061F304637604FF00637061F30462E
:101B300037604FF00537061F304637604FF00437E7
:101B4000061F30463760F0BDEFF3108072B6704765
:101B500080F31088704772B6704762B670471F48AE
:101B60004FF0FF010170002080F30988EFF3088037
:101B7000C008C00080F3088819484FF08051016008
:101B800062B6FEE716484FF0805101607047144876
:101B90004FF080510160704772B6EFF3098060B179
:101BA00020ED108B203880E8F00F0E49096808609E
:101BB00000B500F081FB5DF804EB0A480A490A68A9
:101BC0000260106890E8F00F2030B0EC108B80F3CA
:101BD00009884EF0040E62B67047000022ED00E066
:101BE00004ED00E0600000205C000020002400BF45
:101BF0000EE0FFF7A9FF04460648D0E900305A1C62
:101C000040F100000349C1E900202046FFF7A0FF92
:101C1000EFE700006800002042684A600860426800
:101C200011604160704701460A200870002002469A
:101C300008E00B1D03EBC2000060406000BF501CB9
:101C4000C0B202460A2AF4DB70472DE9F047054688
:101C50000E462F46A94696F81980D9F8004004E0B0
:101C6000607D404500DD02E02468BC42F8D100BF41
:101C7000311D2046FFF7D0FFBDE8F08730B50246A2
:101C800002EBE10201F007050124AC40E3B2147855
:101C90001C43147030BD70B504460E46757E211D80
:101CA00051F83500311DFFF7B7FF294604F1540004
:101CB000FFF7E4FF2078A84200DD257070BD70B505
:101CC00004460E46757E211D01EBC500311DFFF750
:101CD000A3FF294604F15400FFF7D0FF2078A84263
:101CE00000DD257070BD70B505460C46607E9049DC
:101CF0000968497E884204D121462846FFF7DFFF64
:101D000003E021462846FFF7C6FF70BDF8B505463B
:101D10000F467C7E381D00F004F9291D01EBC4003C
:101D20000168814201D1012100E0002101B9F8BD23
:101D300005F15400014601EBE40104F0070C012316
:101D400003FA0CF3DAB20B7893430B7000BF2878D8
:101D5000A04200D0EBE7C4F10A02214605F154008D
:101D600000F058FB0646002E02DBA019287007E0A1
:101D70000020009000BF9DF800000028FBD000BFAD
:101D800000BFD4E770B505460C46617E281D00EB08
:101D9000C106201D00F0C5F8211D3046FFF73CFFAD
:101DA00070BD10B50278031D53F832100B1F614C43
:101DB000236010BD38B5044694F84C00012806D0C5
:101DC000022805D003280FD0052814D10BE000BF4E
:101DD000201D00F0A6F821465748FFF784FF002099
:101DE00084F84C000FE000BF201D00F09AF804209A
:101DF00084F84C0007E00020009000BF9DF8000030
:101E00000028FBD000BF00BF204600F092FF00205A
:101E100084F84D00206538BD10B504462046FFF714
:101E2000C9FF10BD70B504460D4625642046FFF776
:101E3000C1FF70BD70B504460E4615462664656444
:101E40002046FFF7B7FF70BDF8B506460C461546AD
:101E50003DB90020009000BF9DF800000028FBD095
:101E600000BF2665681C18B9012084F84C0006E004
:101E70002946204600F04DFF022084F84C00214600
:101E80002D48FFF743FF307B012804D1211D304648
:101E9000FFF7C2FE03E021463046FFF7D6FE0020E2
:101EA000F8BD38B5044694F84C00012806D0022845
:101EB00005D003280FD0052814D10BE000BF201D4A
:101EC00000F02FF821461C48FFF70DFF002084F892
:101ED0004C000FE000BF201D00F023F8042084F820
:101EE0004C0007E00020009000BF9DF80000002893
:101EF000FBD000BF00BF204600F01BFF032084F88A
:101F00004D000020206538BD70B50446256D287B46
:101F100030B9201D00F005F82146206DFFF795FE31
:101F200070BDD0E900121160D0E900215160704706
:101F3000600000205C000020AC0F002010B50024E1
:101F40004F48007810B94F48007800B110BDFFF736
:101F5000FBFD04464C48FFF724FF4C4800684C4901
:101F60000968884203D12046FFF7F2FDEEE7FFF74C
:101F700009FE2046FFF7ECFD00BFE7E700B585B09E
:101F80000520444908704048FFF74DFE00F0BCFEB4
:101F900041480060406000BF012040494022404B62
:101FA000CDE90132CDE903100020092302463DA10D
:101FB00000903F4800F084FA002005B000BD10B545
:101FC0003448007805280CD12F48FFF7EAFE2F4847
:101FD00000682F49086004202E490870FFF7BFFDF4
:101FE00001E0042010BD0320FCE72DE9F041064686
:101FF00000272548001D00EBC60500BFFFF7A4FD24
:10200000074600BF28460168814201D1012100E056
:10201000002131B100BF3846FFF79AFD00BFBDE88F
:10202000F0812868041F207E012805D100BF3846B2
:10203000FFF78EFD00BFF2E728680068A84205D1CF
:1020400000BF3846FFF784FD00BFE8E7206910B104
:102050002069401E2061206928B100BF3846FFF783
:1020600077FD00BFDBE721460748FFF78BFE60697D
:10207000206100BF3846FFF76BFD00BF00BFCEE711
:102080005B0000205A000020AC0F00205C00002004
:1020900060000020580000207C000020ED1B00089C
:1020A0005810002069646C655F7461736B000000F8
:1020B0000410002003460BB925207047501C08B9B6
:1020C0001520FAE700BF1B605B6000BF1A619960D2
:1020D000002018735861112058730020EDE72DE996
:1020E000F04104460E46002700BFFFF72DFD0746CE
:1020F00000BF607B112807D000BF3846FFF728FDDE
:1021000000BF3620BDE8F0812546284600F0C6F81D
:10211000C0B12069401C30B900BF3846FFF718FD38
:1021200000BF1520EEE72069401C206100BF384643
:10213000FFF70EFD00BF606910B120466169884756
:102140000020DFE756B103E02968081FFFF764FEAF
:10215000284600F0A3F80028F6D003E02968081FFD
:10216000FFF75AFE00BF3846FFF7F2FC00BFFFF74B
:10217000E5FE0020C6E710B504460CB9252010BDC9
:1021800000212046FFF7ABFFF9E710B504460CB974
:10219000252010BD00212046FFF7A1FFF9E710B56B
:1021A00004460CB9252010BD01212046FFF797FFFA
:1021B000F9E770B504460D4600260CB9252070BD20
:1021C0003A48007808B12720F9E700BFFFF7BCFCC8
:1021D000064600BF607B112806D000BF3046FFF7DF
:1021E000B7FC00BF3620EAE7656100BF3046FFF765
:1021F000AFFC00BF0020E2E72DE9F04104460D46A8
:10220000002614B92520BDE8F0812848007808B1DF
:102210002720F8E700BFFFF797FC064600BF607B6A
:10222000112806D000BF3046FFF792FC00BF3620D1
:10223000E9E7206948B12069401E206100BF3046AF
:10224000FFF786FC00BF0020DDE735B900BF304650
:10225000FFF77EFC00BF0620D5E700BF14480078DA
:1022600030B100BF3046FFF773FC00BF0720CAE75C
:1022700000BF2A460F4801682046FFF7E5FD00BF72
:102280003046FFF765FC00BFFFF758FE0021094804
:10229000006800F087F807463846B4E7014608684A
:1022A000884201D1012070470020FCE75B0000203C
:1022B0005A0000206000002008B50D490968886AAE
:1022C000016839B10021009100BF9DF8001000297C
:1022D000FBD000BF064909680968814207D2002186
:1022E000009100BF9DF800100029FBD000BF08BD81
:1022F0006000002010B50024FFF726FC04466A4861
:10230000007818B92046FFF723FC10BD6648007816
:10231000401E654908700846007818B12046FFF74E
:1023200017FCF2E76148007818B12046FFF710FC6F
:10233000EBE75F48FFF735FD5E4800685E490968D6
:10234000884203D12046FFF703FCDEE7FFF71FFCBE
:102350002046FFF7FDFB00BFD7E710B500F0F4FC07
:1023600055490968487EFFF740FE10BD10B50024AE
:102370004D480078642801DB412010BD00BFFFF705
:10238000E3FB044600BF48480078401C46490870FB
:1023900000BF2046FFF7DCFB00BF0020EDE7474809
:1023A0000068704718B50246002092F84D3033B1EE
:1023B000012B09D0022B09D0032B0BD108E009B166
:1023C000146C0C6000200DE008200BE0092009E0EF
:1023D0000A2007E00024009400BF9DF80040002C74
:1023E000FBD000BF00BF18BD70B5044600252E48C5
:1023F000007808B1272070BD00BFFFF7A5FB054698
:1024000000BF2E48046000BF2846FFF7A1FB00BFB5
:102410000020F0E7F0B505460B4616462C4658114D
:1024200004EB800403F01F0048B103F01F0C0120EF
:1024300000FA0CF0401E276827EA000200E022683C
:1024400000212BE002B311B903F01F00091A90B26A
:1024500008B9120C1031D0B208B9120A083102F0D2
:102460000F0008B91209091D02F0030008B992080B
:10247000891C02F0010000B9491CB14201DA08468A
:10248000F0BD4FF0FF30FBE709B1203103E003F06E
:102490001F00C0F12001201D04460268B142D1DBBB
:1024A0004FF0FF30ECE700005B0000205A000020F6
:1024B000AC0F00205C0000206000002070000020B5
:1024C0002DE9FF4F81B004468B461D46DDF848904C
:1024D000DDE90F68002000901CB9252005B0BDE89B
:1024E000F08F0A2D01DB1320F8E70EB92320F5E762
:1024F000119808B92320F1E7FA48007808B127209D
:10250000ECE700BFFFF720FB009000BF092D0CD1C6
:10251000F548007830B100BF0098FFF719FB00BF05
:102520000120DBE70120F049087000BF0098FFF7A9
:102530000FFB00BF542200212046FDF70CFF0E9830
:1025400010B10E98606101E0322060616069206125
:1025500002202076B9F1000F03D0002084F84C004F
:1025600004E0042084F84C000120E076A66237469F
:102570004FF0000A03E0002001C70AF1010AC2453A
:10258000F9D341463046119B039AFFF701FA2060C8
:10259000C4F848B06576A576C4F8248000BFFFF77C
:1025A000D3FA009000BFD14804F11C0142684A6090
:1025B000086042681160416000BFB9F1000F03D0AC
:1025C0002146CB48FFF77BFBCA480078042806D099
:1025D00000BF0098FFF7BCFA00BF05207EE700BFF0
:1025E0000098FFF7B5FA00BFB9F1000F01D0FFF76F
:1025F000A5FC002072E730B5024600240AB9252068
:1026000030BD09B92320FBE7936A00E0641C20CBAE
:10261000002DFBD00C600020F2E710B50024B1487B
:10262000007808B1272010BDB3480078FA2801D3FC
:102630000F20F8E700BFFFF787FA044600BFAE4857
:102640000078401CAC49087000BF2046FFF780FAB4
:1026500000BF0020E7E710B50024A248007808B1C9
:10266000272010BDA448007808B90E20F9E700BF64
:10267000FFF76AFA044600BF9F480078401E9E4953
:1026800008700846007830B100BF2046FFF760FAB6
:1026900000BF0D20E5E700BF2046FFF759FA00BF55
:1026A000FFF74CFC0020DCE770B5044600268D489F
:1026B000007808B1272070BD00BFFFF745FA064635
:1026C00000BFDCB100BF8C48007830B100BF30469D
:1026D000FFF73EFA00BF0720EDE700BF062087495D
:1026E000096881F84C0021468448006800F011FB1D
:1026F000824801687E48FFF709FB04E07F480168D3
:102700007B48FFF73FFB00BF3046FFF721FA00BFD1
:10271000FFF714FC34B1002178480068FFF742FE4F
:10272000054600E000252846C5E72DE9F0470546A7
:102730000E46904699466B48007810B12720BDE8B8
:10274000F08742F20F70864201D93B20F7E7B5F5DA
:102750007A7F01D33A20F2E764244FF4FA70B0FB99
:10276000F4F0484460434FF47A71B0FBF1F14FF458
:1027700061606843C6EB061200EB8200404400FB38
:1027800004171FB13846FFF78FFFD8E73C20D6E784
:1027900070B50446002500BFFFF7D6F9054600BF17
:1027A0005648006884420BD100BF5348007830B1CE
:1027B00000BF2846FFF7CCF900BF072070BD00BF5F
:1027C00094F84C00082832D2DFE800F004141A23F1
:1027D00020220E210120E076042084F84C002146BE
:1027E0004348FFF793FA29E00120E076072084F8B8
:1027F0004C0023E00120E076052084F84C001DE029
:102800000120E076032084F84C0017E000BF00BFF1
:1028100000BFE07E401CE076E07EFA2806D300BFD1
:102820002846FFF795F900BF1120C7E706E000BF73
:102830002846FFF78DF900BF1020BFE700BF00BF9B
:102840002846FFF785F900BFFFF778FB0020B5E7C2
:1028500010B504460CB9252010BD607E092801D1B1
:102860002E20F9E72046FFF793FFF5E770B5044601
:10287000002500BFFFF768F9054600BF94F84C003B
:10288000082846D2DFE800F00406073C0E24051BAA
:1028900000BF00BF00BF00BF2846FFF759F900BFC7
:1028A000122070BDE07E401EE076E07E30B9002050
:1028B00084F84C0021460E48FFF715FA30E0E07E20
:1028C000401EE076E07E10B9062084F84C0027E038
:1028D000E07E401EE076E07E10B9012084F84C00D6
:1028E0001EE000005B000020590000207C0000205A
:1028F000AC0F0020580000205A000020600000208B
:10290000E07E401EE076E07E10B9022084F84C00A4
:1029100006E000BF2846FFF71BF900BF1020C0E704
:1029200000BF00BF2846FFF713F900BFFFF706FB03
:102930000020B6E710B504460CB9252010BD20468E
:10294000FFF794FFFAE770B504460D46002600BF76
:1029500094F84C00082825D2DFE800F0041B1C1E68
:10296000181D17192146E448FFF7D0F96576E348AA
:102970000068844204D12146DF48FFF78CF903E068
:102980002146DD48FFF79BF90EE000BF00BF6576EA
:102990000AE000BF00BF00BF667E65762046FFF7F5
:1029A000B3FA01E0102070BD00BF0020FBE72DE965
:1029B000F04704460D4616464FF00008C14600BFDA
:1029C000CF48007810B12720BDE8F0870CB925204A
:1029D000FAE70EB92520F7E7607E092801DB2B20F6
:1029E000F2E7092D01D12B20EEE700BFFFF7ACF88D
:1029F000814600BFA576607E307029462046FFF7ED
:102A0000A2FF074607B108E000BF4846FFF7A0F85D
:102A100000BFFFF793FA0020D6E700BF4846FFF754
:102A200097F800BF3846CFE770B5044600250CB9CB
:102A3000252070BDB248007808B12720F9E7607EF4
:102A4000092801D12D20F4E700BFFFF77DF80546E6
:102A500000BFAA48006884420BD100BFA948007893
:102A600030B100BF2846FFF773F800BF0720E0E74A
:102A700000BF94F84C0008281DD2DFE800F0040FD6
:102A8000111209100A0B21469B48FFF73FF919E084
:102A900018E000BF204600F04CF913E000BF00BF73
:102AA00000BF204600F045F9201D00F01DF9082068
:102AB00084F84C0006E000BF2846FFF749F800BF45
:102AC0001020B6E700BF082084F84C0004F11C0079
:102AD00000F00AF900BF2846FFF73AF800BFFFF7F9
:102AE0002DFA0020A5E72DE9F04104460D461646D3
:102AF000002700BFFFF728F8074600BF04F10C00CD
:102B000040F8265000BF3846FFF722F800BFBDE866
:102B1000F081024602F10C0050F82100704770B5B8
:102B200004460D4600260CB9252070BD7448007877
:102B300008B12720F9E700BFFFF706F8064600BFF7
:102B40000DB1656101E0322060616069206100BF04
:102B50003046FEF7FDFF00BF0020E6E770B50546F2
:102B60000C4600260DB9252070BD012C03D0022C87
:102B700001D02620F8E76248007808B12720F3E763
:102B800000BFFEF7E1FF064600BF2C7600BF3046CF
:102B9000FEF7DEFF00BF0020E6E770B504460D46F5
:102BA00000260CB9252070BD0DB92520FBE754483F
:102BB000007808B12720F6E700BFFEF7C5FF0646FC
:102BC00000BF207E287000BF3046FEF7C1FF00BF67
:102BD0000020E8E770B5044600250CB9252070BD3B
:102BE0004748007808B12720F9E700BFFEF7ACFF9F
:102BF000054600BF94F84C00082833D2DFE800F007
:102C0000041E1F1D051C0D0E33E0002084F84C002F
:102C100021463948FFF767F82BE000BF204600F057
:102C200088F821463448FFF75EF8002084F84C000D
:102C3000012084F84D001CE000BF00BF00BF20460B
:102C400000F077F8201D00F04FF821462A48FFF7E2
:102C50004AF8002084F84C00012084F84D00002040
:102C6000206506E000BF2846FEF772FF00BF102077
:102C7000B5E700BF00BF2846FEF76AFF00BFFFF7B9
:102C80005DF90020ABE71D48006870472DE9F0476B
:102C900004460E4617464FF000091948007810B157
:102CA0002720BDE8F08700BFFEF74EFF814600BF3A
:102CB00025680AE0D5F800800EB1281FB0471FB183
:102CC0002168081FFFF7A8F84546A542F2D100BFCA
:102CD0004846FEF73DFF00BFFFF730F90020E0E770
:102CE0004FF4E07008307047D0E900121160D0E96D
:102CF0000021516070470000AC0F002060000020F0
:102D00005B0000205A00002060480060406000BF67
:102D1000704770B504460D4655B15D4800682844BB
:102D20006063A563594E2146304600F088F8E6639B
:102D300070BD70B50446E56B2DB104F12C0000F0B8
:102D400077F80020E06370BD2DE9F8434FF00008EC
:102D500000BFFEF7F9FE804600BF4D480068401CEA
:102D60004B490860494E356859E0B54256D02F6846
:102D7000A5F12C044649606B096888424DD194F84E
:102D80004C00022813D0032823D0062802D007289D
:102D900038D12DE0002084F84D0084F84C00204606
:102DA000FFF7C7FF21463B48FEF79DFF32E0204674
:102DB000FFF7BFFF201D00F03BF821463548FEF726
:102DC00092FF022084F84D00002084F84C0020651A
:102DD00020E02046FFF7ADFF201D00F029F802207B
:102DE00084F84D00042084F84C000020206511E098
:102DF000042084F84C00002084F84D002046FFF7A2
:102E000098FF07E00020009000BF9DF80000002818
:102E1000FBD000BF00BF3D4601E001E000E0A4E7B9
:102E200000BF00BF4046FEF793FE00BFBDE8F88339
:102E3000D0E900121160D0E9002151607047F0B56F
:102E400002460B46144617469E6B38680CE0A0F10C
:102E50002C05DFF83CC0696BDCF800C0A1EB0C016D
:102E6000B14200D902E00068A042F0D100BF03F1F6
:102E70002C01D0F804C0C1F804C00860D0F804C028
:102E8000CCF80010416000BFF0BD000074000020CD
:102E900070000020AC0F00200246114600E0491CE3
:102EA000087810B108782028F9D1881AC0B2704784
:102EB00008B538B90022009200BF9DF80020002A12
:102EC000FBD000BF39B90022009200BF9DF800205E
:102ED000002AFBD000BF086000224A607A4A1268CC
:102EE0005160794A116008BD01460020012209E0C5
:102EF0000B78202B04D122B1431C58B2002200E0F1
:102F00000122491C0B78002BF2D170472DE9F84FB4
:102F100005460E4617464FF000083DB900200090C8
:102F200000BF9DF800000028FBD000BF3EB9002084
:102F3000009000BF9DF800000028FBD000BF3FB903
:102F40000020009000BF9DF800000028FBD000BFCB
:102F50005E48006878BB5E485C49086031E05B48C9
:102F600000680068D0F800904846FFF795FF824659
:102F70002846FFF791FF0446544501DDA34600E0D3
:102F8000D3465A464946284600F023F9A0B94F488F
:102F90000068006890F90C0000280BDB2846FFF75A
:102FA000A3FF4A490968096891F90C10884201D0C9
:102FB0004FF0010809E009E04448006840684349CF
:102FC0000860424800680028C9D100BF3F48006837
:102FD00058B1B8F1010F08D13A463E49304600F0E9
:102FE000BCF80020394908601EE038480068A0B1EC
:102FF0003A4600213046FDF7AEF9344800680068D3
:103000002A4639468368304698478046B8F1010F12
:103010000AD100202D49086006E03A462E49304684
:1030200000F09BF84FF001084046BDE8F88F30B53E
:10303000034600240020002515601FE000E05B1C13
:103040001D7815B11D78202DF9D100E05B1C1D788D
:1030500015B11D78202DF9D01D7875B1641C8C42F6
:103060000CD1184603E015686D1C15605B1C1D78BB
:1030700015B11D78202DF6D102E001E08C42DDDB98
:1030800000BF30BD2DE9F04106460D4617461348F6
:10309000006810B90E4811490860104800680068BF
:1030A0002A464168304600F058F80C4800684068ED
:1030B0000A4908600846006808B9012400E00024B5
:1030C0002046BDE8F08100008C0000209000002028
:1030D000840000203435000890350008940000205A
:1030E00070B588420BD803460C4603E014F8015B28
:1030F00003F8015B1500A2F10102F7D10EE00346CF
:1031000013440C46144405E0651E2C462E785D1EC3
:103110002B462E701500A2F10102F5D170BDF0B55D
:10312000034600201C460D4608E026782F78F61B43
:10313000300000D004E0641C6D1C521E002AF4D83C
:1031400000BFF0BD10B50246104600BF11F8014B9C
:1031500002F8014B002CF9D110BD10B5034605E073
:103160000C781C7004B1491C5B1C521E002AF7D15C
:1031700010BD10B50246104600E0521C1378002B1B
:10318000FBD100BF11F8014B02F8014B002CF9D123
:1031900010BD30B5034618468AB100E05B1C1C78B0
:1031A000002CFBD104E0541E220001D11C7005E06C
:1031B00011F8015B03F8015B002DF4D100BF30BDB5
:1031C00001460A4600E0521C10780028FBD1501A34
:1031D000704730B503460C460FE013F8011B14F896
:1031E000015BA94206D0A94202DA4FF0FF3030BDA0
:1031F0000120FCE701B902E0521E002AEDD100BF18
:103200000020F4E710B502460B460EE012F8011B51
:1032100013F8014BA14206D0A14202DA4FF0FF3071
:1032200010BD0120FCE701B900E0EFE700BF00207E
:10323000F6E72DE9F04103460C464EA700254FF076
:10324000010C00E05B1C18782028FBD018780928B6
:10325000F8D018782B2804D02D2804D14FF0FF3C4B
:1032600000BF5B1C00BF00BF00BF102A11D118783F
:1032700030280ED15B1C1878612805DB18787A2875
:1032800002DC1878203800E01878582800D01DE0BB
:103290005B1CAAB91878302811D15B1C18786128FA
:1032A00005DB18787A2802DC1878203800E01878D6
:1032B000582802D15B1C102202E0082200E00A22FA
:1032C000022A01DB242A00DD0A2200BF1CE03E4660
:1032D000002110E01878612805DB18787A2802DCD4
:1032E0001878203800E0187896F80080404500D122
:1032F00003E0761C491C9142ECDB00BF914200DBED
:1033000006E005FB02155B1C18780028DFD100BF22
:1033100004B1236005FB0CF0BDE8F081F0B5044674
:103320000E463046FFF74CFF07461EE02078317806
:10333000884213D1254600E06D1C2878202802DD44
:1033400028782328F8D1281BB84207D13A463146BD
:103350002046FFF7E4FE08B92046F0BD00BF207804
:1033600018B114F8011B0A29F9D120780028DDD101
:1033700000BFF2E730313233343536373839414225
:10338000434445464748494A4B4C4D4E4F50515295
:10339000535455565758595A00000000704770470B
:1033A0007047754600F028F8AE460500694653465A
:1033B00020F00700854618B020B5FDF7D1FABDE82A
:1033C00020404FF000064FF000074FF000084FF08C
:1033D000000B21F00701AC46ACE8C009ACE8C0091D
:1033E000ACE8C009ACE8C0098D4670470446AFF3AD
:1033F00000802046FCF711FF00487047581100205C
:1034000001491820ABBEFEE72600020070474FF0CE
:103410004070E1EE100A70470C350008683400086F
:10342000C5040008020000001C350008A434000890
:10343000A90500080000000010350008C834000885
:10344000DB0500080000000028350008E83400080B
:10345000ED0500080000000010360008E435000803
:1034600085300008000000006C65643A203C6C6503
:1034700064206E756D6265723E203C6F6E206F72C7
:10348000206F66663E206C6564206E756D626572A5
:1034900028312C32292C6F6E2831292C6F66662832
:1034A00030292E006C65645F77617465723A204341
:1034B0007265617465206C65642077617465722043
:1034C0007461736B2E0000006C65645F73746F70C1
:1034D0003A2073746F70206C656420776174657234
:1034E000207461736B2E00006C65645F737461728D
:1034F000743A207374617274206C6564207761740F
:103500006572207461736B2E000000006C656400AE
:103510006C65645F73746F70000000006C65645FBD
:1035200077617465720000006C65645F737461722A
:10353000740000000D496E636F72726563742063DE
:103540006F6D6D616E6420706172616D657465721E
:103550002873292E2020456E746572202268656CC0
:10356000702220746F20766965772061206C697302
:1035700074206F6620617661696C61626C6520639E
:103580006F6D6D616E64732E0D0A0D0A00000000F0
:103590000D436F6D6D616E64206E6F742072656394
:1035A0006F676E697365642E2020456E74657220A6
:1035B0002268656C702220746F20766965772061BF
:1035C000206C697374206F6620617661696C61623A
:1035D0006C6520636F6D6D616E64732E0D0A0D0A4C
:1035E0000000000068656C703A204C6973747320A9
:1035F000616C6C20746865207265676973746572AC
:10360000656420636F6D6D616E64730D0A00000068
:1036100068656C700000000038360008000000206B
:1036200098000000C4010008D0360008980000206F
:1036300020170000E001000800000000000000006A
:10364000000000000000000000000000000000007A
:1036500000000000000000003031323334353637CE
:103660003839414243444546007A030A00000000CD
:103670000000000001020304060708090000000022
:103680000102030401020304060708090000000008
:10369000000000000000000000000000000000002A
:1036A000000000000000000000000000000000001A
:1036B0000000000000000000000000005834000876
:1036C0000000000084000020000000000000000056
:040000050800018965
:00000001FF
